:100000000C94030E0C94300E0C94300E0C94300EA5
:100010000C94300E0C94300E0C94300E0C94300E68
:100020000C94300E0C94300E0C94300E0C94300E58
:100030000C94300E0C94FACE0C94300E0C94300EBE
:100040000C94300E0C944F7A0C94300E0C94300EAD
:100050000C94300E0C94300E0C94E6820C9492CAE0
:100060000C94300E0C9422500C94300E0C94300EE4
:100070000C94300E0C94300E0C94300E0C94300E08
:100080000C94300E0C94300E0C94300E0C94300EF8
:100090000C94300E0C94300E0C94300E0C9401C75E
:1000A0000C94300E0C94300E0C94300E0C94300ED8
:1000B0000C94300E0C94300E0C94300E0C94300EC8
:1000C0000C94300E0C94300E0C94300E0C94300EB8
:1000D0000C94300E0C94300E0C94300E0C94300EA8
:1000E0000C94300E084AD73B3BCE016E84BCBFFD5A
:1000F000C12F3D6C74319ABD56833DDA3D00C77FF8
:1001000011BED9E4BB4C3E916BAAAABE0000008090
:100110003F05A84CCDB2D44EB93836A9020C50B91F
:10012000918688083CA6AAAA2ABE000000803F4DFE
:10013000383420582059205A2045006563686F3AAA
:100140000043616E6E6F7420656E74657220737506
:10015000626469723A20004D3234004D32332025FA
:1001600073006175746F25692E67004572726F7236
:100170003A006572726F722077726974696E6720D7
:10018000746F2066696C65004E6F74205344207054
:1001900072696E74696E67002F0053442070726933
:1001A0006E74696E67206279746520002E00446564
:1001B0006C6574696F6E206661696C65642C20469D
:1001C000696C653A200046696C652064656C6574ED
:1001D00065643A002E006F70656E206661696C651B
:1001E000642C2046696C653A200057726974696E08
:1001F0006720746F2066696C653A20002E006F706E
:10020000656E206661696C65642C2046696C653A90
:1002100020002E006F70656E206661696C65642C2D
:100220002046696C653A200046696C652073656CF0
:100230006563746564002053697A653A20004669F5
:100240006C65206F70656E65643A20002E006F70DB
:10025000656E206661696C65642C2046696C653A40
:1002600020004E6F772066726573682066696C6542
:100270003A20004E6F7720646F696E672066696C64
:10028000653A20002220706F730022207061726531
:100290006E743A2200535542524F5554494E4520F0
:1002A00043414C4C207461726765743A2200747249
:1002B00079696E6720746F2063616C6C207375625E
:1002C0002D67636F64652066696C65732077697458
:1002D0006820746F6F206D616E79206C6576656C37
:1002E000732E204D4158206C6576656C2069733AF9
:1002F0000053442063617264206F6B006F70656E01
:10030000526F6F74206661696C656400766F6C75FE
:100310006D652E696E6974206661696C6564005351
:100320004420696E6974206661696C006563686F5A
:100330003A0048617264636F646564204465666175
:10034000756C742053657474696E6773204C6F61AB
:100350006465640053746F726564207365747469B6
:100360006E677320726574726965766564002044F7
:10037000002049002020204D3330312050005049CA
:10038000442073657474696E67733A00205A0020C4
:10039000590020204D323036205800486F6D6520BE
:1003A0006F666673657420286D6D293A00204500DC
:1003B000205A0020580020420020540020204D32B6
:1003C0003035205300416476616E63656420766148
:1003D000726961626C65733A20533D4D696E2066A7
:1003E0006565647261746520286D6D2F73292C20FA
:1003F000543D4D696E2074726176656C206665654A
:10040000647261746520286D6D2F73292C20423D24
:100410006D696E696D756D207365676D656E7420AD
:1004200074696D6520286D73292C20583D6D6178A5
:10043000696D756D205859206A65726B20286D6D45
:100440002F73292C20205A3D6D6178696D756D20C0
:100450005A206A65726B20286D6D2F73292C20201D
:10046000453D6D6178696D756D2045206A65726BDB
:1004700020286D6D2F73290020540020204D32302C
:1004800034205300416363656C65726174696F6EFB
:100490003A20533D616363656C65726174696F6E88
:1004A0002C20543D726574726163742061636365CE
:1004B0006C65726174696F6E00204500205A0020DF
:1004C000590020204D3230312058004D6178696D3F
:1004D000756D20416363656C65726174696F6E2030
:1004E000286D6D2F7332293A00204500205A0020D4
:1004F000590020204D3230332058004D6178696D0D
:10050000756D2066656564726174657320286D6D14
:100510002F73293A00204500205A0020590020203E
:100520004D39322058005374657073207065722005
:10053000756E69743A0053657474696E67732053FD
:10054000746F726564006563686F3A004572726F1C
:10055000723A0053544F505045442E200050726957
:100560006E7465722073746F707065642064756555
:1005700020746F206572726F72732E204669782026
:10058000746865206572726F7220616E6420757385
:1005900065204D39393920746F207265737461722A
:1005A000742E202854656D706572617475726520B3
:1005B00069732072657365742E20536574206974A5
:1005C0002061667465722072657374617274696EFD
:1005D0006729004B494C4C45442E20005072696EEF
:1005E0007465722068616C7465642E206B696C6C34
:1005F00028292063616C6C656421006F6B00526573
:1006000073656E643A20002200556E6B6E6F776ED4
:1006100020636F6D6D616E643A2022004368616EE5
:1006200067652066696C616D656E74005A204F665F
:1006300066736574203A20007A5F6D61783A200015
:100640007A5F6D696E3A20005A204F666673657452
:10065000005A204F6666736574206F6B007A5F6D79
:1006600061783A20007A5F6D696E3A2000795F6D9B
:1006700061783A2000795F6D696E3A2000785F6D8D
:1006800061783A2000785F6D696E3A2000205A3A0E
:100690000020593A0020436F756E7420583A2000AC
:1006A00020453A00205A3A0020593A00583A00466C
:1006B00049524D574152455F4E414D453A4D617249
:1006C0006C696E2056313B20537072696E7465728E
:1006D0002F6772626C206D617368757020666F722F
:1006E0002067656E36204649524D574152455F5549
:1006F000524C3A687474703A2F2F6669726D776144
:1007000072652E756C74696D616B65722E636F6DA9
:100710002050524F544F434F4C5F56455253494F10
:100720004E3A312E30204D414348494E455F545991
:1007300050453A556C74696D616B6572204558542B
:1007400052554445525F434F554E543A312055550A
:1007500049443A30303030303030302D3030303065
:100760002D303030302D303030302D303030303092
:10077000303030303030300A00556C74696D616B48
:100780006572204F66662E00556C74696D616B65ED
:10079000722072656164792E0042656420646F6E18
:1007A000652E0020423A0020453A00543A00426546
:1007B000642048656174696E672E004865617469DC
:1007C0006E6720646F6E652E0020573A0020453A10
:1007D00000543A0048656174696E672E2E2E002021
:1007E00042403A0020403A00202F003A00205400B6
:1007F000202F0020423A00202F006F6B20543A0037
:100800002569206D696E2C2025692073656300457C
:100810006E642066696C65206C697374004265675C
:10082000696E2066696C65206C697374004E6F2078
:100830006D6F76652E00526573756D696E672070F9
:1008400072696E74005761697420666F72207573E7
:1008500065722E2E2E00536C6565702E2E2E00FFB5
:10086000FFFF00004D4300004D430080094500009C
:100870000000000000000000000000000000000078
:1008800000000000000000004D4300004D430080C8
:1008900009450000A0400000A0400000004025697C
:1008A00020686F757273202569206D696E75746597
:1008B0007300446F6E65207072696E74696E672094
:1008C00066696C650053544F505045442E200050CB
:1008D00072696E7465722073746F707065642064E1
:1008E000756520746F206572726F72732E20466971
:1008F0007820746865206572726F7220616E642062
:10090000757365204D39393920746F2072657374A1
:100910006172742E202854656D70657261747572F1
:10092000652069732072657365742E205365742089
:100930006974206166746572207265737461727483
:10094000696E6729006F6B004E6F204C696E6520E1
:100950004E756D626572207769746820636865639F
:100960006B73756D2C204C617374204C696E653A05
:1009700020004E6F20436865636B73756D20776947
:100980007468206C696E65206E756D6265722C20CE
:100990004C617374204C696E653A2000636865632E
:1009A0006B73756D206D69736D617463682C204C79
:1009B000617374204C696E653A20004C696E652045
:1009C0004E756D626572206973206E6F74204C6184
:1009D0007374204C696E65204E756D6265722B31A3
:1009E0002C204C617374204C696E653A20004D31A7
:1009F000313000446F6E6520736176696E672066E2
:100A0000696C652E006F6B004D3239002020506CF0
:100A1000616E6E6572427566666572427974657361
:100A20003A20002046726565204D656D6F72793AF7
:100A300020004A756C203233203230313400436F4D
:100A40006D70696C65643A2000284A6F7269732979
:100A500000207C20417574686F723A20004A756CE2
:100A600020323320323031342032333A31303A338D
:100A70003100204C61737420557064617465643A70
:100A80002000312E302E30004D61726C696E0020D6
:100A9000536F6674776172652052657365740020C8
:100AA0005761746368646F672052657365740020D2
:100AB00042726F776E206F75742052657365740093
:100AC0002045787465726E616C20526573657400A0
:100AD000506F7765725570007374617274002200F4
:100AE000656E717565696E672022002200656E7102
:100AF0007565696E672022006563686F3A0020742F
:100B00006F6F206C6F6E6720657874727573696F94
:100B10006E2070726576656E7465640020636F6C1C
:100B20006420657874727573696F6E207072657673
:100B3000656E746564007C3C3E5E2B3D3F2F5B5DC3
:100B40003B2C2A225C0045303A20005A3A200059BA
:100B50003A2000583A20004D53312C4D533220504A
:100B6000696E730A0024F404D9201BC40C5C0E982F
:100B700004C4095F0265077101F405F900FB04B3C1
:100B80000048048700C1036900580355000303456A
:100B900000BE023A008402310053022A00290225D5
:100BA0000004022000E4011C00C8011900AF011775
:100BB00000980114008401130071011000610110FC
:100BC0000051010E0043010D0036010B002B010BFB
:100BD0000020010B00150109000C010900030108A8
:100BE00000FB000800F3000800EB000700E400062B
:100BF00000DE000600D8000600D2000600CC00058A
:100C000000C7000500C2000500BD000400B90004D3
:100C100000B5000400B1000400AD000400A9000408
:100C200000A5000300A20003009F0004009B000336
:100C30000098000300950002009300030090000359
:100C4000008D0002008B0003008800020086000275
:100C50000084000300810002007F0002007D00028A
:100C6000007B00020079000200770001007600029C
:100C7000007400020072000100710002006F0002A7
:100C8000006D0001006C0002006A000100690002B2
:100C900000670001006600010065000100640002B9
:100CA000006200010061000100600001005F0002BD
:100CB000005D0001005C0001005B0001005A0001C2
:100CC00000590001005800010057000100560001C2
:100CD00000550001005400010053000000530001C2
:100CE000005200010051000100500001004F0001BE
:100CF000004E0000004E0001004D0001004C0001BC
:100D0000004B0000004B0001004A000100490001B7
:100D100000480000004800010047000100460000B4
:100D200000460001004500000045000100440001AC
:100D300000430000004300010042000000420001A7
:100D4000004100000041000100400001003F0000A0
:100D5000003F0001003E0000003E0001003D000099
:100D6000003D0001003C0000003C0000003C000190
:100D7000003B0000003B0001003A0000003A000187
:100D80000039000000390001003800000038000080
:100D90000038000100370000003700010036000075
:100DA000003600000036000100350000003500006C
:100DB0000035000100340000003400000034000160
:100DC0000033000000330000003300010032000057
:100DD000003200000032000100310000003100004C
:100DE0000031000100300000003000000030000140
:100DF000002F0000002F0000002F0000002F000136
:100E0000002E0000002E0000002E0001002D00002A
:100E1000002D0000002D0000002D0001002C00001E
:100E2000002C0000002C0000002C0001002B000012
:100E3000002B0000002B0000002B0001002A000006
:100E4000002A0000002A0000002A000100290000FA
:100E500000290000002900000029000000290001ED
:100E600000280000002800000028000000280000E2
:100E700000280001002700000027000000270000D4
:100E800000270000002700010026000000260000C7
:100E900000260000002600000026000100250000BA
:100EA00000250000002500000025000000250000AE
:100EB00000250001002400000024000000240000A0
:100EC0000024000000240001002300000023000093
:100ED0000023000000230000002300000023000086
:100EE0000023000100220000002200000022000078
:100EF000002200000022000000220001002100006A
:100F0000002100000021000000210000002100005D
:100F1000002100000021000100200000002000004E
:100F20000020000000200000002000000020000041
:100F30000020000000200001001F0000001F000032
:100F4000001F0000001F0000001F0000001F000025
:100F5000001F0001001E0000001E0000001E000017
:100F6000001E00000024F4D43050C38E20C2A240E2
:100F700017828B7011127A910D816CD90AA861E1E8
:100F800008C7586607615143061E4B5D05C145A75A
:100F9000041A411104093D9803713931034036DBCD
:100FA0000265339102D4305402802E1D02632CEE70
:100FB00001752AC501B028A001102781018F256481
:100FC000012B244B01E0223401AC211F018D200DA7
:100FD00001801FFC00841EED00971DDF00B81CD2AD
:100FE00000E61BC600201BBC00641AB200B219A8A0
:100FF000000A19A0006A189900D117910040178BB8
:1010000000B516840031167E00B31579003A1573C9
:1010100000C7146F0058146A00EE1366008813634B
:101020000025135E00C7125B006C125700151254A6
:1010300000C111510070114F0021114B00D6104911
:10104000008D1047004610440002104200C00F40BF
:1010500000800F3E00420F3C00060F3B00CB0E38D5
:1010600000930E37005C0E3500270E3400F30D326E
:1010700000C10D3100900D3000600D2E00320D2D9D
:1010800000050D2C00D90C2B00AE0C2900850C2975
:10109000005C0C2700350C27000E0C2600E80B2402
:1010A00000C40B2400A00B23007D0B23005A0B214E
:1010B00000390B2100180B2000F80A1F00D90A1E66
:1010C00000BB0A1E009D0A1D00800A1D00630A1C49
:1010D00000470A1B002C0A1B00110A1A00F7091A04
:1010E00000DD091900C4091900AB0919009209179C
:1010F000007B091800630917004C09160036091611
:1011000000200916000A091500F5081500E008146A
:1011100000CC081400B8081400A4081400900813A8
:10112000007D0812006B08130058081200460812D0
:1011300000340811002308110012081100010811E1
:1011400000F0071000E0071000D0071000C00710E3
:1011500000B0070F00A107100091070E0083070FD2
:101160000074070F0065070E0057070E0049070EB1
:10117000003B070D002E070E0020070D0013070D82
:101180000006070D00F9060C00ED060D00E0060C48
:1011900000D4060C00C8060C00BC060C00B0060CFF
:1011A00000A4060B0099060C008D060B0082060BAE
:1011B0000077060B006C060B0061060A0057060B51
:1011C000004C060A0042060A0038060A002E060AEB
:1011D0000024060A001A060A001006090007060A7B
:1011E00000FD050900F4050900EB050900E2050909
:1011F00000D9050900D0050900C7050900BE050989
:1012000000B5050800AD050800A50509009C050806
:1012100000940508008C050800840508007C05087A
:1012200000740508006C050700650508005D0507EA
:1012300000560508004E0507004705070040050851
:101240000038050700310507002A050700230507B8
:10125000001C050600160507000F05070008050617
:101260000002050700FB040600F5040700EE040673
:1012700000E8040600E2040700DB040600D50406CB
:1012800000CF040600C9040600C3040600BD04061E
:1012900000B7040600B1040500AC040600A604066D
:1012A00000A00405009B04060095040500900406B8
:1012B000008A04050085040500800406007A040500
:1012C0000075040500700405006B04050066040544
:1012D00000610405005C0405005704050052040584
:1012E000004D04050048040500430405003E0404C5
:1012F000003A04050035040500300404002C040500
:101300000027040400230405001E0404001A04043A
:101310000016040500110404000D0404000904056E
:10132000000404040000040400FC030400F80304A7
:1013300000F4030400F0030400EC030400E80304D9
:1013400000E4030400E0030400DC030400D8030409
:1013500000D4030400D0030400CC030400C803033A
:1013600000C50303006563686F3A00656E647374BB
:101370006F7073206869743A205A00205A3A0065E9
:101380006E6473746F7073206869743A205900201A
:10139000593A00656E6473746F7073206869743AAB
:1013A00020580020583A00656E6473746F70732083
:1013B0006869743A20004572726F723A0045727221
:1013C0003A204D415854454D502042454400546503
:1013D0006D706572617475726520686561746564AD
:1013E00020626564207377697463686564206F6642
:1013F000662E204D415854454D50207472696767E0
:1014000065726564202121004572723A204D494E73
:1014100054454D50003A20457874727564657220C9
:101420007377697463686564206F66662E204D4922
:101430004E54454D5020747269676765726564202B
:1014400021004572723A204D415854454D50003AA2
:101450002045787472756465722073776974636867
:101460006564206F66662E204D415854454D5020CE
:10147000747269676765726564202100202D2049B8
:101480006E76616C6964206578747275646572202B
:101490006E756D6265722021006563686F3A004861
:1014A000656174696E67206661696C6564005049A6
:1014B00044204175746F74756E652066696E69733A
:1014C000686564212050757420746865206C6173B0
:1014D00074204B702C204B6920616E64204B64207B
:1014E000636F6E7374616E74732066726F6D2061CA
:1014F000626F766520696E746F20436F6E666967F0
:1015000075726174696F6E2E680050494420417590
:10151000746F74756E65206661696C6564212074F2
:10152000696D656F75740020403A006F6B20543A06
:10153000006F6B20423A00504944204175746F742B
:10154000756E65206661696C6564212054656D70F7
:101550006572617475726520746F6F206869676861
:1015600000204B643A2000204B693A2000204B7049
:101570003A200020436C6173736963205049442012
:10158000002054753A2000204B753A2000206D61F0
:10159000783A2000206D696E3A200020643A2000DD
:1015A00020626961733A20002D2D3A2D2D002D2DDA
:1015B0002D005344002059000120004E6F20534459
:1015C0002063617264005072696E742066726F6D80
:1015D0002053440053746F70207072696E7400520F
:1015E0006573756D65207072696E740050617573F6
:1015F00065207072696E7400436F6E74726F6C0058
:10160000507265706172650054756E6500496E6652
:101610006F2073637265656E00052E2E004D616943
:101620006E004D3234004D3233202573004D383476
:1016300020582059205A2045004669726D77617202
:10164000652076657273696F6E00526573746F7290
:1016500065206661696C73616665004C6F6164202A
:101660006D656D6F72790053746F7265206D656D75
:101670006F7279004D6F74696F6E0054656D70659F
:10168000726174757265004D61696E004A756C20F7
:10169000323320323031342032333A31303A33343D
:1016A0000047697468756220636865636B6F757461
:1016B00000556C74696D616B65723A2031332E315F
:1016C00032004669726D7761726520766572736962
:1016D0006F6E004573746570732F6D6D0045737484
:1016E0006570732F6D6D005A73746570732F6D6D17
:1016F000005A73746570732F6D6D00597374657043
:10170000732F6D6D005973746570732F6D6D005874
:1017100073746570732F6D6D005873746570732FDB
:101720006D6D00412D7265747261637400412D729C
:1017300065747261637400416D6178206500416D6C
:101740006178206500416D6178207A00416D617893
:10175000207A00416D6178207900416D61782079AF
:1017600000416D6178207800416D617820780056E5
:1017700054726176206D696E005654726176206DE8
:10178000696E00566D696E00566D696E00566D612A
:1017900078206500566D6178206500566D6178206F
:1017A0007A00566D6178207A00566D617820790054
:1017B000566D6178207900566D6178207800566DFD
:1017C000617820780056652D6A65726B0056652D2C
:1017D0006A65726B00567A2D6A65726B00567A2DB7
:1017E0006A65726B005678792D6A65726B0056785F
:1017F000792D6A65726B00416363656C00416363B8
:10180000656C00436F6E74726F6C00507265686532
:1018100061742041425320636F6E660050726568A8
:1018200065617420504C4120636F6E6600504944DE
:101830002D43005049442D43005049442D4400504D
:1018400049442D44005049442D49005049442D49F4
:10185000005049442D50005049442D500046616EBF
:101860002073706565640046616E20737065656401
:10187000004E6F7A7A6C65004E6F7A7A6C65004321
:101880006F6E74726F6C0053746F7265206D656D4E
:101890006F7279004E6F7A7A6C65004E6F7A7A6C4F
:1018A000650046616E2073706565640046616E2058
:1018B00073706565640054656D70657261747572EE
:1018C000650053746F7265206D656D6F7279004E9F
:1018D0006F7A7A6C65004E6F7A7A6C650046616E3D
:1018E0002073706565640046616E20737065656481
:1018F0000054656D7065726174757265004D6F7628
:10190000652061786973004D3830005377697463DE
:101910006820706F776572206F6E004D383100530C
:10192000776974636820706F776572206F666600F0
:10193000436F6F6C646F776E005072656865617499
:1019400020414253005072656865617420504C41DB
:1019500000473238004175746F20686F6D65004D27
:1019600038340044697361626C652073746570700B
:10197000657273004D61696E004D6F766520302E83
:10198000316D6D004D6F766520316D6D004D6F7658
:10199000652031306D6D0050726570617265004573
:1019A00078747275646572004D6F7665205A004DCB
:1019B0006F76652059004D6F76652058004D6F7623
:1019C000652061786973004578747275646572008A
:1019D0005A00590058004D363030004368616E6738
:1019E000652066696C616D656E7400426162797331
:1019F000746570205A004261627973746570205971
:101A0000004261627973746570205800466C6F778C
:101A1000203000466C6F77203000466C6F770046B0
:101A20006C6F770046616E20737065656400466177
:101A30006E207370656564004E6F7A7A6C65004E37
:101A40006F7A7A6C650053706565640053706565E4
:101A500064004D61696E00426162797374657070F3
:101A6000696E67205A0042616279737465707069AB
:101A70006E67205900426162797374657070696E97
:101A800067205800436172642072656D6F766564EB
:101A9000004361726420696E73657274656400004E
:101AA000002100240027002A002D0030003300010F
:101AB000010000040107010A01000022002500289E
:101AC000002B002E00310034000201000005010847
:101AD000010B01000020002300260029002C002F0C
:101AE000003200000100000301060109010505059F
:101AF00005070508080808020202020A0A08080485
:101B000004040401010101010101010303030303B2
:101B1000030303040707070C0C0C0C0C0C0C0C0241
:101B200002020206060606060606060B0B0B0B0B48
:101B30000B0B0B0102102020080810204010204041
:101B40008002010201080402010102040810204081
:101B5000808040201008040201800402018040209F
:101B600010080402010804020101020408102040C8
:101B70008001020408102040800000090A02080BBE
:101B80000C0D070603040100000000000000000027
:101B90000000000000000000000000000000000045
:101BA0000000000000100F0E000000000000000008
:101BB0000000000000000000000000000000000223
:101BC000494E46494E4954594E414ECDCCCC3D0A22
:101BD000D7233C17B7D13877CC2B329595E6241F05
:101BE000B14F0A000020410000C84200401C4620BE
:101BF000BCBE4CCA1B0E5AAEC59D7400A72AB65077
:101C000019C200C7A02A11241FBECFEFD1E2DEBF48
:101C1000CDBF00E00CBF14E0A0E0B2E0E0E8FFEAD6
:101C200001E00BBF02C007900D92A43AB107D9F7AB
:101C30001BBE12E1A4EAB4E001C01D92A43BB107AF
:101C4000E1F71BE1C4E0DCE104C02297FE010E9441
:101C500065D7CC3FD107C9F70E9486CD0C94B3D786
:101C60000C940000A0E0B0E0E8E3FEE00C9482D722
:101C7000EC015B016115710519F0FB019183808313
:101C8000F9908F2D90E00E9469D7892BC9F7FDE26A
:101C9000FF1621F4F990EE24E39405C02BE2F2162E
:101CA00009F4F990EE248E0101501040C80160EC57
:101CB0007BE143E050E00E94C810892B01F58E01C2
:101CC0000E5F1F4FC80163EC7BE145E050E00E94CE
:101CD000C810892B19F48E01095F1F4FA114B1049C
:101CE00019F0F50111830083E0FC04C070E090E07E
:101CF00080E814C070E090E080E86FEF08C1C80190
:101D000068EC7BE143E050E00E94C810892B69F445
:101D1000A114B10429F470E090E080EC6FE7F7C003
:101D20002296F501D183C083F6CF8824992440E020
:101D300050E060E070E0EF2DE053EA30A0F5F2E013
:101D4000EF2A8E2D90E09C0128703070E2FE06C0D4
:101D5000232B79F50894811C911C2BC0232B19F09F
:101D6000089481089108DB01CA0112E0880F991FCD
:101D7000AA1FBB1F1A95D1F7480F591F6A1F7B1F57
:101D8000440F551F661F771F4E0F511D611D711D9A
:101D9000483929E9520729E9620729E1720748F021
:101DA00084E0E82A06C0EE3F31F4E3FC39C098E055
:101DB000E92AF990C0CFE53311F0E53189F5299191
:101DC0002D3219F4E0E1EE2A05C02B3219F081E042
:101DD00090E003C0299182E090E0E22FE053EA30E6
:101DE00018F0C81BD90B1CC020E030E0FCE0203804
:101DF0003F075CF4C901880F991F880F991F280FAE
:101E0000391F220F331F2E0F311DE991E053EA30A5
:101E100068F3E4FE03C0309521953F4F820E931E78
:101E2000CE2CDD24E1FE07C0A114B10421F02197DE
:101E3000F501D183C083CB01BA010E94CED37B01CF
:101E40008C01F3E0CF22DD2423E0C216D10421F47B
:101E500017FB109517F9109557016801C801B701D4
:101E600020E030E040E050E00E942ED3882309F4C7
:101E70004AC097FE0DC02FEDE22E2BE1F22E90947A
:101E8000819491089394C0E2D0E000E010E012C089
:101E900097EFE92E9BE1F92EF6CFF70125913591C9
:101EA00045915491C601B5010E940ED65B016C01AB
:101EB0008C1A9D0A8C169D0684F7D595C7950F5FE1
:101EC0001F4F0630110529F08CEF9FEFE80EF91E29
:101ED000F1CFC501D6017C018D018C2D880F8D2D90
:101EE000881F8F3F51F0C601B50120E030E040E08F
:101EF00050E00E942ED3882331F482E290E0909348
:101F0000B3128093B2127E2D9F2D802F612F272F29
:101F1000392F482F562FB901CA01CDB7DEB7ECE0F3
:101F20000C949ED72F923F925F926F927F928F92E6
:101F30009F92AF92BF92CF92DF92EF92FF920F9358
:101F40001F93CF93DF938C011B01EA01611571058B
:101F500019F0FB0191838083209749F0CE0102970D
:101F6000839728F020E030E040E050E0F6C0F80130
:101F7000A1908F018A2D90E00E9469D7892BB9F733
:101F8000FDE2AF1631F4F801A1908F01552453946E
:101F900007C0FBE2AF1619F4F801A1908F01552498
:101FA000209719F0C031D105C1F4F0E3AF1679F4F0
:101FB000F8018081883711F0883549F4F801A18053
:101FC0000E5F1F4FF2E05F2AC0E1D0E006C020970D
:101FD00021F480E3A816E9F427C0C830D10531F117
:101FE000C930D10524F4C230D10531F50CC0CA3056
:101FF000D10589F0C031D105F9F4C12CD12CE12CE7
:10200000B8E0FB2E28C0C12CD12CE12CA0E4FA2E84
:1020100022C0CAE0D0E0FCECCF2EFCECDF2EFCECC2
:10202000EF2EFCE0FF2E17C0C8E0D0E0C12CD12C71
:10203000E12CE0E1FE2E0FC09E01442737FD4095C4
:10204000542F60E070E080E090E80E9426D7C9013C
:10205000DA016C017D0120E030E040E050E060E01A
:102060003E01882477FC8094982C70EDB72EBA0C32
:10207000E9E0EB1570F48A2D81548A3118F499EC5B
:10208000B92E06C08A2D81568A3150F589EAB82EBC
:10209000BA0C8B2D90E08C179D0714F56F3FE1F083
:1020A000C216D306E406F506B0F0CA01B901A401D0
:1020B00093010E94E0D69B01AC012B0D311D411D07
:1020C000511D2130F0E03F07F0E04F07F0E85F07D7
:1020D00010F461E001C06FEFF801A1908F01C5CF4E
:1020E0002114310481F0662331F001501040F101D8
:1020F0001183008308C051FE1AC002501040F10144
:102100001183008314C067FF12C050FC05C02FEF7D
:102110003FEF4FEF5FE704C020E030E040E050E8E1
:1021200082E290E09093B3128093B21216C050FEF8
:1021300008C050954095309521953F4F4F4F5F4FC8
:102140000CC057FF0AC082E290E09093B3128093D4
:10215000B2122FEF3FEF4FEF5FE7B901CA01DF91F6
:10216000CF911F910F91FF90EF90DF90CF90BF9094
:10217000AF909F908F907F906F905F903F902F9047
:102180000895FB01DC0105900D920020E1F7089510
:10219000FB01DC014150504088F08D9181341CF0EE
:1021A0008B350CF4805E659161341CF06B350CF45A
:1021B000605E861B611171F3990B0895881BFCCF3B
:1021C000FB01DC014150504048F005900D92002089
:1021D000C9F701C01D9241505040E0F70895FB013E
:1021E00055915523A9F0BF01DC014D9145174111CF
:1021F000E1F759F4CD010590002049F04D914015CB
:102200004111C9F3FB014111EFCF81E090E001974B
:102210000895FB01DC0104C08D910190801921F427
:1022200041505040C8F7881B990B0895FB01DC0111
:1022300002C001900D9241505040D8F70895FB0123
:10224000DC010D900020E9F7119701900D9200201C
:10225000E1F70895FC018191861721F08823D9F7D1
:10226000992708953197CF010895FB01DC01019072
:102270000D920020E1F70895FB01DC014150504030
:1022800030F08D910190801919F40020B9F7881B66
:10229000990B0895FB01DC014150504048F001903A
:1022A0000D920020C9F701C01D9241505040E0F747
:1022B0000895AEE0B0E0EFE5F1E10C948AD70E8925
:1022C0001F898EE08C831A8309838FEF9FE79E839B
:1022D0008D839E01265E3F4FCE010196688D798DDC
:1022E000A9010E947D112F813885020F131FF8016B
:1022F00010822E96E4E00C94A6D7ABE0B0E0E3E8C1
:10230000F1E10C947CD73C012B015A01FC011782AE
:102310001682838181FD03C06FEF7FEFC6C19AE013
:10232000892E1E010894211C311CF3012381F20126
:1023300023FD859123FF81912F01882309F4B2C1E8
:10234000853239F423FD859123FF81912F01853258
:1023500029F490E0B3010E947013E7CF982FFF2477
:10236000EE249924FFE1FF15D0F09B3269F09C32F6
:1023700028F4903259F0933291F40EC09D3249F016
:10238000903369F441E024C052E0F52A84E0F82A51
:1023900028C098E0F92A25C0E0E1FE2A22C0F7FC17
:1023A00029C0892F80538A3070F4F6FE05C0989CAE
:1023B000902C1124980E15C0E89CE02C1124E80EF6
:1023C000F0E2FF2A0EC09E3229F4F6FC6BC140E415
:1023D000F42A07C09C3619F450E8F52A02C0983652
:1023E00049F4F20123FD959123FF91912F01992347
:1023F00009F0B8CF892F8554833018F0805283308C
:1024000038F444E050E0A40EB51E5FE359830FC0DA
:10241000933631F0933779F0933509F056C020C0E8
:10242000F5018081898342E050E0A40EB51E610170
:1024300001E010E012C0F501C080D180F6FC03C0BD
:102440006FEF7FEF02C0692D70E042E050E0A40E14
:10245000B51EC6010E9465138C015FE7F52214C00A
:10246000F501C080D180F6FC03C06FEF7FEF02C0A2
:10247000692D70E042E050E0A40EB51EC6010E9436
:102480005A138C0150E8F52AF3FE07C01AC080E207
:1024900090E0B3010E947013EA948E2D90E008172B
:1024A0001907A8F30EC0F601F7FC8591F7FE81919C
:1024B0006F0190E0B3010E947013E110EA940150A3
:1024C00010400115110579F7EAC0943611F09936DC
:1024D00069F5F7FE08C0F501208131814281538101
:1024E00084E090E00AC0F501808191819C0144273D
:1024F00037FD4095542F82E090E0A80EB91E9FE66C
:10250000F92257FF09C050954095309521953F4FCE
:102510004F4F5F4FE0E8FE2ACA01B901A1012AE04E
:1025200030E00E949C13D82ED21840C0953729F471
:102530001F2D1F7E2AE030E01DC01F2D197F9F3602
:1025400061F0903720F4983509F0ACC00FC0903797
:1025500039F0983709F0A6C004C028E030E00AC07E
:10256000106114FD146020E130E004C014FD166019
:1025700020E132E017FF08C0F5016081718182819E
:10258000938144E050E008C0F50180819181BC0155
:1025900080E090E042E050E0A40EB51EA1010E9450
:1025A0009C13D82ED2188FE7F82EF122F6FE0BC01E
:1025B0005EEFF522D91438F4F4FE07C0F2FC05C032
:1025C0008FEEF82202C01D2D01C0192DF4FE0DC0A2
:1025D000FE01ED0DF11D8081803319F499EEF92291
:1025E00008C01F5FF2FE05C003C08F2D867809F07A
:1025F0001F5F0F2DF3FC14C0F0FE0FC01E1510F06E
:102600009D2C0BC09D2C9E0C911A1E2D06C080E2A5
:1026100090E0B3010E9470131F5F1E15C0F304C049
:102620001E1510F4E11A01C0EE2404FF0FC080E370
:1026300090E0B3010E94701302FF1DC001FD03C0B2
:1026400088E790E00EC088E590E00BC0802F867888
:1026500091F001FF02C08BE201C080E2F7FC8DE245
:1026600090E0B3010E94701306C080E390E0B301D4
:102670000E9470139A94D914C0F3DA94F101ED0D0D
:10268000F11D808190E0B3010E947013DD20A9F755
:1026900006C080E290E0B3010E947013EA94EE203D
:1026A000C1F743CEF30166817781CB012B96E2E13E
:1026B0000C9498D7FC010590615070400110D8F738
:1026C000809590958E0F9F1F0895FC01615070407A
:1026D00001900110D8F7809590958E0F9F1F089557
:1026E0000F931F93CF93DF938C01EB018B8181FFBD
:1026F0001BC082FF0DC02E813F818C819D812817D8
:10270000390764F4E881F9810193F983E88306C00D
:10271000E885F985802F1995892B31F48E819F8169
:1027200001969F838E8302C00FEF1FEFC801DF91D8
:10273000CF911F910F910895FA01AA27283051F1E6
:10274000203181F1E8946F936E7F6E5F7F4F8F4FE2
:102750009F4FAF4FB1E03ED0B4E03CD0670F781F41
:10276000891F9A1FA11D680F791F8A1F911DA11D26
:102770006A0F711D811D911DA11D20D009F468945F
:102780003F912AE0269F11243019305D3193DEF607
:10279000CF010895462F4770405D4193B3E00FD0BD
:1027A000C9F7F6CF462F4F70405D4A3318F0495DA8
:1027B00031FD4052419302D0A9F7EACFB4E0A6958B
:1027C0009795879577956795BA95C9F700976105AD
:1027D000710508959B01AC010A2E06945795479503
:1027E00037952795BA95C9F7620F731F841F951FF8
:1027F000A01D0895FC01128213820895FC018381BB
:10280000882311F081E082830895FC018281811187
:1028100012820895CF93DF93FC01E357FE4F20818E
:1028200031812115310549F1215030403183208318
:10283000DC01A05BBF4FFC01E359FF4F2BE101908E
:102840000D922150E1F79C0126573F4F40E050E0A8
:10285000EC01C357DE4F0CC04F5F5F4FD9015D974E
:10286000F9018BE101900D928150E1F7235E3F4F1A
:10287000888199814817590778F3DF91CF9108959E
:10288000FC0189E494E0918380838581882321F091
:10289000CF0102960E940D6C0895CF92DF92EF92C5
:1028A000FF920F931F93DF93CF93CDB7DEB76D9752
:1028B0000FB6F894DEBF0FBECDBF8C016B010D5A71
:1028C0001F4FF801808103551040882321F49FE2B7
:1028D000E92EF12C03C08EE4E82EF12CE00EF11E5F
:1028E00089E494E09A8389831E821B82B7016E5F1C
:1028F0007F4FCE010396A60121E00E941A73882320
:1029000091F5EBE3F1E0949108C08091C00085FF60
:10291000FCCF9093C600319694919923B1F7E1E4EE
:10292000F1E0949108C08091C00085FFFCCF9093A6
:10293000C600319694919923B1F709C08091C000E7
:1029400085FFFCCF0894C11CD11C9093C600F601F2
:102950009081992399F78091C00085FFFCCF8AE090
:102960008093C6003FC0F801E357FE4F608171813C
:102970006A30710568F59B012F5F3F4F31832083DB
:102980008DE190E0289FA001299F500D389F500DA8
:10299000112443595F4F400F511F0AC0DA01FA0159
:1029A0007D978BE101900D928150E1F74D515040A0
:1029B00061507040FFEF6E3F7F0781F7D801A35948
:1029C000BF4FF70132968BE101900D928150E1F7F4
:1029D000D801A05BBF4FFE0133968BE101900D92B1
:1029E0008150E1F7CE0101960E9440146D960FB61A
:1029F000F894DEBF0FBECDBFCF91DF911F910F9135
:102A0000FF90EF90DF90CF900895EF92FF920F9399
:102A10001F938C0124EBE22E21E0F22EE80EF91E2A
:102A2000C7010E94BD6BC7010E940D6CF8011082A6
:102A300011821F910F91FF90EF900895CF92DF9236
:102A4000EF92FF920F931F93CF93DF937C016B0163
:102A5000DB010D900020E9F78D0101501040061BAD
:102A6000170BE4EBF1E0EE0EFF1ED7011C92ECE435
:102A7000FEEFEE0EFF1ECB016EE470E00E942A1105
:102A8000EC01009731F4F8013197EC0DFD1D860142
:102A90000EC060E270E00E942A118C010F5F1F4F90
:102AA000CE016AE270E00E942A11FC0131978DE0AC
:102AB00081838AE082831382C7018E549E4FB801BE
:102AC0000E941C7484EB91E0E80EF91ED7018C91F2
:102AD000882319F1EBE6F1E0949108C08091C000E1
:102AE00085FFFCCF9093C600319694919923B1F75E
:102AF000E2E7F1E0949108C08091C00085FFFCCF2F
:102B00009093C600319694919923B1F78091C000BB
:102B100085FFFCCF8AE08093C600DF91CF911F91A3
:102B20000F91FF90EF90DF90CF900895CF93DF93B8
:102B3000EC018B81882309F43BC0EAE9F1E0949130
:102B400008C08091C00085FFFCCF9093C6003196ED
:102B500094919923B1F7C759DD4F488159816A8112
:102B60007B81C956D24089EA99E02AE030E00E9490
:102B70005151E8E9F1E0949108C08091C00085FFCF
:102B8000FCCF9093C600319694919923B1F7CF5919
:102B9000DD4F488159816A817B8189EA99E02AE089
:102BA00030E00E9451518091C00085FFFCCF12C0DF
:102BB000E8E8F1E0949108C08091C00085FFFCCF67
:102BC0009093C600319694919923B1F78091C000FB
:102BD00085FFFCCF8AE08093C600DF91CF910895F6
:102BE0002F923F924F925F926F927F928F929F921D
:102BF000AF92BF92CF92DF92EF92FF920F931F930B
:102C0000DF93CF93CDB7DEB7AA970FB6F894DEBFA8
:102C10000FBECDBF5C014B01FC018381882309F409
:102C200036C1C5018C549E4F0E940D6CF501128275
:102C3000188A1B8A89E494E09F878E874CE4C42E0F
:102C4000D12CCA0CDB1C2FE230E0A20EB31EF60121
:102C5000B182A08221ED3FEFA20EB31EF40180816C
:102C60008F3209F090C0C4016FE270E00E942A1117
:102C70007C010894E11CF11C3E010894611C711C4C
:102C8000260130E1232E312C2C0E3D1E77C0C701CA
:102C90006FE270E00E942A116C01009709F481C074
:102CA000E816F90608F07DC08C010E191F09C30152
:102CB000B701A8010E944A11060D171DF8011082E4
:102CC000F30107C08091C00085FFFCCF319690933F
:102CD000C60090819923B1F78091C00085FFFCCF99
:102CE000FAE0F093C600F20160817181611571050F
:102CF00019F460E070E002C06E5F7F4FC101A30174
:102D000021E00E941A73882371F5E6EDF1E09491B9
:102D100008C08091C00085FFFCCF9093C60031961B
:102D200094919923B1F7FE01319607C08091C000BC
:102D300085FFFCCF31969093C60090819923B1F71F
:102D4000E4EDF1E0949108C08091C00085FFFCCFD4
:102D50009093C600319694919923B1F78091C00069
:102D600085FFFCCF8DC02EE030E02C0F3D1FF2011F
:102D70003183208376010894E11CF11CE114F104F5
:102D800009F085CF0BC08EE490E0A80EB91EF601C5
:102D9000B182A08222EB3FEFA20EB31ED82C092DE8
:102DA00002C0DE2C0F2D8CE490E0A80EB91EF501B8
:102DB0008081918124EB3FEFA20EB31E009719F49E
:102DC00080E090E001C002966D2D702F0E94EC73A0
:102DD000882339F1E6ECF1E0949108C08091C000BD
:102DE00085FFFCCF9093C600319694919923B1F75B
:102DF0008D2D902F9C01F90107C08091C00085FFA7
:102E0000FCCF31969093C60090819923B1F789E663
:102E100092E0A80EB91EF50110821182128213826F
:102E200032C0EEEAF1E0949108C08091C00085FFC5
:102E3000FCCF9093C600319694919923B1F78D2DD4
:102E4000902F9C01F90107C08091C00085FFFCCF45
:102E500031969093C60090819923B1F7ECEAF1E0A6
:102E6000949108C08091C00085FFFCCF9093C6006C
:102E7000319694919923B1F78091C00085FFFCCFE2
:102E80008AE08093C600CE010E960E944014AA9656
:102E90000FB6F894DEBF0FBECDBFCF91DF911F916B
:102EA0000F91FF90EF90DF90CF90BF90AF909F90E9
:102EB0008F907F906F905F904F903F902F900895EC
:102EC000BF92CF92DF92EF92FF920F931F93CF9317
:102ED000DF938C01EB018FE28993EE24E394FF24CE
:102EE0006DE8C62E61E0D62EC00ED11E5DE1B52E76
:102EF00014C0FB9CC001112483599F4F800F911F68
:102F0000BE010E941F6C02C02196E3948881882331
:102F100019F08CE88E15C0F7F3942F2D30E0F601F0
:102F2000808191812817390720F3E7FC07C0C80189
:102F30008C549E4FBE010E941F6C01C01882DF910D
:102F4000CF911F910F91FF90EF90DF90CF90BF90A6
:102F500008952F923F924F925F926F927F928F923D
:102F60009F92AF92BF92CF92DF92EF92FF920F9318
:102F70001F93DF93CF93CDB7DEB7AB970FB6F8941F
:102F8000DEBF0FBECDBF6C014B014BA7DC0113961A
:102F90008C91882309F448C3E7EBF1E0CE0EDF1EE5
:102FA000D6018C91E9E4FEEFCE0EDF1E882309F4F2
:102FB00019C1222309F0E1C02FEC31E0C20ED31E6B
:102FC000D6018C91E1E3FEEFCE0EDF1E882371F176
:102FD000EBE6F1E0949108C08091C00085FFFCCF42
:102FE0009093C600319694919923B1F7EEEAF2E0FE
:102FF000949108C08091C00085FFFCCF9093C600DB
:10300000319694919923B1F789EA99E061E070E0F3
:103010004AE050E00E94A5518091C00085FFFCCF9E
:103020008AE08093C6000E94F02AFEC2EBE3F1E042
:10303000949108C08091C00085FFFCCF9093C6009A
:10304000319694919923B1F7E5E9F2E0949108C0A3
:103050008091C00085FFFCCF9093C600319694917B
:103060009923B1F7F40107C08091C00085FFFCCF20
:1030700031969093C60090819923B1F7EAE8F2E087
:10308000949108C08091C00085FFFCCF9093C6004A
:10309000319694919923B1F7C60124ED31E0C20E27
:1030A000D31EB6010E9460174BEF5FEFC40ED51E12
:1030B000D6019C91E1E3FEEFCE0EDF1E8DE8989FD6
:1030C000F0011124EC52FE4FEC0DFD1D07C0809164
:1030D000C00085FFFCCF31969093C6009081992364
:1030E000B1F7E4E8F2E0949108C08091C00085FF58
:1030F000FCCF9093C600319694919923B1F729E6BD
:1031000032E0C20ED31ED6014D915D916D917C913E
:10311000E7E9FDEFCE0EDF1E89EA99E02AE030E014
:103120000E9451518091C00085FFFCCF8AE08093BE
:10313000C600A60141535E4FDA012C91E22FF0E068
:10314000EC58FF4FEE0FFF1FEE0FFF1FEC0DFD1DA4
:1031500089E692E0C80ED91ED6014D905D906D9023
:103160007C9087E99DEFC80ED91E40825182628211
:1031700073822F5FDA012C932FC0EBE3F1E094917F
:1031800008C08091C00085FFFCCF9093C6003196A7
:1031900094919923B1F7E3E7F2E0949108C080910C
:1031A000C00085FFFCCF9093C6003196949199237F
:1031B000B1F7F40107C08091C00085FFFCCF3196C4
:1031C0009093C60090819923B1F78091C00085FF4C
:1031D000FCCF8AE08093C600C6018C549E4F0E94AB
:1031E0000D6C39C0EFECF1E0CE0EDF1ED6011C9263
:1031F000E1E3FEEFCE0EDF1EEBE3F1E0949108C0B9
:103200008091C00085FFFCCF9093C60031969491C9
:103210009923B1F7E2E6F2E0949108C08091C000F2
:1032200085FFFCCF9093C600319694919923B1F716
:10323000F40107C08091C00085FFFCCF31969093C8
:10324000C60090819923B1F78091C00085FFFCCF23
:103250008AE08093C600D60112961C92188A1B8AB7
:1032600089E494E09F878E87ECE4AE2EB12CAC0C01
:10327000BD1CEFE2F0E0CE0EDF1ED501CD92DC9258
:10328000E1EDFFEFCE0EDF1ED4018C918F3209F0FD
:1032900090C0C4016FE270E00E942A117C01089482
:1032A000E11CF11C3E010894611C711C250170E1B8
:1032B000272E312C2C0E3D1E77C0C7016FE270E027
:1032C0000E942A115C01009709F481C0E816F906F2
:1032D00008F07DC08C010E191F09C301B701A801B8
:1032E0000E944A11060D171DF8011082F30107C054
:1032F0008091C00085FFFCCF31969093C6009081ED
:103300009923B1F78091C00085FFFCCFFAE0F093DC
:10331000C600D2016D917C916115710519F460E0D0
:1033200070E002C06E5F7F4FC101A30121E00E94E7
:103330001A73882371F5EEE4F2E0949108C080914D
:10334000C00085FFFCCF9093C600319694919923DD
:10335000B1F7FE01319607C08091C00085FFFCCF18
:1033600031969093C60090819923B1F7ECE4F2E096
:10337000949108C08091C00085FFFCCF9093C60057
:10338000319694919923B1F78091C00085FFFCCFCD
:103390001BC12EE030E02C0F3D1FF2013183208352
:1033A00075010894E11CF11CE114F10409F085CFCA
:1033B0000BC04EE450E0C40ED51ED501CD92DC9278
:1033C000E2EBFFEFCE0EDF1E082DF92C01C00E2D13
:1033D000F601E45BFF4F2BA5222309F4B1C0608105
:1033E00071816115710519F460E070E002C06E5FD3
:1033F0007F4FC6018C549E4F402F5F2D21E00E94CD
:103400001A73882309F46CC045EC51E0C40ED51E34
:10341000D6014D915D916D917C91ECE9F0E0CE0E7D
:10342000DF1ED6014D935D936D937C931397EFE967
:10343000FDEFCE0EDF1EEEE3F2E0949108C0809126
:10344000C00085FFFCCF9093C600319694919923DC
:10345000B1F7802F9F2D9C01F90107C08091C0001A
:1034600085FFFCCF31969093C60090819923B1F7E8
:10347000E6E3F2E0949108C08091C00085FFFCCFA4
:103480009093C600319694919923B1F789EA99E017
:103490002AE030E00E9451518091C00085FFFCCFAE
:1034A0008AE08093C60029E632E0C20ED31ED60120
:1034B0001D921D921D921C921397E8E2F2E09491E6
:1034C00008C08091C00085FFFCCF9093C600319664
:1034D00094919923B1F78091C00085FFFCCF99C0EA
:1034E000E4E1F2E0949108C08091C00085FFFCCF38
:1034F0009093C600319694919923B1F7802F9F2D18
:103500009C01F90107C08091C00085FFFCCF319676
:103510009093C60090819923B1F7E2E1F2E0949193
:1035200008C08091C00085FFFCCF9093C600319603
:1035300094919923B1F78091C00085FFFCCF44C0DE
:10354000608171816115710519F460E070E002C05D
:103550006E5F7F4FC6018C549E4F402F5F2D26E536
:103560000E941A73882309F033C0EEEFF1E09491C2
:1035700008C08091C00085FFFCCF9093C6003196B3
:1035800094919923B1F7802F9F2D9C01F90107C0D9
:103590008091C00085FFFCCF31969093C60090814A
:1035A0009923B1F7ECEFF1E0949108C08091C0004D
:1035B00085FFFCCF9093C600319694919923B1F783
:1035C0008091C00085FFFCCF8AE08093C60028C0B0
:1035D00081E0F6018083EAEEF1E0949108C08091E9
:1035E000C00085FFFCCF9093C6003196949199233B
:1035F000B1F7F40107C08091C00085FFFCCF319680
:103600009093C60090819923B1F78091C00085FF07
:10361000FCCF8AE08093C600802F9F2D0E9479C244
:10362000CE010E960E944014AB960FB6F894DEBF02
:103630000FBECDBFCF91DF911F910F91FF90EF9003
:10364000DF90CF90BF90AF909F908F907F906F90C2
:103650005F904F903F902F900895EF92FF920F93BD
:103660001F93CF93DF93EC010E94347A8E010153B4
:103670001E4FD8018C9194EBE92E91E0F92EEC0EBF
:10368000FD1E8823A1F1C7010E940D6CF801608125
:10369000615060838DE8689FB00111246C527E4FA9
:1036A0006C0F7D1FCE0141E021E00E94A917D801D7
:1036B000EC91F0E0EC58FF4FEE0FFF1FEE0FFF1FF5
:1036C000EC0FFD1F4081518162817381C759DD4F2D
:1036D000488359836A837B83C956D240C7010E94BD
:1036E000F36A8B81882369F081E08A830AC00E9493
:1036F000DD79C7010E940D6C1A828FE291E00E9471
:10370000304FDF91CF911F910F91FF90EF9008956F
:10371000FC0181E08183CF0140E021E00E94A917F4
:103720000895EF92FF920F931F93CF93DF937C0145
:10373000FC01138284A9882321F0C701C1960E944D
:103740000D6C870101571E4FC80160E045E30E94E0
:10375000B169882309F5EBE3F1E0949108C0809109
:10376000C00085FFFCCF9093C600319694919923B9
:10377000B1F7EFE1F3E0949108C08091C00085FFBC
:10378000FCCF9093C600319694919923B1F7809124
:10379000C00085FFFCCF7DC0E701CC56DE4FCE01D7
:1037A000B80141E00E94B174882341F5CE01B8010F
:1037B00040E00E94B174882309F5EBE6F1E09491B2
:1037C00008C08091C00085FFFCCF9093C600319661
:1037D00094919923B1F7ECE0F3E0949108C08091C3
:1037E000C00085FFFCCF9093C60031969491992339
:1037F000B1F78091C00085FFFCCF4BC0C701C196D7
:10380000BE010E940E6F882309F5EBE6F1E094916A
:1038100008C08091C00085FFFCCF9093C600319610
:1038200094919923B1F7ECEFF2E0949108C0809164
:10383000C00085FFFCCF9093C600319694919923E8
:10384000B1F78091C00085FFFCCF23C081E0F70174
:103850008383EBE3F1E0949108C08091C00085FF81
:10386000FCCF9093C600319694919923B1F7E1EF84
:10387000F2E0949108C08091C00085FFFCCF909346
:10388000C600319694919923B1F78091C00085FFCD
:10389000FCCF8AE08093C600D701A05BBF4FF70141
:1038A000F1968BE101900D928150E1F7C7018F965F
:1038B0002CE430E0E20EF31EF70191838083DF9168
:1038C000CF911F910F91FF90EF9008952F923F920B
:1038D0004F925F926F927F929F92AF92BF92CF92E0
:1038E000DF92EF92FF920F931F93DF93CF93CDB7A9
:1038F000DEB7CC55D0400FB6F894DEBF0FBECDBFBB
:103900006C01662311F52DE632E0C20ED31ED601FE
:103910008C91E3E9FDEFCE0EDF1E882309F4E4C0AD
:1039200025E632E0C20ED31ED601ED90FD900D913A
:103930001C91EBE9FDEFCE0EDF1E0E94DACAE616FF
:10394000F7060807190708F4CFC02DE632E0C20ECB
:10395000D31ED6011C92E3E9FDEFCE0EDF1ED60189
:1039600013968C91882341F4C6010E94911BF601A5
:103970008381882309F4B8C000D000D0EDB7FEB72A
:1039800031967E010894E11CF11CADB7BEB71296CA
:10399000FC92EE92119782E691E093838283D601A6
:1039A0009D968D919C919E97958384830E94591139
:1039B0008701EDB7FEB736960FB6F894FEBF0FBE7F
:1039C000EDBF57010AC0D8018C91992787FD9095CA
:1039D0000E9471D7F80181938F01F50101900020B9
:1039E000E9F73197EA19FB09802F8E198E175CF3DE
:1039F00051E3A52EB12CAC0CBD1CC50140E050E03C
:103A000060E070E00E94F36A99244DE3E42EF12C0B
:103A1000EC0EFD1E2E010894411C511C3FE1632E4B
:103A2000712C6C0E7D1E2BE5222E21E0322E42C021
:103A3000D8018C9190E00E9471D7F80181938F0199
:103A4000D7010D900020E9F71197AE19BF09802F1B
:103A50008E198A176CF327968FAD27978E3751F101
:103A6000C701B20145E050E00E943C11009711F5FA
:103A700000D000D0EDB7FEB73196ADB7BEB7129605
:103A80007C926E92119733822282558244820E94E8
:103A90005911EDB7FEB736960FB6F894FEBF0FBEBC
:103AA000EDBFC3010E94A94F87E591E00E94304F0E
:103AB00099249394C501B70140E050E00E942A6E1A
:103AC000181614F48701BCCF992041F48FEF9FEFB3
:103AD000D6019E969C938E939D9706C0F60185A570
:103AE00096A5019696A785A7C45ADF4F0FB6F894FE
:103AF000DEBF0FBECDBFCF91DF911F910F91FF9021
:103B0000EF90DF90CF90BF90AF909F907F906F909D
:103B10005F904F903F902F9008952F923F924F9239
:103B20005F926F927F928F929F92AF92BF92CF924D
:103B3000DF92EF92FF920F931F93DF93CF93CDB756
:103B4000DEB7CB58D0400FB6F894DEBF0FBECDBF66
:103B50008C013B016A0182E090E0C80ED91EF80199
:103B60007196CB57DF4FF983E883C558D040C80121
:103B70000496CE57DF4F99838883C258D040CC57E4
:103B8000DF4F1882C458D040A2E6EA2EF12CEC0E8A
:103B9000FD1EF7013B96C957DF4FF983E883C758ED
:103BA000D040FEE68F2EF2E09F2E800E911EE0E7C1
:103BB000AE2EE2E0BE2EA00EB11E7EE0472E512CAE
:103BC0004C0E5D1E65E4262E312C2C0E3D1EC101CF
:103BD0000296C757DF4F99838883C958D040EBE3DB
:103BE000F1E09491C557DF4F9883CB58D04049C13D
:103BF000F7018385482F50E0BA0168717070603119
:103C0000710509F04CC1F401208131812130310569
:103C100009F445C12230310509F441C1F701DE0143
:103C200011969081903239F08E2F8E19883011F4D0
:103C30008EE28D939D933196C957DF4F888199818C
:103C4000C758D040E817F90761F71C921E86F301A8
:103C50008081882329F4C20160E072E00E941F1174
:103C6000C201B3010E941F11C201BE016F5F7F4FED
:103C70000E941F11C20160E072E00E941F111AA68B
:103C80001DA689E494E099A788A7CE018A96B6017B
:103C9000AE014F5F5F4F21E00E941A73882309F045
:103CA0003FC0F40180819181892BD1F5C557DF4F49
:103CB0009881CB58D040EBE3F1E008C08091C00080
:103CC00085FFFCCF9093C600319694919923B1F76C
:103CD000E2E0F2E007C08091C00085FFFCCF3196A2
:103CE0009093C60090819923B1F78091C00085FF21
:103CF000FCCFFAE0F093C600FE01319607C0809138
:103D0000C00085FFFCCF31969093C6009081992327
:103D1000B1F78091C00085FFFCCF8AE08093C60098
:103D2000C757DF4FA881B981C958D040FE01BA9664
:103D30008BE101900D928150E1F789E494E0F1016B
:103D400091838083C801B201A1010E948D1DC10130
:103D50000E944014CE0188960E94401492C0953E65
:103D600009F48FC09E3209F48CC09F3509F489C0D4
:103D7000F8019189992331F09E3209F482C09F3570
:103D800009F47FC043FD7DC080E06031710509F416
:103D900081E0F80184A7882349F4F70180858734FE
:103DA00009F06FC081858E3709F46BC0CE57DF4FA5
:103DB000A881B981C258D040F7018081803241F09A
:103DC0008E2F8E19883011F48EE28D9380818D9321
:103DD0003196C957DF4F88819981C758D040E8177D
:103DE000F90759F71C92F40180819181009729F518
:103DF000F30107C08091C00085FFFCCF31969093FE
:103E0000C60090819923B1F7CE57DF4FE881F98141
:103E1000C258D04007C08091C00085FFFCCF3196CA
:103E20009093C60090819923B1F78091C00085FFDF
:103E3000FCCFFAE0F093C60024C08130910539F43C
:103E4000F501808191810196918380831AC0029748
:103E5000C1F4CC57DF4FF881C458D0402F2F30E049
:103E6000F5018081918128173907F1F0CC57DF4F98
:103E7000F881C458D040FF5FCC57DF4FF883C45857
:103E8000D040C601B701CB57DF4F48815981C55893
:103E9000D0400E942A6E18160CF4AACE05C0F70175
:103EA0009081992309F05BCFC557DF4F0FB6F89487
:103EB000DEBF0FBECDBFCF91DF911F910F91FF905D
:103EC000EF90DF90CF90BF90AF909F908F907F90BA
:103ED0006F905F904F903F902F900895EF92FF92D8
:103EE0000F931F93DF93CF93CDB7DEB76D970FB6C8
:103EF000F894DEBF0FBECDBF7C018C01045B1F4F69
:103F0000825B9F4FD8018D939C93EEE6F2E0EE0E1C
:103F1000FF1E21E030E0D7012D933D937D011D92DE
:103F20001C92E0E9FDEFEE0EFF1E029640E050E02D
:103F300060E070E00E94F36AD801ED91FC91DE012F
:103F4000139632968BE101900D928150E1F789E44E
:103F500094E09A838983C70165E172E08E010F5F67
:103F60001F4FA8010E948D1DC8010E944014F70137
:103F7000E059FD4F808191816D960FB6F894DEBFB8
:103F80000FBECDBFCF91DF911F910F91FF90EF90AA
:103F90000895EF92FF920F931F93DF93CF93CDB7C6
:103FA000DEB76D970FB6F894DEBF0FBECDBF7C01B4
:103FB0008C01045B1F4F825B9F4FD8018D939C93B4
:103FC000EEE6F2E0EE0EFF1E22E030E0D7012D9388
:103FD0003C93E2E9FDEFEE0EFF1EF701E059FD4FC5
:103FE00060831182029640E050E060E070E00E9441
:103FF000F36AD801ED91FC91DE01139632968BE1C4
:1040000001900D928150E1F789E494E09A838983CD
:10401000C70165E172E08E010F5F1F4FA8010E948A
:104020008D1DC8010E9440146D960FB6F894DEBF36
:104030000FBECDBFCF91DF911F910F91FF90EF90F9
:104040000895EF92FF920F931F93DF93CF93CDB715
:10405000DEB76D970FB6F894DEBF0FBECDBF7C0103
:104060008EE692E0E80EF91EF7011182108282E9D5
:104070009DEFE80EF91E87010F5C1F4FC80140E05D
:1040800050E060E070E00E94F36ADE011396F801F0
:104090008BE101900D928150E1F789E494E09A83DD
:1040A0008983C70165E172E08E010F5F1F4FA80190
:1040B0000E948D1DC8010E9440146D960FB6F894A1
:1040C000DEBF0FBECDBFCF91DF911F910F91FF904B
:1040D000EF9008950F931F93CF93DF93FC0111AAE4
:1040E00014AA89E494E090AB87A7E05BFF4F1082AD
:1040F00033961082359791838083EE54F040EF0120
:10410000C559DF4FDE0120E030E0482F12961C92A7
:10411000129715961C9215974C9311969C93119794
:10412000235E3F4F5D9681E02232380779F7E057F2
:10413000FE4F89E1808333961082789610823996FB
:10414000108233961082359740839183E155FF4F5B
:10415000108211821282138238961082118212828A
:104160001382E956F24012821382108211828F016B
:104170000B591D4FD8011D921D921D921C92139731
:10418000E357FE4F11821082EE5BFF4F1082DE017B
:10419000C9011D920197E9F7E256FF4F81E0808344
:1041A000ED56F24016A615A60E94DACA68577C4E54
:1041B0008F4F9F4FD8016D937D938D939C93139751
:1041C000DF91CF911F910F910895DF93CF93CDB7DA
:1041D000DEB72A970FB6F894DEBF0FBECDBF809131
:1041E000160290911702A0911802B09119028B83C8
:1041F0009C83AD83BE83FE01339624E630E080814C
:10420000F999FECF1FBA32BD21BD80BD0FB6F8941B
:10421000FA9AF99A0FBE2F5F3F4F2836310511F0F9
:104220003196EDCFEEEBF9E08081F999FECF1FBA20
:1042300032BD21BD80BD0FB6F894FA9AF99A0FBE2F
:104240002F5F3F4F2837310511F03196EDCFEEEA61
:10425000F9E08081F999FECF1FBA32BD21BD80BD42
:104260000FB6F894FA9AF99A0FBE2F5F3F4F28388D
:10427000310511F03196EDCFEEECF9E08081F9993E
:10428000FECF1FBA32BD21BD80BD0FB6F894FA9A99
:10429000F99A0FBE2F5F3F4F2839310511F0319643
:1042A000EDCFE2EEF9E08081F999FECF1FBA32BD81
:1042B00021BD80BD0FB6F894FA9AF99A0FBE2F5F10
:1042C0003F4F2C39310511F03196EDCFE6EEF9E094
:1042D0008081F999FECF1FBA32BD21BD80BD0FB6D6
:1042E000F894FA9AF99A0FBE2F5F3F4F203A3105A2
:1042F00011F03196EDCFEEEDF9E08081F999FECF26
:104300001FBA32BD21BD80BD0FB6F894FA9AF99A52
:104310000FBE2F5F3F4F243A310511F03196EDCF9C
:10432000E6EFF9E08081F999FECF1FBA32BD21BDD9
:1043300080BD0FB6F894FA9AF99A0FBE2F5F3F4FDF
:10434000283A310511F03196EDCFEAEAF9E08081A3
:10435000F999FECF1FBA32BD21BD80BD0FB6F894CA
:10436000FA9AF99A0FBE2F5F3F4F2C3A310511F0A0
:104370003196EDCFEAEEF9E08081F999FECF1FBAD0
:1043800032BD21BD80BD0FB6F894FA9AF99A0FBEDE
:104390002F5F3F4F203B310511F03196EDCFEEEE10
:1043A000F9E08081F999FECF1FBA32BD21BD80BDF1
:1043B0000FB6F894FA9AF99A0FBE2F5F3F4F243B3D
:1043C000310511F03196EDCFE2EFF9E08081F999F6
:1043D000FECF1FBA32BD21BD80BD0FB6F894FA9A48
:1043E000F99A0FBE2F5F3F4F283B310511F03196F0
:1043F000EDCFEEE2F7E08081F999FECF1FBA32BD32
:1044000021BD80BD0FB6F894FA9AF99A0FBE2F5FBE
:104410003F4F243C310511F03196EDCFE4EBF1E153
:104420008081F999FECF1FBA32BD21BD80BD0FB684
:10443000F894FA9AF99A0FBE2F5F3F4F263C310548
:1044400011F03196EDCFE6EBF1E18081F999FECFE5
:104450001FBA32BD21BD80BD0FB6F894FA9AF99A01
:104460000FBE2F5F3F4F283C310511F03196EDCF45
:10447000E8EBF1E18081F999FECF1FBA32BD21BD91
:1044800080BD0FB6F894FA9AF99A0FBE2F5F3F4F8E
:104490002A3C310511F03196EDCFEAEBF1E1808154
:1044A000F999FECF1FBA32BD21BD80BD0FB6F89479
:1044B000FA9AF99A0FBE2F5F3F4F2C3C310511F04D
:1044C0003196EDCFECEBF1E18081F999FECF1FBA87
:1044D00032BD21BD80BD0FB6F894FA9AF99A0FBE8D
:1044E0002F5F3F4F2E3C310511F03196EDCFEEEBB3
:1044F000F1E18081F999FECF1FBA32BD21BD80BDA7
:104500000FB6F894FA9AF99A0FBE2F5F3F4F203DED
:10451000310511F03196EDCFE9E4F7E08081F999AA
:10452000FECF1FBA32BD21BD80BD0FB6F894FA9AF6
:10453000F99A0FBE2F5F3F4F243D310511F03196A0
:10454000EDCFEAEAF3E08081F999FECF1FBA32BDE0
:1045500021BD80BD0FB6F894FA9AF99A0FBE2F5F6D
:104560003F4F283D310511F03196EDCFEEEAF3E0F3
:104570008081F999FECF1FBA32BD21BD80BD0FB633
:10458000F894FA9AF99A0FBE2F5F3F4F2C3D3105F0
:1045900011F03196EDCFE2EBF3E08081F999FECF97
:1045A0001FBA32BD21BD80BD0FB6F894FA9AF99AB0
:1045B0000FBE2F5F3F4F203E310511F03196EDCFFA
:1045C00080E290E09A838983FE0131968081F99997
:1045D000FECF1FBA32BD21BD80BD0FB6F894FA9A46
:1045E000F99A0FBE213E310521F0319621EE30E0DF
:1045F000EDCF80911A0290911B02A0911C02B09104
:104600001D028F839887A987BA87FE01379684E6B3
:1046100090E02081F999FECF1FBA92BD81BD20BDE7
:104620000FB6F894FA9AF99A0FBE8736910519F0E9
:1046300001963196EECFECE2F3E0949108C08091C0
:10464000C00085FFFCCF9093C600319694919923CA
:10465000B1F7E6E3F5E0949108C08091C00085FFD2
:10466000FCCF9093C600319694919923B1F7809135
:10467000C00085FFFCCF8AE08093C6002A960FB663
:10468000F894DEBF0FBECDBFCF91DF910895DF93C9
:10469000CF93CDB7DEB7E0970FB6F894DEBF0FBE6D
:1046A000CDBFDE011196E9EFF3E080E101900D92BC
:1046B0008150E1F7DE015196E9EEF3E080E10190EF
:1046C0000D928150E1F7DE019196E9EDF3E080E192
:1046D00001900D928150E1F789819A81AB81BC8173
:1046E0008093BE099093BF09A093C009B093C109FC
:1046F00089899A89AB89BC898093AE099093AF0967
:10470000A093B009B093B10989A19AA1ABA1BCA1B2
:104710008093CE099093CF09A093D009B093D1098B
:104720008D819E81AF81B8858093C2099093C30922
:10473000A093C409B093C5098D899E89AF89B88DAE
:104740008093B2099093B309A093B409B093B509CB
:104750008DA19EA1AFA1B8A58093D2099093D30952
:10476000A093D409B093D50989859A85AB85BC857A
:104770008093C6099093C709A093C809B093C9094B
:10478000898D9A8DAB8DBC8D8093B6099093B709B6
:10479000A093B809B093B90989A59AA5ABA5BCA502
:1047A0008093D6099093D709A093D809B093D909DB
:1047B0008D859E85AF85B8898093CA099093CB0972
:1047C000A093CC09B093CD098D8D9E8DAF8DB8A1EE
:1047D0008093BA099093BB09A093BC09B093BD091B
:1047E0008DA59EA5AFA5B8A98093DA099093DB09A2
:1047F000A093DC09B093DD090E94125680E090E09E
:10480000AAE7B4E48093E2099093E309A093E40952
:10481000B093E50980E090E8ABE3B5E48093E60966
:104820009093E709A093E809B093E90920E030E00C
:1048300040E050E02093DE093093DF094093E00927
:104840005093E10980E29EE4A0E0B0E08093AA09E1
:104850009093AB09A093AC09B093AD092093F609EE
:104860003093F7094093F8095093F90980E090E0FC
:10487000A0EAB1E48093EA099093EB09A093EC09D4
:10488000B093ED098DEC9CECACECBEE38093EE09AB
:104890009093EF09A093F009B093F10980E090E0C4
:1048A000A0EAB0E48093F2099093F309A093F4098D
:1048B000B093F509209336073093370740933807B4
:1048C00050933907209332073093330740933407CE
:1048D0005093350720932E0730932F0740933007CE
:1048E0005093310782ED90E09093B5118093B4110D
:1048F00086E490E09093B7118093B6111092B911AD
:104900001092B8118AEF90E09093BB118093BA1186
:1049100084E690E09093BD118093BC111092BF117A
:104920001092BE118AE999E9A1EBB1E48093AA0340
:104930009093AB03A093AC03B093AD0361E77DE329
:104940008AE89FE30E9444826093AE037093AF03B2
:104950008093B0039093B10360E070E084EE92E442
:104960000E9452826093B2037093B3038093B403A6
:104970009093B5030E940C8280E090E0A0E8BFE332
:104980008093B6039093B703A093B803B093B90391
:10499000ECE2F3E0949108C08091C00085FFFCCF69
:1049A0009093C600319694919923B1F7E2E3F3E036
:1049B000949108C08091C00085FFFCCF9093C60001
:1049C000319694919923B1F78091C00085FFFCCF77
:1049D0008AE08093C600E0960FB6F894DEBF0FBE63
:1049E000CDBFCF91DF910895CF93DF93CCE2D3E099
:1049F000FE01949108C08091C00085FFFCCF909388
:104A0000C600319694919923B1F7E6E2F5E09491CE
:104A100008C08091C00085FFFCCF9093C6003196FE
:104A200094919923B1F78091C00085FFFCCF8AE073
:104A30008093C600FE019491ECE2F3E008C08091FF
:104A4000C00085FFFCCF9093C600319694919923C6
:104A5000B1F74091BE095091BF096091C0097091B2
:104A6000C1098EE195E00E941C2F4091C20950912E
:104A7000C3096091C4097091C5098BE195E00E945A
:104A80001C2F4091C6095091C7096091C8097091C7
:104A9000C90988E195E00E941C2F4091CA095091F4
:104AA000CB096091CC097091CD0985E195E00E9418
:104AB0001C2FEEE1F2E007C08091C00085FFFCCF23
:104AC00031969093C60090819923B1F78091C000F0
:104AD00085FFFCCF8AE08093C600FE019491ECE252
:104AE000F3E008C08091C00085FFFCCF9093C60022
:104AF000319694919923B1F7EBEFF4E0949108C0CB
:104B00008091C00085FFFCCF9093C60031969491B0
:104B10009923B1F78091C00085FFFCCF8AE0809394
:104B2000C600FE019491ECE2F3E008C08091C00061
:104B300085FFFCCF9093C600319694919923B1F7ED
:104B40004091AE095091AF096091B0097091B109DF
:104B500082EF94E00E941C2F4091B2095091B3095A
:104B60006091B4097091B5098FEE94E00E941C2FFA
:104B70004091B6095091B7096091B8097091B9098F
:104B80008CEE94E00E941C2F4091BA095091BB0911
:104B90006091BC097091BD0989EE94E00E941C2FC0
:104BA000EEE1F2E007C08091C00085FFFCCF3196B6
:104BB0009093C60090819923B1F78091C00085FF42
:104BC000FCCF8AE08093C600FE019491ECE2F3E012
:104BD00008C08091C00085FFFCCF9093C60031963D
:104BE00094919923B1F7EBECF4E0949108C0809193
:104BF000C00085FFFCCF9093C60031969491992315
:104C0000B1F78091C00085FFFCCF8AE08093C60099
:104C1000FE019491ECE2F3E008C08091C00085FFB2
:104C2000FCCF9093C600319694919923B1F74091AF
:104C3000CE095091CF096091D0097091D10982ECD1
:104C400094E00E94302F4091D2095091D309609195
:104C5000D4097091D5098FEB94E00E94302F4091D8
:104C6000D6095091D7096091D8097091D9098CEB78
:104C700094E00E94302F4091DA095091DB09609155
:104C8000DC097091DD0989EB94E00E94302FEEE1A0
:104C9000F2E007C08091C00085FFFCCF3196909371
:104CA000C60090819923B1F78091C00085FFFCCFA9
:104CB0008AE08093C600FE019491ECE2F3E008C024
:104CC0008091C00085FFFCCF9093C60031969491EF
:104CD0009923B1F7E4E8F4E0949108C08091C00012
:104CE00085FFFCCF9093C600319694919923B1F73C
:104CF0008091C00085FFFCCF8AE08093C600FE0152
:104D00009491ECE2F3E008C08091C00085FFFCCFF5
:104D10009093C600319694919923B1F74091E2099E
:104D20005091E3096091E4097091E5098BE794E003
:104D30000E941C2F4091E6095091E7096091E80913
:104D40007091E90988E794E00E941C2FEEE1F2E0FF
:104D500007C08091C00085FFFCCF31969093C600BC
:104D600090819923B1F78091C00085FFFCCF8AE044
:104D70008093C600FE019491ECE2F3E008C08091BC
:104D8000C00085FFFCCF9093C60031969491992383
:104D9000B1F7E5ECF3E0949108C08091C00085FF85
:104DA000FCCF9093C600319694919923B1F78091EE
:104DB000C00085FFFCCF8AE08093C600FE0194917D
:104DC000ECE2F3E008C08091C00085FFFCCF909337
:104DD000C600319694919923B1F74091DE09509124
:104DE000DF096091E0097091E1098CEB93E00E948A
:104DF0001C2F4091F6095091F7096091F8097091C4
:104E0000F90989EB93E00E941C2F4091AA09509167
:104E1000AB096091AC097091AD0986EB93E00E94FB
:104E2000302F4091EA095091EB096091EC097091A3
:104E3000ED0983EB93E00E941C2F4091EE09509105
:104E4000EF096091F0097091F10980EB93E00E9405
:104E50001C2F4091F2095091F3096091F40970916F
:104E6000F5098DEA93E00E941C2FEEE1F2E007C005
:104E70008091C00085FFFCCF31969093C600908151
:104E80009923B1F78091C00085FFFCCF8AE0809321
:104E9000C600FE019491ECE2F3E008C08091C000EE
:104EA00085FFFCCF9093C600319694919923B1F77A
:104EB000EBE9F3E0949108C08091C00085FFFCCF3E
:104EC0009093C600319694919923B1F78091C000D8
:104ED00085FFFCCF8AE08093C600FE019491ECE24E
:104EE000F3E008C08091C00085FFFCCF9093C6001E
:104EF000319694919923B1F740912E0750912F0745
:104F0000609130077091310782E993E00E941C2F75
:104F10004091320750913307609134077091350703
:104F20008FE893E00E941C2F40913607509137077D
:104F300060913807709139078CE893E00E941C2F2C
:104F4000EEE1F2E007C08091C00085FFFCCF319612
:104F50009093C60090819923B1F78091C00085FF9E
:104F6000FCCF8AE08093C600FE019491ECE2F3E06E
:104F700008C08091C00085FFFCCF9093C600319699
:104F800094919923B1F7EEE7F3E0949108C08091F2
:104F9000C00085FFFCCF9093C60031969491992371
:104FA000B1F78091C00085FFFCCF8AE08093C600F6
:104FB000FE019491ECE2F3E008C08091C00085FF0F
:104FC000FCCF9093C600319694919923B1F740910C
:104FD000AA035091AB036091AC037091AD0384E7D9
:104FE00093E00E941C2F6091AE037091AF038091FB
:104FF000B0039091B1030E944B82AB01BC0181E7E9
:1050000093E00E941C2F6091B2037091B3038091D2
:10501000B4039091B5030E945982AB01BC018EE6A6
:1050200093E00E941C2FEEE1F2E007C08091C000E7
:1050300085FFFCCF31969093C60090819923B1F7FC
:105040008091C00085FFFCCF8AE08093C600DF918D
:10505000CF9108950F931F93DF93CF93CDB7DEB712
:105060002A970FB6F894DEBF0FBECDBF80911A020B
:1050700090911B02A0911C02B0911D028F83988712
:10508000A987BA87FE01339604E610E0F999FECFAE
:1050900012BD01BDF89A80B580830F5F1F4F08369F
:1050A000110511F03196F2CFCE010796BE016D5F6A
:1050B0007F4F43E050E00E943C11009709F098C1F7
:1050C000EEEBF9E0F999FECF12BD01BDF89A80B57B
:1050D00080830F5F1F4F0837110511F03196F2CF13
:1050E000EEEAF9E0F999FECF12BD01BDF89A80B55C
:1050F00080830F5F1F4F0838110511F03196F2CFF2
:10510000EEECF9E0F999FECF12BD01BDF89A80B539
:1051100080830F5F1F4F0839110511F03196F2CFD0
:105120000E941256E2EEF9E0F999FECF12BD01BDE0
:10513000F89A80B580830F5F1F4F0C39110511F06D
:105140003196F2CFE6EEF9E0F999FECF12BD01BD3E
:10515000F89A80B580830F5F1F4F003A110511F058
:105160003196F2CFEEEDF9E0F999FECF12BD01BD17
:10517000F89A80B580830F5F1F4F043A110511F034
:105180003196F2CFE6EFF9E0F999FECF12BD01BDFD
:10519000F89A80B580830F5F1F4F083A110511F010
:1051A0003196F2CFEAEAF9E0F999FECF12BD01BDDE
:1051B000F89A80B580830F5F1F4F0C3A110511F0EC
:1051C0003196F2CFEAEEF9E0F999FECF12BD01BDBA
:1051D000F89A80B580830F5F1F4F003B110511F0D7
:1051E0003196F2CFEEEEF9E0F999FECF12BD01BD96
:1051F000F89A80B580830F5F1F4F043B110511F0B3
:105200003196F2CFE2EFF9E0F999FECF12BD01BD80
:10521000F89A80B580830F5F1F4F083B110511F08E
:105220003196F2CFEEE2F7E0F999FECF12BD01BD63
:10523000F89A80B580830F5F1F4F043C110511F071
:105240003196F2CFE4EBF1E1F999FECF12BD01BD49
:10525000F89A80B580830F5F1F4F063C110511F04F
:105260003196F2CFE6EBF1E1F999FECF12BD01BD27
:10527000F89A80B580830F5F1F4F083C110511F02D
:105280003196F2CFE8EBF1E1F999FECF12BD01BD05
:10529000F89A80B580830F5F1F4F0A3C110511F00B
:1052A0003196F2CFEAEBF1E1F999FECF12BD01BDE3
:1052B000F89A80B580830F5F1F4F0C3C110511F0E9
:1052C0003196F2CFECEBF1E1F999FECF12BD01BDC1
:1052D000F89A80B580830F5F1F4F0E3C110511F0C7
:1052E0003196F2CFEEEBF1E1F999FECF12BD01BD9F
:1052F000F89A80B580830F5F1F4F003D110511F0B4
:105300003196F2CFE9E4F7E0F999FECF12BD01BD85
:10531000F89A80B580830F5F1F4F043D110511F08F
:105320003196F2CFEAEAF3E0F999FECF12BD01BD62
:10533000F89A80B580830F5F1F4F083D110511F06B
:105340003196F2CFEEEAF3E0F999FECF12BD01BD3E
:10535000F89A80B580830F5F1F4F0C3D110511F047
:105360003196F2CFE2EBF3E0F999FECF12BD01BD29
:10537000F89A80B580830F5F1F4F003E110511F032
:105380003196F2CFFE013196F999FECF12BD01BDE3
:10539000F89A80B58083013E110521F0319601EE27
:1053A00010E0F2CF0E940C82ECE2F3E0949108C08E
:1053B0008091C00085FFFCCF9093C60031969491F8
:1053C0009923B1F7E4E5F3E0949108C08091C0001F
:1053D00085FFFCCF9093C600319694919923B1F745
:1053E0008091C00085FFFCCF8AE08093C60002C098
:1053F0000E9447230E94F4242A960FB6F894DEBF39
:105400000FBECDBFCF91DF911F910F9108950895E9
:1054100080915807089567707070E82FF0E0E758A2
:10542000F44E84918B3028F4883098F4863088F1DB
:1054300005C08E30C8F0813160F521C08091B10087
:10544000887F8093B1008091B100862B8093B1005A
:10545000089580919100887F8093910080919100C0
:10546000862B8093910008958091A100887F80937E
:10547000A1008091A100862B8093A10008958091C6
:105480002101887F8093210180912101862B8093C7
:10549000210108950F931F93CF93DF9381309105DE
:1054A00049F46F5F7F4F09F046C084EA94E00E94A0
:1054B0006A2041C0892B09F03EC06F5F7F4FD9F54C
:1054C00089E494E0909357068093560680915B069A
:1054D000882321F088E596E00E940D6CC4E1D6E0B7
:1054E00009E414E005C06D9784E0C23FD80751F08D
:1054F000198308838D818823B1F3CE0102960E941F
:105500000D6CF1CF89E494E0998388838D818823A1
:1055100021F0CE0102960E940D6C89E494E09093F4
:10552000D4048093D3048091D804882321F085ED9E
:1055300094E00E940D6CDF91CF911F910F9108951F
:1055400080E090E06FEF7FEF0E944A2A089581E0AB
:1055500090E06FEF7FEF0E944A2A08950E942E820A
:1055600080915807882309F03AC081E0809358075A
:1055700080915B0790915C07A0915D07B0915E07F9
:1055800080935F0790936007A0936107B0936207D1
:10559000ECE4F5E0949108C08091C00085FFFCCF59
:1055A0009093C600319694919923B1F7EDE5F5E01B
:1055B000949108C08091C00085FFFCCF9093C600F5
:1055C000319694919923B1F78091C00085FFFCCF6B
:1055D0008AE08093C60083E595E00E9456C2089554
:1055E000F8940E942E82159A10924607179A1092EC
:1055F0004707429A10924807A09A8CE060E00E9408
:1056000088CCECE4F5E0949108C08091C00085FF5F
:10561000FCCF9093C600319694919923B1F7ECEDAD
:10562000F5E0949108C08091C00085FFFCCF909375
:10563000C600319694919923B1F78091C00085FFFF
:10564000FCCF8AE08093C60083ED95E00E9465C29E
:10565000809A8898FFCF0E94DACA6093630770939C
:1056600064078093650790936607E0918C07F0913B
:105670008D07E257F84F80818823A9F4EBEFF5E01E
:10568000949108C08091C00085FFFCCF9093C60024
:10569000319694919923B1F78091C00085FFFCCF9A
:1056A0008AE08093C60008950E94DACA6093630777
:1056B0007093640780936507909366070895EF924F
:1056C000FF920F931F930E94DACAE0906707F09051
:1056D00068070091690710916A072091630730916C
:1056E00064074091650750916607621B730B840B3A
:1056F000950BE616F7060807190738F4E114F104CC
:105700000105110511F00E94F02A809198039091F3
:105710009903A0919A03B0919B030097A105B1054D
:1057200059F10E94DACA20916307309164074091D1
:10573000650750916607621B730B840B950B2091D4
:1057400098033091990340919A0350919B03261737
:1057500037074807590780F49091EA0E8091EB0EC5
:10576000981751F4159A10924607179A1092470706
:10577000429A10924807A09A0E9483581F910F9155
:10578000FF90EF9008956F927F928F929F92AF92C9
:10579000BF92CF92DF92EF92FF920F931F93F82E5A
:1057A00060916B0770916C0780916D0790916E0707
:1057B00020916F07309170074091710750917207E7
:1057C0000E9449D53B014C0100D000D00DB71EB757
:1057D0000F5F1F4F6091800370918103882777FDD1
:1057E0008095982F0E94D0D320919C0330919D03E7
:1057F00040919E0350919F030E940ED620E030E01E
:1058000040E752E40E9435D320E030E048EC52E417
:105810000E9435D35B016C01F80160827182828243
:105820009382F48280914D0785838EE197E067E74C
:1058300077E04BE657E020E001E032E0E32E0E9403
:1058400083528091770790917807A0917907B09162
:105850007A0780931E0790931F07A0932007B093A9
:10586000210780917B0790917C07A0917D07B091E3
:105870007E078093220790932307A0932407B09379
:10588000250780917F0790918007A0918107B091B3
:1058900082078093260790932707A0932807B09349
:1058A00029078091830790918407A0918507B09183
:1058B000860780932A0790932B07A0932C07B09319
:1058C0002D078DB79EB706960FB6F8949EBF0FBEF4
:1058D0008DBF0E94DACA6093630770936407809358
:1058E0006507909366071F910F91FF90EF90DF90EF
:1058F000CF90BF90AF909F908F907F906F900895C2
:10590000CF92DF92EF92FF920F931F930E94DACA19
:1059100060936307709364078093650790936607AD
:1059200060911E0770911F078091200790912107B9
:1059300020917707309178074091790750917A0745
:105940000E942ED3882309F07AC0609122077091BB
:105950002307809124079091250720917B073091A0
:105960007C0740917D0750917E070E942ED38823AB
:1059700009F065C060919C0370919D0380919E0326
:1059800090919F0320E030E040E752E40E9435D33D
:105990007B018C0187E797E06BE777E04FE757E003
:1059A00023E837E0EDE4CE2EE7E0DE2E0E946A5BCE
:1059B0008091770790917807A0917907B0917A0745
:1059C00080931E0790931F07A0932007B093210791
:1059D00080917B0790917C07A0917D07B0917E0715
:1059E0008093220790932307A0932407B093250761
:1059F00080917F0790918007A0918107B0918207E5
:105A00008093260790932707A0932807B093290730
:105A10008091830790918407A0918507B0918607B4
:105A200080932A0790932B07A0932C07B0932D0700
:105A30001F910F91FF90EF90DF90CF9008956091AC
:105A4000800370918103882777FD8095982F0E94AD
:105A5000D0D320919C0330919D0340919E0350919F
:105A60009F030E940ED620E030E040E752E40E94FF
:105A700035D320E030E048EC52E488CF89EA99E061
:105A80000E94AD50EEEFF5E0949108C08091C00007
:105A900085FFFCCF9093C600319694919923B1F77E
:105AA00040915B0750915C0760915D0770915E07C4
:105AB0004F5F5F4F6F4F7F4F89EA99E02AE030E0F8
:105AC0000E9470518091C00085FFFCCF8AE08093D6
:105AD000C6000E942B2B08952F923F924F925F9207
