:100000000C94E90E0C941A0F0C941A0F0C941A0FFE
:100010000C941A0F0C941A0F0C941A0F0C941A0FBC
:100020000C941A0F0C941A0F0C941A0F0C941A0FAC
:100030000C941A0F0C941A0F0C941A0F0C941A0F9C
:100040000C941A0F0C941C690C941A0F0C941A0F30
:100050000C941A0F0C941A0F0C94097B0C94EEB3A9
:100060000C941A0F0C9457440C941A0F0C941A0FFA
:100070000C941A0F0C941A0F0C941A0F0C941A0F5C
:100080000C941A0F0C941A0F0C941A0F0C941A0F4C
:100090000C941A0F0C941A0F0C941A0F0C941A0F3C
:1000A0000C941A0F0C941A0F0C941A0F0C941A0F2C
:1000B0000C941A0F0C941A0F0C941A0F0C941A0F1C
:1000C0000C941A0F0C941A0F0C941A0F0C941A0F0C
:1000D0000C941A0F0C941A0F0C941A0F0C941A0FFC
:1000E0000C941A0F462D462D512D512D512D5C2D5E
:1000F0005C2D5C2D712D672D672D672D567B657BE3
:10010000817B907BAA7BB97BD37BD77BDF7B1BB5C5
:1001100020B525B52FB539B5B2B543B54BB553B5F7
:100120005DB567B571B580B58AB5B2B594B59EB504
:10013000A8B5D3B5D6B5C5B5C9B5CFB50DB6DAB581
:10014000DEB5E4B5E8B5ECB5F2B5F6B5FAB50DB681
:1001500000B604B608B6084AD73B3BCE016E84BC55
:10016000BFFDC12F3D6C74319ABD56833DDA3D0011
:10017000C77F11BED9E4BB4C3E916BAAAABE00005A
:1001800000803F05A84CCDB2D44EB93836A9020C38
:1001900050B9918688083CA6AAAA2ABE0000008011
:1001A0003F004D383420582059205A2045004361E3
:1001B0006E6E6F7420656E7465722073756264690B
:1001C000723A20004D3234004D32332025730061E5
:1001D00075746F25692E67006572726F7220777271
:1001E0006974696E6720746F2066696C65004E6F74
:1001F00074205344207072696E74696E67002F001A
:100200005344207072696E74696E672062797465F8
:1002100020002E0044656C6574696F6E206661690C
:100220006C65642C2046696C653A200046696C65F3
:100230002064656C657465643A002E006F70656EAD
:10024000206661696C65642C2046696C653A200003
:1002500057726974696E6720746F2066696C653ABD
:1002600020002E006F70656E206661696C65642CDD
:100270002046696C653A20002E006F70656E20661E
:1002800061696C65642C2046696C653A200046699A
:100290006C652073656C6563746564002053697ACE
:1002A000653A200046696C65206F70656E65643A3A
:1002B00020002E006F70656E206661696C65642C8D
:1002C0002046696C653A20004E6F77206672657330
:1002D000682066696C653A20004E6F7720646F690C
:1002E0006E672066696C653A20002220706F73008B
:1002F0002220706172656E743A2200535542524F4B
:100300005554494E452043414C4C207461726765F9
:10031000743A2200747279696E6720746F20636189
:100320006C6C207375622D67636F64652066696C01
:100330006573207769746820746F6F206D616E79C2
:10034000206C6576656C732E204D4158206C657667
:10035000656C2069733A0053442063617264206FB6
:100360006B006F70656E526F6F74206661696C65AB
:100370006400766F6C756D652E696E6974206661B8
:10038000696C656400534420696E69742066616914
:100390006C006563686F3A004572726F723A00488C
:1003A000617264636F6465642044656661756C7432
:1003B0002053657474696E6773204C6F6164656463
:1003C0000053746F7265642073657474696E67732B
:1003D0002072657472696576656400204400204966
:1003E000002020204D3330312050005049442073EC
:1003F000657474696E67733A00205A0020590020B2
:10040000204D323036205800486F6D65206F66668B
:1004100073657420286D6D293A00204500205A002C
:1004200020580020420020540020204D323035203A
:100430005300416476616E63656420766172696120
:10044000626C65733A20533D4D696E206665656444
:100450007261746520286D6D2F73292C20543D4DD9
:10046000696E2074726176656C2066656564726180
:10047000746520286D6D2F73292C20423D6D696EA7
:10048000696D756D207365676D656E742074696D37
:100490006520286D73292C20583D6D6178696D7534
:1004A0006D205859206A65726B20286D6D2F732955
:1004B0002C20205A3D6D6178696D756D205A206A37
:1004C00065726B20286D6D2F73292C2020453D6DA2
:1004D0006178696D756D2045206A65726B20286DA5
:1004E0006D2F73290020540020204D3230342053CA
:1004F00000416363656C65726174696F6E3A205385
:100500003D616363656C65726174696F6E2C205424
:100510003D7265747261637420616363656C6572BA
:100520006174696F6E00204500205A002059002038
:10053000204D3230312058004D6178696D756D2045
:10054000416363656C65726174696F6E20286D6DBF
:100550002F7332293A00204500205A0020590020EC
:10056000204D3230332058004D6178696D756D2013
:1005700066656564726174657320286D6D2F7329DB
:100580003A00204500205A0020590020204D3932E1
:1005900020580053746570732070657220756E6901
:1005A000743A0053657474696E67732053746F7284
:1005B0006564006563686F3A0053544F505045447A
:1005C0002E20005072696E7465722073746F7070A3
:1005D00065642064756520746F206572726F727334
:1005E0002E2046697820746865206572726F7220CB
:1005F000616E6420757365204D39393920746F2020
:10060000726573746172742E202854656D70657202
:1006100061747572652069732072657365742E202C
:100620005365742069742061667465722072657305
:1006300074617274696E6729004B494C4C45442EB5
:1006400020005072696E7465722068616C74656414
:100650002E206B696C6C28292063616C6C656421A9
:10066000006F6B00526573656E643A20002200557E
:100670006E6B6E6F776E20636F6D6D616E643A2086
:1006800022004368616E67652066696C616D656E06
:1006900074005A204F6666736574203A20007A5FB2
:1006A0006D61783A20007A5F6D696E3A20005A20B9
:1006B0004F6666736574005A204F666673657420D2
:1006C0006F6B007A5F6D696E3A2000795F6D6178BB
:1006D0003A2000785F6D696E3A2000205A3A002077
:1006E000593A0020436F756E7420583A2000204517
:1006F0003A00205A3A0020593A00583A00464952E6
:100700004D574152455F4E414D453A4D61726C69BE
:100710006E2056313B20537072696E7465722F677C
:1007200072626C206D617368757020666F722067ED
:10073000656E36204649524D574152455F55524CE1
:100740003A687474703A2F2F7777772E726F6F69CB
:10075000656A6F7269732E6E6C2F7A2D756E6C6977
:100760006D697465642050524F544F434F4C5F562F
:10077000455253494F4E3A312E30204D414348495E
:100780004E455F545950453A5A2D556E6C696D6906
:100790007465642045585452554445525F434F5543
:1007A0004E543A3120555549443A3030303030308B
:1007B00030302D303030302D303030302D30303042
:1007C000302D3030303030303030303030300A0082
:1007D0005A2D556E6C696D69746564204F66662E7E
:1007E0000042656420646F6E652E0020423A00204E
:1007F000453A00543A004265642048656174696E68
:10080000672E0048656174696E6720646F6E652E9F
:100810000020573A0020453A00543A004865617478
:10082000696E672E2E2E002042403A0020403A008A
:10083000202F003A00205400202F0020423A0020B0
:100840002F006F6B20543A002569206D696E2C20B3
:1008500025692073656300456E642066696C6520B8
:100860006C69737400426567696E2066696C652007
:100870006C697374004E6F206D6F76652E00526543
:1008800073756D696E67207072696E740057616967
:100890007420666F7220757365722E2E2E00536C55
:1008A0006565702E2E2E00256920686F7572732085
:1008B0002569206D696E7574657300446F6E6520DF
:1008C0007072696E74696E672066696C6500535456
:1008D0004F505045442E20005072696E746572204E
:1008E00073746F707065642064756520746F206523
:1008F00072726F72732E2046697820746865206565
:1009000072726F7220616E6420757365204D393983
:100910003920746F20726573746172742E202854AC
:10092000656D70657261747572652069732072659A
:100930007365742E20536574206974206166746534
:10094000722072657374617274696E6729006F6BCF
:10095000004E6F204C696E65204E756D6265722089
:100960007769746820636865636B73756D2C204CC0
:10097000617374204C696E653A20004E6F204368A5
:1009800065636B73756D2077697468206C696E653B
:10099000206E756D6265722C204C617374204C69F9
:1009A0006E653A2000636865636B73756D206D69D1
:1009B000736D617463682C204C617374204C696E94
:1009C000653A20004C696E65204E756D6265722037
:1009D0006973206E6F74204C617374204C696E656E
:1009E000204E756D6265722B312C204C6173742022
:1009F0004C696E653A20004D31313000446F6E65B0
:100A000020736176696E672066696C652E006F6B76
:100A1000004D3239002020506C616E6E6572427557
:100A20006666657242797465733A20002046726585
:100A300065204D656D6F72793A20004E6F762031DA
:100A400034203230313600436F6D70696C65643A22
:100A50002000284A6F726973202D207A2D756E6CE4
:100A6000696D6974656420302E312900207C204135
:100A70007574686F723A20004E6F762031342032E0
:100A80003031362032323A30383A353400204C6139
:100A9000737420557064617465643A2000312E309F
:100AA0002E30004D61726C696E0020536F66747752
:100AB00061726520526573657400205761746368C4
:100AC000646F67205265736574002042726F776EA1
:100AD000206F7574205265736574002045787465C5
:100AE000726E616C20526573657400506F77657229
:100AF0005570007374617274002200656E717565C3
:100B0000696E672022002200656E717565696E67E7
:100B1000202200FF01FF0000A0400000A0400000D4
:100B2000004000005243000052430080094500008D
:100B3000000000005243000000000000524300008B
:100B40005243008009450000000000000000000042
:100B500000006563686F3A004572726F723A002058
:100B6000746F6F206C6F6E6720657874727573692F
:100B70006F6E2070726576656E7465640020636FB9
:100B80006C6420657874727573696F6E207072651D
:100B900076656E746564006563686F3A0041414133
:100BA00041E1414143454545454949494944EE4FA5
:100BB0004F4F4FEF784F555555F55954E2616161EC
:100BC00061E1616163656565656969696964EE6FC5
:100BD0006F6F6FEFFD6F757575F5797479007C3CFB
:100BE0003E5E2B3D3F2F5B5D3B2C2A225C00656EF9
:100BF0006473746F7073206869743A205A00205AC5
:100C00003A00656E6473746F7073206869743A207B
:100C1000590020593A00656E6473746F70732068D0
:100C200069743A20580020583A00656E6473746FF6
:100C30007073206869743A200024F4D43050C38E55
:100C400020C2A24017828B7011127A910D816CD94B
:100C50000AA861E108C7586607615143061E4B5D4B
:100C600005C145A7041A411104093D9803713931A2
:100C7000034036DB0265339102D4305402802E1DCE
:100C800002632CEE01752AC501B028A0011027814E
:100C9000018F2564012B244B01E0223401AC211F7C
:100CA000018D200D01801FFC00841EED00971DDFCB
:100CB00000B81CD200E61BC600201BBC00641AB2A0
:100CC00000B219A8000A19A0006A189900D117915A
:100CD0000040178B00B516840031167E00B31579DD
:100CE000003A157300C7146F0058146A00EE1366BB
:100CF000008813630025135E00C7125B006C125757
:100D00000015125400C111510070114F0021114BF8
:100D100000D61049008D10470046104400021042D2
:100D200000C00F4000800F3E00420F3C00060F3B0A
:100D300000CB0E3800930E37005C0E3500270E34C2
:100D400000F30D3200C10D3100900D3000600D2E0A
:100D500000320D2D00050D2C00D90C2B00AE0C29F6
:100D600000850C29005C0C2700350C27000E0C2692
:100D700000E80B2400C40B2400A00B23007D0B23F0
:100D8000005A0B2100390B2100180B2000F80A1F14
:100D900000D90A1E00BB0A1E009D0A1D00800A1D04
:100DA00000630A1C00470A1B002C0A1B00110A1AC8
:100DB00000F7091A00DD091900C4091900AB091967
:100DC00000920917007B091800630917004C0916E7
:100DD0000036091600200916000A091500F5081545
:100DE00000E0081400CC081400B8081400A408148B
:100DF00000900813007D0812006B081300580812B9
:100E000000460812003408110023081100120811CE
:100E10000001081100F0071000E0071000D00710D3
:100E200000C0071000B0070F00A107100091070EC7
:100E30000083070F0074070F0065070E0057070EA9
:100E40000049070E003B070D002E070E0020070D7E
:100E50000013070D0006070D00F9060C00ED060D46
:100E600000E0060C00D4060C00C8060C00BC060C02
:100E700000B0060C00A4060B0099060C008D060BB2
:100E80000082060B0077060B006C060B0061060A59
:100E90000057060B004C060A0042060A0038060AF4
:100EA000002E060A0024060A001A060A0010060987
:100EB0000007060A00FD050900F4050900EB050915
:100EC00000E2050900D9050900D0050900C7050998
:100ED00000BE050900B5050800AD050800A5050917
:100EE000009C050800940508008C0508008405088E
:100EF000007C050800740508006C050700650508FE
:100F0000005D050700560508004E05070047050768
:100F1000004005080038050700310507002A0507CD
:100F200000230507001C050600160507000F05072E
:100F3000000805060002050700FB040600F504078B
:100F400000EE040600E8040600E2040700DB0406E5
:100F500000D5040600CF040600C9040600C3040639
:100F600000BD040600B7040600B1040500AC040689
:100F700000A6040600A00405009B040600950405D5
:100F800000900406008A040500850405008004061C
:100F9000007A04050075040500700405006B040563
:100FA0000066040500610405005C040500570405A3
:100FB00000520405004D04050048040500430405E3
:100FC000003E0404003A0405003504050030040422
:100FD000002C04050027040400230405001E04045B
:100FE000001A04040016040500110404000D040492
:100FF00000090405000404040000040400FC0304C8
:1010000000F8030400F4030400F0030400EC0304FC
:1010100000E8030400E4030400E0030400DC03042C
:1010200000D8030400D4030400D0030400CC03045C
:1010300000C8030300C503030024F404D9201BC423
:101040000C5C0E9804C4095F0265077101F405F990
:1010500000FB04B30048048700C10369005803552E
:101060000003034500BE023A008402310053022A05
:10107000002902250004022000E4011C00C8011917
:1010800000AF0117009801140084011300710110D2
:10109000006101100051010E0043010D0036010BEB
:1010A000002B010B0020010B00150109000C0109A8
:1010B0000003010800FB000800F3000800EB000734
:1010C00000E4000600DE000600D8000600D200069C
:1010D00000CC000500C7000500C2000500BD0004EB
:1010E00000B9000400B5000400B1000400AD000424
:1010F00000A9000400A5000300A20003009F000453
:10110000009B000300980003009500020093000379
:1011100000900003008D0002008B00030088000295
:10112000008600020084000300810002007F0002AC
:10113000007D0002007B00020079000200770001C0
:1011400000760002007400020072000100710002CB
:10115000006F0002006D0001006C0002006A0001D7
:1011600000690002006700010066000100650001DF
:1011700000640002006200010061000100600001E3
:10118000005F0002005D0001005C0001005B0001E7
:10119000005A0001005900010058000100570001E9
:1011A00000560001005500010054000100530000EA
:1011B00000530001005200010051000100500001E5
:1011C000004F0001004E0000004E0001004D0001E4
:1011D000004C0001004B0000004B0001004A0001E0
:1011E00000490001004800000048000100470001DC
:1011F00000460000004600010045000000450001D7
:1012000000440001004300000043000100420000D0
:1012100000420001004100000041000100400001C7
:10122000003F0000003F0001003E0000003E0001C2
:10123000003D0000003D0001003C0000003C0000BB
:10124000003C0001003B0000003B0001003A0000B0
:10125000003A0001003900000039000100380000A8
:10126000003800000038000100370000003700019E
:101270000036000000360000003600010035000096
:10128000003500000035000100340000003400008B
:10129000003400010033000000330000003300017F
:1012A0000032000000320000003200010031000076
:1012B000003100000031000100300000003000006B
:1012C00000300001002F0000002F0000002F000060
:1012D000002F0001002E0000002E0000002E000153
:1012E000002D0000002D0000002D0000002D000149
:1012F000002C0000002C0000002C0000002C00013D
:10130000002B0000002B0000002B0000002B000130
:10131000002A0000002A0000002A0000002A000124
:101320000029000000290000002900000029000019
:10133000002900010028000000280000002800000B
:1013400000280000002800010027000000270000FE
:1013500000270000002700000027000100260000F1
:1013600000260000002600000026000000260001E4
:1013700000250000002500000025000000250000D9
:1013800000250000002500010024000000240000CA
:1013900000240000002400000024000100230000BD
:1013A00000230000002300000023000000230000B1
:1013B00000230000002300010022000000220000A2
:1013C0000022000000220000002200000022000194
:1013D0000021000000210000002100000021000089
:1013E0000021000000210000002100010020000079
:1013F000002000000020000000200000002000006D
:10140000002000000020000000200001001F00005C
:10141000001F0000001F0000001F0000001F000050
:10142000001F0000001F0001001E0000001E000041
:10143000001E0000001E0000006563686F3A004552
:1014400072723A204D415854454D50204245440057
:1014500054656D706572617475726520686561743C
:1014600065642062656420737769746368656420CD
:101470006F66662E204D415854454D502074726958
:10148000676765726564202121004572723A204DBC
:10149000494E54454D50003A204578747275646544
:1014A00072207377697463686564206F66662E20A6
:1014B0004D494E54454D5020747269676765726599
:1014C000642021004572723A204D415854454D50D8
:1014D000003A204578747275646572207377697478
:1014E00063686564206F66662E204D415854454DF3
:1014F00050207472696767657265642021004865D1
:101500006174696E67206661696C656400202D20D6
:10151000496E76616C696420657874727564657271
:10152000206E756D6265722021005049442041751E
:10153000746F74756E652066696E69736865642181
:101540002050757420746865206C617374204B7032
:101550002C204B6920616E64204B6420636F6E7396
:1015600074616E74732066726F6D2061626F766550
:1015700020696E746F20436F6E666967757261745F
:10158000696F6E2E6800504944204175746F747500
:101590006E65206661696C6564212074696D656F94
:1015A00075740020403A006F6B20543A006F6B2036
:1015B000423A00504944204175746F74756E65203D
:1015C0006661696C6564212054656D706572617433
:1015D00075726520746F6F206869676800204B64BE
:1015E0003A2000204B693A2000204B703A2000201E
:1015F000436C617373696320504944200020547523
:101600003A2000204B753A2000206D61783A200086
:10161000206D696E3A200020643A200020626961E2
:10162000733A20006563686F3A004572726F723AD0
:101630000000000000300E0100C00E0A00500F1420
:1016400000D00F1E0060102800E010320070113C26
:1016500000F01146007012500000135A008013640D
:101660000000146E00901478001015820090158C04
:1016700000101696009016A0001017AA009017B43C
:10168000001018BE009018C8001019D2009019DC84
:1016900000101AE600801AF000001BFA00801B04FC
:1016A00001F01B0E01701C1801F01C2201601D2CA2
:1016B00001E01D3601501E4001D01E4A01401F545A
:1016C00001B01F5E0130206801A020720110217C52
:1016D0000190218601002290016026F401902A5891
:1016E00002802EBC0250322003E03584035039E8DA
:1016F00003803C4C04436172642072656D6F7665B3
:1017000064004361726420696E736572746564007D
:101710002D2D3A2D2D002D2D2D0053440020590044
:101720000120000120004261627973746570706964
:101730006E67205800426162797374657070696EDB
:1017400067205900426162797374657070696E67D1
:10175000205A004D363030004368616E6765206660
:10176000696C616D656E7400426162797374657055
:10177000205A004261627973746570205900426199
:10178000627973746570205800466C6F7700466C00
:101790006F770046616E2073706565640046616E08
:1017A0002073706565640042656400426564004EA4
:1017B0006F7A7A6C65004E6F7A7A6C65005370654B
:1017C0006564005370656564004D61696E004D3855
:1017D0003420583020593000473238005A005072B7
:1017E000656865617420504C412042656400507208
:1017F000656865617420504C4120310050726570FD
:1018000061726500507265686561742041425320C1
:1018100042656400507265686561742041425320DE
:1018200031005072657061726500580059005A00AD
:101830004578747275646572004578747275646574
:1018400072004D6F7665205A004D6F766520590005
:101850004D6F76652058004D6F766520617869730D
:10186000004D6F766520302E316D6D004D6F7665C1
:1018700020316D6D004D6F76652031306D6D0050FB
:10188000726570617265004D6F766520617869736D
:1018900000436F6F6C646F776E00507265686561AE
:1018A0007420414253005072656865617420504C49
:1018B0004100473238205830205930004175746F4C
:1018C00020686F6D652058590047323800417574A3
:1018D0006F20686F6D65004D3834205A004469737D
:1018E00061626C65205A004D3834205820590044FC
:1018F000697361626C65205859004D6F7665205A96
:10190000004175746F20686F6D65004D3834004478
:10191000697361626C6520737465707065727300C1
:101920004175746F7374617274004D61696E005318
:10193000746F7265206D656D6F7279004265640029
:10194000426564004E6F7A7A6C65004E6F7A7A6CED
:10195000650046616E2073706565640046616E20A7
:1019600073706565640054656D706572617475723D
:10197000650053746F7265206D656D6F72790042FA
:10198000656400426564004E6F7A7A6C65004E6F44
:101990007A7A6C650046616E2073706565640046F6
:1019A000616E2073706565640054656D7065726169
:1019B00074757265005072656865617420414253A8
:1019C00020636F6E66005072656865617420504CCC
:1019D0004120636F6E66005049442D4300504944D6
:1019E0002D43005049442D44005049442D4400509B
:1019F00049442D49005049442D49005049442D5037
:101A0000005049442D500046616E20737065656436
:101A10000046616E20737065656400426564004233
:101A20006564004E6F7A7A6C65004E6F7A7A6C65E9
:101A300000436F6E74726F6C004573746570732F22
:101A40006D6D004573746570732F6D6D005A7374FE
:101A50006570732F6D6D005A73746570732F6D6DA3
:101A6000005973746570732F6D6D005973746570D0
:101A7000732F6D6D005873746570732F6D6D005802
:101A800073746570732F6D6D00412D726574726192
:101A9000637400412D7265747261637400416D61FD
:101AA00078206500416D6178206500416D61782086
:101AB0007A00416D6178207A00416D61782079006B
:101AC000416D6178207900416D6178207800416D29
:101AD00061782078005654726176206D696E0056E8
:101AE00054726176206D696E00566D696E00566D98
:101AF000696E00566D6178206500566D61782065CD
:101B000000566D6178207A00566D6178207A005613
:101B10006D6178207900566D6178207900566D618D
:101B200078207800566D617820780056652D6A65BA
:101B3000726B0056652D6A65726B00567A2D6A6568
:101B4000726B00567A2D6A65726B005678792D6A31
:101B500065726B005678792D6A65726B004163631C
:101B6000656C00416363656C00436F6E74726F6CEB
:101B7000004E6F7620313420323031362032323A06
:101B800030383A3538004769746875622063686593
:101B9000636B6F757400556C74696D616B65723A37
:101BA0002031332E3132004669726D7761726520C3
:101BB00076657273696F6E004669726D77617265E2
:101BC0002076657273696F6E00526573746F72650B
:101BD000206661696C73616665004C6F6164206D9D
:101BE000656D6F72790053746F7265206D656D6FEE
:101BF0007279004D6F74696F6E0054656D70657217
:101C00006174757265004D61696E004D38342058FD
:101C10002059205A2045004D3234004D32332025C2
:101C20007300052E2E004D61696E004E6F205344E7
:101C30002063617264005072696E742066726F6D09
:101C40002053440053746F70207072696E74005298
:101C50006573756D65207072696E7400506175737F
:101C600065207072696E7400436F6E74726F6C00E1
:101C7000507265706172650054756E6500496E66DC
:101C80006F2073637265656E0000000A0B02090C19
:101C90000D0E080703040100000000000000000012
:101CA0000000000000000000000000000000000034
:101CB00000000000001211100000000000000000F1
:101CC0000000000000000000000000000000000113
:101CD000021020200808102040102040800201023D
:101CE0000108040201010204081020408080402005
:101CF0001008040201800402018040201008040240
:101D000001080402010102040810204080010204BD
:101D10000810204080050505050705080808080289
:101D20000202020A0A080804040404010101010174
:101D30000101010303030303030303040707070C63
:101D40000C0C0C0C0C0C0C02020202060606060619
:101D50000606060B0B0B0B0B0B0B0B0000220025D2
:101D60000028002B002E0031003400020100000585
:101D70000108010B0100002100240027002A002D8A
:101D8000003000330001010000040107010A014E88
:101D9000414E494E495459494E46CDCCCC3D0AD7C7
:101DA000233C17B7D13877CC2B329595E6241FB159
:101DB0004F0A000020410000C84200401C4620BCE1
:101DC000BE4CCA1B0E5AAEC59D745044B9A617B27C
:101DD000544411241FBECFEFD1E2DEBFCDBF00E0DF
:101DE0000CBF14E0A0E0B2E0ECE2F4E801E00BBFCD
:101DF00002C007900D92A03CB107D9F722E1A0ECF8
:101E0000B4E001C01D92A93CB207E1F71DE1C0EDAD
:101E1000DDE100E006C022970109FE010BBF0E9430
:101E2000D6BBCA3CD10780E00807A9F70E947DB65F
:101E30000C9405C20C940000FC01148217821382DA
:101E4000128284E494E091838083089524E434E052
:101E5000FC01318320832781222319F004960C94FE
:101E60004D5F0895CF92DF92EF92FF920F931F93F1
:101E7000CF93DF93EC018F96DFDFCE01805B9F4F26
:101E8000DBDF7E012FE6E20EF11C87016E013BE5F0
:101E9000C31A3EEFD30AC801CFDF015E1F4F0C15F6
:101EA0001D05C9F7FE01E955FE4F89E181831482C2
:101EB0003596178ACE0186539E4FBEDFFE01E55848
:101EC000FD4F108211821282138238961082118285
:101ED000128213821A821B82188219826E0181E893
:101EE000C81A8DEFD80AF60110821182128213826D
:101EF000F80111821082FE01E751FE4F108286E345
:101F000091E0F7019C01119221503040E1F7FE0170
:101F1000E957FD4F81E080831EA61DA60E9438B4BC
:101F200068577C4E8F4F9F4FF60160837183828389
:101F30009383DF91CF911F910F91FF90EF90DF90EE
:101F4000CF900895FC0120E03EE2DB014C9140324D
:101F500041F0283011F430833196DB014C914083FD
:101F600031962F5F6F5F7F4F2B3079F71082089586
:101F70003F924F925F926F927F928F929F92AF9219
:101F8000BF92CF92DF92EF92FF920F931F93CF9366
:101F9000DF93CDB7DEB7C758D1090FB6F894DEBFCF
:101FA0000FBECDBF8C016B017A01312C84E0E80EAD
:101FB000F11C2801E1E14E0E511C5801F8E7AF1A5F
:101FC000FDEFBF0A480186E7881A8DEF980A80E482
:101FD000682E712C6C0E7D1EE4E06E0E711CA20149
:101FE000BE016F5F7F4FC7010E942F5D18160CF076
:101FF00021C12C85322F3871303109F09CC0F50198
:10200000808191810197029708F495C0BE016F5FAE
:102010007F4FCE0187589F4F95DFA0961FAEA097A8
:10202000F6018081811107C066EE72E0CE01815A0F
:102030009F4F0E94F0BEB601CE01815A9F4F0E9471
:10204000F0BEBE0167587F4FCE01815A9F4F0E945C
:10205000F0BE66EE72E0CE01815A9F4F0E94F0BE44
:10206000CE01805C9F4FE8DE21E0AE0147585F4F14
:10207000B701C3010E944461811139C0F50180811B
:102080009181892BA1F5E2E9F3E08491882341F065
:102090009091C00095FFFCCF8093C6003196F5CF9C
:1020A000E8EEF2E08191882339F09091C00095FF2D
:1020B000FCCF8093C600F6CF8091C00085FFFCCF97
:1020C0008AE08093C600FE01E758FF4F8191882384
:1020D00039F09091C00095FFFCCF8093C600F6CFF9
:1020E0008091C00085FFFCCF8AE08093C6008BE121
:1020F000FE01EC5BFF4FDE01959601900D928A95F3
:10210000E1F724968EAD9FAD24979CA38BA384E426
:1021100094E09AA389A3AE014F5D5F4FBE01615A5F
:102120007F4FC80125DFCE01819690DECE01805C15
:102130009F4F8CDE54CF8981882309F47BC0853E74
:1021400009F44DCF8E3209F44ACF8F3509F447CFC9
:10215000F8018189882331F08E3209F440CF8F3520
:1021600009F43DCF23FD3BCF81E0303109F080E021
:10217000F80184A7811108C08985873409F02FCF21
:102180008A858E3709F42BCF98012C5F3F4FBE0113
:102190006F5F7F4FC901CA57DF4F2883C658D040B1
:1021A000C957DF4F3883C758D040CCDEF501808156
:1021B0009181CA57DF4F2881C658D040C957DF4F99
:1021C0003881C758D0400097F1F4F60181918823F7
:1021D00039F09091C00095FFFCCF8093C600F6CFF8
:1021E000F9018191882339F09091C00095FFFCCFCF
:1021F0008093C600F6CF8091C00085FFFCCF8AE0B7
:102200008093C600ECCE8130910539F4F4018081D1
:102210009181019691838083E2CE029709F0DFCE0F
:10222000232D30E0F401808191812817390711F0C6
:102230003394D5CEC957DF4F0FB6F894DEBF0FBE2B
:10224000CDBFDF91CF911F910F91FF90EF90DF9065
:10225000CF90BF90AF909F908F907F906F905F9046
:102260004F903F900895EF92FF920F931F93CF935B
:10227000DF93CDB7DEB76F970FB6F894DEBF0FBE12
:10228000CDBF8C01FC01E857FD4F118210827C010B
:1022900083E3E80EF11C40E050E0BA01C7010E9460
:1022A0006A5E8BE1F701DE01159601900D928A9529
:1022B000E1F7F80181A992A99C838B8384E494E0DF
:1022C0009A838983AE014F5F5F4F6BE574E0C8016D
:1022D0004FDECE010196BADD6F960FB6F894DEBFE1
:1022E0000FBECDBFDF91CF911F910F91FF90EF9067
:1022F00008952BE1FB013496DC01149601900D92B8
:102300002A95E1F7FB0122813381FC01338322838B
:102310000895EF92FF920F931F93CF93DF93EC01F9
:102320001B828EA9882321F0CE01C3960E944D5FA7
:102330007E0189E5E81A8EEFF80A45E360E0C701FF
:102340000E94335981111FC0E2E9F3E08491882390
:1023500041F09091C00095FFFCCF8093C60031966C
:10236000F5CFE5E8F3E08491882341F09091C00037
:1023700095FFFCCF8093C6003196F5CF8091C000C9
:1023800085FFFCCF76C08E0104551E4F41E0B7019A
:10239000C8010E943767811126C040E0B701C8011B
:1023A0000E94376781111FC0E8E9F3E08491882318
:1023B00041F09091C00095FFFCCF8093C60031960C
:1023C000F5CFE2E7F3E08491882341F09091C000DB
:1023D00095FFFCCF8093C6003196F5CF8091C00069
:1023E00085FFFCCF46C0B801CE01C3960E94BE5BFC
:1023F00081111FC0E8E9F3E08491882341F09091B6
:10240000C00095FFFCCF8093C6003196F5CFE2E681
:10241000F3E08491882341F09091C00095FFFCCFB8
:102420008093C6003196F5CF8091C00085FFFCCF28
:1024300020C081E08B83E2E9F3E08491882341F0BE
:102440009091C00095FFFCCF8093C6003196F5CFE8
:10245000E7E5F3E08491882341F09091C00095FF77
:10246000FCCF8093C6003196F5CF8091C00085FFE8
:10247000FCCF8AE08093C6008E01015D1F4FB8013A
:10248000CE01805B9F4F35DFC25BDF4F198308832E
:10249000DF91CF911F910F91FF90EF9008950F93CF
:1024A0001F93CF93DF93EC018C01005B1F4FBC01A6
:1024B000615D7F4FC8011DDFC25BDF4F1983088359
:1024C000DF91CF911F910F910895FC011282138229
:1024D0000895FC012381222311F021E02283089535
:1024E000FC012281211112820895AF92BF92CF92F6
:1024F000DF92EF92FF920F931F93CF93DF931F9280
:10250000CDB7DEB78C018FE2FB0181935F01D12C47
:1025100041E07801FBE5EF1AFEEFFF0A9FE1C92ECB
:102520002D2D30E0F7018081918128173907D8F4EB
:10253000C29EC001C39E900D11248D589F4FB501BE
:10254000800F911F49830E94675BC50149815C012F
:102550000196F5012081222321F04D3810F44F5FC0
:10256000F6CFD394DDCF47FD11C0B501C80182532A
:102570009E4F0F90DF91CF911F910F91FF90EF90A1
:10258000DF90CF90BF90AF900C94675BF501108205
:102590000F90DF91CF911F910F91FF90EF90DF90FF
:1025A000CF90BF90AF9008952F923F924F925F923D
:1025B0006F927F928F929F92AF92BF92CF92DF9253
:1025C000EF92FF920F931F93CF93DF93CDB7DEB7B8
:1025D000AC970FB6F894DEBF0FBECDBF8C016B0178
:1025E000342EFC018381882309F4D3C2EF52FE4FBD
:1025F0008081882309F4F8C02111C4C07801F7E173
:10260000EF1AFEEFFF0AF7018081882361F1E8E904
:10261000F3E08491882341F09091C00095FFFCCFB6
:102620008093C6003196F5CFE4E1F3E084918823EE
:1026300041F09091C00095FFFCCF8093C600319689
:10264000F5CF4AE050E061E070E08BE599E00E9450
:10265000A4458091C00085FFFCCF8AE08093C6002E
:102660000E945A2C96C2E2E9F3E08491882341F05B
:102670009091C00095FFFCCF8093C6003196F5CFB6
:10268000EBEFF2E08491882341F09091C00095FF38
:10269000FCCF8093C6003196F5CFF6018191882357
:1026A00039F09091C00095FFFCCF8093C600F6CF23
:1026B000E0EFF2E08491882341F09091C00095FF13
:1026C000FCCF8093C6003196F5CFF70180813DE8BD
:1026D000B32EB801B89E600D711D112462517E4F5A
:1026E000C80103DFF7018081F801B89EE00DF11DFC
:1026F0001124E251FE4F8191882339F09091C0005E
:1027000095FFFCCF8093C600F6CFEAEEF2E084910D
:10271000882341F09091C00095FFFCCF8093C600C4
:102720003196F5CF5801FDE7AF1AFDEFBF0AF5016D
:1027300040815181628173812AE030E08BE599E02C
:102740000E94D0458091C00085FFFCCF8AE0809335
:10275000C600F7012081F80184E0289FE00DF11DFB
:102760001124AF0146515E4FF50180819181A28114
:10277000B381FA0180839183A283B3832F5FF70132
:1027800020832CC0E2E9F3E08491882341F090910A
:10279000C00095FFFCCF8093C6003196F5CFE9EDE0
:1027A000F2E08491882341F09091C00095FFFCCF26
:1027B0008093C6003196F5CFF6018191882339F0D8
:1027C0009091C00095FFFCCF8093C600F6CF80911A
:1027D000C00085FFFCCF8AE08093C600C801825309
:1027E0009E4F0E944D5F30C0F801E751FE4F1082AE
:1027F000E2E9F3E08491882341F09091C00095FFD5
:10280000FCCF8093C6003196F5CFE8ECF2E08491DE
:10281000882341F09091C00095FFFCCF8093C600C3
:102820003196F5CFF6018191882339F09091C0005F
:1028300095FFFCCF8093C600F6CF8091C00085FF46
:10284000FCCF8AE08093C600F8011282CE01019687
:102850005C01F2DA28019EE4490E511CC8018F96F2
:10286000F20191838083F60180818F3209F084C068
:102870006FE270E0C6010E94FBBE01967C012AE077
:10288000222EE114F10409F47DC06FE270E0C7016B
:102890000E94FBBE4C01009709F475C0E816F906CA
:1028A00008F071C03C016E187F08A301B701CE018A
:1028B00080960E941BBFE0E2F0E0EC0FFD1FE60DEA
:1028C000F71D1082FE01B0968191882339F0909116
:1028D000C00095FFFCCF8093C600F6CF8091C0006A
:1028E00085FFFCCF2092C600F201608171816115E5
:1028F000710519F06C5F7F4F02C060E070E021E06D
:10290000AE01405E5F4FCE0105960E944461811189
:102910002BC0E4EBF2E08491882341F09091C00059
:1029200095FFFCCF8093C6003196F5CFFE01B0969F
:102930008191882339F09091C00095FFFCCF80935E
:10294000C600F6CFE2EBF2E08491882341F090914B
:10295000C00095FFFCCF8093C6003196F5CF8091E3
:10296000C00085FFFCCFEAC0F201B182A0827401F1
:10297000FFEFEF1AFF0A85CFC801805B9F4FF2017E
:10298000918380837601C80182539E4F4C01F201EE
:1029900060817181332009F499C06115710519F0C6
:1029A0006C5F7F4F02C060E070E021E0A701C401CE
:1029B0000E944461882309F45FC0F40181899289EF
:1029C000A389B489F801E558FD4F80839183A283E0
:1029D000B383E4EAF2E08491D801A558BD4F88237F
:1029E00049F09091C00095FFFCCF8093C6003196CE
:1029F0008491F5CFF7018191882339F09091C0003F
:102A000095FFFCCF8093C600F6CFECE9F2E084910D
:102A1000882341F09091C00095FFFCCF8093C600C1
:102A20003196F5CF4D915D916D917C912AE030E02A
:102A30008BE599E00E94D0458091C00085FFFCCFD6
:102A40008AE08093C600F801ED57FD4F1082118295
:102A500012821382EEE8F2E08491882341F0909193
:102A6000C00095FFFCCF8093C6003196F5CF8091D2
:102A7000C00085FFFCCF85C0EAE7F2E0849188239F
:102A800041F09091C00095FFFCCF8093C600319635
:102A9000F5CFF7018191882339F09091C00095FF1F
:102AA000FCCF8093C600F6CFE8E7F2E0849188235C
:102AB00041F09091C00095FFFCCF8093C600319605
:102AC000F5CF8091C00085FFFCCF38C0611571053E
:102AD00019F06C5F7F4F02C060E070E026E5A7014F
:102AE000C4010E94446181112DC0E4E6F2E08491AA
:102AF000882341F09091C00095FFFCCF8093C600E1
:102B00003196F5CFF7018191882339F09091C0007B
:102B100095FFFCCF8093C600F6CFE2E6F2E0849109
:102B2000882341F09091C00095FFFCCF8093C600B0
:102B30003196F5CF8091C00085FFFCCF8AE080936D
:102B4000C60025C081E0F8018083E0E5F2E08491D1
:102B5000882341F09091C00095FFFCCF8093C60080
:102B60003196F5CFF6018191882339F09091C0001C
:102B700095FFFCCF8093C600F6CF8091C00085FF03
:102B8000FCCF8AE08093C600C7010E941D91C50159
:102B90005DD9AC960FB6F894DEBF0FBECDBFDF9106
:102BA000CF911F910F91FF90EF90DF90CF90BF904A
:102BB000AF909F908F907F906F905F904F903F90DD
:102BC0002F90089521E0FC01218340E0EDCC3F925D
:102BD0004F925F926F927F928F929F92AF92BF922D
:102BE000CF92DF92EF92FF920F931F93CF93DF93D9
:102BF000CDB7DEB7AC970FB6F894DEBF0FBECDBF32
:102C00007C015B01FC018381882309F400C1C701B9
:102C100082539E4F0E944D5FF7011282CE010196B2
:102C20006C010AD927019EE4490E511CC7018F96F9
:102C3000F20191838083F50180818F3209F084C095
:102C40006FE270E0C5010E94FBBE8C010F5F1F4F59
:102C50004AE0342E0115110509F47CC06FE270E0E2
:102C6000C8010E94FBBE4C01009709F474C008170C
:102C7000190708F070C03C01601A710AA301B8017D
:102C8000CE0180960E941BBFE0E2F0E0EC0FFD1F3A
:102C9000E60DF71D1082FE01B0968191882339F070
:102CA0009091C00095FFFCCF8093C600F6CF809135
:102CB000C00085FFFCCF3092C600F20160817181B7
:102CC0006115710519F06C5F7F4F02C060E070E024
:102CD00021E0AE01405E5F4FCE0105960E94446147
:102CE00081112BC0ECE3F2E08491882341F09091B4
:102CF000C00095FFFCCF8093C6003196F5CFFE0152
:102D0000B0968191882339F09091C00095FFFCCF57
:102D10008093C600F6CFEAE3F2E08491882341F085
:102D20009091C00095FFFCCF8093C6003196F5CFFF
:102D30008091C00085FFFCCF65C0F201D182C082C6
:102D400084010F5F1F4F86CFC701805B9F4FF20149
:102D5000918380838501F20180819181009711F038
:102D6000049602C080E090E0B8010E941A628823B5
:102D700001F1ECE2F2E08491882341F09091C000EF
:102D800095FFFCCF8093C6003196F5CFF801819175
:102D9000882339F09091C00095FFFCCF8093C60046
:102DA000F6CFF701ED57FD4F108211821282138288
:102DB0002CC0E4E1F2E08491882341F09091C000BE
:102DC00095FFFCCF8093C6003196F5CFF801819135
:102DD000882339F09091C00095FFFCCF8093C60006
:102DE000F6CFE2E1F2E08491882341F09091C000B7
:102DF00095FFFCCF8093C6003196F5CF8091C0003F
:102E000085FFFCCF8AE08093C600C6011FD8AC9630
:102E10000FB6F894DEBF0FBECDBFDF91CF911F91EB
:102E20000F91FF90EF90DF90CF90BF90AF909F9069
:102E30008F907F906F905F904F903F900895CF93C9
:102E4000DF93EC018B818823C1F1E0E0F2E0849113
:102E5000882341F09091C00095FFFCCF8093C6007D
:102E60003196F5CFFE01ED57FD4F408151816281D2
:102E700073812AE030E08BE599E00E94D045EEEFC7
:102E8000F1E08491882341F09091C00095FFFCCF40
:102E90008093C6003196F5CFC558DD4F48815981E2
:102EA0006A817B812AE030E08BE599E00E94D04581
:102EB0008091C00085FFFCCF11C0EEEEF1E084915F
:102EC000882341F09091C00095FFFCCF8093C6000D
:102ED0003196F5CF8091C00085FFFCCF8AE08093CA
:102EE000C600DF91CF910895AF92BF92CF92DF924B
:102EF000EF92FF920F931F93CF93DF935C01EB014F
:102F0000FB0101900020E9F78F0101501109061B18
:102F1000170B6C01F2E3CF1AFEEFDF0AF601108205
:102F20006EE470E0CE010E94FBBE7C01009729F4A4
:102F3000F8013197EC0FFD1F0DC060E270E00E94B8
:102F4000FBBEEC0121966AE270E0C7010E94FBBE65
:102F5000FC0131978DE081838AE082831382BE0178
:102F6000C50186539E4F0E94E063F601808188234D
:102F700009F1E8E9F3E08491882341F09091C000E1
:102F800095FFFCCF8093C6003196F5CFE8EDF1E0D8
:102F90008491882341F09091C00095FFFCCF8093ED
:102FA000C6003196F5CF8091C00085FFFCCF8AE046
:102FB0008093C600DF91CF911F910F91FF90EF900A
:102FC000DF90CF90BF90AF9008952F923F924F9295
:102FD0005F926F927F928F929F92AF92BF92CF92A9
:102FE000DF92EF92FF920F931F93CF93DF93CDB7B2
:102FF000DEB7CC55D1090FB6F894DEBF0FBECDBFFA
:103000008C0189579D4F5C01662339F0F5011082D0
:10301000F801838181111DC015C0FC0180818823C6
:1030200009F4ADC0F801E158FD4FC080D180E280C5
:10303000F3800E9438B4C616D706E806F90608F4ED
:103040009EC0E4CFC80165D9F8018381882309F4C3
:1030500096C0F80186A58F9385A58F938FEC91E09C
:103060009F938F937E01FFE3EF0EF11CFF92EF928F
:103070000E942ABF0F900F900F900F900F900F900B
:10308000B12CF70101900020E9F73197EE19FF0903
:10309000BE1684F46701CB0CD11CB7FCDA94F601A0
:1030A0008081992787FD90950E948ABEF6018083D2
:1030B000B394E7CF4801F3E38F0E911C40E050E05A
:1030C000BA01C4010E946A5E512CCE0101966C01C6
:1030D00058EC652E51E0752E5E0191E2A90EB11CEF
:1030E00040E050E0B601C4010E942F5D1816DCF5E7
:1030F000412CF60101900020E9F73197EC19FD0908
:103100004E1674F41601240C311C47FC3A94F1015C
:10311000808190E00E948ABEF10180834394E9CFD0
:103120008A858E37E9F245E050E0B701C6010E947A
:103130000DBF892BA9F6FF92EF927F926F92BF92FB
:10314000AF920E942ABFC5010E94D62284EC91E072
:103150000E9449230F900F900F900F900F900F90A7
:1031600055245394BDCF511004C08FEF9FEFF80149
:1031700004C0F80185A596A5019696A785A7C45A0F
:10318000DF4F0FB6F894DEBF0FBECDBFDF91CF91FA
:103190001F910F91FF90EF90DF90CF90BF90AF9075
:1031A0009F908F907F906F905F904F903F902F9067
:1031B00008950F931F93CF93DF93EC018C0102537B
:1031C0001E4FC8010E94035FC8010E944D5F188214
:1031D0001982DF91CF911F910F910895EF92FF9285
:1031E0000F931F93CF93DF93CDB7DEB76F970FB6D3
:1031F000F894DEBF0FBECDBF8C017C018EE4E80EDB
:10320000F11CC801805B9F4FF70191838083E65CCE
:10321000FD4F22E030E031832083329670E07183ED
:10322000608340E050E0BA0104960E946A5EF701B4
:10323000808191812BE1FC013496DE01159601908D
:103240000D922A95E1F7FC01828193819C838B8307
:1032500084E494E09A838983AE014F5F5F4F6BE50E
:1032600074E0C8010E94B80FCE0101960E94260F9B
:103270006F960FB6F894DEBF0FBECDBFDF91CF9132
:103280001F910F91FF90EF900895CF92DF92EF92F0
:10329000FF920F931F93CF93DF93CDB7DEB76F9756
:1032A0000FB6F894DEBF0FBECDBF8C016C012EE4CB
:1032B000C20ED11C805B9F4FF60191838083E65C38
:1032C000FD4F21E030E0318320837801F6E7EF1AEB
:1032D000FDEFFF0AF7011182108240E050E0BA01D1
:1032E00004960E946A5EF601808191812BE1FC01C7
:1032F0003496DE01159601900D922A95E1F7FC01B6
:10330000828193819C838B8384E494E09A83898374
:10331000AE014F5F5F4F6BE574E0C8010E94B80FCC
:10332000CE0101960E94260FF701808191816F9650
:103330000FB6F894DEBF0FBECDBFDF91CF911F91C6
:103340000F91FF90EF90DF90CF900895AF92BF92D2
:10335000CF92DF92EF92FF920F931F93CF93DF9361
:10336000CDB7DEB76F970FB6F894DEBF0FBECDBFF7
:103370008C017B01CE0101960E941C0FF801E95AD5
:10338000FF4F80816801811104C02FE2C20ED11C61
:1033900003C080E5C80ED11C21E0A701B6016C5F17
:1033A0007F4FCE0105960E94446181112DC0E2E954
:1033B000F3E08491882341F09091C00095FFFCCF09
:1033C0008093C6003196F5CFEEEAF1E08491882330
:1033D00041F09091C00095FFFCCF8093C6003196DC
:1033E000F5CFF7018191882339F09091C00095FFC6
:1033F000FCCF8093C600F6CF8091C00085FFFCCF44
:103400008AE08093C60036C0F801EB55FE4F8081FC
:1034100091818A30910530F59C012F5F3F4F3183B8
:1034200020832FE1289F7001299FF00C11242FE6A3
:10343000E20EF11CE00EF11E5C01B701C7014F96D0
:103440000E94791181E0A81AB1082FE1E21AF1086F
:103450008FEFA816B80689F7B601C80181599F4FAA
:103460000E947911BE016F5F7F4FC801805B9F4F43
:103470000E947911CE0101960E94260F6F960FB619
:10348000F894DEBF0FBECDBFDF91CF911F910F919A
:10349000FF90EF90DF90CF90BF90AF900895EF92A4
:1034A000FF920F931F93CF93DF93EC01CB55DE4F29
:1034B0002881398121153105F9F0215031093983ED
:1034C00028838C0101591F4FB801805B9F4F0E94D8
:1034D0007911C80100E010E07C012FE1E20EF11C3F
:1034E000288139810217130738F40F5F1F4FB70186
:1034F0000E947911C701F0CFDF91CF911F910F91F9
:10350000FF90EF900895EF92FF920F931F93CF9348
:10351000DF93EC010E94996F8E0107511E4FF80155
:1035200080819E0122533E4F79018823A1F1C90178
:103530000E944D5FF801808181508083BE01FDE8CB
:103540008F9F600D711D112462517E4F21E041E07B
:10355000CE012AD8F8018081FE0124E0829FE00D8F
:10356000F11D1124E651FE4F40815181628173812A
:10357000FE01ED57FD4F4083518362837383C70182
:103580000E946A5ECE01DF91CF911F910F91FF9053
:10359000EF900C9469120E940D70C7010E944D5F5C
:1035A0001A8282EA91E0DF91CF911F910F91FF90F3
:1035B000EF900C944923EF92FF920F931F93CF93B8
:1035C000DF931F92CDB7DEB78C017B01460FF70169
:1035D00061917F01F8018081918149830E944EC1F0
:1035E000F8018081918101969183808349814E11F8
:1035F000EECF0F90DF91CF911F910F91FF90EF9041
:103600000895EF92FF920F931F93CF93DF931F9232
:10361000CDB7DEB78C017B01460FF8018081918127
:1036200049830E9446C1F70181937F01F80180819F
:10363000918101969183808349814E11EECF0F9045
:10364000DF91CF911F910F91FF90EF9008950F930D
:103650001F93CF93DF93CDB7DEB72C970FB6F894B7
:10366000DEBF0FBECDBF80E390E3A0E3B0E08D836B
:103670009E83AF83B88704E610E01C870B8744E085
:10368000BE016B5F7F4FCE010B9695DF40E162E19B
:103690007FE0CE010B968FDF40E162E27FE0CE015A
:1036A0000B9689DF40E162E07FE0CE010B9683DF7D
:1036B00044E06AEF7EE0CE010B967DDF44E066EFEA
:1036C0007EE0CE010B9677DF44E06EEF7EE0CE0128
:1036D0000B9671DF44E066EE7EE0CE010B966BDF69
:1036E00044E062E37FE0CE010B9665DF44E062EFE9
:1036F0007EE0CE010B965FDF44E06EEE7EE0CE0111
:103700000B9659DF44E06AEE7EE0CE010B9653DF64
:103710004CE06BEA76E0CE010B964DDF42E064E4CC
:1037200072E1CE010B9647DF42E062E472E1CE0126
:103730000B9641DF42E060E472E1CE010B963BDF85
:1037400042E06EE372E1CE010B9635DF42E06CE3BE
:1037500072E1CE010B962FDF42E06AE372E1CE0107
:103760000B9629DF44E068E976E0CE010B9623DF73
:1037700044E06AE572E0CE010B961DDF44E066E5A9
:1037800072E0CE010B9617DF44E062E572E0CE01F5
:103790000B9611DF80E290E09A87898742E0BE01B4
:1037A000675F7F4FCE010B9606DF86E591E3A0E3CE
:1037B000B0E089839A83AB83BC831C870B8744E08A
:1037C000BE016F5F7F4FCE010B96F5DEE3EBF5E0B8
:1037D0008491882341F09091C00095FFFCCF8093A5
:1037E000C6003196F5CFE3EAF5E08491882341F0F5
:1037F0009091C00095FFFCCF8093C6003196F5CF25
:103800008091C00085FFFCCF8AE08093C6002C9693
:103810000FB6F894DEBF0FBECDBFDF91CF911F91E1
:103820000F910895CF93DF93C3EBD5E0FE01849110
:10383000882341F09091C00095FFFCCF8093C60093
:103840003196F5CFE3E9F5E08491882341F090913A
:10385000C00095FFFCCF8093C6003196F5CF8091D4
:10386000C00085FFFCCF8AE08093C600FE018491F2
:10387000E3EBF5E0882349F09091C00095FFFCCF81
:103880008093C60031968491F5CF4091120F5091EC
:10389000130F6091140F7091150F8BE895E045D6CA
:1038A0004091160F5091170F6091180F7091190FDA
:1038B00088E895E03AD640911A0F50911B0F60911D
:1038C0001C0F70911D0F85E895E02FD640911E0FBB
:1038D00050911F0F6091200F7091210F82E895E0A9
:1038E00024D68091C00085FFFCCF8AE08093C6007B
:1038F000FE018491E3EBF5E0882349F09091C0004C
:1039000095FFFCCF8093C60031968491F5CFE8E611
:10391000F5E08491882341F09091C00095FFFCCFA1
:103920008093C6003196F5CF8091C00085FFFCCF13
:103930008AE08093C600FE018491E3EBF5E08823E2
:1039400049F09091C00095FFFCCF8093C60031965E
:103950008491F5CF4091220F5091230F6091240F55
:103960007091250F8FE595E0E0D54091260F50919D
:10397000270F6091280F7091290F8CE595E0D5D520
:1039800040912A0F50912B0F60912C0F70912D0FA9
:1039900089E595E0CAD540912E0F50912F0F609187
:1039A000300F7091310F86E595E0BFD58091C00052
:1039B00085FFFCCF8AE08093C600FE018491E3EB93
:1039C000F5E0882349F09091C00095FFFCCF8093EB
:1039D000C60031968491F5CFE8E3F5E08491882321
:1039E00041F09091C00095FFFCCF8093C6003196C6
:1039F000F5CF8091C00085FFFCCF8AE08093C600A0
:103A0000FE018491E3EBF5E0882349F09091C0003A
:103A100095FFFCCF8093C60031968491F5CF4091FD
:103A2000020F5091030F6091040F7091050F8FE208
:103A300095E08DD54091060F5091070F6091080FCA
:103A40007091090F8CE295E082D540910A0F509158
:103A50000B0F60910C0F70910D0F89E295E077D5F7
:103A600040910E0F50910F0F6091100F7091110F38
:103A700086E295E06CD58091C00085FFFCCF8AE09E
:103A80008093C600FE018491E3EBF5E0882349F0C2
:103A90009091C00095FFFCCF8093C6003196849131
:103AA000F5CFE1EFF4E08491882341F09091C000DC
:103AB00095FFFCCF8093C6003196F5CF8091C00072
:103AC00085FFFCCF8AE08093C600FE018491E3EB82
:103AD000F5E0882349F09091C00095FFFCCF8093DA
:103AE000C60031968491F5CF4091FA0E5091FB0EAD
:103AF0006091FC0E7091FD0E88EE94E016D5409119
:103B0000F60E5091F70E6091F80E7091F90E85EE59
:103B100094E00BD58091C00085FFFCCF8AE08093B4
:103B2000C600FE018491E3EBF5E0882349F0909113
:103B3000C00095FFFCCF8093C60031968491F5CFED
:103B4000E2E3F4E08491882341F09091C00095FF76
:103B5000FCCF8093C6003196F5CF8091C00085FFE1
:103B6000FCCF8AE08093C600FE018491E3EBF5E090
:103B7000882349F09091C00095FFFCCF8093C60048
:103B800031968491F5CF4091FE0E5091FF0E6091D9
:103B9000000F7091010F89E294E0C7D44091E60EC6
:103BA0005091E70E6091E80E7091E90E86E294E084
:103BB000BCD44091320F5091330F6091340F70910B
:103BC000350F83E294E0C3D44091F20E5091F30E8E
:103BD0006091F40E7091F50E80E294E0A6D44091CD
:103BE000EE0E5091EF0E6091F00E7091F10E8DE19E
:103BF00094E09BD44091EA0E5091EB0E6091EC0E54
:103C00007091ED0E8AE194E090D48091C00085FF20
:103C1000FCCF8AE08093C600FE018491E3EBF5E0DF
:103C2000882349F09091C00095FFFCCF8093C60097
:103C300031968491F5CFE8E0F4E08491882341F057
:103C40009091C00095FFFCCF8093C6003196F5CFD0
:103C50008091C00085FFFCCF8AE08093C600FE0102
:103C60008491E3EBF5E0882349F09091C00095FF43
:103C7000FCCF8093C60031968491F5CF4091AB067E
:103C80005091AC066091AD067091AE068FEF93E057
:103C90004CD44091AF065091B0066091B10670913E
:103CA000B2068CEF93E041D44091B3065091B40634
:103CB0006091B5067091B60689EF93E036D4809195
:103CC000C00085FFFCCF8AE08093C600FE0184918E
:103CD000E3EBF5E0882349F09091C00095FFFCCF1D
:103CE0008093C60031968491F5CFEBEEF3E084919A
:103CF000882341F09091C00095FFFCCF8093C600CF
:103D00003196F5CF8091C00085FFFCCF8AE080938B
:103D1000C600FE01C491E3EBF5E0CC2349F08091AD
:103D2000C00085FFFCCFC093C6003196C491F5CF8B
:103D300040915A0250915B0260915C0270915D0269
:103D400081EE93E0F2D36091560270915702809118
:103D50005802909159020E948A7CAB01BC018EED01
:103D600093E0E3D360915202709153028091540228
:103D7000909155020E94967CAB01BC018BED93E0C3
:103D8000D4D38091C00085FFFCCF8AE08093C60029
:103D9000DF91CF910895AF92BF92CF92DF92EF92D1
:103DA000FF920F931F93CF93DF93CDB7DEB7E097CA
:103DB0000FB6F894DEBF0FBECDBF80E1E6E7F2E0BC
:103DC000DE01919601900D928A95E1F780E1E6E897
:103DD000F2E0DE01519601900D928A95E1F780E1C3
:103DE000E6E9F2E0DE01119601900D928A95E1F785
:103DF0006E0181E2C80ED11C82E1E82E8FE0F82E20
:103E00008E010F5E1F4F62E27FE0AE014F5F5F4F9A
:103E100092E0A92E9FE0B92E20E030E0F6018191DA
:103E20009191A191B1916F01F70181939193A19328
:103E3000B1937F01F80181919191A191B1918F018D
:103E4000FB0181939193A193B193BF01FA018191F9
:103E50009191A191B191AF01F50181939193A193BA
:103E6000B1935F012F5F3F4F24303105B9F60E94B7
:103E7000FE5780E090E0AAE7B4E48093FA0E9093B6
:103E8000FB0EA093FC0EB093FD0E80E090E8ABE338
:103E9000B5E48093F60E9093F70EA093F80EB093CE
:103EA000F90E1092FE0E1092FF0E1092000F10925B
:103EB000010F80E29EE4A0E0B0E08093320F909387
:103EC000330FA093340FB093350F1092E60E10927B
:103ED000E70E1092E80E1092E90E80E090E0A0EA62
:103EE000B1E48093F20E9093F30EA093F40EB0938E
:103EF000F50E8DEC9CECACECBEE38093EE0E909353
:103F0000EF0EA093F00EB093F10E80E090E0A0EAE7
:103F1000B0E48093EA0E9093EB0EA093EC0EB09376
:103F2000ED0E1092B3061092B4061092B5061092E0
:103F3000B6061092AF061092B0061092B10610921B
:103F4000B2061092AB061092AC061092AD0610921B
:103F5000AE0682ED90E0909345128093441286E481
:103F600090E090934312809342121092411210926B
:103F700040128AEF90E090933F1280933E1284E6C5
:103F800090E090933D1280933C1210923B1210925D
:103F90003A128AE999E9A1EBB1E480935A0290932D
:103FA0005B02A0935C02B0935D0261E77DE38AE867
:103FB0009FE30E94847C6093560270935702809323
:103FC00058029093590260E070E084EE92E40E94FF
:103FD000907C6093520270935302809354029093AA
:103FE00055020E94D67280E090E0A0E8BFE3809383
:103FF0004E0290934F02A0935002B0935102E3EB14
:10400000F5E08491882341F09091C00095FFFCCFAA
:104010008093C6003196F5CFEFE9F3E084918823D1
:1040200041F09091C00095FFFCCF8093C60031967F
:10403000F5CF8091C00085FFFCCF8AE08093C60059
:10404000E0960FB6F894DEBF0FBECDBFDF91CF91E3
:104050001F910F91FF90EF90DF90CF90BF90AF90A6
:104060000895CF93DF93CDB7DEB72C970FB6F894B2
:10407000DEBF0FBECDBF84E690E09C878B8786E5D0
:1040800091E3A0E3B0E089839A83AB83BC8344E0EF
:10409000BE016B5F7F4FCE010B96B3DA43E050E079
:1040A000BE016B5F7F4FCE0101960E940DBF892B31
:1040B00009F0B1C040E162E17FE0CE010B96A1DAE8
:1040C00040E162E27FE0CE010B969BDA40E162E0E4
:1040D0007FE0CE010B9695DA0E94FE5744E06AEF2E
:1040E0007EE0CE010B968DDA44E066EF7EE0CE01F5
:1040F0000B9687DA44E06EEF7EE0CE010B9681DA14
:1041000044E066EE7EE0CE010B967BDA44E062E3AB
:104110007FE0CE010B9675DA44E062EF7EE0CE01DF
:104120000B966FDA44E06EEE7EE0CE010B9669DA14
:1041300044E06AEE7EE0CE010B9663DA4CE06BEA77
:1041400076E0CE010B965DDA42E064E472E1CE01E6
:104150000B9657DA42E062E472E1CE010B9651DA37
:1041600042E060E472E1CE010B964BDA42E06EE38E
:1041700072E1CE010B9645DA42E06CE372E1CE01CA
:104180000B963FDA42E06AE372E1CE010B9639DA30
:1041900044E068E976E0CE010B9633DA44E06AE564
:1041A00072E0CE010B962DDA44E066E572E0CE01B6
:1041B0000B9627DA44E062E572E0CE010B9621DA35
:1041C00042E0BE01675F7F4FCE010B961ADA0E9474
:1041D000D672E3EBF5E08491882341F09091C00022
:1041E00095FFFCCF8093C6003196F5CFE1ECF3E06C
:1041F0008491882341F09091C00095FFFCCF80937B
:10420000C6003196F5CF8091C00085FFFCCF8AE0D3
:104210008093C60001C0BFDD05DB2C960FB6F89475
:10422000DEBF0FBECDBFDF91CF910895FC01659138
:104230007591859194910895EF92FF920F931F933A
:10424000CF93DF93EC01CC0FDD1FCC0FDD1FCE0130
:10425000825D944FEBDF9E012954394F79018E0125
:104260000555194FF80120813181428153810E9407
:10427000D2B6F7016083718382839383CE018A5B18
:10428000944FD4DF9E012156394F7901F8012081E6
:104290003181428153810E94D2B6F70160837183DC
:1042A00082839383CE01865C944FC0DFCF5EDD4F67
:1042B000F80120813181428153810E94D2B6688306
:1042C00079838A839B83DF91CF911F910F91FF9018
:1042D000EF9008952F923F924F925F926F927F924C
:1042E0008F929F92AF92BF92CF92DF92EF92FF9206
:1042F0000F931F93CF93DF9300D01F92CDB7DEB7FC
:104300004C01FC01ED5EF44FB490880F991F880FAB
:10431000991F9C838B838954994F1C01FC01108247
:1043200011821282138223EC36E04FEB56E06BEBE6
:1043300076E087EB96E00E942C578B819C818E5D06
:10434000944F74DF6B017C016B2D772767FD7095AF
:10435000872F972F0E944DB82B013C018B819C81A8
:104360008B57994F5C0120E030E040EC5FE3C701E0
:10437000B6010E9480BAA30192010E9480BAF501A1
:1043800060837183828393838B819C81895D9D4F40
:104390009A838983FC01608171818281938160931A
:1043A0000B0270930C0280930D0290930E0220E09A
:1043B00030E040E752E40E94B2B737E9C32E36E05E
:1043C000D32E7B018C0121E936E04DE856E069E807
:1043D00076E085E896E00E94924D0E94996FF10187
:1043E000108211821282138223EC36E04FEB56E0EA
:1043F0006BEB76E087EB96E00E942C578B819C81DB
:104400008A5E944F9C838B8311DF9058A3019201A5
:104410000E9480BAF501608371838283938320E0D8
:1044200030E040E752E460910B0270910C02809101
:104430000D0290910E020E94B2B77B018C0121E91E
:1044400036E04DE856E069E876E085E896E00E94BF
:10445000924D0E94996F8B819C81E8DE9B01AC019B
:104460000E94D2B6A30192010E9480BAF501608336
:1044700071838283938320E030E040E05FE3E98151
:10448000FA8160817181828193810E9480BA6093F8
:104490000B0270930C0280930D0290930E0220E0A9
:1044A00030E040E752E40E94B2B77B018C0121E981
:1044B00036E04DE856E069E876E085E896E00E944F
:1044C000924D0E94996FC401B7DEF1018081918104
:1044D000A281B381F50180839183A283B38310927B
:1044E0000B0210920C0210920D0210920E020E940A
:1044F0000C69F401E456F94F81E080830F900F902E
:104500000F900F90DF91CF911F910F91FF90EF903F
:10451000DF90CF90BF90AF909F908F907F906F90E3
:104520005F904F903F902F900895FC01249122239B
:1045300041F03091C00035FFFCCF2093C6000196BA
:10454000F4CF22E030E08BE599E00C947A46FC0150
:104550002491222341F03091C00035FFFCCF2093FD
:10456000C6000196F4CF2AE030E08BE599E00C9488
:10457000D045CF93DF931F921F92CDB7DEB78091C6
:10458000C3129091C4129E012F5F3F4F009719F400
:10459000295C324102C0281B390B3A832983898167
:1045A0009A810F900F90DF91CF9108952091DA04B6
:1045B0003091DB04243031050CF06AC04091DC04FA
:1045C0005091DD0460E6649F9001659F300D1124D9
:1045D000BC01C9018C519B4F0E9406BFE2E5FBE084
:1045E0008491882341F09091C00095FFFCCF809387
:1045F000C6003196F5CFE8E0FBE08491882341F0D6
:104600009091C00095FFFCCF8093C6003196F5CF06
:104610008091DC049091DD0420E6289FF001299F21
:10462000F00D1124EC51FB4F8191882339F09091CA
:10463000C00095FFFCCF8093C600F6CFE6E0FBE01C
:104640008491882341F09091C00095FFFCCF809326
:10465000C6003196F5CF8091C00085FFFCCF8AE07F
:104660008093C6008091DC049091DD04019664E0A3
:1046700070E00E9469BB9093DD048093DC0480911C
:10468000DA049091DB0401969093DB048093DA04C2
:1046900008952091DA043091DB04243031050CF0C8
:1046A0006AC04091DC045091DD0460E6649F900193
:1046B000659F300D1124BC01C9018C519B4F0E9494
:1046C00092BEE2E5FBE08491882341F09091C00026
:1046D00095FFFCCF8093C6003196F5CFEBEFFAE063
:1046E0008491882341F09091C00095FFFCCF809386
:1046F000C6003196F5CF8091DC049091DD0420E670
:10470000289FF001299FF00D1124EC51FB4F81915E
:10471000882339F09091C00095FFFCCF8093C600AC
:10472000F6CFE9EFFAE08491882341F09091C00040
:1047300095FFFCCF8093C6003196F5CF8091C000E5
:1047400085FFFCCF8AE08093C6008091DC049091C5
:10475000DD04019664E070E00E9469BB9093DD0483
:104760008093DC048091DA049091DB0401969093AD
:10477000DB048093DA04089540E052EC61E070E0DD
:104780008BE599E00E949044E3EFFAE0849188235E
:1047900041F09091C00095FFFCCF8093C600319608
:1047A000F5CF8091C00085FFFCCF8AE08093C600E2
:1047B00082E59BE0FC012491222341F03091C0006E
:1047C00035FFFCCF2093C6003196F5CF24B720FFEC
:1047D00014C0EBEEFAE03491332341F04091C00075
:1047E00045FFFCCF3093C6003196F5CF3091C00025
:1047F00035FFFCCF3AE03093C60021FF14C0EBED4B
:10480000FAE03491332341F04091C00045FFFCCFE2
:104810003093C6003196F5CF3091C00035FFFCCF04
:104820003AE03093C60022FF14C0EAECFAE034917B
:10483000332341F04091C00045FFFCCF3093C600C8
:104840003196F5CF3091C00035FFFCCF3AE0309380
:10485000C60023FF14C0EAEBFAE03491332341F0A1
:104860004091C00045FFFCCF3093C6003196F5CF94
:104870003091C00035FFFCCF3AE03093C60025FFF1
:1048800014C0EAEAFAE02491222341F03091C000FA
:1048900035FFFCCF2093C6003196F5CF2091C000A4
:1048A00025FFFCCF2AE02093C60014BEE3EAFAE01D
:1048B0002491222341F03091C00035FFFCCF20939A
:1048C000C6003196F5CFEDE9FAE02491222341F0BC
:1048D0003091C00035FFFCCF2093C6003196F5CF54
:1048E0002091C00025FFFCCF2AE02093C600FC01E8
:1048F0002491E2E5FBE0222349F03091C00035FF2E
:10490000FCCF2093C60031962491F5CFEDE8FAE074
:104910002491222341F03091C00035FFFCCF209339
:10492000C6003196F5CFE8E7FAE02491222341F062
:104930003091C00035FFFCCF2093C6003196F5CFF3
:10494000ECE6FAE02491222341F03091C00035FFDB
:10495000FCCF2093C6003196F5CFE2E5FAE0249132
:10496000222341F03091C00035FFFCCF2093C600D8
:104970003196F5CF2091C00025FFFCCF2AE020938F
:10498000C600E7E4FAE02491222341F03091C00010
:1049900035FFFCCF2093C6003196F5CFEBE3FAE06C
:1049A0002491222341F03091C00035FFFCCF2093A9
:1049B000C6003196F5CF2091C00025FFFCCF2AE03C
:1049C0002093C600FC018491E2E5FBE0882349F0D6
:1049D0009091C00095FFFCCF8093C60031968491E2
:1049E000F5CFECE2FAE08491882341F09091C00089
:1049F00095FFFCCF8093C6003196F5CFBADD4AE033
:104A000050E0BC018BE599E00E94A445E5E1FAE0A5
:104A10008491882341F09091C00095FFFCCF809352
:104A2000C6003196F5CF4AE050E060ED74E08BE5CA
:104A300099E00E94A4458091C00085FFFCCF8AE0E8
:104A40008093C6001092E0041092E1041092E204F8
:104A50001092E30406DB0E943B750E94424D0E94C7
:104A600074B10E94C6700E949C91FFEF23ED80E319
:104A7000F15020408040E1F700C00000089580918F
:104A8000D4049091D50460E070E001960C94E9BBE9
:104A90008091D4049091D5044AE050E060E070E049
:104AA00001960C9451BD682F772767FD7095209172
:104AB000DE043091DF0440E6429FC001439F900D29
:104AC00011248C519B4F0E94FBBE9093D504809380
:104AD000D40421E0892B09F420E0822F08950E945C
:104AE00038B46093D0047093D1048093D20490932F
:104AF000D30408950E9438B46093D0047093D10415
:104B00008093D2049093D304E091DE04F091DF040B
:104B1000E052FB4F8081811114C0E1E6F6E0849100
:104B2000882341F09091C00095FFFCCF8093C60090
:104B30003196F5CF8091C00085FFFCCF8AE080934D
:104B4000C60008958BE599E00E94E244E4E6F6E0B1
:104B50008491882341F09091C00095FFFCCF809311
:104B6000C6003196F5CF4091690650916A06609172
:104B70006B0670916C064F5F5F4F6F4F7F4F2AE05F
:104B800030E08BE599E00E9481458091C00085FF6F
:104B9000FCCF8AE08093C600ADCF2F923F924F9218
:104BA0005F926F927F928F929F92AF92BF92CF92BD
:104BB000DF92EF92FF920F931F93CF93DF93CDB7C6
:104BC000DEB76E970FB6F894DEBF0FBECDBF70E6AE
:104BD000972E04E010E0E8EDEE2EE8E0FE2EFAE07D
:104BE0008F2EAEE4CA2EA9E0DA2E7724739480913A
:104BF000DC099091DD092091DE093091DF09821BEB
:104C0000930B8F779927892B09F425C28091DA04B9
:104C10009091DB0404970CF01EC28BE599E00E9492
:104C2000C6448093D9042091D7043091D8048A30A7
:104C300061F08D3051F08A3321F49091D60499239C
:104C400021F02F3531050CF428C12115310509F467
:104C500042C18091DC049091DD04989E5001999EA0
:104C6000B00C1124F501E20FF31FEC51FB4F108241
:104C70002091D60421110CC1FC01E052FB4F10829F
:104C800095012C513B4F19016EE470E0C9010E945F
:104C9000FBBE0097E9F19093D5048093D404821968
:104CA00093098A0D9B1D4AE050E060E070E08B5153
:104CB0009B4F0E9451BD60936D0670936E0680936A
:104CC0006F06909370062091690630916A064091B4
:104CD0006B0650916C062F5F3F4F4F4F5F4FA09078
:104CE000DC04B090DD04621773078407950709F4AC
:104CF000F5C09A9CC0019B9C900D112467EF79E050
:104D00008C519B4F0E94C0BE892B09F0E7C076C131
:104D10006AE270E0C1010E94FBBE892B09F444C025
:104D2000E8E5FBE08491882341F09091C00095FF75
:104D3000FCCF8093C6003196F5CFE1E5F9E0849190
:104D4000882341F09091C00095FFFCCF8093C6006E
:104D50003196F5CF4091690650916A0660916B06D5
:104D600070916C062AE030E08BE599E00E94814565
:104D70008091C00085FFFCCF8AE08093C60010922E
:104D8000D8041092D704CDC280916D0690916E0622
:104D9000A0916F06B09170068093690690936A06A1
:104DA000A0936B06B0936C068091DC049091DD04B7
:104DB000989E5001999EB00C1124C5018C519B4FB7
:104DC0001C0167E470E00E94FBBE009709F44BC031
:104DD0009093D5048093D404821993098A0D9B1D66
:104DE00060E070E08B519B4F0E94E9BB0E941AB8B3
:104DF0006430710508F037C08091C20481111AC077
:104E00008091CD0681112FC0F6018491EEE4F9E086
:104E1000882349F09091C00095FFFCCF8093C60095
:104E200031968491F5CF8091C00085FFFCCF8092B0
:104E3000C60019C0F7018491E8EDF8E0882349F035
:104E40009091C00095FFFCCF8093C600319684916D
:104E5000F5CF8091C00085FFFCCF8092C6008EEC1C
:104E600098E00E942C918091DC049091DD040196E1
:104E7000B8010E9469BB9093DD048093DC048091AB
:104E8000DA049091DB0401969093DB048093DA04BA
:104E90001092D8041092D704AACE8B3311F47092DA
:104EA000D6049091D6049111A2CE4091DC04509189
:104EB000DD04B9016F5F7F4F7093D8046093D7040E
:104EC000949EF001959EF00D1124E20FF31FEC511A
:104ED000FB4F80838CCE1092D60423C29A9C100183
:104EE0009B9C300C1124C1018C519B4F5C016AE2E8
:104EF00070E00E94FBBE009789F5E8E5FBE0849135
:104F0000882341F09091C00095FFFCCF8093C600AC
:104F10003196F5CFEBE7F9E08491882341F0909149
:104F2000C00095FFFCCF8093C6003196F5CF40912D
:104F3000690650916A0660916B0670916C062AE0D2
:104F400030E08BE599E00E9481458091C00085FFAB
:104F5000FCCF8AE08093C600F5DD11CF20E0612C04
:104F6000F101E20FF11DEC51FB4F30813A3219F0A3
:104F70002F5F6326F5CF9093D5048093D4048A19CC
:104F80009B09820D931D60E070E08B519B4F0E9446
:104F9000E9BB0E941AB8262D30E02617370709F41E
:104FA000F3CEE8E5FBE08491882341F09091C000C6
:104FB00095FFFCCF8093C6003196F5CFE5EAF9E086
:104FC0008491882341F09091C00095FFFCCF80939D
:104FD000C6003196F5CF4091690650916A066091FE
:104FE0006B0670916C062AE030E08BE599E00E9438
:104FF00081458091C00085FFFCCFABCFE8E5FBE0A9
:105000008491882341F09091C00095FFFCCF80935C
:10501000C6003196F5CFE4ECF9E08491882341F0A5
:105020009091C00095FFFCCF8093C6003196F5CFDC
:105030004091690650916A0660916B0670916C060A
:105040002AE030E08BE599E00E9481458091C00024
:1050500085FFFCCF7ECF8091CF06882309F461C104
:105060008091D7049091D804892B09F05AC180917E
:10507000DA049091DB04892B11F41092C00458EEED
:10508000252E53E0352E412C512C6CE3C62ED12C0D
:10509000E12CF12C8E010F5F1F4F40E6642E772428
:1050A0007394409150095091510960915209709147
:1050B00053098091480990914909A0914A09B091FA
:1050C0004B09481759076A077B0708F02AC18091E6
:1050D000DA049091DB0404970CF023C18091C004A2
:1050E00081111FC18091A3089091A408A091A508E7
:1050F000B091A6088093500990935109A09352094A
:10510000B09353098BE998E00E94045D482F809387
:10511000D9048A30B9F04D30A9F0433229F42091F6
:10512000D604211103C00EC04A33C9F32091D7041D
:105130003091D8042F3531052CF48F3FFFEF9F07B6
:1051400009F0D1C040915009509151096091520924
:10515000709153098091480990914909A0914A0999
:10516000B0914B09481759076A077B0708F481C0BB
:10517000EBEBF8E08491882341F09091C00095FF1B
:10518000FCCF8093C6003196F5CF8091C00085FF9B
:10519000FCCFFAE0F093C6000E9438B46093C404D8
:1051A0007093C5048093C6049093C7048090C8048C
:1051B0009090C904A090CA04B090CB0468197909F2
:1051C0008A099B09A20191010E947CBB49015A01F5
:1051D000CA01B901A70196010E947CBBCA01B901AD
:1051E000A70196010E947CBB7F936F93C501B40118
:1051F00020E13EE040E050E00E947CBB3F932F93D3
:10520000A7EAB8E0BF93AF931F930F930E942ABF02
:10521000E2E5FBE084910FB6F894DEBF0FBECDBF90
:10522000882349F09091C00095FFFCCF8093C60081
:1052300031968491F5CFF8018191882339F09091CE
:10524000C00095FFFCCF8093C600F6CF8091C000D0
:1052500085FFFCCF3AE03093C600C8010E941D9143
:105260008DEC96E00E94831A61E08DEC96E00E943E
:10527000E5178091D904833211F47092C004209113
:10528000D7043091D8042115310509F424CE80913A
:10529000DC049091DD04689EF001699EF00D1124FC
:1052A000E20FF31FEC51FB4F1082FC01E052FB4F69
:1052B00070822091DA043091DB042F5F3F4F3093EE
:1052C000DB042093DA04019664E070E00E9469BB7D
:1052D0009093DD048093DC041092D6041092D804DD
:1052E0001092D704DECE4B3311F47092D604409165
:1052F000D6044111D2CE4091DC045091DD04B901B5
:105300006F5F7F4F7093D8046093D704649EF00161
:10531000659EF00D1124E20FF31FEC51FB4F8083CB
:10532000C0CE6E960FB6F894DEBF0FBECDBFDF9134
:10533000CF911F910F91FF90EF90DF90CF90BF9092
:10534000AF909F908F907F906F905F904F903F9025
:105350002F9008958F929F92AF92BF92CF92DF923B
:10536000EF92FF920F931F93CF93DF93BCE3EB2E4B
:10537000B4E0FB2E07EB16E0C5E8D6E089ECC82EBA
:1053800086E0D82EF70181917F018DDB882311F112
:1053900076DB4B015C01F6018081811103C06091D5
:1053A000640601C061E070E080E090E00E944DB8CA
:1053B000F80120813181428153810E9480BA9B0192
:1053C000AC01C501B4010E94D2B6688379838A8397
:1053D0009B8309C0F80180819181A281B381888378
:1053E0009983AA83BB830C5F1F4F2496FFEFCF1ACC
:1053F000DF0A80E4E81684E0F80621F686E453DB51
:105400008823D1F03CDB6B017C01609375067093BF
:105410007606809377069093780620E030E0A90125
:105420000E94AEB9181644F4C0920B02D0920C023E
:10543000E0920D02F0920E02DF91CF911F910F9139
:10544000FF90EF90DF90CF90BF90AF909F908F90A4
:10545000089580DF89E427DB882351F010DB609317
:10546000790670937A0680937B0690937C0608C039
:105470001092790610927A0610927B0610927C06A2
:105480008AE411DB882351F0FADA60937D06709389
:105490007E0680937F0690938006089510927D0685
:1054A00010927E0610927F06109280060895CF9289
:1054B000DF92EF92FF92CF93DF93EC01C0909F06B3
:1054C000D090A006E090A106F090A206A701960158
:1054D000688179818A819B810E94ABB787FF04C074
:1054E000C882D982EA82FB82C090A306D090A4062B
:1054F000E090A506F090A606A70196016C817D813B
:105500008E819F810E94ABB787FF04C0CC82DD8271
:10551000EE82FF82C090A706D090A806E090A90670
:10552000F090AA06A7019601688579858A859B85F2
:105530000E94ABB787FF04C0C886D986EA86FB867F
:10554000C0901102D0901202E0901302F090140269
:10555000A7019601688179818A819B810E94AEB9F9
:10556000181624F4C882D982EA82FB82C090150200
:10557000D0901602E0901702F0901802A701960151
:105580006C817D818E819F810E94AEB9181624F4B2
:10559000CC82DD82EE82FF82C0901902D0901A0286
:1055A000E0901B02F0901C02A701960168857985A6
:1055B0008A859B850E94AEB9181624F4C886D986C0
:1055C000EA86FB86DF91CF91FF90EF90DF90CF903E
:1055D0000895CF92DF92EF92FF920F931F9385E889
:1055E00096E065DF0E9438B46093D0047093D104D4
:1055F0008093D2049093D30420918506309186063F
:1056000040918706509188066091B7067091B80660
:105610008091B9069091BA060E94ABB7811179C00A
:105620002091890630918A0640918B0650918C0614
:105630006091BB067091BC068091BD069091BE063C
:105640000E94ABB7811165C020E030E040E752E432
:1056500060910B0270910C0280910D0290910E02EC
:105660000E94B2B727E9C22E26E0D22E7B018C0120
:1056700021E936E04DE856E069E876E085E896E015
:105680000E94924D8091850690918606A091870692
:10569000B09188068093B7069093B806A093B90698
:1056A000B093BA068091890690918A06A0918B06E4
:1056B000B0918C068093BB069093BC06A093BD0668
:1056C000B093BE0680918D0690918E06A0918F06B4
:1056D000B09190068093BF069093C006A093C10638
:1056E000B093C2068091910690919206A091930684
:1056F000B09194068093C3069093C406A093C50608
:10570000B093C6061F910F91FF90EF90DF90CF905E
:1057100008956091250270912602882777FD809573
:10572000982F0E944DB820910B0230910C024091AD
:105730000D0250910E020E9480BA20E030E040E756
:1057400052E40E94B2B720E030E048EC52E488CF47
:10575000AF92BF92CF92DF92EF92FF920F931F937F
:10576000CF93DF93D82F20917D0630917E06409114
:105770007F06509180066091790670917A0680913B
:105780007B0690917C060E94BBB9C62F172F082F6D
:10579000F92E6091250270912602882777FD809569
:1057A000982F0E944DB820910B0230910C0240912D
:1057B0000D0250910E020E9480BA20E030E040E7D6
:1057C00052E40E94B2B720E030E048EC52E40E947C
:1057D000B2B7209197062F93DF93FF920F931F93F9
:1057E000CF935B016C0132E0E32E01E020E049E75A
:1057F00056E065E876E087EB96E00E947B46809174
:10580000850690918606A0918706B09188068093C0
:10581000B7069093B806A093B906B093BA068091E4
:10582000890690918A06A0918B06B0918C06809390
:10583000BB069093BC06A093BD06B093BE068091B4
:105840008D0690918E06A0918F06B0919006809360
:10585000BF069093C006A093C106B093C206809184
:10586000910690919206A0919306B0919406809330
:10587000C3069093C406A093C506B093C6060E94C3
:1058800038B46093D0047093D1048093D204909381
:10589000D3040F900F900F900F900F900F90DF9107
:1058A000CF911F910F91FF90EF90DF90CF90BF901D
:1058B000AF900895F8940E941976159A10929C065C
:1058C000469A10929D06439A10929E06409AE8E5E9
:1058D000FBE08491882341F09091C00095FFFCCFBC
:1058E0008093C6003196F5CFE2E4F6E084918823F8
:1058F00041F09091C00095FFFCCF8093C600319697
:10590000F5CF8091C00085FFFCCF8AE08093C60070
:1059100089E396E00E943B91FFCFCF92DF92EF9216
:10592000FF920F931F930E9438B40091CC04109102
:10593000CD042091CE043091CF04C090D004D090FB
:10594000D104E090D204F090D3046C197D098E0943
:105950009F09061717072807390728F4012B022B80
:10596000032B09F0A7DF8091070290910802A09114
:105970000902B0910A02892B8A2B8B2B09F10E9414
:1059800038B40091D0041091D1042091D204309108
:10599000D304601B710B820B930B009107021091D3
:1059A00008022091090230910A02061717072807FA
:1059B000390730F49091E1098091E009981741F09E
:1059C0001F910F91FF90EF90DF90CF900C94764D48
:1059D000159A10929C06469A10929D06439A109230
:1059E0009E06409AEDCF0E9419768091C2048111E3
:1059F00038C081E08093C2048091690690916A0664
:105A0000A0916B06B0916C06809365069093660634
:105A1000A0936706B0936806E8E5FBE084918823CD
:105A200041F09091C00095FFFCCF8093C600319665
:105A3000F5CFE3ECF5E08491882341F09091C0002C
:105A400095FFFCCF8093C6003196F5CF8091C000C2
:105A500085FFFCCF8AE08093C60089EB95E00C942B
:105A60002C9108958091C204089567707727E82FDC
:105A7000F0E0E757F34E849190E0FC013797EC306B
:105A8000F10578F5EE58FF4F0C94BABB8091B10048
:105A9000887F8093B1008091B100862B8093B10004
:105AA000089580919100887F80939100809191006A
:105AB000862B8093910008958091A100887F809328
:105AC000A1008091A100862B8093A1000895809170
:105AD0002101887F8093210180912101862B809371
