:100000000C948C0E0C94BD0E0C94BD0E0C94BD0E75
:100010000C94BD0E0C94BD0E0C94BD0E0C94BD0E34
:100020000C94BD0E0C94BD0E0C94BD0E0C94BD0E24
:100030000C94BD0E0C94BD0E0C94BD0E0C94BD0E14
:100040000C94BD0E0C94BF680C94BD0E0C94BD0EA8
:100050000C94BD0E0C94BD0E0C948A790C947AAE5F
:100060000C94BD0E0C94FA430C94BD0E0C94BD0E72
:100070000C94BD0E0C94BD0E0C94BD0E0C94BD0ED4
:100080000C94BD0E0C94BD0E0C94BD0E0C94BD0EC4
:100090000C94BD0E0C94BD0E0C94BD0E0C94BD0EB4
:1000A0000C94BD0E0C94BD0E0C94BD0E0C94BD0EA4
:1000B0000C94BD0E0C94BD0E0C94BD0E0C94BD0E94
:1000C0000C94BD0E0C94BD0E0C94BD0E0C94BD0E84
:1000D0000C94BD0E0C94BD0E0C94BD0E0C94BD0E74
:1000E0000C94BD0EE92CE92CF42CF42CF42CFF2CF0
:1000F000FF2CFF2C142D0A2D0A2D0A2DD779E67915
:10010000027A117A2B7A3A7A547A587A607AA7AFBF
:10011000ACAFB1AFBBAFC5AF3EB0CFAFD7AFDFAFC6
:10012000E9AFF3AFFDAF0CB016B03EB020B02AB0CF
:1001300034B05FB062B051B055B05BB099B066B04A
:100140006AB070B074B078B07EB082B086B099B04A
:100150008CB090B094B0084AD73B3BCE016E84BCC3
:10016000BFFDC12F3D6C74319ABD56833DDA3D0011
:10017000C77F11BED9E4BB4C3E916BAAAABE00005A
:1001800000803F05A84CCDB2D44EB93836A9020C38
:1001900050B9918688083CA6AAAA2ABE0000008011
:1001A0003F004D383420582059205A2045004361E3
:1001B0006E6E6F7420656E7465722073756264690B
:1001C000723A20004D3234004D32332025730061E5
:1001D00075746F25692E67006572726F7220777271
:1001E0006974696E6720746F2066696C65004E6F74
:1001F00074205344207072696E74696E67002F001A
:100200005344207072696E74696E672062797465F8
:1002100020002E0044656C6574696F6E206661690C
:100220006C65642C2046696C653A200046696C65F3
:100230002064656C657465643A002E006F70656EAD
:10024000206661696C65642C2046696C653A200003
:1002500057726974696E6720746F2066696C653ABD
:1002600020002E006F70656E206661696C65642CDD
:100270002046696C653A20002E006F70656E20661E
:1002800061696C65642C2046696C653A200046699A
:100290006C652073656C6563746564002053697ACE
:1002A000653A200046696C65206F70656E65643A3A
:1002B00020002E006F70656E206661696C65642C8D
:1002C0002046696C653A20004E6F77206672657330
:1002D000682066696C653A20004E6F7720646F690C
:1002E0006E672066696C653A20002220706F73008B
:1002F0002220706172656E743A2200535542524F4B
:100300005554494E452043414C4C207461726765F9
:10031000743A2200747279696E6720746F20636189
:100320006C6C207375622D67636F64652066696C01
:100330006573207769746820746F6F206D616E79C2
:10034000206C6576656C732E204D4158206C657667
:10035000656C2069733A0053442063617264206FB6
:100360006B006F70656E526F6F74206661696C65AB
:100370006400766F6C756D652E696E6974206661B8
:10038000696C656400534420696E69742066616914
:100390006C006563686F3A004572726F723A00488C
:1003A000617264636F6465642044656661756C7432
:1003B0002053657474696E6773204C6F6164656463
:1003C0000053746F7265642073657474696E67732B
:1003D0002072657472696576656400204400204966
:1003E000002020204D3330312050005049442073EC
:1003F000657474696E67733A00205A0020590020B2
:10040000204D323036205800486F6D65206F66668B
:1004100073657420286D6D293A00204500205A002C
:1004200020580020420020540020204D323035203A
:100430005300416476616E63656420766172696120
:10044000626C65733A20533D4D696E206665656444
:100450007261746520286D6D2F73292C20543D4DD9
:10046000696E2074726176656C2066656564726180
:10047000746520286D6D2F73292C20423D6D696EA7
:10048000696D756D207365676D656E742074696D37
:100490006520286D73292C20583D6D6178696D7534
:1004A0006D205859206A65726B20286D6D2F732955
:1004B0002C20205A3D6D6178696D756D205A206A37
:1004C00065726B20286D6D2F73292C2020453D6DA2
:1004D0006178696D756D2045206A65726B20286DA5
:1004E0006D2F73290020540020204D3230342053CA
:1004F00000416363656C65726174696F6E3A205385
:100500003D616363656C65726174696F6E2C205424
:100510003D7265747261637420616363656C6572BA
:100520006174696F6E00204500205A002059002038
:10053000204D3230312058004D6178696D756D2045
:10054000416363656C65726174696F6E20286D6DBF
:100550002F7332293A00204500205A0020590020EC
:10056000204D3230332058004D6178696D756D2013
:1005700066656564726174657320286D6D2F7329DB
:100580003A00204500205A0020590020204D3932E1
:1005900020580053746570732070657220756E6901
:1005A000743A0053657474696E67732053746F7284
:1005B0006564006563686F3A0053544F505045447A
:1005C0002E20005072696E7465722073746F7070A3
:1005D00065642064756520746F206572726F727334
:1005E0002E2046697820746865206572726F7220CB
:1005F000616E6420757365204D39393920746F2020
:10060000726573746172742E202854656D70657202
:1006100061747572652069732072657365742E202C
:100620005365742069742061667465722072657305
:1006300074617274696E6729004B494C4C45442EB5
:1006400020005072696E7465722068616C74656414
:100650002E206B696C6C28292063616C6C656421A9
:10066000006F6B00526573656E643A20002200557E
:100670006E6B6E6F776E20636F6D6D616E643A2086
:1006800022004368616E67652066696C616D656E06
:1006900074005A204F6666736574203A20007A5FB2
:1006A0006D61783A20007A5F6D696E3A20005A20B9
:1006B0004F6666736574005A204F666673657420D2
:1006C0006F6B007A5F6D696E3A2000795F6D6178BB
:1006D0003A2000785F6D696E3A2000205A3A002077
:1006E000593A0020436F756E7420583A2000204517
:1006F0003A00205A3A0020593A00583A00464952E6
:100700004D574152455F4E414D453A4D61726C69BE
:100710006E2056313B20537072696E7465722F677C
:1007200072626C206D617368757020666F722067ED
:10073000656E36204649524D574152455F55524CE1
:100740003A687474703A2F2F7777772E726F6F69CB
:10075000656A6F7269732E6E6C2F7A2D756E6C6977
:100760006D697465642050524F544F434F4C5F562F
:10077000455253494F4E3A312E30204D414348495E
:100780004E455F545950453A5A2D556E6C696D6906
:100790007465642045585452554445525F434F5543
:1007A0004E543A3120555549443A3030303030308B
:1007B00030302D303030302D303030302D30303042
:1007C000302D3030303030303030303030300A0082
:1007D0005A2D556E6C696D69746564204F66662E7E
:1007E0000042656420646F6E652E0020423A00204E
:1007F000453A00543A004265642048656174696E68
:10080000672E0048656174696E6720646F6E652E9F
:100810000020573A0020453A00543A004865617478
:10082000696E672E2E2E002042403A0020403A008A
:10083000202F003A00205400202F0020423A0020B0
:100840002F006F6B20543A002569206D696E2C20B3
:1008500025692073656300456E642066696C6520B8
:100860006C69737400426567696E2066696C652007
:100870006C697374004E6F206D6F76652E00526543
:1008800073756D696E67207072696E740057616967
:100890007420666F7220757365722E2E2E00536C55
:1008A0006565702E2E2E00256920686F7572732085
:1008B0002569206D696E7574657300446F6E6520DF
:1008C0007072696E74696E672066696C6500535456
:1008D0004F505045442E20005072696E746572204E
:1008E00073746F707065642064756520746F206523
:1008F00072726F72732E2046697820746865206565
:1009000072726F7220616E6420757365204D393983
:100910003920746F20726573746172742E202854AC
:10092000656D70657261747572652069732072659A
:100930007365742E20536574206974206166746534
:10094000722072657374617274696E6729006F6BCF
:10095000004E6F204C696E65204E756D6265722089
:100960007769746820636865636B73756D2C204CC0
:10097000617374204C696E653A20004E6F204368A5
:1009800065636B73756D2077697468206C696E653B
:10099000206E756D6265722C204C617374204C69F9
:1009A0006E653A2000636865636B73756D206D69D1
:1009B000736D617463682C204C617374204C696E94
:1009C000653A20004C696E65204E756D6265722037
:1009D0006973206E6F74204C617374204C696E656E
:1009E000204E756D6265722B312C204C6173742022
:1009F0004C696E653A20004D31313000446F6E65B0
:100A000020736176696E672066696C652E006F6B76
:100A1000004D3239002020506C616E6E6572427557
:100A20006666657242797465733A20002046726585
:100A300065204D656D6F72793A2000466562203100
:100A400038203230313700436F6D70696C65643A1D
:100A50002000284A6F726973202D207A2D756E6CE4
:100A6000696D6974656420302E312900207C204135
:100A70007574686F723A2000466562203138203202
:100A80003031372032323A32353A303600204C613C
:100A9000737420557064617465643A2000312E309F
:100AA0002E30004D61726C696E0020536F66747752
:100AB00061726520526573657400205761746368C4
:100AC000646F67205265736574002042726F776EA1
:100AD000206F7574205265736574002045787465C5
:100AE000726E616C20526573657400506F77657229
:100AF0005570007374617274002200656E717565C3
:100B0000696E672022002200656E717565696E67E7
:100B1000202200FF01FF0000A0400000A0400000D4
:100B2000004000005243000052430080094500008D
:100B3000000000005243000000000000524300008B
:100B40005243008009450000000000000000000042
:100B500000006563686F3A004572726F723A002058
:100B6000746F6F206C6F6E6720657874727573692F
:100B70006F6E2070726576656E7465640020636FB9
:100B80006C6420657874727573696F6E207072651D
:100B900076656E746564006563686F3A0041414133
:100BA00041E1414143454545454949494944EE4FA5
:100BB0004F4F4FEF784F555555F55954E2616161EC
:100BC00061E1616163656565656969696964EE6FC5
:100BD0006F6F6FEFFD6F757575F5797479007C3CFB
:100BE0003E5E2B3D3F2F5B5D3B2C2A225C00656EF9
:100BF0006473746F7073206869743A205A00205AC5
:100C00003A00656E6473746F7073206869743A207B
:100C1000590020593A00656E6473746F70732068D0
:100C200069743A20580020583A00656E6473746FF6
:100C30007073206869743A200024F4D43050C38E55
:100C400020C2A24017828B7011127A910D816CD94B
:100C50000AA861E108C7586607615143061E4B5D4B
:100C600005C145A7041A411104093D9803713931A2
:100C7000034036DB0265339102D4305402802E1DCE
:100C800002632CEE01752AC501B028A0011027814E
:100C9000018F2564012B244B01E0223401AC211F7C
:100CA000018D200D01801FFC00841EED00971DDFCB
:100CB00000B81CD200E61BC600201BBC00641AB2A0
:100CC00000B219A8000A19A0006A189900D117915A
:100CD0000040178B00B516840031167E00B31579DD
:100CE000003A157300C7146F0058146A00EE1366BB
:100CF000008813630025135E00C7125B006C125757
:100D00000015125400C111510070114F0021114BF8
:100D100000D61049008D10470046104400021042D2
:100D200000C00F4000800F3E00420F3C00060F3B0A
:100D300000CB0E3800930E37005C0E3500270E34C2
:100D400000F30D3200C10D3100900D3000600D2E0A
:100D500000320D2D00050D2C00D90C2B00AE0C29F6
:100D600000850C29005C0C2700350C27000E0C2692
:100D700000E80B2400C40B2400A00B23007D0B23F0
:100D8000005A0B2100390B2100180B2000F80A1F14
:100D900000D90A1E00BB0A1E009D0A1D00800A1D04
:100DA00000630A1C00470A1B002C0A1B00110A1AC8
:100DB00000F7091A00DD091900C4091900AB091967
:100DC00000920917007B091800630917004C0916E7
:100DD0000036091600200916000A091500F5081545
:100DE00000E0081400CC081400B8081400A408148B
:100DF00000900813007D0812006B081300580812B9
:100E000000460812003408110023081100120811CE
:100E10000001081100F0071000E0071000D00710D3
:100E200000C0071000B0070F00A107100091070EC7
:100E30000083070F0074070F0065070E0057070EA9
:100E40000049070E003B070D002E070E0020070D7E
:100E50000013070D0006070D00F9060C00ED060D46
:100E600000E0060C00D4060C00C8060C00BC060C02
:100E700000B0060C00A4060B0099060C008D060BB2
:100E80000082060B0077060B006C060B0061060A59
:100E90000057060B004C060A0042060A0038060AF4
:100EA000002E060A0024060A001A060A0010060987
:100EB0000007060A00FD050900F4050900EB050915
:100EC00000E2050900D9050900D0050900C7050998
:100ED00000BE050900B5050800AD050800A5050917
:100EE000009C050800940508008C0508008405088E
:100EF000007C050800740508006C050700650508FE
:100F0000005D050700560508004E05070047050768
:100F1000004005080038050700310507002A0507CD
:100F200000230507001C050600160507000F05072E
:100F3000000805060002050700FB040600F504078B
:100F400000EE040600E8040600E2040700DB0406E5
:100F500000D5040600CF040600C9040600C3040639
:100F600000BD040600B7040600B1040500AC040689
:100F700000A6040600A00405009B040600950405D5
:100F800000900406008A040500850405008004061C
:100F9000007A04050075040500700405006B040563
:100FA0000066040500610405005C040500570405A3
:100FB00000520405004D04050048040500430405E3
:100FC000003E0404003A0405003504050030040422
:100FD000002C04050027040400230405001E04045B
:100FE000001A04040016040500110404000D040492
:100FF00000090405000404040000040400FC0304C8
:1010000000F8030400F4030400F0030400EC0304FC
:1010100000E8030400E4030400E0030400DC03042C
:1010200000D8030400D4030400D0030400CC03045C
:1010300000C8030300C503030024F404D9201BC423
:101040000C5C0E9804C4095F0265077101F405F990
:1010500000FB04B30048048700C10369005803552E
:101060000003034500BE023A008402310053022A05
:10107000002902250004022000E4011C00C8011917
:1010800000AF0117009801140084011300710110D2
:10109000006101100051010E0043010D0036010BEB
:1010A000002B010B0020010B00150109000C0109A8
:1010B0000003010800FB000800F3000800EB000734
:1010C00000E4000600DE000600D8000600D200069C
:1010D00000CC000500C7000500C2000500BD0004EB
:1010E00000B9000400B5000400B1000400AD000424
:1010F00000A9000400A5000300A20003009F000453
:10110000009B000300980003009500020093000379
:1011100000900003008D0002008B00030088000295
:10112000008600020084000300810002007F0002AC
:10113000007D0002007B00020079000200770001C0
:1011400000760002007400020072000100710002CB
:10115000006F0002006D0001006C0002006A0001D7
:1011600000690002006700010066000100650001DF
:1011700000640002006200010061000100600001E3
:10118000005F0002005D0001005C0001005B0001E7
:10119000005A0001005900010058000100570001E9
:1011A00000560001005500010054000100530000EA
:1011B00000530001005200010051000100500001E5
:1011C000004F0001004E0000004E0001004D0001E4
:1011D000004C0001004B0000004B0001004A0001E0
:1011E00000490001004800000048000100470001DC
:1011F00000460000004600010045000000450001D7
:1012000000440001004300000043000100420000D0
:1012100000420001004100000041000100400001C7
:10122000003F0000003F0001003E0000003E0001C2
:10123000003D0000003D0001003C0000003C0000BB
:10124000003C0001003B0000003B0001003A0000B0
:10125000003A0001003900000039000100380000A8
:10126000003800000038000100370000003700019E
:101270000036000000360000003600010035000096
:10128000003500000035000100340000003400008B
:10129000003400010033000000330000003300017F
:1012A0000032000000320000003200010031000076
:1012B000003100000031000100300000003000006B
:1012C00000300001002F0000002F0000002F000060
:1012D000002F0001002E0000002E0000002E000153
:1012E000002D0000002D0000002D0000002D000149
:1012F000002C0000002C0000002C0000002C00013D
:10130000002B0000002B0000002B0000002B000130
:10131000002A0000002A0000002A0000002A000124
:101320000029000000290000002900000029000019
:10133000002900010028000000280000002800000B
:1013400000280000002800010027000000270000FE
:1013500000270000002700000027000100260000F1
:1013600000260000002600000026000000260001E4
:1013700000250000002500000025000000250000D9
:1013800000250000002500010024000000240000CA
:1013900000240000002400000024000100230000BD
:1013A00000230000002300000023000000230000B1
:1013B00000230000002300010022000000220000A2
:1013C0000022000000220000002200000022000194
:1013D0000021000000210000002100000021000089
:1013E0000021000000210000002100010020000079
:1013F000002000000020000000200000002000006D
:10140000002000000020000000200001001F00005C
:10141000001F0000001F0000001F0000001F000050
:10142000001F0000001F0001001E0000001E000041
:10143000001E0000001E0000006563686F3A004552
:1014400072723A204D494E54454D50003A2045782D
:10145000747275646572207377697463686564205B
:101460006F66662E204D494E54454D50207472696A
:101470006767657265642021004572723A204D41AC
:101480005854454D50003A20457874727564657221
:10149000207377697463686564206F66662E204DDB
:1014A000415854454D502074726967676572656490
:1014B00020210048656174696E67206661696C650A
:1014C0006400202D20496E76616C69642065787413
:1014D0007275646572206E756D62657220210050B0
:1014E0004944204175746F74756E652066696E6934
:1014F00073686564212050757420746865206C6180
:101500007374204B702C204B6920616E64204B64F7
:1015100020636F6E7374616E74732066726F6D20DA
:1015200061626F766520696E746F20436F6E6669C5
:101530006775726174696F6E2E680050494420416E
:1015400075746F74756E65206661696C65642120C1
:1015500074696D656F75740020403A006F6B20549C
:101560003A006F6B20423A00504944204175746F35
:1015700074756E65206661696C6564212054656DC3
:10158000706572617475726520746F6F2068696729
:101590006800204B643A2000204B693A2000204B21
:1015A000703A200020436C61737369632050494492
:1015B00020002054753A2000204B753A2000206D01
:1015C00061783A2000206D696E3A200020643A204C
:1015D0000020626961733A20006563686F3A0045D4
:1015E00072726F723A0000000000300E0100C00EEF
:1015F0000A00500F1400D00F1E0060102800E010E9
:10160000320070113C00F0114600701250000013BF
:101610005A008013640000146E00901478001015B6
:10162000820090158C00101696009016A0001017DE
:10163000AA009017B4001018BE009018C800101926
:10164000D2009019DC00101AE600801AF000001B8E
:10165000FA00801B0401F01B0E01701C1801F01C25
:101660002201601D2C01E01D3601501E4001D01EDC
:101670004A01401F5401B01F5E0130206801A020C4
:10168000720110217C0190218601002290016026C8
:10169000F401902A5802802EBC0250322003E0351B
:1016A00084035039E803803C4C0443617264207227
:1016B000656D6F766564004361726420696E736561
:1016C00072746564002D2D3A2D2D002D2D2D0053A3
:1016D00044002059000120004261627973746570F2
:1016E00070696E672058004261627973746570702A
:1016F000696E672059004261627973746570706920
:101700006E67205A004D363030004368616E676561
:101710002066696C616D656E7400426162797374F4
:101720006570205A004261627973746570205900B7
:101730004261627973746570205800466C6F77005F
:10174000466C6F770046616E207370656564004675
:10175000616E207370656564004E6F7A7A6C650007
:101760004E6F7A7A6C6500537065656400537065DE
:101770006564004D61696E004D3834205830205941
:101780003000473238005A00580059005A00457856
:101790007472756465720045787472756465720060
:1017A0004D6F7665205A004D6F76652059004D6F5C
:1017B00076652058004D6F76652061786973004D1D
:1017C0006F766520302E316D6D004D6F766520315E
:1017D0006D6D004D6F76652031306D6D0050726516
:1017E00070617265004D6F766520617869730043A2
:1017F0006F6F6C646F776E005072656865617420FE
:10180000414253005072656865617420504C41003C
:10181000473238205830205930004175746F2068A5
:101820006F6D6520585900473238004175746F203C
:10183000686F6D65004D3834205A004469736162E9
:101840006C65205A004D3834205820590044697383
:1018500061626C65205859004D6F7665205A0041D1
:1018600075746F20686F6D65004D3834004469737E
:1018700061626C6520737465707065727300417588
:10188000746F7374617274004D61696E0053746F8C
:101890007265206D656D6F7279004E6F7A7A6C6536
:1018A000004E6F7A7A6C650046616E2073706565D4
:1018B000640046616E2073706565640054656D70E8
:1018C000657261747572650053746F7265206D6521
:1018D0006D6F7279004E6F7A7A6C65004E6F7A7A0E
:1018E0006C650046616E2073706565640046616ECC
:1018F0002073706565640054656D70657261747500
:1019000072650050726568656174204142532063BE
:101910006F6E66005072656865617420504C41209E
:10192000636F6E66005049442D43005049442D4377
:10193000005049442D44005049442D44005049442E
:101940002D49005049442D49005049442D50005024
:1019500049442D500046616E2073706565640046F1
:10196000616E207370656564004E6F7A7A6C6500F5
:101970004E6F7A7A6C6500436F6E74726F6C0045BF
:1019800073746570732F6D6D004573746570732F7C
:101990006D6D005A73746570732F6D6D005A73749A
:1019A0006570732F6D6D005973746570732F6D6D55
:1019B000005973746570732F6D6D00587374657082
:1019C000732F6D6D005873746570732F6D6D0041CA
:1019D0002D7265747261637400412D726574726159
:1019E000637400416D6178206500416D6178206508
:1019F00000416D6178207A00416D6178207A004164
:101A00006D6178207900416D6178207900416D61C8
:101A100078207800416D61782078005654726176A4
:101A2000206D696E005654726176206D696E0056A5
:101A30006D696E00566D696E00566D6178206500A7
:101A4000566D6178206500566D6178207A00566D7C
:101A50006178207A00566D6178207900566D617842
:101A6000207900566D6178207800566D6178207875
:101A70000056652D6A65726B0056652D6A65726B3E
:101A800000567A2D6A65726B00567A2D6A65726B04
:101A9000005678792D6A65726B005678792D6A65E3
:101AA000726B00416363656C00416363656C004366
:101AB0006F6E74726F6C0046656220313820323070
:101AC00031372032323A32353A3130004769746862
:101AD000756220636865636B6F757400556C74691B
:101AE0006D616B65723A2031332E31320046697276
:101AF0006D776172652076657273696F6E004669F5
:101B0000726D776172652076657273696F6E0052CF
:101B10006573746F7265206661696C7361666500D8
:101B20004C6F6164206D656D6F72790053746F72D4
:101B300065206D656D6F7279004D6F74696F6E0011
:101B400054656D7065726174757265004D61696E82
:101B5000004D383420582059205A2045004D323449
:101B6000004D323320257300052E2E004D61696E25
:101B7000004E6F2053442063617264005072696E9E
:101B8000742066726F6D2053440053746F70207020
:101B900072696E7400526573756D65207072696E3E
:101BA00074005061757365207072696E7400436FC4
:101BB0006E74726F6C00507265706172650054755E
:101BC0006E6500496E666F2073637265656E000016
:101BD000000A0B02090C0D0E0807030401000000A7
:101BE00000000000000000000000000000000000F5
:101BF00000000000000000000000001211100000B2
:101C000000000000000000000000000000000000D4
:101C100000000000000102102020080810204010E1
:101C200020408002010201080402010102040810A0
:101C300020408080402010080402018004020180BE
:101C400040201008040201080402010102040810E7
:101C5000204080010204081020408005050505078A
:101C60000508080808020202020A0A080804040417
:101C70000401010101010101010303030303030343
:101C800003040707070C0C0C0C0C0C0C0C020202D2
:101C90000206060606060606060B0B0B0B0B0B0BC5
:101CA0000B00002200250028002B002E00310034FC
:101CB0000002010000050108010B010000210024C1
:101CC0000027002A002D003000330001010000042D
:101CD0000107010A014E414E494E495459494E46A9
:101CE000CDCCCC3D0AD7233C17B7D13877CC2B329B
:101CF0009595E6241FB14F0A000020410000C8421C
:101D000000401C4620BCBE4CCA1B0E5AAEC59D747A
:101D1000F34392A1A3ACF74311241FBECFEFD1E24E
:101D2000DEBFCDBF00E00CBF14E0A0E0B2E0E4E411
:101D3000F9E701E00BBF02C007900D92AE3BB1077F
:101D4000D9F722E1AEEBB4E001C01D92A73CB20787
:101D5000E1F71DE1C6E1DDE100E006C022970109DF
:101D6000FE010BBF0E9462B6C031D10780E00807B8
:101D7000A9F70E9409B10C9491BC0C940000FC01DD
:101D8000148217821382128282E494E0918380830A
:101D9000089522E434E0FC0131832083278122234B
:101DA00019F004960C94F05E0895CF92DF92EF92B2
:101DB000FF920F931F93CF93DF93EC018F96DFDF9A
:101DC000CE01805B9F4FDBDF7E012FE6E20EF11C30
:101DD00087016E013BE5C31A3EEFD30AC801CFDF8E
:101DE000015E1F4F0C151D05C9F7FE01E955FE4F99
:101DF00089E1818314823596178ACE0186539E4FDE
:101E0000BEDFFE01E558FD4F10821182128213825F
:101E1000389610821182128213821A821B821882D3
:101E200019826E0181E8C81A8DEFD80AF601108276
:101E3000118212821382F80111821082FE01E75191
:101E4000FE4F108286E391E0F7019C011192215030
:101E50003040E1F7FE01E957FD4F81E080831EA687
:101E60001DA60E94C4AE68577C4E8F4F9F4FF6014F
:101E70006083718382839383DF91CF911F910F9150
:101E8000FF90EF90DF90CF900895FC0120E03EE2BC
:101E9000DB014C91403241F0283011F4308331960F
:101EA000DB014C91408331962F5F6F5F7F4F2B306A
:101EB00079F7108208953F924F925F926F927F92CE
:101EC0008F929F92AF92BF92CF92DF92EF92FF924A
:101ED0000F931F93CF93DF93CDB7DEB7C758D109C8
:101EE0000FB6F894DEBF0FBECDBF8C016B017A0137
:101EF000312C84E0E80EF11C2801E1E14E0E511C6A
:101F00005801F8E7AF1AFDEFBF0A480186E7881AC3
:101F10008DEF980A80E4682E712C6C0E7D1EE4E033
:101F20006E0E711CA201BE016F5F7F4FC7010E9440
:101F3000D25C18160CF021C12C85322F387130314B
:101F400009F09CC0F501808191810197029708F406
:101F500095C0BE016F5F7F4FCE0187589F4F95DFC1
:101F6000A0961FAEA097F6018081811107C064EE94
:101F700072E0CE01815A9F4F0E947CB9B601CE011A
:101F8000815A9F4F0E947CB9BE0167587F4FCE0196
:101F9000815A9F4F0E947CB964EE72E0CE01815A53
:101FA0009F4F0E947CB9CE01805C9F4FE8DE21E00C
:101FB000AE0147585F4FB701C3010E94E76081112E
:101FC00039C0F50180819181892BA1F5E2E9F3E027
:101FD0008491882341F09091C00095FFFCCF8093BD
:101FE000C6003196F5CFE6EEF2E08191882339F014
:101FF0009091C00095FFFCCF8093C600F6CF8091F2
:10200000C00085FFFCCF8AE08093C600FE01E75840
:10201000FF4F8191882339F09091C00095FFFCCF4C
:102020008093C600F6CF8091C00085FFFCCF8AE088
:102030008093C6008BE1FE01EC5BFF4FDE019596BD
:1020400001900D928A95E1F724968EAD9FAD24976D
:102050009CA38BA382E494E09AA389A3AE014F5D75
:102060005F4FBE01615A7F4FC80125DFCE018196C7
:1020700090DECE01805C9F4F8CDE54CF8981882317
:1020800009F47BC0853E09F44DCF8E3209F44ACF66
:102090008F3509F447CFF8018189882331F08E32DA
:1020A00009F440CF8F3509F43DCF23FD3BCF81E0CC
:1020B000303109F080E0F80184A7811108C08985DA
:1020C000873409F02FCF8A858E3709F42BCF9801FA
:1020D0002C5F3F4FBE016F5F7F4FC901CA57DF4F73
:1020E0002883C658D040C957DF4F3883C758D040DF
:1020F000CCDEF50180819181CA57DF4F2881C65817
:10210000D040C957DF4F3881C758D0400097F1F40D
:10211000F6018191882339F09091C00095FFFCCFA2
:102120008093C600F6CFF9018191882339F0909110
:10213000C00095FFFCCF8093C600F6CF8091C00011
:1021400085FFFCCF8AE08093C600ECCE81309105FC
:1021500039F4F40180819181019691838083E2CEEC
:10216000029709F0DFCE232D30E0F40180819181C8
:102170002817390711F03394D5CEC957DF4F0FB662
:10218000F894DEBF0FBECDBFDF91CF911F910F91AD
:10219000FF90EF90DF90CF90BF90AF909F908F9087
:1021A0007F906F905F904F903F900895EF92FF92D5
:1021B0000F931F93CF93DF93CDB7DEB76F970FB613
:1021C000F894DEBF0FBECDBF8C01FC01E857FD4F78
:1021D000118210827C0183E3E80EF11C40E050E0A4
:1021E000BA01C7010E940D5E8BE1F701DE01159671
:1021F00001900D928A95E1F7F80181A992A99C833B
:102200008B8382E494E09A838983AE014F5F5F4FB2
:1022100069E574E0C8014FDECE010196BADD6F9624
:102220000FB6F894DEBF0FBECDBFDF91CF911F91E7
:102230000F91FF90EF9008952BE1FB013496DC01A4
:10224000149601900D922A95E1F7FB0122813381CA
:10225000FC01338322830895EF92FF920F931F9323
:10226000CF93DF93EC011B828EA9882321F0CE014E
:10227000C3960E94F05E7E0189E5E81A8EEFF80AA7
:1022800045E360E0C7010E94D65881111FC0E2E912
:10229000F3E08491882341F09091C00095FFFCCF3A
:1022A0008093C6003196F5CFE5E8F3E0849188236A
:1022B00041F09091C00095FFFCCF8093C60031960D
:1022C000F5CF8091C00085FFFCCF76C08E0104550C
:1022D0001E4F41E0B701C8010E94DA66811126C095
:1022E00040E0B701C8010E94DA6681111FC0E8E929
:1022F000F3E08491882341F09091C00095FFFCCFDA
:102300008093C6003196F5CFE2E7F3E0849188230D
:1023100041F09091C00095FFFCCF8093C6003196AC
:10232000F5CF8091C00085FFFCCF46C0B801CE013B
:10233000C3960E94615B81111FC0E8E9F3E08491BC
:10234000882341F09091C00095FFFCCF8093C60098
:102350003196F5CFE2E6F3E08491882341F0909145
:10236000C00095FFFCCF8093C6003196F5CF8091D9
:10237000C00085FFFCCF20C081E08B83E2E9F3E061
:102380008491882341F09091C00095FFFCCF809309
:10239000C6003196F5CFE7E5F3E08491882341F05C
:1023A0009091C00095FFFCCF8093C6003196F5CF89
:1023B0008091C00085FFFCCF8AE08093C6008E012B
:1023C000015D1F4FB801CE01805B9F4F35DFC25BBF
:1023D000DF4F19830883DF91CF911F910F91FF90F9
:1023E000EF9008950F931F93CF93DF93EC018C012F
:1023F000005B1F4FBC01615D7F4FC8011DDFC25BE9
:10240000DF4F19830883DF91CF911F910F910895BA
:10241000FC01128213820895FC012381222311F012
:1024200021E022830895FC01228121111282089566
:10243000AF92BF92CF92DF92EF92FF920F931F93D2
:10244000CF93DF931F92CDB7DEB78C018FE2FB01F4
:1024500081935F01D12C41E07801FBE5EF1AFEEF9B
:10246000FF0A9FE1C92E2D2D30E0F7018081918177
:1024700028173907D8F4C29EC001C39E900D1124BD
:102480008D589F4FB501800F911F49830E940A5BB1
:10249000C50149815C010196F5012081222321F0CB
:1024A0004D3810F44F5FF6CFD394DDCF47FD11C008
:1024B000B501C80182539E4F0F90DF91CF911F91BC
:1024C0000F91FF90EF90DF90CF90BF90AF900C9462
:1024D0000A5BF50110820F90DF91CF911F910F9150
:1024E000FF90EF90DF90CF90BF90AF9008952F9224
:1024F0003F924F925F926F927F928F929F92AF9294
:10250000BF92CF92DF92EF92FF920F931F93CF93E0
:10251000DF93CDB7DEB7AC970FB6F894DEBF0FBE32
:10252000CDBF8C016B01342EFC018381882309F41B
:10253000D3C2EF52FE4F8081882309F4F8C02111E5
:10254000C4C07801F7E1EF1AFEEFFF0AF7018081BE
:10255000882361F1E8E9F3E08491882341F09091C8
:10256000C00095FFFCCF8093C6003196F5CFE4E123
:10257000F3E08491882341F09091C00095FFFCCF57
:102580008093C6003196F5CF4AE050E061E070E0FC
:1025900089E599E00E9447458091C00085FFFCCF06
:1025A0008AE08093C6000E94FD2B96C2E2E9F3E028
:1025B0008491882341F09091C00095FFFCCF8093D7
:1025C000C6003196F5CFEBEFF2E08491882341F01D
:1025D0009091C00095FFFCCF8093C6003196F5CF57
:1025E000F6018191882339F09091C00095FFFCCFCE
:1025F0008093C600F6CFE0EFF2E08491882341F0AB
:102600009091C00095FFFCCF8093C6003196F5CF26
:10261000F70180813DE8B32EB801B89E600D711DB1
:10262000112462517E4FC80103DFF7018081F80158
:10263000B89EE00DF11D1124E251FE4F81918823D7
:1026400039F09091C00095FFFCCF8093C600F6CF83
:10265000EAEEF2E08491882341F09091C00095FF6A
:10266000FCCF8093C6003196F5CF5801FDE7AF1A35
:10267000FDEFBF0AF50140815181628173812AE03B
:1026800030E089E599E00E9473458091C00085FFA4
:10269000FCCF8AE08093C600F7012081F80184E036
:1026A000289FE00DF11D1124AF0146515E4FF50149
:1026B00080819181A281B381FA0180839183A28379
:1026C000B3832F5FF70120832CC0E2E9F3E084910C
:1026D000882341F09091C00095FFFCCF8093C60005
:1026E0003196F5CFE9EDF2E08491882341F09091A5
:1026F000C00095FFFCCF8093C6003196F5CFF60160
:102700008191882339F09091C00095FFFCCF809390
:10271000C600F6CF8091C00085FFFCCF8AE0809391
:10272000C600C80182539E4F0E94F05E30C0F8017F
:10273000E751FE4F1082E2E9F3E08491882341F0F3
:102740009091C00095FFFCCF8093C6003196F5CFE5
:10275000E8ECF2E08491882341F09091C00095FF6D
:10276000FCCF8093C6003196F5CFF6018191882386
:1027700039F09091C00095FFFCCF8093C600F6CF52
:102780008091C00085FFFCCF8AE08093C600F801ED
:102790001282CE0101965C01F2DA28019EE4490E14
:1027A000511CC8018F96F20191838083F6018081CC
:1027B0008F3209F084C06FE270E0C6010E9487B9D1
:1027C00001967C012AE0222EE114F10409F47DC077
:1027D0006FE270E0C7010E9487B94C01009709F4CD
:1027E00075C0E816F90608F071C03C016E187F0844
:1027F000A301B701CE0180960E94A7B9E0E2F0E004
:10280000EC0FFD1FE60DF71D1082FE01B0968191C1
:10281000882339F09091C00095FFFCCF8093C600CB
:10282000F6CF8091C00085FFFCCF2092C600F20158
:10283000608171816115710519F06C5F7F4F02C075
:1028400060E070E021E0AE01405E5F4FCE01059692
:102850000E94E76081112BC0E4EBF2E084918823B1
:1028600041F09091C00095FFFCCF8093C600319657
:10287000F5CFFE01B0968191882339F09091C00088
:1028800095FFFCCF8093C600F6CFE2EBF2E0849197
:10289000882341F09091C00095FFFCCF8093C60043
:1028A0003196F5CF8091C00085FFFCCFEAC0F201E0
:1028B000B182A0827401FFEFEF1AFF0A85CFC80131
:1028C000805B9F4FF201918380837601C801825320
:1028D0009E4F4C01F20160817181332009F499C04F
:1028E0006115710519F06C5F7F4F02C060E070E008
:1028F00021E0A701C4010E94E760882309F45FC0BA
:10290000F40181899289A389B489F801E558FD4FC2
:1029100080839183A283B383E4EAF2E08491D801B7
:10292000A558BD4F882349F09091C00095FFFCCF7A
:102930008093C60031968491F5CFF7018191882369
:1029400039F09091C00095FFFCCF8093C600F6CF80
:10295000ECE9F2E08491882341F09091C00095FF6A
:10296000FCCF8093C6003196F5CF4D915D916D916E
:102970007C912AE030E089E599E00E9473458091DE
:10298000C00085FFFCCF8AE08093C600F801ED57B8
:10299000FD4F1082118212821382EEE8F2E08491E0
:1029A000882341F09091C00095FFFCCF8093C60032
:1029B0003196F5CF8091C00085FFFCCF85C0EAE756
:1029C000F2E08491882341F09091C00095FFFCCF04
:1029D0008093C6003196F5CFF7018191882339F0B5
:1029E0009091C00095FFFCCF8093C600F6CFE8E73A
:1029F000F2E08491882341F09091C00095FFFCCFD4
:102A00008093C6003196F5CF8091C00085FFFCCF42
:102A100038C06115710519F06C5F7F4F02C060E02E
:102A200070E026E5A701C4010E94E76081112DC076
:102A3000E4E6F2E08491882341F09091C00095FF94
:102A4000FCCF8093C6003196F5CFF70181918823A2
:102A500039F09091C00095FFFCCF8093C600F6CF6F
:102A6000E2E6F2E08491882341F09091C00095FF66
:102A7000FCCF8093C6003196F5CF8091C00085FFD2
:102A8000FCCF8AE08093C60025C081E0F8018083F6
:102A9000E0E5F2E08491882341F09091C00095FF39
:102AA000FCCF8093C6003196F5CFF6018191882343
:102AB00039F09091C00095FFFCCF8093C600F6CF0F
:102AC0008091C00085FFFCCF8AE08093C600C701DB
:102AD0000E94EC8CC5015DD9AC960FB6F894DEBFB0
:102AE0000FBECDBFDF91CF911F910F91FF90EF905F
:102AF000DF90CF90BF90AF909F908F907F906F901E
:102B00005F904F903F902F90089521E0FC0121832A
:102B100040E0EDCC3F924F925F926F927F928F9206
:102B20009F92AF92BF92CF92DF92EF92FF920F935C
:102B30001F93CF93DF93CDB7DEB7AC970FB6F89462
:102B4000DEBF0FBECDBF7C015B01FC01838188230A
:102B500009F400C1C70182539E4F0E94F05EF70145
:102B60001282CE0101966C010AD927019EE4490E1A
:102B7000511CC7018F96F20191838083F5018081FA
:102B80008F3209F084C06FE270E0C5010E9487B9FE
:102B90008C010F5F1F4F4AE0342E0115110509F417
:102BA0007CC06FE270E0C8010E9487B94C010097B9
:102BB00009F474C00817190708F070C03C01601AC6
:102BC000710AA301B801CE0180960E94A7B9E0E284
:102BD000F0E0EC0FFD1FE60DF71D1082FE01B09630
:102BE0008191882339F09091C00095FFFCCF8093AC
:102BF000C600F6CF8091C00085FFFCCF3092C600A2
:102C0000F201608171816115710519F06C5F7F4F70
:102C100002C060E070E021E0AE01405E5F4FCE0197
:102C200005960E94E76081112BC0ECE3F2E08491ED
:102C3000882341F09091C00095FFFCCF8093C6009F
:102C40003196F5CFFE01B0968191882339F09091AD
:102C5000C00095FFFCCF8093C600F6CFEAE3F2E018
:102C60008491882341F09091C00095FFFCCF809320
:102C7000C6003196F5CF8091C00085FFFCCF65C0BE
:102C8000F201D182C08284010F5F1F4F86CFC7013E
:102C9000805B9F4FF201918380838501F2018081E7
:102CA0009181009711F0049602C080E090E0B80195
:102CB0000E94BD61882301F1ECE2F2E08491882357
:102CC00041F09091C00095FFFCCF8093C6003196F3
:102CD000F5CFF8018191882339F09091C00095FFDC
:102CE000FCCF8093C600F6CFF701ED57FD4F108261
:102CF0001182128213822CC0E4E1F2E084918823D5
:102D000041F09091C00095FFFCCF8093C6003196B2
:102D1000F5CFF8018191882339F09091C00095FF9B
:102D2000FCCF8093C600F6CFE2E1F2E084918823E5
:102D300041F09091C00095FFFCCF8093C600319682
:102D4000F5CF8091C00085FFFCCF8AE08093C6005C
:102D5000C6011FD8AC960FB6F894DEBF0FBECDBF2C
:102D6000DF91CF911F910F91FF90EF90DF90CF9067
:102D7000BF90AF909F908F907F906F905F904F909B
:102D80003F900895CF93DF93EC018B818823C1F1AD
:102D9000E0E0F2E08491882341F09091C00095FF3B
:102DA000FCCF8093C6003196F5CFFE01ED57FD4F65
:102DB00040815181628173812AE030E089E599E0A8
:102DC0000E947345EEEFF1E08491882341F09091E9
:102DD000C00095FFFCCF8093C6003196F5CFC55853
:102DE000DD4F488159816A817B812AE030E089E5A5
:102DF00099E00E9473458091C00085FFFCCF11C00F
:102E0000EEEEF1E08491882341F09091C00095FFAF
:102E1000FCCF8093C6003196F5CF8091C00085FF2E
:102E2000FCCF8AE08093C600DF91CF910895AF92E6
:102E3000BF92CF92DF92EF92FF920F931F93CF93A7
:102E4000DF935C01EB01FB0101900020E9F78F01AA
:102E500001501109061B170B6C01F2E3CF1AFEEFAC
:102E6000DF0AF60110826EE470E0CE010E9487B99D
:102E70007C01009729F4F8013197EC0FFD1F0DC07C
:102E800060E270E00E9487B9EC0121966AE270E08E
:102E9000C7010E9487B9FC0131978DE081838AE0E8
:102EA00082831382BE01C50186539E4F0E948363B5
:102EB000F6018081882309F1E8E9F3E08491882311
:102EC00041F09091C00095FFFCCF8093C6003196F1
:102ED000F5CFE8EDF1E08491882341F09091C000B6
:102EE00095FFFCCF8093C6003196F5CF8091C0004E
:102EF00085FFFCCF8AE08093C600DF91CF911F91C0
:102F00000F91FF90EF90DF90CF90BF90AF9008951A
:102F10002F923F924F925F926F927F928F929F92E9
:102F2000AF92BF92CF92DF92EF92FF920F931F93D7
:102F3000CF93DF93CDB7DEB7CC55D1090FB6F89458
:102F4000DEBF0FBECDBF8C0189579D4F5C0166234C
:102F500039F0F5011082F801838181111DC015C07F
:102F6000FC018081882309F4ADC0F801E158FD4FD0
:102F7000C080D180E280F3800E94C4AEC616D7061E
:102F8000E806F90608F49EC0E4CFC80165D9F80147
:102F90008381882309F496C0F80186A58F9385A5BF
:102FA0008F938FEC91E09F938F937E01FFE3EF0E61
:102FB000F11CFF92EF920E94B6B90F900F900F9004
:102FC0000F900F900F90B12CF70101900020E9F7BE
:102FD0003197EE19FF09BE1684F46701CB0CD11CA2
:102FE000B7FCDA94F6018081992787FD90950E94BD
:102FF00016B9F6018083B394E7CF4801F3E38F0E4F
:10300000911C40E050E0BA01C4010E940D5E512CB9
:10301000CE0101966C0158EC652E51E0752E5E01D3
:1030200091E2A90EB11C40E050E0B601C4010E943B
:10303000D25C1816DCF5412CF60101900020E9F76E
:103040003197EC19FD094E1674F41601240C311C4D
:1030500047FC3A94F101808190E00E9416B9F10199
:1030600080834394E9CF8A858E37E9F245E050E0CA
:10307000B701C6010E9499B9892BA9F6FF92EF9278
:103080007F926F92BF92AF920E94B6B9C5010E9423
:10309000792284EC91E00E94EC220F900F900F9027
:1030A0000F900F900F9055245394BDCF511004C032
:1030B0008FEF9FEFF80104C0F80185A596A5019652
:1030C00096A785A7C45ADF4F0FB6F894DEBF0FBE90
:1030D000CDBFDF91CF911F910F91FF90EF90DF90C7
:1030E000CF90BF90AF909F908F907F906F905F90A8
:1030F0004F903F902F9008950F931F93CF93DF939E
:10310000EC018C0102531E4FC8010E94A65EC8014B
:103110000E94F05E18821982DF91CF911F910F916A
:103120000895EF92FF920F931F93CF93DF93CDB744
:10313000DEB76F970FB6F894DEBF0FBECDBF8C0120
:103140007C018EE4E80EF11CC801805B9F4FF70103
:1031500091838083E65CFD4F22E030E03183208361
:10316000329670E07183608340E050E0BA010496CB
:103170000E940D5EF701808191812BE1FC01349664
:10318000DE01159601900D922A95E1F7FC018281EE
:1031900093819C838B8382E494E09A838983AE013C
:1031A0004F5F5F4F69E574E0C8010E945B0FCE017D
:1031B00001960E94C90E6F960FB6F894DEBF0FBE3F
:1031C000CDBFDF91CF911F910F91FF90EF900895A8
:1031D000CF92DF92EF92FF920F931F93CF93DF93E3
:1031E000CDB7DEB76F970FB6F894DEBF0FBECDBF79
:1031F0008C016C012EE4C20ED11C805B9F4FF60146
:1032000091838083E65CFD4F21E030E031832083B1
:103210007801F6E7EF1AFDEFFF0AF701118210823D
:1032200040E050E0BA0104960E940D5EF6018081F4
:1032300091812BE1FC013496DE01159601900D92EF
:103240002A95E1F7FC01828193819C838B8382E440
:1032500094E09A838983AE014F5F5F4F69E574E024
:10326000C8010E945B0FCE0101960E94C90EF701B2
:10327000808191816F960FB6F894DEBF0FBECDBFEF
:10328000DF91CF911F910F91FF90EF90DF90CF9042
:103290000895AF92BF92CF92DF92EF92FF920F9379
:1032A0001F93CF93DF93CDB7DEB76F970FB6F89428
:1032B000DEBF0FBECDBF8C017B01CE0101960E9407
:1032C000BF0EF801E95AFF4F80816801811104C0E7
:1032D0002FE2C20ED11C03C080E5C80ED11C21E034
:1032E000A701B6016C5F7F4FCE0105960E94E76093
:1032F00081112DC0E2E9F3E08491882341F090919F
:10330000C00095FFFCCF8093C6003196F5CFEEEA62
:10331000F1E08491882341F09091C00095FFFCCFAB
:103320008093C6003196F5CFF7018191882339F05B
:103330009091C00095FFFCCF8093C600F6CF80919E
:10334000C00085FFFCCF8AE08093C60036C0F8013C
:10335000EB55FE4F808191818A30910530F59C01BB
:103360002F5F3F4F318320832FE1289F7001299FDA
:10337000F00C11242FE6E20EF11CE00EF11E5C01B0
:10338000B701C7014F960E941C1181E0A81AB1082D
:103390002FE1E21AF1088FEFA816B80689F7B601F7
:1033A000C80181599F4F0E941C11BE016F5F7F4F62
:1033B000C801805B9F4F0E941C11CE0101960E94A4
:1033C000C90E6F960FB6F894DEBF0FBECDBFDF916A
:1033D000CF911F910F91FF90EF90DF90CF90BF9012
:1033E000AF900895EF92FF920F931F93CF93DF93C7
:1033F000EC01CB55DE4F2881398121153105F9F0DB
:1034000021503109398328838C0101591F4FB8019C
:10341000805B9F4F0E941C11C80100E010E07C01FE
:103420002FE1E20EF11C288139810217130738F4CD
:103430000F5F1F4FB7010E941C11C701F0CFDF9132
:10344000CF911F910F91FF90EF900895EF92FF920F
:103450000F931F93CF93DF93EC010E943C6F8E017B
:1034600007511E4FF80180819E0122533E4F790182
:103470008823A1F1C9010E94F05EF801808181508A
:103480008083BE01FDE88F9F600D711D1124625184
:103490007E4F21E041E0CE012AD8F8018081FE0173
:1034A00024E0829FE00DF11D1124E651FE4F408182
:1034B000518162817381FE01ED57FD4F408351833D
:1034C00062837383C7010E940D5ECE01DF91CF91AD
:1034D0001F910F91FF90EF900C940C120E94B06F0F
:1034E000C7010E94F05E1A8282EA91E0DF91CF91DB
:1034F0001F910F91FF90EF900C94EC22EF92FF92AE
:103500000F931F93CF93DF931F92CDB7DEB78C013C
:103510007B01460FF70161917F01F8018081918164
:1035200049830E94DABBF8018081918101969183E1
:10353000808349814E11EECF0F90DF91CF911F9183
:103540000F91FF90EF900895EF92FF920F931F93CA
:10355000CF93DF931F92CDB7DEB78C017B01460F6F
:10356000F8018081918149830E94D2BBF701819348
:103570007F01F80180819181019691838083498147
:103580004E11EECF0F90DF91CF911F910F91FF90D1
:10359000EF9008950F931F93CF93DF93CDB7DEB7CE
:1035A0002C970FB6F894DEBF0FBECDBF80E390E33B
:1035B000A0E3B0E08D839E83AF83B88704E610E07C
:1035C0001C870B8744E0BE016B5F7F4FCE010B96DB
:1035D00095DF40E160E17FE0CE010B968FDF40E1B7
:1035E00060E27FE0CE010B9689DF40E160E07FE0A2
:1035F000CE010B9683DF44E068EF7EE0CE010B96B0
:103600007DDF44E064EF7EE0CE010B9677DF44E09F
:103610006CEF7EE0CE010B9671DF44E064EE7EE05D
:10362000CE010B966BDF44E060E37FE0CE010B96AA
:1036300065DF44E060EF7EE0CE010B965FDF44E0A3
:103640006CEE7EE0CE010B9659DF44E068EE7EE042
:10365000CE010B9653DF4CE069EA76E0CE010B9683
:103660004DDF42E062E472E1CE010B9647DF42E0BB
:1036700060E472E1CE010B9641DF42E06EE372E15D
:10368000CE010B963BDF42E06CE372E1CE010B967C
:1036900035DF42E06AE372E1CE010B962FDF42E0B4
:1036A00068E372E1CE010B9629DF44E066E976E03B
:1036B000CE010B9623DF44E068E572E0CE010B9665
:1036C0001DDF44E064E572E0CE010B9617DF44E0B5
:1036D00060E572E0CE010B9611DF80E290E09A8700
:1036E000898742E0BE01675F7F4FCE010B9606DF00
:1036F00086E591E3A0E3B0E089839A83AB83BC8342
:103700001C870B8744E0BE016F5F7F4FCE010B9695
:10371000F5DEE3EBF5E08491882341F09091C00061
:1037200095FFFCCF8093C6003196F5CFE3EAF5E034
:103730008491882341F09091C00095FFFCCF809345
:10374000C6003196F5CF8091C00085FFFCCF8AE09E
:103750008093C6002C960FB6F894DEBF0FBECDBF87
:10376000DF91CF911F910F910895CF93DF93C3EB1A
:10377000D5E0FE018491882341F09091C00095FF2F
:10378000FCCF8093C6003196F5CFE3E9F5E0849154
:10379000882341F09091C00095FFFCCF8093C60034
:1037A0003196F5CF8091C00085FFFCCF8AE08093F1
:1037B000C600FE018491E3EBF5E0882349F0909187
:1037C000C00095FFFCCF8093C60031968491F5CF61
:1037D0004091100F5091110F6091120F7091130FC3
:1037E0008BE895E045D64091140F5091150F6091EC
:1037F000160F7091170F88E895E03AD64091180F90
:103800005091190F60911A0F70911B0F85E895E088
:103810002FD640911C0F50911D0F60911E0F70917B
:103820001F0F82E895E024D68091C00085FFFCCF71
:103830008AE08093C600FE018491E3EBF5E08823E3
:1038400049F09091C00095FFFCCF8093C60031965F
:103850008491F5CFE8E6F5E08491882341F09091DA
:10386000C00095FFFCCF8093C6003196F5CF8091C4
:10387000C00085FFFCCF8AE08093C600FE018491E2
:10388000E3EBF5E0882349F09091C00095FFFCCF71
:103890008093C60031968491F5CF4091200F5091CE
:1038A000210F6091220F7091230F8FE595E0E0D5F5
:1038B0004091240F5091250F6091260F7091270F92
:1038C0008CE595E0D5D54091280F5091290F609156
:1038D0002A0F70912B0F89E595E0CAD540912C0FE6
:1038E00050912D0F60912E0F70912F0F86E595E06E
:1038F000BFD58091C00085FFFCCF8AE08093C600D1
:10390000FE018491E3EBF5E0882349F09091C0003B
:1039100095FFFCCF8093C60031968491F5CFE8E304
:10392000F5E08491882341F09091C00095FFFCCF91
:103930008093C6003196F5CF8091C00085FFFCCF03
:103940008AE08093C600FE018491E3EBF5E08823D2
:1039500049F09091C00095FFFCCF8093C60031964E
:103960008491F5CF4091000F5091010F6091020FAB
:103970007091030F8FE295E08DD54091040F509127
:10398000050F6091060F7091070F8CE295E082D5CC
:103990004091080F5091090F60910A0F70910B0F21
:1039A00089E295E077D540910C0F50910D0F609111
:1039B0000E0F70910F0F86E295E06CD58091C000DC
:1039C00085FFFCCF8AE08093C600FE018491E3EB83
:1039D000F5E0882349F09091C00095FFFCCF8093DB
:1039E000C60031968491F5CFE1EFF4E0849188230D
:1039F00041F09091C00095FFFCCF8093C6003196B6
:103A0000F5CF8091C00085FFFCCF8AE08093C6008F
:103A1000FE018491E3EBF5E0882349F09091C0002A
:103A200095FFFCCF8093C60031968491F5CF4091ED
:103A3000F80E5091F90E6091FA0E7091FB0E88EE1F
:103A400094E016D54091F40E5091F50E6091F60E6B
:103A50007091F70E85EE94E00BD58091C00085FF44
:103A6000FCCF8AE08093C600FE018491E3EBF5E091
:103A7000882349F09091C00095FFFCCF8093C60049
:103A800031968491F5CFE2E3F4E08491882341F00C
:103A90009091C00095FFFCCF8093C6003196F5CF82
:103AA0008091C00085FFFCCF8AE08093C600FE01B4
:103AB0008491E3EBF5E0882349F09091C00095FFF5
:103AC000FCCF8093C60031968491F5CF4091FC0ED7
:103AD0005091FD0E6091FE0E7091FF0E89E294E010
:103AE000C7D44091E40E5091E50E6091E60E7091BE
:103AF000E70E86E294E0BCD44091300F5091310F34
:103B00006091320F7091330F83E294E0C3D44091FF
:103B1000F00E5091F10E6091F20E7091F30E80E272
:103B200094E0A6D44091EC0E5091ED0E6091EE0E13
:103B30007091EF0E8DE194E09BD44091E80E50918E
:103B4000E90E6091EA0E7091EB0E8AE194E090D458
:103B50008091C00085FFFCCF8AE08093C600FE0103
:103B60008491E3EBF5E0882349F09091C00095FF44
:103B7000FCCF8093C60031968491F5CFE8E0F4E065
:103B80008491882341F09091C00095FFFCCF8093F1
:103B9000C6003196F5CF8091C00085FFFCCF8AE04A
:103BA0008093C600FE018491E3EBF5E0882349F0A1
:103BB0009091C00095FFFCCF8093C6003196849110
:103BC000F5CF4091A9065091AA066091AB0670917D
:103BD000AC068FEF93E04CD44091AD065091AE0609
:103BE0006091AF067091B0068CEF93E041D44091A4
:103BF000B1065091B2066091B3067091B40689EF98
:103C000093E036D48091C00085FFFCCF8AE080939A
:103C1000C600FE018491E3EBF5E0882349F0909122
:103C2000C00095FFFCCF8093C60031968491F5CFFC
:103C3000EBEEF3E08491882341F09091C00095FF72
:103C4000FCCF8093C6003196F5CF8091C00085FFF0
:103C5000FCCF8AE08093C600FE01C491E3EBF5E05F
:103C6000CC2349F08091C00085FFFCCFC093C600F3
:103C70003196C491F5CF409158025091590260910C
:103C80005A0270915B0281EE93E0F2D3609154028C
:103C90007091550280915602909157020E94FB7AD2
:103CA000AB01BC018EED93E0E3D3609150027091C3
:103CB000510280915202909153020E94077BAB0106
:103CC000BC018BED93E0D4D38091C00085FFFCCF85
:103CD0008AE08093C600DF91CF910895AF92BF92A2
:103CE000CF92DF92EF92FF920F931F93CF93DF93C8
:103CF000CDB7DEB7E0970FB6F894DEBF0FBECDBFED
:103D000080E1E4E7F2E0DE01919601900D928A9560
:103D1000E1F780E1E4E8F2E0DE01519601900D92D6
:103D20008A95E1F780E1E4E9F2E0DE011196019085
:103D30000D928A95E1F76E0181E2C80ED11C80E1F7
:103D4000E82E8FE0F82E8E010F5E1F4F60E27FE0BD
:103D5000AE014F5F5F4F90E0A92E9FE0B92E20E0AB
:103D600030E0F60181919191A191B1916F01F7013C
:103D700081939193A193B1937F01F80181919191E6
:103D8000A191B1918F01FB0181939193A193B19383
:103D9000BF01FA0181919191A191B191AF01F5011A
:103DA00081939193A193B1935F012F5F3F4F243093
:103DB0003105B9F60E94A15780E090E0AAE7B4E48B
:103DC0008093F80E9093F90EA093FA0EB093FB0E29
:103DD00080E090E8ABE3B5E48093F40E9093F50EA9
:103DE000A093F60EB093F70E1092FC0E1092FD0EFB
:103DF0001092FE0E1092FF0E80E29EE4A0E0B0E072
:103E00008093300F9093310FA093320FB093330F04
:103E10001092E40E1092E50E1092E60E1092E70E4C
:103E200080E090E0A0EAB1E48093F00E9093F10E70
:103E3000A093F20EB093F30E8DEC9CECACECBEE3D1
:103E40008093EC0E9093ED0EA093EE0EB093EF0ED8
:103E500080E090E0A0EAB0E48093E80E9093E90E51
:103E6000A093EA0EB093EB0E1092B1061092B20638
:103E70001092B3061092B4061092AD061092AE06E0
:103E80001092AF061092B0061092A9061092AA06E0
:103E90001092AB061092AC0682ED90E09093431224
:103EA0008093421286E490E09093411280934012F6
:103EB00010923F1210923E128AEF90E090933D12C2
:103EC00080933C1284E690E090933B1280933A12E8
:103ED00010923912109238128AE999E9A1EBB1E4F3
:103EE0008093580290935902A0935A02B0935B02B8
:103EF00061E77DE38AE89FE30E94F57A60935402CC
:103F000070935502809356029093570260E070E0E0
:103F100084EE92E40E94017B609350027093510200
:103F200080935202909353020E94D47180E090E0FB
:103F3000A0E8BFE380934C0290934D02A0934E0201
:103F4000B0934F02E3EBF5E08491882341F0909128
:103F5000C00095FFFCCF8093C6003196F5CFEFE906
:103F6000F3E08491882341F09091C00095FFFCCF4D
:103F70008093C6003196F5CF8091C00085FFFCCFBD
:103F80008AE08093C600E0960FB6F894DEBF0FBEBD
:103F9000CDBFDF91CF911F910F91FF90EF90DF90F8
:103FA000CF90BF90AF900895CF93DF93CDB7DEB79A
:103FB0002C970FB6F894DEBF0FBECDBF84E690E01D
:103FC0009C878B8786E591E3A0E3B0E089839A83A1
:103FD000AB83BC8344E0BE016B5F7F4FCE010B9689
:103FE000B3DA43E050E0BE016B5F7F4FCE01019634
:103FF0000E9499B9892B09F0B1C040E160E17FE0EE
:10400000CE010B96A1DA40E160E27FE0CE010B9693
:104010009BDA40E160E07FE0CE010B9695DA0E94EA
:10402000A15744E068EF7EE0CE010B968DDA44E0C4
:1040300064EF7EE0CE010B9687DA44E06CEF7EE021
:10404000CE010B9681DA44E064EE7EE0CE010B9661
:104050007BDA44E060E37FE0CE010B9675DA44E062
:1040600060EF7EE0CE010B966FDA44E06CEE7EE00E
:10407000CE010B9669DA44E068EE7EE0CE010B9645
:1040800063DA4CE069EA76E0CE010B965DDA42E055
:1040900062E472E1CE010B9657DA42E060E472E12D
:1040A000CE010B9651DA42E06EE372E1CE010B963F
:1040B0004BDA42E06CE372E1CE010B9645DA42E066
:1040C0006AE372E1CE010B963FDA42E068E372E107
:1040D000CE010B9639DA44E066E976E0CE010B9624
:1040E00033DA44E068E572E0CE010B962DDA44E065
:1040F00064E572E0CE010B9627DA44E060E572E0F9
:10410000CE010B9621DA42E0BE01675F7F4FCE0100
:104110000B961ADA0E94D471E3EBF5E084918823C0
:1041200041F09091C00095FFFCCF8093C60031967E
:10413000F5CFE1ECF3E08491882341F09091C00049
:1041400095FFFCCF8093C6003196F5CF8091C000DB
:1041500085FFFCCF8AE08093C60001C0BFDD05DB90
:104160002C960FB6F894DEBF0FBECDBFDF91CF9176
:104170000895FC0165917591859194910895EF9250
:10418000FF920F931F93CF93DF93EC01CC0FDD1FB2
:10419000CC0FDD1FCE01825D944FEBDF9E012B54CF
:1041A000394F79018E010755194FF801208131816E
:1041B000428153810E945EB1F701608371838283E3
:1041C0009383CE018A5B944FD4DF9E012356394FEF
:1041D0007901F80120813181428153810E945EB1D1
:1041E000F7016083718382839383CE01865C944F51
:1041F000C0DFCF5EDD4FF8012081318142815381E4
:104200000E945EB1688379838A839B83DF91CF911B
:104210001F910F91FF90EF9008952F923F924F9230
:104220005F926F927F928F929F92AF92BF92CF9246
:10423000DF92EF92FF920F931F93CF93DF9300D003
:104240001F92CDB7DEB74C01FC01ED5EF44FB49088
:10425000880F991F880F991F9C838B838B54994FCC
:104260001C01FC01108211821282138221EC36E0C3
:104270004DEB56E069EB76E085EB96E00E94CF5679
:104280008B819C818E5D944F74DF6B017C016B2D63
:10429000772767FD7095872F972F0E94D9B22B0142
:1042A0003C018B819C818D57994F5C0120E030E06F
:1042B00040EC5FE3C701B6010E940CB5A301920177
:1042C0000E940CB5F50160837183828393838B8197
:1042D0009C81895D9D4F9A838983FC0160817181F6
:1042E0008281938160930B0270930C0280930D0284
:1042F00090930E0220E030E040E752E40E943EB28C
:1043000035E9C32E36E0D32E7B018C012FE836E051
:104310004BE856E067E876E083E896E00E94354D8A
:104320000E943C6FF101108211821282138221ECF3
:1043300036E04DEB56E069EB76E085EB96E00E94C7
:10434000CF568B819C818A5E944F9C838B8311DF37
:104350009058A30192010E940CB5F501608371830E
:104360008283938320E030E040E752E460910B02C7
:1043700070910C0280910D0290910E020E943EB24B
:104380007B018C012FE836E04BE856E067E876E0E9
:1043900083E896E00E94354D0E943C6F8B819C81A2
:1043A000E8DE9B01AC010E945EB1A30192010E9474
:1043B0000CB5F501608371838283938320E030E044
:1043C00040E05FE3E981FA816081718182819381BC
:1043D0000E940CB560930B0270930C0280930D0247
:1043E00090930E0220E030E040E752E40E943EB29B
:1043F0007B018C012FE836E04BE856E067E876E079
:1044000083E896E00E94354D0E943C6FC401B7DE00
:10441000F10180819181A281B381F5018083918333
:10442000A283B38310920B0210920C0210920D0221
:1044300010920E020E94AF68F401E656F94F81E037
:1044400080830F900F900F900F90DF91CF911F916D
:104450000F91FF90EF90DF90CF90BF90AF909F9023
:104460008F907F906F905F904F903F902F90089526
:10447000FC012491222341F03091C00035FFFCCF94
:104480002093C6000196F4CF22E030E089E599E060
:104490000C941D46FC012491222341F03091C00070
:1044A00035FFFCCF2093C6000196F4CF2AE030E020
:1044B00089E599E00C947345CF93DF931F921F9287
:1044C000CDB7DEB78091C1129091C2129E012F5FCD
:1044D0003F4F009719F4275C324102C0281B390B6B
:1044E0003A83298389819A810F900F90DF91CF9130
:1044F00008952091D8043091D904243031050CF06E
:104500006AC04091DA045091DB0460E6649F900138
:10451000659F300D1124BC01C9018E519B4F0E9433
:1045200092B9E2E5FBE08491882341F09091C000CC
:1045300095FFFCCF8093C6003196F5CFE8E0FBE015
:104540008491882341F09091C00095FFFCCF809327
:10455000C6003196F5CF8091DA049091DB0420E615
:10456000289FF001299FF00D1124EE51FB4F8191FE
:10457000882339F09091C00095FFFCCF8093C6004E
:10458000F6CFE6E0FBE08491882341F09091C000F3
:1045900095FFFCCF8093C6003196F5CF8091C00087
:1045A00085FFFCCF8AE08093C6008091DA04909169
:1045B000DB04019664E070E00E94F5B59093DB04A3
:1045C0008093DA048091D8049091D9040196909355
:1045D000D9048093D80408952091D8043091D90447
:1045E000243031050CF06AC04091DA045091DB04AC
:1045F00060E6649F9001659F300D1124BC01C901E4
:104600008E519B4F0E941EB9E2E5FBE08491882306
:1046100041F09091C00095FFFCCF8093C600319689
:10462000F5CFEBEFFAE08491882341F09091C00040
:1046300095FFFCCF8093C6003196F5CF8091DA04C8
:104640009091DB0420E6289FF001299FF00D1124B2
:10465000EE51FB4F8191882339F09091C00095FF76
:10466000FCCF8093C600F6CFE9EFFAE0849188236F
:1046700041F09091C00095FFFCCF8093C600319629
:10468000F5CF8091C00085FFFCCF8AE08093C60003
:104690008091DA049091DB04019664E070E00E945E
:1046A000F5B59093DB048093DA048091D80490915F
:1046B000D90401969093D9048093D804089540E0DA
:1046C00052EC61E070E089E599E00E943344E3EF49
:1046D000FAE08491882341F09091C00095FFFCCFCF
:1046E0008093C6003196F5CF8091C00085FFFCCF46
:1046F0008AE08093C60082E59BE0FC01249122239E
:1047000041F03091C00035FFFCCF2093C6003196B8
:10471000F5CF24B720FF14C0EBEEFAE03491332339
:1047200041F04091C00045FFFCCF3093C600319668
:10473000F5CF3091C00035FFFCCF3AE03093C60092
:1047400021FF14C0EBEDFAE03491332341F04091A6
:10475000C00045FFFCCF3093C6003196F5CF3091B5
:10476000C00035FFFCCF3AE03093C60022FF14C0F2
:10477000EAECFAE03491332341F04091C00045FF68
:10478000FCCF3093C6003196F5CF3091C00035FF95
:10479000FCCF3AE03093C60023FF14C0EAEBFAE006
:1047A0003491332341F04091C00045FFFCCF30935A
:1047B000C6003196F5CF3091C00035FFFCCF3AE00E
:1047C0003093C60025FF14C0EAEAFAE024912223C0
:1047D00041F03091C00035FFFCCF2093C6003196E8
:1047E000F5CF2091C00025FFFCCF2AE02093C60022
:1047F00014BEE3EAFAE02491222341F03091C00094
:1048000035FFFCCF2093C6003196F5CFEDE9FAE0F5
:104810002491222341F03091C00035FFFCCF20933A
:10482000C6003196F5CF2091C00025FFFCCF2AE0CD
:104830002093C600FC012491E2E5FBE0222349F02D
:104840003091C00035FFFCCF2093C60031962491F3
:10485000F5CFEDE8FAE02491222341F03091C00039
:1048600035FFFCCF2093C6003196F5CFE8E7FAE09C
:104870002491222341F03091C00035FFFCCF2093DA
:10488000C6003196F5CFECE6FAE02491222341F000
:104890003091C00035FFFCCF2093C6003196F5CF94
:1048A000E2E5FAE02491222341F03091C00035FF87
:1048B000FCCF2093C6003196F5CF2091C00025FF94
:1048C000FCCF2AE02093C600E7E4FAE024912223FB
:1048D00041F03091C00035FFFCCF2093C6003196E7
:1048E000F5CFEBE3FAE02491222341F03091C000B0
:1048F00035FFFCCF2093C6003196F5CF2091C00044
:1049000025FFFCCF2AE02093C600FC018491E2E55C
:10491000FBE0882349F09091C00095FFFCCF809385
:10492000C60031968491F5CFECE2FAE084918823B9
:1049300041F09091C00095FFFCCF8093C600319666
:10494000F5CFBADD4AE050E0BC0189E599E00E946C
:104950004745E5E1FAE08491882341F09091C00059
:1049600095FFFCCF8093C6003196F5CF4AE050E02A
:1049700060ED74E089E599E00E9447458091C000B0
:1049800085FFFCCF8AE08093C6001092DE0410926F
:10499000DF041092E0041092E10406DB0E94007430
:1049A0000E94E54C0E9400AC0E9469700E946B8DD1
:1049B000FFEF23ED80E3F15020408040E1F700C09D
:1049C000000008958091D2049091D30460E070E0DB
:1049D00001960C9475B68091D2049091D3044AE06C
:1049E00050E060E070E001960C94DDB7682F772707
:1049F00067FD70952091DC043091DD0440E6429F14
:104A0000C001439F900D11248E519B4F0E9487B986
:104A10009093D3048093D20421E0892B09F420E001
:104A2000822F08950E94C4AE6093CE047093CF0489
:104A30008093D0049093D10408950E94C4AE6093F3
:104A4000CE047093CF048093D0049093D104E0916E
:104A5000DC04F091DD04E252FB4F8081811114C02F
:104A6000E1E6F6E08491882341F09091C00095FF43
:104A7000FCCF8093C6003196F5CF8091C00085FFB2
:104A8000FCCF8AE08093C600089589E599E00E94F2
:104A90008544E4E6F6E08491882341F09091C000DB
:104AA00095FFFCCF8093C6003196F5CF4091670605
:104AB000509168066091690670916A064F5F5F4F7A
:104AC0006F4F7F4F2AE030E089E599E00E9424454E
:104AD0008091C00085FFFCCF8AE08093C600ADCFF7
:104AE0002F923F924F925F926F927F928F929F92FE
:104AF000AF92BF92CF92DF92EF92FF920F931F93EC
:104B0000CF93DF93CDB7DEB76E970FB6F894DEBFC5
:104B10000FBECDBF70E6972E04E010E0E8EDEE2E5C
:104B2000E8E0FE2EFAE08F2EAEE4CA2EA9E0DA2EDF
:104B3000772473948091DA099091DB092091DC0944
:104B40003091DD09821B930B8F779927892B09F40C
:104B500025C28091D8049091D90404970CF01EC20C
:104B600089E599E00E9469448093D7042091D50497
:104B70003091D6048A3061F08D3051F08A3321F4BF
:104B80009091D404992321F02F3531050CF428C1DC
:104B90002115310509F442C18091DA049091DB04BA
:104BA000989E5001999EB00C1124F501E20FF31F5D
:104BB000EE51FB4F10822091D40421110CC1FC0155
:104BC000E252FB4F108295012E513B4F19016EE4CA
:104BD00070E0C9010E9487B90097E9F19093D3046E
:104BE0008093D204821993098A0D9B1D4AE050E0FC
:104BF00060E070E08D519B4F0E94DDB760936B06C3
:104C000070936C0680936D0690936E0620916706F4
:104C1000309168064091690650916A062F5F3F4FB8
:104C20004F4F5F4FA090DA04B090DB046217730718
:104C30008407950709F4F5C09A9CC0019B9C900DD0
:104C4000112467EF79E08E519B4F0E944CB9892B5C
:104C500009F0E7C076C16AE270E0C1010E9487B93D
:104C6000892B09F444C0E8E5FBE08491882341F0F6
:104C70009091C00095FFFCCF8093C6003196F5CF90
:104C8000E1E5F9E08491882341F09091C00095FF1F
:104C9000FCCF8093C6003196F5CF409167065091C6
:104CA00068066091690670916A062AE030E089E53D
:104CB00099E00E9424458091C00085FFFCCF8AE0E6
:104CC0008093C6001092D6041092D504CDC2809174
:104CD0006B0690916C06A0916D06B0916E06809364
:104CE000670690936806A0936906B0936A06809160
:104CF000DA049091DB04989E5001999EB00C112427
:104D0000C5018E519B4F1C0167E470E00E9487B97A
:104D1000009709F44BC09093D3048093D204821976
:104D200093098A0D9B1D60E070E08D519B4F0E949E
:104D300075B60E94A6B26430710508F037C0809144
:104D4000C00481111AC08091CB0681112FC0F601D9
:104D50008491EEE4F9E0882349F09091C00095FF3A
:104D6000FCCF8093C60031968491F5CF8091C0002E
:104D700085FFFCCF8092C60019C0F7018491E8ED51
:104D8000F8E0882349F09091C00095FFFCCF809314
:104D9000C60031968491F5CF8091C00085FFFCCF8D
:104DA0008092C6008EEC98E00E94FB8C8091DA0421
:104DB0009091DB040196B8010E94F5B59093DB0455
:104DC0008093DA048091D8049091D904019690934D
:104DD000D9048093D8041092D6041092D504AACE98
:104DE0008B3311F47092D4049091D4049111A2CE1B
:104DF0004091DA045091DB04B9016F5F7F4F7093EB
:104E0000D6046093D504949EF001959EF00D112474
:104E1000E20FF31FEE51FB4F80838CCE1092D4042F
:104E200023C29A9C10019B9C300C1124C1018E510D
:104E30009B4F5C016AE270E00E9487B9009789F598
:104E4000E8E5FBE08491882341F09091C00095FF54
:104E5000FCCF8093C6003196F5CFEBE7F9E0849163
:104E6000882341F09091C00095FFFCCF8093C6004D
:104E70003196F5CF409167065091680660916906BA
:104E800070916A062AE030E089E599E00E942445A5
:104E90008091C00085FFFCCF8AE08093C600F5DDDD
:104EA00011CF20E0612CF101E20FF11DEE51FB4F1B
:104EB00030813A3219F02F5F6326F5CF9093D304F7
:104EC0008093D2048A199B09820D931D60E070E0E3
:104ED0008D519B4F0E9475B60E94A6B2262D30E0E0
:104EE0002617370709F4F3CEE8E5FBE08491882321
:104EF00041F09091C00095FFFCCF8093C6003196A1
:104F0000F5CFE5EAF9E08491882341F09091C00063
:104F100095FFFCCF8093C6003196F5CF4091670690
:104F2000509168066091690670916A062AE030E047
:104F300089E599E00E9424458091C00085FFFCCF5F
:104F4000ABCFE8E5FBE08491882341F09091C0006D
:104F500095FFFCCF8093C6003196F5CFE4ECF9E0E5
:104F60008491882341F09091C00095FFFCCF8093FD
:104F7000C6003196F5CF4091670650916806609162
:104F8000690670916A062AE030E089E599E00E949E
:104F900024458091C00085FFFCCF7ECF8091CD0657
:104FA000882309F461C18091D5049091D604892B9E
:104FB00009F05AC18091D8049091D904892B11F439
:104FC0001092BE0458EE252E53E0352E412C512C64
:104FD0006CE3C62ED12CE12CF12C8E010F5F1F4FFC
:104FE00040E6642E7724739440914E0950914F0906
:104FF000609150097091510980914609909147093B
:10500000A0914809B0914909481759076A077B07D9
:1050100008F02AC18091D8049091D90404970CF02B
:1050200023C18091BE0481111FC18091A10890917C
:10503000A208A091A308B091A40880934E09909370
:105040004F09A0935009B093510989E998E00E9453
:10505000A75C482F8093D7048A30B9F04D30A9F06F
:10506000433229F42091D404211103C00EC04A33E5
:10507000C9F32091D5043091D6042F3531052CF495
:105080008F3FFFEF9F0709F0D1C040914E0950912B
:105090004F09609150097091510980914609909192
:1050A0004709A0914809B0914909481759076A076B
:1050B0007B0708F481C0EBEBF8E08491882341F092
:1050C0009091C00095FFFCCF8093C6003196F5CF3C
:1050D0008091C00085FFFCCFFAE0F093C6000E94EB
:1050E000C4AE6093C2047093C3048093C4049093CD
:1050F000C5048090C6049090C704A090C804B090E6
:10510000C904681979098A099B09A20191010E94C1
:1051100008B649015A01CA01B901A70196010E94C6
:1051200008B6CA01B901A70196010E9408B67F938B
:105130006F93C501B40120E13EE040E050E00E94E1
:1051400008B63F932F93A7EAB8E0BF93AF931F939E
:105150000F930E94B6B9E2E5FBE084910FB6F89494
:10516000DEBF0FBECDBF882349F09091C00095FFF0
:10517000FCCF8093C60031968491F5CFF8018191E0
:10518000882339F09091C00095FFFCCF8093C60032
:10519000F6CF8091C00085FFFCCF3AE03093C60087
:1051A000C8010E94EC8C8BEC96E00E94261A61E00C
:1051B0008BEC96E00E9488178091D704833211F41B
:1051C0007092BE042091D5043091D604211531058A
:1051D00009F424CE8091DA049091DB04689EF001FA
:1051E000699EF00D1124E20FF31FEE51FB4F108268
:1051F000FC01E252FB4F70822091D8043091D90417
:105200002F5F3F4F3093D9042093D804019664E078
:1052100070E00E94F5B59093DB048093DA0410925D
:10522000D4041092D6041092D504DECE4B3311F480
:105230007092D4044091D4044111D2CE4091DA044A
:105240005091DB04B9016F5F7F4F7093D604609378
:10525000D504649EF001659EF00D1124E20FF31F4A
:10526000EE51FB4F8083C0CE6E960FB6F894DEBF32
:105270000FBECDBFDF91CF911F910F91FF90EF90A7
:10528000DF90CF90BF90AF909F908F907F906F9066
:105290005F904F903F902F9008958F929F92AF9282
:1052A000BF92CF92DF92EF92FF920F931F93CF9313
:1052B000DF93BAE3EB2EB4E0FB2E05EB16E0C3E878
:1052C000D6E087ECC82E86E0D82EF70181917F01C9
:1052D0008DDB882311F176DB4B015C01F6018081C7
:1052E000811103C06091620601C061E070E080E05E
:1052F00090E00E94D9B2F80120813181428153812E
:105300000E940CB59B01AC01C501B4010E945EB1C5
:10531000688379838A839B8309C0F80180819181A6
:10532000A281B38188839983AA83BB830C5F1F4FBB
:105330002496FFEFCF1ADF0A8EE3E81684E0F80622
:1053400021F686E453DB8823D1F03CDB6B017C0142
:105350006093730670937406809375069093760637
:1053600020E030E0A9010E943AB4181644F4C0923B
:105370000B02D0920C02E0920D02F0920E02DF912D
:10538000CF911F910F91FF90EF90DF90CF90BF9042
:10539000AF909F908F90089580DF89E427DB88236A
:1053A00051F010DB6093770670937806809379064E
:1053B00090937A0608C010927706109278061092A1
:1053C000790610927A068AE411DB882351F0FADA22
:1053D00060937B0670937C0680937D0690937E0697
:1053E000089510927B0610927C0610927D06109212
:1053F0007E060895CF92DF92EF92FF92CF93DF93D4
:10540000EC01C0909D06D0909E06E0909F06F09023
:10541000A006A7019601688179818A819B810E94FB
:1054200037B287FF04C0C882D982EA82FB82C0906B
:10543000A106D090A206E090A306F090A406A701D2
:1054400096016C817D818E819F810E9437B287FF9A
:1054500004C0CC82DD82EE82FF82C090A506D0908F
:10546000A606E090A706F090A806A7019601688519
:1054700079858A859B850E9437B287FF04C0C886DC
:10548000D986EA86FB86C0901102D0901202E09085
:105490001302F0901402A7019601688179818A8134
:1054A0009B810E943AB4181624F4C882D982EA82F9
:1054B000FB82C0901502D0901602E0901702F09087
:1054C0001802A70196016C817D818E819F810E94C7
:1054D0003AB4181624F4CC82DD82EE82FF82C090AA
:1054E0001902D0901A02E0901B02F0901C02A70152
:1054F0009601688579858A859B850E943AB418163D
:1055000024F4C886D986EA86FB86DF91CF91FF9086
:10551000EF90DF90CF900895CF92DF92EF92FF92BD
:105520000F931F9383E896E065DF0E94C4AE6093FB
:10553000CE047093CF048093D0049093D104209133
:1055400083063091840640918506509186066091CD
:10555000B5067091B6068091B7069091B8060E9484
:1055600037B2811179C02091870630918806409129
:10557000890650918A066091B9067091BA068091A9
:10558000BB069091BC060E9437B2811165C020E035
:1055900030E040E752E460910B0270910C02809180
:1055A0000D0290910E020E943EB225E9C22E26E025
:1055B000D22E7B018C012FE836E04BE856E067E8FD
:1055C00076E083E896E00E94354D809183069091C5
:1055D0008406A0918506B09186068093B5069093C7
:1055E000B606A093B706B093B8068091870690914F
:1055F0008806A0918906B0918A068093B906909397
:10560000BA06A093BB06B093BC0680918B0690911E
:105610008C06A0918D06B0918E068093BD06909366
:10562000BE06A093BF06B093C00680918F069091EE
:105630009006A0919106B09192068093C106909336
:10564000C206A093C306B093C4061F910F91FF90AA
:10565000EF90DF90CF90089560912502709126021F
:10566000882777FD8095982F0E94D9B220910B0250
:1056700030910C0240910D0250910E020E940CB527
:1056800020E030E040E752E40E943EB220E030E00B
:1056900048EC52E488CFAF92BF92CF92DF92EF9264
:1056A000FF920F931F93CF93DF93D82F20917B0608
:1056B00030917C0640917D0650917E066091770680
:1056C000709178068091790690917A060E9447B48D
:1056D000C62F172F082FF92E6091250270912602F0
:1056E000882777FD8095982F0E94D9B220910B02D0
:1056F00030910C0240910D0250910E020E940CB5A7
:1057000020E030E040E752E40E943EB220E030E08A
:1057100048EC52E40E943EB2209195062F93DF930D
:10572000FF920F931F93CF935B016C0132E0E32E46
:1057300001E020E047E756E063E876E085EB96E09D
:105740000E941E468091830690918406A091850652
:10575000B09186068093B5069093B606A093B706DF
:10576000B093B8068091870690918806A09189062B
:10577000B0918A068093B9069093BA06A093BB06AF
:10578000B093BC0680918B0690918C06A0918D06FB
:10579000B0918E068093BD069093BE06A093BF067F
:1057A000B093C00680918F0690919006A0919106CB
:1057B000B09192068093C1069093C206A093C3064F
:1057C000B093C4060E94C4AE6093CE047093CF041D
:1057D0008093D0049093D1040F900F900F900F906E
:1057E0000F900F90DF91CF911F910F91FF90EF904D
:1057F000DF90CF90BF90AF900895F8940E94C67448
:10580000159A10929A06469A10929B06439A109205
:105810009C06409AE8E5FBE08491882341F0909152
:10582000C00095FFFCCF8093C6003196F5CFE2E42F
:10583000F6E08491882341F09091C00095FFFCCF61
:105840008093C6003196F5CF8091C00085FFFCCFD4
:105850008AE08093C60089E396E00E940A8DFFCF1C
:10586000CF92DF92EF92FF920F931F930E94C4AEEC
:105870000091CA041091CB042091CC043091CD0446
:10588000C090CE04D090CF04E090D004F090D1042A
:105890006C197D098E099F09061717072807390714
:1058A00028F4012B022B032B09F0A7DF80910702BC
:1058B00090910802A0910902B0910A02892B8A2BCB
:1058C0008B2B09F10E94C4AE0091CE041091CF043D
:1058D0002091D0043091D104601B710B820B930B8B
:1058E00000910702109108022091090230910A02EA
:1058F000061717072807390730F49091DF098091C0
:10590000DE09981741F01F910F91FF90EF90DF9003
:10591000CF900C94194D159A10929A06469A1092AF
:105920009B06439A10929C06409AEDCF0E94C67443
:105930008091C004811138C081E08093C0048091BF
:10594000670690916806A0916906B0916A068093F7
:10595000630690936406A0936506B0936606E8E537
:10596000FBE08491882341F09091C00095FFFCCF2B
:105970008093C6003196F5CFE3ECF5E0849188235F
:1059800041F09091C00095FFFCCF8093C600319606
:10599000F5CF8091C00085FFFCCF8AE08093C600E0
:1059A00089EB95E00C94FB8C08958091C0040895D8
:1059B00067707727E82FF0E0E153F44E849190E090
:1059C000FC013797EC30F10578F5EE58FF4F0C9459
:1059D00046B68091B100887F8093B1008091B1007C
:1059E000862B8093B100089580919100887F8093E9
:1059F000910080919100862B809391000895809171
:105A0000A100887F8093A1008091A100862B8093C4
:105A1000A100089580912101887F809321018091C8
:105A20002101862B809321010895CF93DF93EC0110
:105A3000809195068093C10484E50E94F62481112B
:105A400002C080E075C00E94E2240E94ABB2609365
:105A5000C1046623B1F3E2E5FBE08491882341F0C1
:105A60009091C00095FFFCCF8093C6003196F5CF92
:105A7000CD36D105B9F054F4C836D105B1F0C936E8
:105A8000D10509F045C0EEE3F3E021C0CA3DD105E0
:105A900031F0CD3DD105E1F5E9EFF2E036C0E0E1CE
:105AA000F3E029C0E7E2F3E01CC0E5E5F3E0819113
:105AB000882371F19091C00095FFFCCF8093C600C0
:105AC000F6CF9091C00095FFFCCF8093C6008191E6
:105AD0008111F7CF1DC09091C00095FFFCCF80933E
