:100000000C94CC0E0C94F90E0C94F90E0C94F90E81
:100010000C94F90E0C94F90E0C94F90E0C94F90E44
:100020000C94F90E0C94F90E0C94F90E0C94F90E34
:100030000C94F90E0C94F90E0C94F90E0C94F90E24
:100040000C94F90E0C943A7D0C94F90E0C94F90E64
:100050000C94F90E0C94F90E0C94FA850C94ABD216
:100060000C94F90E0C9462510C94F90E0C94F90E48
:100070000C94F90E0C94F90E0C94F90E0C94F90EE4
:100080000C94F90E0C94F90E0C94F90E0C94F90ED4
:100090000C94F90E0C94F90E0C94F90E0C94F90EC4
:1000A0000C94F90E0C94F90E0C94F90E0C94F90EB4
:1000B0000C94F90E0C94F90E0C94F90E0C94F90EA4
:1000C0000C94F90E0C94F90E0C94F90E0C94F90E94
:1000D0000C94F90E0C94F90E0C94F90E0C94F90E84
:1000E0000C94F90E084AD73B3BCE016E84BCBFFD91
:1000F000C12F3D6C74319ABD56833DDA3D00C77FF8
:1001000011BED9E4BB4C3E916BAAAABE0000008090
:100110003F05A84CCDB2D44EB93836A9020C50B91F
:10012000918688083CA6AAAA2ABE000000803F4DFE
:10013000383420582059205A2045006563686F3AAA
:100140000043616E6E6F7420656E74657220737506
:10015000626469723A20004D3234004D32332025FA
:1001600073006175746F25692E67004572726F7236
:100170003A006572726F722077726974696E6720D7
:10018000746F2066696C65004E6F74205344207054
:1001900072696E74696E67002F0053442070726933
:1001A0006E74696E67206279746520002E00446564
:1001B0006C6574696F6E206661696C65642C20469D
:1001C000696C653A200046696C652064656C6574ED
:1001D00065643A002E006F70656E206661696C651B
:1001E000642C2046696C653A200057726974696E08
:1001F0006720746F2066696C653A20002E006F706E
:10020000656E206661696C65642C2046696C653A90
:1002100020002E006F70656E206661696C65642C2D
:100220002046696C653A200046696C652073656CF0
:100230006563746564002053697A653A20004669F5
:100240006C65206F70656E65643A20002E006F70DB
:10025000656E206661696C65642C2046696C653A40
:1002600020004E6F772066726573682066696C6542
:100270003A20004E6F7720646F696E672066696C64
:10028000653A20002220706F730022207061726531
:100290006E743A2200535542524F5554494E4520F0
:1002A00043414C4C207461726765743A2200747249
:1002B00079696E6720746F2063616C6C207375625E
:1002C0002D67636F64652066696C65732077697458
:1002D0006820746F6F206D616E79206C6576656C37
:1002E000732E204D4158206C6576656C2069733AF9
:1002F0000053442063617264206F6B006F70656E01
:10030000526F6F74206661696C656400766F6C75FE
:100310006D652E696E6974206661696C6564005351
:100320004420696E6974206661696C006563686F5A
:100330003A0048617264636F646564204465666175
:10034000756C742053657474696E6773204C6F61AB
:100350006465640053746F726564207365747469B6
:100360006E677320726574726965766564002044F7
:10037000002049002020204D3330312050005049CA
:10038000442073657474696E67733A00205A0020C4
:10039000590020204D323036205800486F6D6520BE
:1003A0006F666673657420286D6D293A00204500DC
:1003B000205A0020580020420020540020204D32B6
:1003C0003035205300416476616E63656420766148
:1003D000726961626C65733A20533D4D696E2066A7
:1003E0006565647261746520286D6D2F73292C20FA
:1003F000543D4D696E2074726176656C206665654A
:10040000647261746520286D6D2F73292C20423D24
:100410006D696E696D756D207365676D656E7420AD
:1004200074696D6520286D73292C20583D6D6178A5
:10043000696D756D205859206A65726B20286D6D45
:100440002F73292C20205A3D6D6178696D756D20C0
:100450005A206A65726B20286D6D2F73292C20201D
:10046000453D6D6178696D756D2045206A65726BDB
:1004700020286D6D2F73290020540020204D32302C
:1004800034205300416363656C65726174696F6EFB
:100490003A20533D616363656C65726174696F6E88
:1004A0002C20543D726574726163742061636365CE
:1004B0006C65726174696F6E00204500205A0020DF
:1004C000590020204D3230312058004D6178696D3F
:1004D000756D20416363656C65726174696F6E2030
:1004E000286D6D2F7332293A00204500205A0020D4
:1004F000590020204D3230332058004D6178696D0D
:10050000756D2066656564726174657320286D6D14
:100510002F73293A00204500205A0020590020203E
:100520004D39322058005374657073207065722005
:10053000756E69743A0053657474696E67732053FD
:10054000746F726564006563686F3A004572726F1C
:10055000723A0053544F505045442E200050726957
:100560006E7465722073746F707065642064756555
:1005700020746F206572726F72732E204669782026
:10058000746865206572726F7220616E6420757385
:1005900065204D39393920746F207265737461722A
:1005A000742E202854656D706572617475726520B3
:1005B00069732072657365742E20536574206974A5
:1005C0002061667465722072657374617274696EFD
:1005D0006729004B494C4C45442E20005072696EEF
:1005E0007465722068616C7465642E206B696C6C34
:1005F00028292063616C6C656421006F6B00526573
:1006000073656E643A20002200556E6B6E6F776ED4
:1006100020636F6D6D616E643A2022004368616EE5
:1006200067652066696C616D656E74005A204F665F
:1006300066736574203A20007A5F6D61783A200015
:100640007A5F6D696E3A20005A204F666673657452
:10065000005A204F6666736574206F6B007A5F6D79
:10066000696E3A2000795F6D696E3A2000785F6D9F
:10067000696E3A2000205A3A0020593A0020436F10
:10068000756E7420583A200020453A00205A3A00EE
:1006900020593A00583A004649524D574152455F59
:1006A0004E414D453A4D61726C696E2056313B208A
:1006B000537072696E7465722F6772626C206D611F
:1006C0007368757020666F722067656E36204649C4
:1006D000524D574152455F55524C3A687474703AC6
:1006E0002F2F7777772E726F6F69656A6F726973D4
:1006F0002E6E6C2F7A2D756E6C696D697465642031
:1007000050524F544F434F4C5F56455253494F4EF2
:100710003A312E30204D414348494E455F5459509F
:10072000453A5A2D556E6C696D697465642045585B
:100730005452554445525F434F554E543A3120551B
:100740005549443A30303030303030302D30303050
:10075000302D303030302D303030302D30303030A2
:1007600030303030303030300A005A2D556E6C69E0
:100770006D69746564204F66662E0042656420646E
:100780006F6E652E0020423A0020453A00543A0030
:100790004265642048656174696E672E0048656132
:1007A00074696E6720646F6E652E0020573A0020D2
:1007B000453A00543A0048656174696E672E2E2EE2
:1007C000002042403A0020403A00202F003A00200A
:1007D0005400202F0020423A00202F006F6B20543D
:1007E0003A002569206D696E2C20256920736563A8
:1007F00000456E642066696C65206C697374004204
:100800006567696E2066696C65206C697374004E5B
:100810006F206D6F76652E00526573756D696E671A
:10082000207072696E74005761697420666F72205F
:10083000757365722E2E2E00536C6565702E2E2EEC
:1008400000FFFFFF000052430000524300800945B3
:100850000000000000000000000000000000000098
:10086000000000000000000000005243000052435E
:10087000008009450000A0400000A04000000040AA
:10088000256920686F757273202569206D696E7502
:1008900074657300446F6E65207072696E74696E62
:1008A000672066696C650053544F505045442E20B4
:1008B000005072696E7465722073746F7070656435
:1008C0002064756520746F206572726F72732E20BC
:1008D00046697820746865206572726F7220616E57
:1008E0006420757365204D39393920746F20726525
:1008F00073746172742E202854656D706572617412
:100900007572652069732072657365742E20536556
:1009100074206974206166746572207265737461F5
:100920007274696E6729006F6B004E6F204C696EA0
:1009300065204E756D626572207769746820636802
:1009400065636B73756D2C204C617374204C696EFC
:10095000653A20004E6F20436865636B73756D20A8
:1009600077697468206C696E65206E756D6265725A
:100970002C204C617374204C696E653A20006368CA
:1009800065636B73756D206D69736D617463682C3D
:10099000204C617374204C696E653A20004C696E7E
:1009A00065204E756D626572206973206E6F7420CC
:1009B0004C617374204C696E65204E756D62657272
:1009C0002B312C204C617374204C696E653A2000E9
:1009D0004D31313000446F6E6520736176696E670A
:1009E0002066696C652E006F6B004D323900202047
:1009F000506C616E6E65724275666665724279749E
:100A000065733A20002046726565204D656D6F72F2
:100A1000793A20004F637420203420323031350081
:100A2000436F6D70696C65643A2000284A6F726983
:100A300073202D207A2D756E6C696D697465642044
:100A4000302E312900207C20417574686F723A2065
:100A5000004F637420203420323031352032333A55
:100A600031353A313800204C61737420557064611F
:100A70007465643A2000312E302E30004D61726C66
:100A8000696E0020536F66747761726520526573DA
:100A9000657400205761746368646F6720526573E2
:100AA0006574002042726F776E206F7574205265F6
:100AB000736574002045787465726E616C205265B0
:100AC00073657400506F776572557000737461724E
:100AD00074002200656E717565696E6720220022C0
:100AE00000656E717565696E672022006563686FC9
:100AF0003A0020746F6F206C6F6E67206578747297
:100B00007573696F6E2070726576656E74656400CA
:100B100020636F6C6420657874727573696F6E20E2
:100B200070726576656E7465640041414141E141D2
:100B30004143454545454949494944EE4F4F4F4F8B
:100B4000EF784F555555F55954E261616161E161A6
:100B50006163656565656969696964EE6F6F6F6F8B
:100B6000EFFD6F757575F5797479007C3C3E5E2BF1
:100B70003D3F2F5B5D3B2C2A225C0045303A200034
:100B80005A3A2000593A2000583A20004D53312C4F
:100B90004D53322050696E730A0024F404D9201B8F
:100BA000C40C5C0E9804C4095F0265077101F4056A
:100BB000F900FB04B30048048700C103690058032F
:100BC000550003034500BE023A008402310053027F
:100BD0002A002902250004022000E4011C00C801AB
:100BE0001900AF011700980114008401130071016E
:100BF00010006101100051010E0043010D0036018B
:100C00000B002B010B0020010B00150109000C014A
:100C1000090003010800FB000800F3000800EB00D6
:100C20000700E4000600DE000600D8000600D2003F
:100C30000600CC000500C7000500C2000500BD008D
:100C40000400B9000400B5000400B1000400AD00C8
:100C50000400A9000400A5000300A20003009F00F7
:100C600004009B000300980003009500020093001D
:100C70000300900003008D0002008B000300880039
:100C800002008600020084000300810002007F0051
:100C900002007D0002007B00020079000200770064
:100CA0000100760002007400020072000100710071
:100CB00002006F0002006D0001006C0002006A007B
:100CC0000100690002006700010066000100650084
:100CD0000100640002006200010061000100600088
:100CE00001005F0002005D0001005C0001005B008C
:100CF00001005A000100590001005800010057008E
:100D0000010056000100550001005400010053008D
:100D1000000053000100520001005100010050008A
:100D200001004F0001004E0000004E0001004D0088
:100D300001004C0001004B0000004B0001004A0084
:100D40000100490001004800000048000100470080
:100D5000010046000000460001004500000045007B
:100D60000100440001004300000043000100420074
:100D7000000042000100410000004100010040006D
:100D800001003F0000003F0001003E0000003E0067
:100D900001003D0000003D0001003C0000003C005F
:100DA00000003C0001003B0000003B0001003A0055
:100DB00000003A000100390000003900010038004D
:100DC0000000380000003800010037000000370044
:100DD000010036000000360000003600010035003A
:100DE0000000350000003500010034000000340030
:100DF0000000340001003300000033000000330025
:100E00000100320000003200000032000100310019
:100E1000000031000000310001003000000030000F
:100E20000000300001002F0000002F0000002F0004
:100E300000002F0001002E0000002E0000002E00F8
:100E400001002D0000002D0000002D0000002D00ED
:100E500001002C0000002C0000002C0000002C00E1
:100E600001002B0000002B0000002B0000002B00D5
:100E700001002A0000002A0000002A0000002A00C9
:100E800001002900000029000000290000002900BD
:100E900000002900010028000000280000002800B0
:100EA00000002800000028000100270000002700A3
:100EB0000000270000002700000027000100260096
:100EC000000026000000260000002600000026008A
:100ED000010025000000250000002500000025007D
:100EE000000025000000250001002400000024006F
:100EF0000000240000002400000024000100230062
:100F00000000230000002300000023000000230055
:100F10000000230000002300010022000000220046
:100F20000000220000002200000022000000220039
:100F3000010021000000210000002100000021002C
:100F4000000021000000210000002100010020001D
:100F50000000200000002000000020000000200011
:100F600000002000000020000000200001001F0001
:100F700000001F0000001F0000001F0000001F00F5
:100F800000001F0000001F0001001E0000001E00E6
:100F900000001E0000001E00000024F4D43050C3E6
:100FA0008E20C2A24017828B7011127A910D816C33
:100FB000D90AA861E108C7586607615143061E4B6C
:100FC0005D05C145A7041A411104093D9803713913
:100FD00031034036DB0265339102D4305402802E57
:100FE0001D02632CEE01752AC501B028A00110274F
:100FF00081018F2564012B244B01E0223401AC21B7
:101000001F018D200D01801FFC00841EED00971D27
:10101000DF00B81CD200E61BC600201BBC00641A0F
:10102000B200B219A8000A19A0006A189900D117D5
:10103000910040178B00B516840031167E00B31561
:1010400079003A157300C7146F0058146A00EE1344
:1010500066008813630025135E00C7125B006C12E4
:10106000570015125400C111510070114F00211189
:101070004B00D61049008D10470046104400021066
:101080004200C00F4000800F3E00420F3C00060FA0
:101090003B00CB0E3800930E37005C0E3500270E58
:1010A0003400F30D3200C10D3100900D3000600DA1
:1010B0002E00320D2D00050D2C00D90C2B00AE0C8E
:1010C0002900850C29005C0C2700350C27000E0C2C
:1010D0002600E80B2400C40B2400A00B23007D0B8A
:1010E00023005A0B2100390B2100180B2000F80AAD
:1010F0001F00D90A1E00BB0A1E009D0A1D00800A9F
:101100001D00630A1C00470A1B002C0A1B00110A61
:101110001A00F7091A00DD091900C4091900AB0902
:101120001900920917007B091800630917004C0980
:10113000160036091600200916000A091500F508E0
:101140001500E0081400CC081400B8081400A40826
:101150001400900813007D0812006B081300580853
:10116000120046081200340811002308110012086A
:10117000110001081100F0071000E0071000D0076F
:101180001000C0071000B0070F00A1071000910762
:101190000E0083070F0074070F0065070E00570746
:1011A0000E0049070E003B070D002E070E0020071A
:1011B0000D0013070D0006070D00F9060C00ED06E3
:1011C0000D00E0060C00D4060C00C8060C00BC069E
:1011D0000C00B0060C00A4060B0099060C008D064E
:1011E0000B0082060B0077060B006C060B006106F5
:1011F0000A0057060B004C060A0042060A00380691
:101200000A002E060A0024060A001A060A00100622
:10121000090007060A00FD050900F4050900EB05B1
:101220000900E2050900D9050900D0050900C70534
:101230000900BE050900B5050800AD050800A505B3
:1012400009009C050800940508008C050800840529
:1012500008007C050800740508006C05070065059A
:1012600008005D050700560508004E050700470504
:1012700007004005080038050700310507002A056A
:101280000700230507001C050600160507000F05CB
:1012900007000805060002050700FB040600F50428
:1012A0000700EE040600E8040600E2040700DB0481
:1012B0000600D5040600CF040600C9040600C304D6
:1012C0000600BD040600B7040600B1040500AC0426
:1012D0000600A6040600A00405009B040600950471
:1012E0000500900406008A040500850405008004BA
:1012F00006007A04050075040500700405006B04FF
:10130000050066040500610405005C04050057043F
:101310000500520405004D0405004804050043047F
:1013200005003E0404003A040500350405003004BD
:1013300004002C04050027040400230405001E04F7
:1013400004001A04040016040500110404000D042E
:101350000400090405000404040000040400FC0364
:101360000400F8030400F4030400F0030400EC0399
:101370000400E8030400E4030400E0030400DC03C9
:101380000400D8030400D4030400D0030400CC03F9
:101390000400C8030300C50303006563686F3A00D7
:1013A000656E6473746F7073206869743A205A00B4
:1013B000205A3A00656E6473746F707320686974A4
:1013C0003A20590020593A00656E6473746F707347
:1013D000206869743A20580020583A00656E64739A
:1013E000746F7073206869743A20004572726F726E
:1013F0003A004572723A204D415854454D502042B2
:1014000045440054656D706572617475726520683D
:1014100065617465642062656420737769746368CC
:101420006564206F66662E204D415854454D50200E
:101430007472696767657265642021210045727264
:101440003A204D494E54454D50003A20457874722B
:1014500075646572207377697463686564206F666C
:10146000662E204D494E54454D5020747269676771
:10147000657265642021004572723A204D415854CE
:10148000454D50003A20457874727564657220733A
:1014900077697463686564206F66662E204D4158D5
:1014A00054454D50207472696767657265642021E8
:1014B00000202D20496E76616C6964206578747215
:1014C00075646572206E756D626572202100000082
:1014D0000000300E0100C00E0A00500F1400D00FA3
:1014E0001E0060102800E010320070113C00F01166
:1014F00046007012500000135A008013640000145C
:101500006E00901478001015820090158C00101653
:1015100096009016A0001017AA009017B40010189B
:10152000BE009018C8001019D2009019DC00101AE3
:10153000E600801AF000001BFA00801B0401F01B7B
:101540000E01701C1801F01C2201601D2C01E01D11
:101550003601501E4001D01E4A01401F5401B01FE9
:101560005E0130206801A020720110217C019021D1
:101570008601002290016026F401902A5802802EF4
:10158000BC0250322003E03584035039E803803C2C
:101590004C046563686F3A0048656174696E672042
:1015A0006661696C656400504944204175746F74CC
:1015B000756E652066696E69736865642120507573
:1015C0007420746865206C617374204B702C204B00
:1015D0006920616E64204B6420636F6E7374616E6A
:1015E00074732066726F6D2061626F766520696E1C
:1015F000746F20436F6E66696775726174696F6E90
:101600002E6800504944204175746F74756E6520D2
:101610006661696C6564212074696D656F7574001D
:1016200020403A006F6B20543A006F6B20423A0022
:10163000504944204175746F74756E652066616908
:101640006C6564212054656D706572617475726596
:1016500020746F6F206869676800204B643A20002F
:10166000204B693A2000204B703A200020436C61E7
:10167000737369632050494420002054753A200058
:10168000204B753A2000206D61783A2000206D696A
:101690006E3A200020643A200020626961733A208B
:1016A000002D2D3A2D2D002D2D2D005344002059B5
:1016B000000120000120004E6F205344206361721E
:1016C00064005072696E742066726F6D205344001E
:1016D00053746F70207072696E7400526573756D0B
:1016E00065207072696E7400506175736520707248
:1016F000696E7400436F6E74726F6C005072657027
:101700006172650054756E6500496E666F20736383
:101710007265656E00052E2E004D61696E004D32BA
:1017200034004D3233202573004D38342058205971
:10173000205A2045004669726D7761726520766592
:101740007273696F6E00526573746F7265206661A3
:10175000696C73616665004C6F6164206D656D6FC7
:1017600072790053746F7265206D656D6F727900C8
:101770004D6F74696F6E0054656D7065726174753C
:101780007265004D61696E004F6374202034203211
:101790003031352032333A31353A323600476974C8
:1017A00068756220636865636B6F757400556C744F
:1017B000696D616B65723A2031332E3132004669B2
:1017C000726D776172652076657273696F6E004520
:1017D00073746570732F6D6D004573746570732F2E
:1017E0006D6D005A73746570732F6D6D005A73744C
:1017F0006570732F6D6D005973746570732F6D6D07
:10180000005973746570732F6D6D00587374657033
:10181000732F6D6D005873746570732F6D6D00417B
:101820002D7265747261637400412D72657472610A
:10183000637400416D6178206500416D61782065B9
:1018400000416D6178207A00416D6178207A004115
:101850006D6178207900416D6178207900416D617A
:1018600078207800416D6178207800565472617656
:10187000206D696E005654726176206D696E005657
:101880006D696E00566D696E00566D617820650059
:10189000566D6178206500566D6178207A00566D2E
:1018A0006178207A00566D6178207900566D6178F4
:1018B000207900566D6178207800566D6178207827
:1018C0000056652D6A65726B0056652D6A65726BF0
:1018D00000567A2D6A65726B00567A2D6A65726BB6
:1018E000005678792D6A65726B005678792D6A6595
:1018F000726B00416363656C00416363656C004318
:101900006F6E74726F6C005072656865617420410F
:10191000425320636F6E6600507265686561742083
:10192000504C4120636F6E66005049442D43005077
:1019300049442D43005049442D44005049442D440E
:10194000005049442D49005049442D490050494414
:101950002D50005049442D500046616E2073706533
:1019600065640046616E207370656564004265645D
:1019700000426564004E6F7A7A6C65004E6F7A7A29
:101980006C6500436F6E74726F6C0053746F726598
:10199000206D656D6F727900426564004265640078
:1019A0004E6F7A7A6C65004E6F7A7A6C650046618C
:1019B0006E2073706565640046616E2073706565A6
:1019C000640054656D70657261747572650053745E
:1019D0006F7265206D656D6F7279004265640042BB
:1019E0006564004E6F7A7A6C65004E6F7A7A6C652A
:1019F0000046616E2073706565640046616E2073F9
:101A0000706565640054656D7065726174757265AA
:101A1000004D6F7665206178697300436F6F6C6469
:101A20006F776E00507265686561742041425300A3
:101A30005072656865617420504C4100473238200F
:101A40005830205930004175746F20686F6D6520E3
:101A5000585900473238004175746F20686F6D65C2
:101A6000004D3834205A0044697361626C65205A15
:101A7000004D3834205820590044697361626C6508
:101A8000205859004D6F7665205A004175746F20BB
:101A9000686F6D65004D38340044697361626C6530
:101AA000207374657070657273004175746F737420
:101AB000617274004D61696E004D6F766520302E45
:101AC000316D6D004D6F766520316D6D004D6F7617
:101AD000652031306D6D0050726570617265004532
:101AE00078747275646572004D6F7665205A004D8A
:101AF0006F76652059004D6F76652058004D6F76E2
:101B00006520617869730045787472756465720048
:101B10005A0059005800507265686561742041424E
:101B200053204265640050726568656174204142CB
:101B300053203100507265706172650050726568A3
:101B400065617420504C41204265640050726568A4
:101B500065617420504C4120310050726570617293
:101B600065005A004D383420583020593000473233
:101B700038004D363030004368616E676520666915
:101B80006C616D656E74004261627973746570207A
:101B90005A00426162797374657020590042616233
:101BA0007973746570205800466C6F7700466C6FCF
:101BB000770046616E2073706565640046616E2033
:101BC00073706565640042656400426564004E6F31
:101BD0007A7A6C65004E6F7A7A6C65005370656531
:101BE00064005370656564004D61696E0042616216
:101BF000797374657070696E67205A00426162790A
:101C00007374657070696E67205900426162797300
:101C100074657070696E6720580043617264207249
:101C2000656D6F766564004361726420696E7365EB
:101C3000727465640000002100240027002A002D32
:101C4000003000330001010000040107010A010017
:101C5000002200250028002B002E00310034000255
:101C6000010000050108010B0100002000230026EF
:101C70000029002C002F00320000010000030106A3
:101C80000109010505050507050808080802020203
:101C9000020A0A0808040404040101010101010107
:101CA000010303030303030303040707070C0C0CDE
:101CB0000C0C0C0C0C0202020206060606060606B6
:101CC000060B0B0B0B0B0B0B0B0102102020080853
:101CD000102040102040800201020108040201018E
:101CE0000204081020408080402010080402018077
:101CF00004020180402010080402010804020101CE
:101D000002040810204080010204081020408000D6
:101D100000090A02080B0C0D07060304010000006D
:101D200000000000000000000000000000000000B3
:101D3000000000000000000000000011100F000073
:101D40000000000000000000000000000000000093
:101D50000000000000494E46494E4954594E414E3C
:101D6000CDCCCC3D0AD7233C17B7D13877CC2B321A
:101D70009595E6241FB14F0A000020410000C8429B
:101D800000401C4620BCBE4CCA1B0E5AAEC59D74FA
:101D90006A2CF651FBC7652C11241FBECFEFD1E290
:101DA000DEBFCDBF00E00CBF14E0A0E0B2E0E2E097
:101DB000F7EB01E00BBF02C007900D92A43CB10706
:101DC000D9F71BBE12E1A4ECB4E001C01D92A73507
:101DD000B107E1F71DE1C6E9DDE104C02297FE018C
:101DE0000E9427DBC039D107C9F70E94B8D50C94EF
:101DF00075DB0C940000A0E0B0E0E1E0FFE00C94A3
:101E000044DBEC015B016115710519F0FB01918365
:101E10008083F9908F2D90E00E942BDB892BC9F7EE
:101E2000FDE2FF1621F4F990EE24E39405C02BE2C5
:101E3000F21609F4F990EE248E0101501040C80109
:101E400065E57DE143E050E069D2892BF9F48E012C
:101E50000E5F1F4FC80168E57DE145E050E05ED2AE
:101E6000892B19F48E01095F1F4FA114B10419F0D9
:101E7000F50111830083E0FC04C070E090E080E88D
:101E800013C070E090E080E86FEF07C1C8016DE516
:101E90007DE143E050E042D2892B69F4A114B10402
:101EA00029F470E090E080EC6FE7F7C02296F5012E
:101EB000D183C083F6CF8824992440E050E060E0CD
:101EC00070E0EF2DE053EA30A0F5F2E0EF2A8E2D1E
:101ED00090E09C0128703070E2FE06C0232B79F55B
:101EE0000894811C911C2BC0232B19F008948108A5
:101EF0009108DB01CA0112E0880F991FAA1FBB1FBE
:101F00001A95D1F7480F591F6A1F7B1F440F551FA1
:101F1000661F771F4E0F511D611D711D483929E93C
:101F2000520729E9620729E1720748F084E0E82AAC
:101F300006C0EE3F31F4E3FC39C098E0E92AF9909D
:101F4000C0CFE53311F0E53189F529912D3219F42F
:101F5000E0E1EE2A05C02B3219F081E090E003C0E9
:101F6000299182E090E0E22FE053EA3018F0C81B9C
:101F7000D90B1CC020E030E0FCE020383F075CF4C7
:101F8000C901880F991F880F991F280F391F220F29
:101F9000331F2E0F311DE991E053EA3068F3E4FE60
:101FA00003C0309521953F4F820E931ECE2CDD2429
:101FB000E1FE07C0A114B10421F02197F501D183FE
:101FC000C083CB01BA010E9490D77B018C01F3E062
:101FD000CF22DD2423E0C216D10421F417FB109593
:101FE00017F9109557016801C801B70120E030E0EA
:101FF00040E050E00E94F0D6882309F44AC097FEE2
:102000000DC024E7E22E2DE1F22E909481949108E8
:102010009394C0E2D0E000E010E012C09CE8E92E0A
:102020009DE1F92EF6CFF701259135914591549117
:10203000C601B5010E94D0D95B016C018C1A9D0AC2
:102040008C169D0684F7D595C7950F5F1F4F0630F8
:10205000110529F08CEF9FEFE80EF91EF1CFC501B5
:10206000D6017C018D018C2D880F8D2D881F8F3F0F
:1020700051F0C601B50120E030E040E050E00E94A0
:10208000F0D6882331F482E290E090935612809348
:1020900055127E2D9F2D802F612F272F392F482FEE
:1020A000562FB901CA01CDB7DEB7ECE00C9460DB66
:1020B0002F923F925F926F927F928F929F92AF92F8
:1020C000BF92CF92DF92EF92FF920F931F93CF9325
:1020D000DF938C011B01EA016115710519F0FB0109
:1020E00091838083209749F0CE010297839728F04F
:1020F00020E030E040E050E0F6C0F801A1908F0110
:102100008A2D90E00E942BDB892BB9F7FDE2AF16F8
:1021100031F4F801A1908F015524539407C0FBE2DC
:10212000AF1619F4F801A1908F015524209719F0EA
:10213000C031D105C1F4F0E3AF1679F4F801808124
:10214000883711F0883549F4F801A1800E5F1F4FE0
:10215000F2E05F2AC0E1D0E006C0209721F480E3DE
:10216000A816E9F427C0C830D10531F1C930D1052E
:1021700024F4C230D10531F50CC0CA30D10589F044
:10218000C031D105F9F4C12CD12CE12CB8E0FB2EE3
:1021900028C0C12CD12CE12CA0E4FA2E22C0CAE028
:1021A000D0E0FCECCF2EFCECDF2EFCECEF2EFCE0C4
:1021B000FF2E17C0C8E0D0E0C12CD12CE12CE0E10B
:1021C000FE2E0FC09E01442737FD4095542F60E03E
:1021D00070E080E090E80E94E8DAC901DA016C0161
:1021E0007D0120E030E040E050E060E03E018824E6
:1021F00077FC8094982C70EDB72EBA0CE9E0EB15C3
:1022000070F48A2D81548A3118F499ECB92E06C0E5
:102210008A2D81568A3150F589EAB82EBA0C8B2D59
:1022200090E08C179D0714F56F3FE1F0C216D306BE
:10223000E406F506B0F0CA01B901A40193010E94B9
:10224000A2DA9B01AC012B0D311D411D511D213026
:10225000F0E03F07F0E04F07F0E85F0710F461E0BF
:1022600001C06FEFF801A1908F01C5CF2114310497
:1022700081F0662331F001501040F1011183008399
:1022800008C051FE1AC002501040F10111830083B2
:1022900014C067FF12C050FC05C02FEF3FEF4FEF97
:1022A0005FE704C020E030E040E050E882E290E0E8
:1022B000909356128093551216C050FE08C0509548
:1022C0004095309521953F4F4F4F5F4F0CC057FFC2
:1022D0000AC082E290E090935612809355122FEF3D
:1022E0003FEF4FEF5FE7B901CA01DF91CF911F9137
:1022F0000F91FF90EF90DF90CF90BF90AF909F90A5
:102300008F907F906F905F903F902F900895FB018A
:10231000DC0105900D920020E1F70895FB01DC013E
:102320004150504088F08D9181341CF08B350CF475
:10233000805E659161341CF06B350CF4605E861B29
:10234000611171F3990B0895881BFCCFFB01DC012F
:102350004150504048F005900D920020C9F701C04F
:102360001D9241505040E0F70895FB0155915523CF
:10237000A9F0BF01DC014D9145174111E1F759F476
:10238000CD010590002049F04D9140154111C9F350
:10239000FB014111EFCF81E090E001970895FB012F
:1023A000DC0104C08D910190801921F4415050400E
:1023B000C8F7881B990B0895FB01DC0102C001904E
:1023C0000D9241505040D8F70895FB01DC010D906B
:1023D0000020E9F7119701900D920020E1F7089590
:1023E000FC018191861721F08823D9F79927089558
:1023F0003197CF010895FB01DC0101900D9200207F
:10240000E1F70895FB01DC014150504030F08D911F
:102410000190801919F40020B9F7881B990B0895D1
:10242000FB01DC014150504048F001900D9200202A
:10243000C9F701C01D9241505040E0F70895AEE049
:10244000B0E0E5E2F2E10C944CDB0E891F898EE0EE
:102450008C831A8309838FEF9FE79E838D839E0170
:10246000265E3F4FCE010196688D798DA9010AD075
:102470002F813885020F131FF80110822E96E4E099
:102480000C9468DBABE0B0E0E8E4F2E10C943EDBF6
:102490003C012B015A01FC0117821682838181FDC8
:1024A00003C06FEF7FEFB9C19AE0892E1E01089437
:1024B000211C311CF3012381F20123FD859123FFAF
:1024C00081912F01882309F4A5C1853239F423FDB8
:1024D000859123FF81912F01853221F490E0B30192
:1024E000B7D1E8CF982FFF24EE249924FFE1FF1500
:1024F000D0F09B3269F09C3228F4903259F093323C
:1025000091F40EC09D3249F0903369F441E024C04B
:1025100052E0F52A84E0F82A28C098E0F92A25C07C
:10252000E0E1FE2A22C0F7FC29C0892F80538A30BF
:1025300070F4F6FE05C0989C902C1124980E15C0DE
:10254000E89CE02C1124E80EF0E2FF2A0EC09E3237
:1025500029F4F6FC5FC140E4F42A07C09C3619F464
:1025600050E8F52A02C0983649F4F20123FD95910E
:1025700023FF91912F01992309F0B8CF892F85541A
:10258000833018F08052833038F444E050E0A40ED9
:10259000B51E5FE359830FC0933631F0933779F05E
:1025A000933509F052C01FC0F5018081898342E054
:1025B00050E0A40EB51E610101E010E011C0F5016C
:1025C000C080D180F6FC03C06FEF7FEF02C0692DA1
:1025D00070E042E050E0A40EB51EC6012ED18C0181
:1025E0005FE7F52213C0F501C080D180F6FC03C07F
:1025F0006FEF7FEF02C0692D70E042E050E0A40E63
:10260000B51EC6010FD18C0150E8F52AF3FE06C0B5
:1026100018C080E290E0B3011BD1EA948E2D90E0C7
:1026200008171907B0F30DC0F601F7FC8591F7FE06
:1026300081916F0190E0B3010BD1E110EA94015058
:1026400010400115110581F7E2C0943611F099365A
:1026500061F5F7FE08C0F501208131814281538187
:1026600084E090E00AC0F501808191819C014427BB
:1026700037FD4095542F82E090E0A80EB91E9FE6EA
:10268000F92257FF09C050954095309521953F4F4D
:102690004F4F5F4FE0E8FE2ACA01B901A1012AE0CD
:1026A00030E002D1D82ED2183FC0953729F41F2D23
:1026B0001F7E2AE030E01DC01F2D197F9F3661F07C
:1026C000903720F4983509F0A5C00FC0903739F045
:1026D000983709F09FC004C028E030E00AC01061BC
:1026E00014FD146020E130E004C014FD166020E108
:1026F00032E017FF08C0F50160817181828193810A
:1027000044E050E008C0F50180819181BC0180E087
:1027100090E042E050E0A40EB51EA101C5D0D82E35
:10272000D2188FE7F82EF122F6FE0BC05EEFF522ED
:10273000D91438F4F4FE07C0F2FC05C08FEEF8227D
:1027400002C01D2D01C0192DF4FE0DC0FE01ED0DBE
:10275000F11D8081803319F499EEF92208C01F5FC2
:10276000F2FE05C003C08F2D867809F01F5F0F2D84
:10277000F3FC13C0F0FE0EC01E1510F09D2C0AC015
:102780009D2C9E0C911A1E2D05C080E290E0B30195
:102790005FD01F5F1E15C8F304C01E1510F4E11AA8
:1027A00001C0EE2404FF0EC080E390E0B30150D0DE
:1027B00002FF1BC001FD03C088E790E00EC088E562
:1027C00090E00BC0802F867881F001FF02C08BE281
:1027D00001C080E2F7FC8DE290E0B30139D005C082
:1027E00080E390E0B30134D09A94D914C8F3DA941A
:1027F000F101ED0DF11D808190E0B30129D0DD20C4
:10280000B1F705C080E290E0B30122D0EA94EE2057
:10281000C9F750CEF30166817781CB012B96E2E1B7
:102820000C945ADBFC010590615070400110D8F700
:10283000809590958E0F9F1F0895FC016150704008
:1028400001900110D8F7809590958E0F9F1F0895E5
:102850000F931F93CF93DF938C01EB018B8181FF4B
:102860001BC082FF0DC02E813F818C819D81281766
:10287000390764F4E881F9810193F983E88306C09C
:10288000E885F985802F1995892B31F48E819F81F8
:1028900001969F838E8302C00FEF1FEFC801DF9167
:1028A000CF911F910F910895FA01AA27283051F175
:1028B000203181F1E8946F936E7F6E5F7F4F8F4F71
:1028C0009F4FAF4FB1E03ED0B4E03CD0670F781FD0
:1028D000891F9A1FA11D680F791F8A1F911DA11DB5
:1028E0006A0F711D811D911DA11D20D009F46894EE
:1028F0003F912AE0269F11243019305D3193DEF696
:10290000CF010895462F4770405D4193B3E00FD04B
:10291000C9F7F6CF462F4F70405D4A3318F0495D36
:1029200031FD4052419302D0A9F7EACFB4E0A69519
:102930009795879577956795BA95C9F7009761053B
:10294000710508959B01AC010A2E06945795479591
:1029500037952795BA95C9F7620F731F841F951F86
:10296000A01D0895CF93DF93FC01EC01CC5ADF4FFB
:10297000DC01D3968BE10D9009928150E1F781A99A
:1029800092A9EE5AFF4F91838083E255F040CF0128
:10299000805B9F4FE25BFF4F91838083DF91CF91FC
:1029A0000895FC01128213820895FC01838188231B
:1029B00011F081E082830895FC01828181111282ED
:1029C0000895CF93DF93DC01FC01EB55FE4F80812E
:1029D00091810097C9F1019791838083ED01CC5AD1
:1029E000DF4FFD01ED58FF4F8BE1019009928150BF
:1029F000E1F7FD01EE5AFF4FAF58BF4F8D919C910B
:102A00001197A157B04091838083FD01ED58FF4F8E
:102A100020E030E0AD014B555E4F10C02F5F3F4FBF
:102A2000EF01DF015F968BE10D9009928150E1F794
:102A3000858D968D329791838083B196DA018D9141
:102A40009C912817390750F3DF91CF910895FC012D
:102A50008DE694E0918380838781882321F0CF01E4
:102A600004960C94136D0895CF92DF92EF92FF922B
:102A70000F931F93DF93CF93CDB7DEB76F970FB64A
:102A8000F894DEBF0FBECDBF8C016B01095A1F4FFA
:102A9000D8018C9107551040882321F42FE2E22EB3
:102AA000F12C03C090E5E92EF12CE00EF11E8DE62D
:102AB00094E09A8389831C821B8218861D82B70149
:102AC0006C5F7F4FCE010596A60121E00E94B47590
:102AD000882391F5EBE3F1E0949108C08091C00068
:102AE00085FFFCCF9093C600319694919923B1F75E
:102AF000E1E4F1E0949108C08091C00085FFFCCF33
:102B00009093C600319694919923B1F709C08091B2
:102B1000C00085FFFCCF0894C11CD11C9093C60057
:102B2000F6019081992399F78091C00085FFFCCF31
:102B30008AE08093C6005AC0F801EB55FE4F208111
:102B400031812A30310508F040C02F5F3F4F31837B
:102B5000208321503040F90185E0EE0FFF1F8A9558
:102B6000E1F7E21BF30BED58FF4FE00FF11F13C02D
:102B7000AF01415E5F4FBF018BE1DB010D90BD01F5
:102B8000DA010D92AD018150C1F792918291329696
:102B9000968F858F7F9721503040BFEF2E3F3B07A8
:102BA00039F7D801AD58BF4FF70134968BE101904A
:102BB0000D928150E1F70F581F4FF70182819381E9
:102BC000D8018D939C9301571040D801AC5ABF4F48
:102BD000FE0135968BE101900D928150E1F70E5A7E
:102BE0001F4F8B819C81F80191838083CE010196D8
:102BF0002EDF6F960FB6F894DEBF0FBECDBFCF911C
:102C0000DF911F910F91FF90EF90DF90CF9008958B
:102C1000EF92FF920F931F938C013EECE32E31E075
:102C2000F32EE80EF91EC7010E94C66CC7010E9470
:102C3000136DF801108211821F910F91FF90EF9098
:102C40000895CF92DF92EF92FF920F931F93CF934D
:102C5000DF937C016B01DB010D900020E9F78D0112
:102C600001501040061B170BEEECF1E0EE0EFF1EBC
:102C7000D7011C92E2E3FEEFEE0EFF1ECB016EE4E5
:102C800070E0AEDBEC01009731F4F8013197EC0D08
:102C9000FD1D86010CC060E270E0A2DB8C010F5FBD
:102CA0001F4FCE016AE270E09BDBFC0131978DE0A3
:102CB00081838AE082831382C70186539E4FB801C5
:102CC0000E94B2768EEC91E0E80EF91ED7018C914D
:102CD000882319F1EBE6F1E0949108C08091C000DF
:102CE00085FFFCCF9093C600319694919923B1F75C
:102CF000E2E7F1E0949108C08091C00085FFFCCF2D
:102D00009093C600319694919923B1F78091C000B9
:102D100085FFFCCF8AE08093C600DF91CF911F91A1
:102D20000F91FF90EF90DF90CF900895CF93DF93B6
:102D3000EC018B81882309F43BC0EAE9F1E094912E
:102D400008C08091C00085FFFCCF9093C6003196EB
:102D500094919923B1F7CD57DD4F488159816A810C
:102D60007B81C358D24083EE99E02AE030E00E9494
:102D70008F52E8E9F1E0949108C08091C00085FF8E
:102D8000FCCF9093C600319694919923B1F7C55822
:102D9000DD4F488159816A817B8183EE99E02AE089
:102DA00030E00E948F528091C00085FFFCCF12C09E
:102DB000E8E8F1E0949108C08091C00085FFFCCF65
:102DC0009093C600319694919923B1F78091C000F9
:102DD00085FFFCCF8AE08093C600DF91CF910895F4
:102DE0002F923F924F925F926F927F928F929F921B
:102DF000AF92BF92CF92DF92EF92FF920F931F9309
:102E0000DF93CF93CDB7DEB7AC970FB6F894DEBFA4
:102E10000FBECDBF5C014B01FC018381882309F407
:102E200034C1C50182539E4F0E94136DF501128279
:102E30001A8A1D8A198A188A8DE694E09F878E87E0
:102E40005EE4C52ED12CCA0CDB1C2FE230E0A20EB2
:102E5000B31EF601B182A08221ED3FEFA20EB31E98
:102E6000F40180818F3209F08DC0C4016FE270E0FF
:102E7000B7DA7C010894E11CF11C3E010894611C46
:102E8000711C260142E1242E312C2C0E3D1E75C0F2
:102E9000C7016FE270E0A4DA6C01009709F480C00A
:102EA000E816F90608F07CC08C010E191F09C30151
:102EB000B701A801B5DA060D171DF8011082F3015C
:102EC00007C08091C00085FFFCCF31969093C6006B
:102ED00090819923B1F78091C00085FFFCCFFAE083
:102EE000F093C600F201608171816115710519F4DA
:102EF00060E070E002C06C5F7F4FC101A30121E080
:102F00000E94B475882371F5E6EDF1E0949108C054
:102F10008091C00085FFFCCF9093C60031969491BC
:102F20009923B1F7FE01319607C08091C00085FF5B
:102F3000FCCF31969093C60090819923B1F7E4EDD0
:102F4000F1E0949108C08091C00085FFFCCF909380
:102F5000C600319694919923B1F78091C00085FF06
:102F6000FCCF8DC02EE030E02C0F3D1FF2013183ED
:102F7000208376010894E11CF11CE114F10409F0AE
:102F800087CF0BC080E590E0A80EB91EF601B18294
:102F9000A08220EB3FEFA20EB31ED82C092D02C059
:102FA000DE2C0F2D8EE490E0A80EB91EF501808175
:102FB000918122EB3FEFA20EB31E009719F480E03F
:102FC00090E001C004966D2D702F0E9483768823B7
:102FD00039F1E6ECF1E0949108C08091C00085FFE2
:102FE000FCCF9093C600319694919923B1F78D2D23
:102FF000902F9C01F90107C08091C00085FFFCCF94
:1030000031969093C60090819923B1F783E892E0BE
:10301000A80EB91EF501108211821282138232C0ED
:10302000EEEAF1E0949108C08091C00085FFFCCFEA
:103030009093C600319694919923B1F78D2D902FDE
:103040009C01F90107C08091C00085FFFCCF31963B
:103050009093C60090819923B1F7ECEAF1E0949146
:1030600008C08091C00085FFFCCF9093C6003196C8
:1030700094919923B1F78091C00085FFFCCF8AE03D
:103080008093C600CE010E96E2DCAC960FB6F894A3
:10309000DEBF0FBECDBFCF91DF911F910F91FF908B
:1030A000EF90DF90CF90BF90AF909F908F907F90E8
:1030B0006F905F904F903F902F900895BF92CF9266
:1030C000DF92EF92FF920F931F93CF93DF938C01C8
:1030D000EB018FE28993EE24E394FF2475EAC72E77
:1030E00071E0D72EC00ED11E6FE1B62E14C0FB9C2E
:1030F000C00111248D589F4F800F911FBE010E9467
:10310000236D02C02196E3948881882319F08CE80E
:103110008E15C0F7F3942F2D30E0F6018081918158
:103120002817390720F3E7FC07C0C80182539E4FD8
:10313000BE010E94236D01C01882DF91CF911F91C3
:103140000F91FF90EF90DF90CF90BF9008952F9256
:103150003F924F925F926F927F928F929F92AF9227
:10316000BF92CF92DF92EF92FF920F931F93DF9364
:10317000CF93CDB7DEB7AD970FB6F894DEBF0FBED5
:10318000CDBF6C014B014DA7DC0113968C918823B8
:1031900009F448C3E1EDF1E0CE0EDF1ED6018C91BB
:1031A000EFE2FEEFCE0EDF1E882309F418C12223C2
:1031B00009F0E0C029EE31E0C20ED31ED6018C9199
:1031C000E7E1FEEFCE0EDF1E882371F1EBE6F1E0C2
:1031D000949108C08091C00085FFFCCF9093C600F9
:1031E000319694919923B1F7EEEAF2E0949108C0F8
:1031F0008091C00085FFFCCF9093C60031969491DA
:103200009923B1F783EE99E061E070E04AE050E085
:103210000E94DE528091C00085FFFCCF8AE080933F
:10322000C6000E94B12CFEC2EBE3F1E0949108C00D
:103230008091C00085FFFCCF9093C6003196949199
:103240009923B1F7E5E9F2E0949108C08091C000BC
:1032500085FFFCCF9093C600319694919923B1F7E6
:10326000F40107C08091C00085FFFCCF3196909398
:10327000C60090819923B1F7EAE8F2E0949108C082
:103280008091C00085FFFCCF9093C6003196949149
:103290009923B1F7C6012EEE31E0C20ED31EB6015E
:1032A0000DDF4BEF5FEFC40ED51ED6019C91E7E119
:1032B000FEEFCE0EDF1E8DE8989FF0011124E25143
:1032C000FE4FEC0DFD1D07C08091C00085FFFCCFB7
:1032D00031969093C60090819923B1F7E4E8F2E02B
:1032E000949108C08091C00085FFFCCF9093C600E8
:1032F000319694919923B1F723E832E0C20ED31EA0
:10330000D6014D915D916D917C91EDE7FDEFCE0E73
:10331000DF1E83EE99E02AE030E00E948F52809118
:10332000C00085FFFCCF8AE08093C600A60147510C
:103330005E4FDA012C91E22FF0E0EE0FFF1FEE0F4F
:10334000FF1FEC0DFD1DE651FE4F83E892E0C80E15
:10335000D91ED6014D905D906D907C908DE79DEFCC
:10336000C80ED91E40825182628273822F5FDA01B9
:103370002C932FC0EBE3F1E0949108C08091C00042
:1033800085FFFCCF9093C600319694919923B1F7B5
:10339000E3E7F2E0949108C08091C00085FFFCCF84
:1033A0009093C600319694919923B1F7F40107C028
:1033B0008091C00085FFFCCF31969093C60090812C
:1033C0009923B1F78091C00085FFFCCF8AE08093FC
:1033D000C600C60182539E4F0E94136D39C0E9EEAC
:1033E000F1E0CE0EDF1ED6011C92E7E1FEEFCE0E1D
:1033F000DF1EEBE3F1E0949108C08091C00085FFEF
:10340000FCCF9093C600319694919923B1F7E2E6F0
:10341000F2E0949108C08091C00085FFFCCF9093AA
:10342000C600319694919923B1F7F40107C08091B9
:10343000C00085FFFCCF31969093C6009081992300
:10344000B1F78091C00085FFFCCF8AE08093C60071
:10345000D60112961C921A8A1D8A198A188A8DE63C
:1034600094E09F878E87FEE4AF2EB12CAC0CBD1C80
:10347000EFE2F0E0CE0EDF1ED501CD92DC92E1ED61
:10348000FFEFCE0EDF1ED4018C918F3209F090C079
:10349000C4016FE270E00E94F0117C010894E11C0D
:1034A000F11C3E010894611C711C2501E2E12E2EE5
:1034B000312C2C0E3D1E77C0C7016FE270E00E94D8
:1034C000F0115C01009709F481C0E816F90608F0D4
:1034D0007DC08C010E191F09C301B701A8010E940C
:1034E0001012060D171DF8011082F30107C080911C
:1034F000C00085FFFCCF31969093C6009081992340
:10350000B1F78091C00085FFFCCFFAE0F093C600D0
:10351000D2016D917C916115710519F460E070E044
:1035200002C06C5F7F4FC101A30121E00E94B4750E
:10353000882371F5EEE4F2E0949108C08091C00018
:1035400085FFFCCF9093C600319694919923B1F7F3
:10355000FE01319607C08091C00085FFFCCF3196F7
:103560009093C60090819923B1F7ECE4F2E0949136
:1035700008C08091C00085FFFCCF9093C6003196B3
:1035800094919923B1F78091C00085FFFCCF1BC1B6
:103590002EE030E02C0F3D1FF201318320837501B6
:1035A0000894E11CF11CE114F10409F085CF0BC073
:1035B00040E550E0C40ED51ED501CD92DC92E0EB83
:1035C000FFEFCE0EDF1E082DF92C01C00E2DF601E7
:1035D000E25BFF4F2DA5222309F4B1C06081718108
:1035E0006115710519F460E070E002C06C5F7F4FF7
:1035F000C60182539E4F402F5F2D21E00E94B4757B
:10360000882309F46CC04FED51E0C40ED51ED601DD
:103610004D915D916D917C91ECE9F0E0CE0EDF1E55
:10362000D6014D935D936D937C931397E5E8FDEF81
:10363000CE0EDF1EEEE3F2E0949108C08091C00050
:1036400085FFFCCF9093C600319694919923B1F7F2
:10365000802F9F2D9C01F90107C08091C00085FF3C
:10366000FCCF31969093C60090819923B1F7E6E3A1
:10367000F2E0949108C08091C00085FFFCCF909348
:10368000C600319694919923B1F783EE99E02AE030
:1036900030E00E948F528091C00085FFFCCF8AE00D
:1036A0008093C60023E832E0C20ED31ED6011D92DD
:1036B0001D921D921C921397E8E2F2E0949108C0CB
:1036C0008091C00085FFFCCF9093C6003196949105
:1036D0009923B1F78091C00085FFFCCF99C0E4E148
:1036E000F2E0949108C08091C00085FFFCCF9093D8
:1036F000C600319694919923B1F7802F9F2D9C019C
:10370000F90107C08091C00085FFFCCF31969093EE
:10371000C60090819923B1F7E2E1F2E0949108C0EC
:103720008091C00085FFFCCF9093C60031969491A4
:103730009923B1F78091C00085FFFCCF44C0608120
:1037400071816115710519F460E070E002C06C5F71
:103750007F4FC60182539E4F402F5F2D26E50E946A
:10376000B475882309F033C0EEEFF1E0949108C0FE
:103770008091C00085FFFCCF9093C6003196949154
:103780009923B1F7802F9F2D9C01F90107C08091EB
:10379000C00085FFFCCF31969093C600908199239D
:1037A000B1F7ECEFF1E0949108C08091C00085FF83
:1037B000FCCF9093C600319694919923B1F78091F4
:1037C000C00085FFFCCF8AE08093C60028C081E05E
:1037D000F6018083EAEEF1E0949108C08091C00088
:1037E00085FFFCCF9093C600319694919923B1F751
:1037F000F40107C08091C00085FFFCCF3196909303
:10380000C60090819923B1F78091C00085FFFCCF5D
:103810008AE08093C600802F9F2D0E9458C8CE0159
:103820000E9615D9AD960FB6F894DEBF0FBECDBF7C
:10383000CF91DF911F910F91FF90EF90DF90CF908C
:10384000BF90AF909F908F907F906F905F904F90C0
:103850003F902F900895EF92FF920F931F93CF9375
:10386000DF93EC010E94207D8E0107511E4FD8018D
:103870008C919EECE92E91E0F92EEC0EFD1E882332
:1038800099F1C7010E94136DF80160816150608356
:103890008DE8689FB001112462517E4F6C0F7D1F2F
:1038A000CE0141E021E053DCD801EC91F0E0EE0FD5
:1038B000FF1FEE0FFF1FEC0FFD1FE651FE4F408173
:1038C000518162817381CD57DD4F488359836A836B
:1038D0007B83C358D240C7010E94FC6B8B81882335
:1038E00069F081E08A830AC00E94E27BC7010E94DE
:1038F000136D1A828FE291E00E947050DF91CF9198
:103900001F910F91FF90EF900895FC0181E081835A
:10391000CF0140E021E01BCCEF92FF920F931F9369
:10392000CF93DF938C01FC01138286A9882321F0B9
:10393000C801C3960E94136D27EAE22E21E0F22E01
:10394000E00EF11EC70160E045E30E94C46A8823CF
:1039500009F5EBE3F1E0949108C08091C00085FF88
:10396000FCCF9093C600319694919923B1F7EFE183
:10397000F3E0949108C08091C00085FFFCCF909344
:10398000C600319694919923B1F78091C00085FFCC
:10399000FCCF7DC0E801C455DE4FCE01B70141E048
:1039A0000E944377882341F5CE01B70140E00E9491
:1039B0004377882309F5EBE6F1E0949108C0809104
:1039C000C00085FFFCCF9093C60031969491992357
:1039D000B1F7ECE0F3E0949108C08091C00085FF5E
:1039E000FCCF9093C600319694919923B1F78091C2
:1039F000C00085FFFCCF4BC0C801C396BE010E942A
:103A0000B871882309F5EBE6F1E0949108C0809144
:103A1000C00085FFFCCF9093C60031969491992306
:103A2000B1F7ECEFF2E0949108C08091C00085FFFF
:103A3000FCCF9093C600319694919923B1F7809171
:103A4000C00085FFFCCF23C081E0F8018383EBE356
:103A5000F1E0949108C08091C00085FFFCCF909365
:103A6000C600319694919923B1F7E1EFF2E0949179
:103A700008C08091C00085FFFCCF9093C6003196AE
:103A800094919923B1F78091C00085FFFCCF8AE023
:103A90008093C600D801AC5ABF4FF801F3968BE172
:103AA00001900D928150E1F7F80181A992A90E5A77
:103AB0001F4FF8019183808302551040C8018F96F3
:103AC000025B1F4FF80191838083DF91CF911F919B
:103AD0000F91FF90EF9008952F923F924F925F9237
:103AE0006F927F929F92AF92BF92CF92DF92EF92AE
:103AF000FF920F931F93DF93CF93CDB7DEB7CC55D3
:103B0000D0400FB6F894DEBF0FBECDBF6C01662368
:103B100011F527E832E0C20ED31ED6018C91E9E7F9
:103B2000FDEFCE0EDF1E882309F4E3C02FE732E05D
:103B3000C20ED31ED601ED90FD900D911C91E1E8CF
:103B4000FDEFCE0EDF1E0E94F3D2E616F706080741
:103B5000190708F4CEC027E832E0C20ED31ED60102
:103B60001C92E9E7FDEFCE0EDF1ED60113968C9175
:103B7000882339F4C601D0DEF6018381882309F455
:103B8000B8C000D000D0EDB7FEB731967E010894E2
:103B9000E11CF11CADB7BEB71296FC92EE921197E4
:103BA00082E691E093838283D6019D968D919C91CC
:103BB0009E97958384830E941F128701EDB7FEB7FD
:103BC00036960FB6F894FEBF0FBEEDBF57010AC080
:103BD000D8018C91992787FD90950E9433DBF801DD
:103BE00081938F01F50101900020E9F73197EA19DF
:103BF000FB09802F8E198E175CF363E3A62EB12C80
:103C0000AC0CBD1CC50140E050E060E070E00E94DB
:103C1000FC6B99245DE3E52EF12CEC0EFD1E2E01CC
:103C20000894411C511C4FE1642E712C6C0E7D1EBA
:103C30003BE5232E31E0332E42C0D8018C9190E039
:103C40000E9433DBF80181938F01D7010D90002092
:103C5000E9F71197AE19BF09802F8E198A176CF3F7
:103C600027968FAD27978E3751F1C701B20145E0F6
:103C700050E00E940212009711F500D000D0EDB77D
:103C8000FEB73196ADB7BEB712967C926E92119781
:103C900033822282558244820E941F12EDB7FEB702
:103CA00036960FB6F894FEBF0FBEEDBFC3010E945B
:103CB000E95087E591E00E94705099249394C501E2
:103CC000B70140E050E00E94256F181614F48701F8
:103CD000BCCF992041F48FEF9FEFD6019E969C9325
:103CE0008E939D9706C0F60185A596A5019696A789
:103CF00085A7C45ADF4F0FB6F894DEBF0FBECDBF05
:103D0000CF91DF911F910F91FF90EF90DF90CF90B7
:103D1000BF90AF909F907F906F905F904F903F903B
:103D20002F9008952F923F924F925F926F927F92C1
:103D30008F929F92AF92BF92CF92DF92EF92FF92BB
:103D40000F931F93DF93CF93CDB7DEB7CF58D040FB
:103D50000FB6F894DEBF0FBECDBF8C013B016A01E8
:103D600084E090E0C80ED91EF8017196C757DF4F66
:103D7000F983E883C958D040C8010496CA57DF4F79
:103D800099838883C658D040C857DF4F1882C858D7
:103D9000D040B6E6EB2EF12CEC0EFD1EF7013B9663
:103DA000C557DF4FF983E883CB58D040A8E88A2E67
:103DB000A2E09A2E800E911EFAE8AF2EF2E0BF2EFE
:103DC000A00EB11EEEE02E2E312C2C0E3D1E77E4FF
:103DD000472E512C4C0E5D1EC2010496C357DF4F77
:103DE00099838883CD58D040EBE3F1E09491C1579B
:103DF000DF4F9883CF58D0404EC1F7018385482FBD
:103E000050E0BA01687170706031710509F051C1FC
:103E1000F401208131812130310509F44AC1223079
:103E2000310509F446C1F701DE0111969081903207
:103E300039F08E2F8E19883011F48EE28D939D9378
:103E40003196C557DF4F88819981CB58D040E8170C
:103E5000F90761F71C921E86F3018081882329F4FB
:103E6000C10160E072E00E94E511C101B3010E944E
:103E7000E511C101BE016F5F7F4F0E94E511C101D5
:103E800060E072E00E94E5111CA61FA61BA61AA600
:103E90008DE694E099A788A7CE018C96B601AE0175
:103EA0004F5F5F4F21E00E94B475882309F03FC047
:103EB000F40180819181892BD1F5C157DF4F988121
:103EC000CF58D040EBE3F1E008C08091C00085FFFF
:103ED000FCCF9093C600319694919923B1F7E2E01C
:103EE000F2E007C08091C00085FFFCCF319690932F
:103EF000C60090819923B1F78091C00085FFFCCF67
:103F0000FAE0F093C600FE01319607C08091C00030
:103F100085FFFCCF31969093C60090819923B1F72D
:103F20008091C00085FFFCCF8AE08093C600C35714
:103F3000DF4FA881B981CD58D040FE01BC968BE1FE
:103F400001900D928150E1F78AA59BA5F201938320
:103F500082838DE694E091838083C801B101A20140
:103F6000E1DEC2010E942715CE0188960E94271526
:103F700092C0953E09F48FC09E3209F48CC09F35E3
:103F800009F489C0F8019189992331F09E3209F42E
:103F900082C09F3509F47FC043FD7DC080E0603161
:103FA000710509F481E0F80184A7882349F4F70139
:103FB0008085873409F06FC081858E3709F46BC026
:103FC000CA57DF4FA881B981C658D040F701808118
:103FD000803241F08E2F8E19883011F48EE28D934D
:103FE00080818D933196C557DF4F88819981CB5859
:103FF000D040E817F90759F71C92F40180819181AC
:10400000009729F5F30107C08091C00085FFFCCF20
:1040100031969093C60090819923B1F7CA57DF4F2C
:10402000E881F981C658D04007C08091C00085FF63
:10403000FCCF31969093C60090819923B1F780917F
:10404000C00085FFFCCFFAE0F093C60024C08130A9
:10405000910539F4F50180819181019691838083E6
:104060001AC00297C1F4C857DF4FF881C858D04032
:104070002F2F30E0F5018081918128173907F1F069
:10408000C857DF4FF881C858D040FF5FC857DF4F8F
:10409000F883C858D040C601B701C757DF4F4881E1
:1040A0005981C958D0400E94256F18160CF4A5CE2E
:1040B00005C0F7019081992309F05BCFC157DF4F0D
:1040C0000FB6F894DEBF0FBECDBFCF91DF911F9129
:1040D0000F91FF90EF90DF90CF90BF90AF909F90A7
:1040E0008F907F906F905F904F903F902F900895AA
:1040F000EF92FF920F931F93DF93CF93CDB7DEB76D
:104100006F970FB6F894DEBF0FBECDBF7C018C0158
:10411000025B1F4F805B9F4FF8019183808328E8EB
:1041200032E0E20EF31E21E030E0F70121933193FB
:104130007F011182108226E73DEFE20EF31E049606
:1041400040E050E060E070E00E94FC6BF8012081EC
:104150003181DE011596F90134968BE101900D92C3
:104160008150E1F7F901828193819C838B838DE6F5
:1041700094E09A838983C70165E172E08E010F5F45
:104180001F4FA801CFDDC8010E942715F701E65790
:10419000FD4F808191816F960FB6F894DEBF0FBE00
:1041A000CDBFCF91DF911F910F91FF90EF900895B8
:1041B000EF92FF920F931F93DF93CF93CDB7DEB7AC
:1041C0006F970FB6F894DEBF0FBECDBF7C018C0198
:1041D000025B1F4F805B9F4FF8019183808328E82B
:1041E00032E0E20EF31E22E030E0F701318320835B
:1041F00028E73DEFE20EF31EF701E657FD4F60831F
:104200001182049640E050E060E070E00E94FC6B98
:10421000F80120813181DE011596F90134968BE198
:1042200001900D928150E1F7F901828193819C8385
:104230008B838DE694E09A838983C70165E172E000
:104240008E010F5F1F4FA8016DDDC8010E94271569
:104250006F960FB6F894DEBF0FBECDBFCF91DF9142
:104260001F910F91FF90EF900895EF92FF920F939F
:104270001F93DF93CF93CDB7DEB76F970FB6F89448
:10428000DEBF0FBECDBF7C0188E892E0E80EF91ECC
:10429000F7011182108288E79DEFE80EF91E870171
:1042A0000D5C1F4FC80140E050E060E070E00E94EC
:1042B000FC6BDE011596F8018BE101900D928150A7
:1042C000E1F7F70181A992A99C838B838DE694E0A5
:1042D0009A838983C70165E172E08E010F5F1F4FEA
:1042E000A80120DDC8010E9427156F960FB6F8942B
:1042F000DEBF0FBECDBFCF91DF911F910F91FF9019
:10430000EF9008950F931F93CF93DF93DC01D39623
:104310001C92D397D6961C92D697D2961C921E9238
:10432000D1978DE694E0D0969C938E939F97AC5A4C
:10433000BF4F1C9213961C92A755B040FD01E05B45
:10434000FF4FAE5ABF4F11961C921E92A255B0401D
:1043500091838083ED01C159DF4FFE0120E030E001
:10436000482F148217821382128240839183215E28
:104370003F4F7F9681E02633380799F7A855BE4F07
:1043800089E18C9313961C9258961C921B961C9252
:1043900013961C92A15DB140FD01E653FE4FA4535C
:1043A000BE4F11961C921E9240839183A155BF4F20
:1043B0001D921D921D921C92139718961D921D928C
:1043C0001D921C921397A358B24012961C921297FA
:1043D00013961C9213971C9211961C9211978D01A3
:1043E00001581D4FF8011082118212821382AB55C1
:1043F000BE4F11961C921E92AC5BBF4F1C92FE01E9
:10440000C90111920197E9F7A256BF4F81E08C9341
:10441000A758B2409E961C921E929D970E94F3D27E
:1044200068577C4E8F4F9F4FF80160837183828362
:104430009383DF91CF911F910F910895DF93CF93D5
:10444000CDB7DEB72A970FB6F894DEBF0FBECDBF4B
:104450008091160290911702A0911802B091190252
:104460008B839C83AD83BE83FE01339624E630E0CC
:104470008081F999FECF1FBA32BD21BD80BD0FB634
:10448000F894FA9AF99A0FBE2F5F3F4F28363105FC
:1044900011F03196EDCFE8EFF9E08081F999FECF88
:1044A0001FBA32BD21BD80BD0FB6F894FA9AF99AB1
:1044B0000FBE2F5F3F4F2837310511F03196EDCFFA
:1044C000E8EEF9E08081F999FECF1FBA32BD21BD37
:1044D00080BD0FB6F894FA9AF99A0FBE2F5F3F4F3E
:1044E0002838310511F03196EDCFE8E0FAE080810F
:1044F000F999FECF1FBA32BD21BD80BD0FB6F89429
:10450000FA9AF99A0FBE2F5F3F4F2839310511F003
:104510003196EDCFECE1FAE08081F999FECF1FBA38
:1045200032BD21BD80BD0FB6F894FA9AF99A0FBE3C
:104530002F5F3F4F2C39310511F03196EDCFE0E27E
:10454000FAE08081F999FECF1FBA32BD21BD80BD4E
:104550000FB6F894FA9AF99A0FBE2F5F3F4F203AA0
:10456000310511F03196EDCFE8E1FAE08081F9995B
:10457000FECF1FBA32BD21BD80BD0FB6F894FA9AA6
:10458000F99A0FBE2F5F3F4F243A310511F0319653
:10459000EDCFE0E3FAE08081F999FECF1FBA32BD9A
:1045A00021BD80BD0FB6F894FA9AF99A0FBE2F5F1D
:1045B0003F4F283A310511F03196EDCFE4EEF9E0A6
:1045C0008081F999FECF1FBA32BD21BD80BD0FB6E3
:1045D000F894FA9AF99A0FBE2F5F3F4F2C3A3105A3
:1045E00011F03196EDCFE4E2FAE08081F999FECF47
:1045F0001FBA32BD21BD80BD0FB6F894FA9AF99A60
:104600000FBE2F5F3F4F203B310511F03196EDCFAC
:10461000E8E2FAE08081F999FECF1FBA32BD21BDF0
:1046200080BD0FB6F894FA9AF99A0FBE2F5F3F4FEC
:10463000243B310511F03196EDCFECE2FAE08081B8
:10464000F999FECF1FBA32BD21BD80BD0FB6F894D7
:10465000FA9AF99A0FBE2F5F3F4F283B310511F0B0
:104660003196EDCFE8E6F7E08081F999FECF1FBAE9
:1046700032BD21BD80BD0FB6F894FA9AF99A0FBEEB
:104680002F5F3F4F243C310511F03196EDCFEBEE1B
:10469000F1E18081F999FECF1FBA32BD21BD80BD05
:1046A0000FB6F894FA9AF99A0FBE2F5F3F4F263C47
:1046B000310511F03196EDCFEDEEF1E18081F99900
:1046C000FECF1FBA32BD21BD80BD0FB6F894FA9A55
:1046D000F99A0FBE2F5F3F4F283C310511F03196FC
:1046E000EDCFEFEEF1E18081F999FECF1FBA32BD37
:1046F00021BD80BD0FB6F894FA9AF99A0FBE2F5FCC
:104700003F4F2A3C310511F03196EDCFE1EFF1E159
:104710008081F999FECF1FBA32BD21BD80BD0FB691
:10472000F894FA9AF99A0FBE2F5F3F4F2C3C31054F
:1047300011F03196EDCFE3EFF1E18081F999FECFF1
:104740001FBA32BD21BD80BD0FB6F894FA9AF99A0E
:104750000FBE2F5F3F4F2E3C310511F03196EDCF4C
:10476000E5EFF1E18081F999FECF1FBA32BD21BD9D
:1047700080BD0FB6F894FA9AF99A0FBE2F5F3F4F9B
:10478000203D310511F03196EDCFE3E8F7E080816F
:10479000F999FECF1FBA32BD21BD80BD0FB6F89486
:1047A000FA9AF99A0FBE2F5F3F4F243D310511F061
:1047B0003196EDCFEDECF3E08081F999FECF1FBA91
:1047C00032BD21BD80BD0FB6F894FA9AF99A0FBE9A
:1047D0002F5F3F4F283D310511F03196EDCFE1EDD0
:1047E000F3E08081F999FECF1FBA32BD21BD80BDB3
:1047F0000FB6F894FA9AF99A0FBE2F5F3F4F2C3DEF
:10480000310511F03196EDCFE5EDF3E08081F999B6
:10481000FECF1FBA32BD21BD80BD0FB6F894FA9A03
:10482000F99A0FBE2F5F3F4F203E310511F03196B0
:10483000EDCF80E290E09A838983FE0131968081FA
:10484000F999FECF1FBA32BD21BD80BD0FB6F894D5
:10485000FA9AF99A0FBE213E310521F0319621EEE8
:1048600030E0EDCF80911A0290911B02A0911C02C2
:10487000B0911D028F839887A987BA87FE0137966A
:1048800084E690E02081F999FECF1FBA92BD81BDE8
:1048900020BD0FB6F894FA9AF99A0FBE87369105A3
:1048A00019F001963196EECFECE2F3E0949108C056
:1048B0008091C00085FFFCCF9093C6003196949103
:1048C0009923B1F7E6E3F5E0949108C08091C00028
:1048D00085FFFCCF9093C600319694919923B1F750
:1048E0008091C00085FFFCCF8AE08093C6002A96A5
:1048F0000FB6F894DEBF0FBECDBFCF91DF91089504
:10490000DF93CF93CDB7DEB7E0970FB6F894DEBF55
:104910000FBECDBFDE011196EDE1F4E080E1019024
:104920000D928150E1F7DE015196EDE0F4E080E177
:1049300001900D928150E1F7DE019196EDEFF3E0E9
:1049400080E101900D928150E1F789819A81AB81DC
:10495000BC818093F8099093F909A093FA09B09368
:10496000FB0989899A89AB89BC898093E80990936E
:10497000E909A093EA09B093EB0989A19AA1ABA137
:10498000BCA18093080A9093090AA0930A0AB093E5
:104990000B0A8D819E81AF81B8858093FC0990932D
:1049A000FD09A093FE09B093FF098D899E89AF8907
:1049B000B88D8093EC099093ED09A093EE09B09324
:1049C000EF098DA19EA1AFA1B8A580930C0A909389
:1049D0000D0AA0930E0AB0930F0A89859A85AB85BC
:1049E000BC858093000A9093010AA093020AB093B9
:1049F000030A898D9A8DAB8DBC8D8093F0099093BD
:104A0000F109A093F209B093F30989A59AA5ABA582
:104A1000BCA58093100A9093110AA093120AB09338
:104A2000130A8D859E85AF85B8898093040A90937B
:104A3000050AA093060AB093070A8D8D9E8DAF8D4F
:104A4000B8A18093F4099093F509A093F609B09367
:104A5000F7098DA59EA5AFA5B8A98093140A9093D8
:104A6000150AA093160AB093170A0E94405780E0D7
:104A700090E0AAE7B4E480931C0A90931D0AA093E7
:104A80001E0AB0931F0A80E090E8ABE3B5E4809380
:104A9000200A9093210AA093220AB093230A20E0CF
:104AA00030E040E050E02093180A3093190A409318
:104AB0001A0A50931B0A80E29EE4A0E0B0E08093C3
:104AC000E4099093E509A093E609B093E7092093E0
:104AD000300A3093310A4093320A5093330A80E00F
:104AE00090E0A0EAB1E48093240A9093250AA09371
:104AF000260AB093270A8DEC9CECACECBEE38093C5
:104B0000280A9093290AA0932A0AB0932B0A80E0DE
:104B100090E0A0EAB0E480932C0A90932D0AA09331
:104B20002E0AB0932F0A2093700730937107409399
:104B300072075093730720936C0730936D0740936F
:104B40006E0750936F07209368073093690740936F
:104B50006A0750936B0782ED90E09093EC1180937D
:104B6000EB1186E490E09093EE118093ED1110929A
:104B7000F0111092EF118AEF90E09093F211809370
:104B8000F11184E690E09093F4118093F311109268
:104B9000F6111092F5118AE999E9A1EBB1E480933D
:104BA000CD039093CE03A093CF03B093D00361E7DE
:104BB0007DE38AE89FE30E9430856093D103709380
:104BC000D2038093D3039093D40360E070E084EE2B
:104BD00092E40E943C856093D5037093D603809342
:104BE000D7039093D8030E94488480E090E0A0E827
:104BF000BFE38093D9039093DA03A093DB03B093D0
:104C0000DC03ECE2F3E0949108C08091C00085FFE2
:104C1000FCCF9093C600319694919923B1F7E2E3CB
:104C2000F3E0949108C08091C00085FFFCCF909381
:104C3000C600319694919923B1F78091C00085FF09
:104C4000FCCF8AE08093C600E0960FB6F894DEBFF2
:104C50000FBECDBFCF91DF910895CF93DF93CCE20C
:104C6000D3E0FE01949108C08091C00085FFFCCF85
:104C70009093C600319694919923B1F7E6E2F5E05E
:104C8000949108C08091C00085FFFCCF9093C6002E
:104C9000319694919923B1F78091C00085FFFCCFA4
:104CA0008AE08093C600FE019491ECE2F3E008C034
:104CB0008091C00085FFFCCF9093C60031969491FF
:104CC0009923B1F74091F8095091F9096091FA09D7
:104CD0007091FB098EE195E00E94D7304091FC096C
:104CE0005091FD096091FE097091FF098BE195E0FB
:104CF0000E94D7304091000A5091010A6091020A47
:104D00007091030A88E195E00E94D7304091040A2F
:104D10005091050A6091060A7091070A85E195E0B5
:104D20000E94D730EEE1F2E007C08091C00085FF1D
:104D3000FCCF31969093C60090819923B1F7809172
:104D4000C00085FFFCCF8AE08093C600FE019491ED
:104D5000ECE2F3E008C08091C00085FFFCCF9093A7
:104D6000C600319694919923B1F7EBEFF4E094915A
:104D700008C08091C00085FFFCCF9093C60031969B
:104D800094919923B1F78091C00085FFFCCF8AE010
:104D90008093C600FE019491ECE2F3E008C080919C
:104DA000C00085FFFCCF9093C60031969491992363
:104DB000B1F74091E8095091E9096091EA097091D1
:104DC000EB0982EF94E00E94D7304091EC095091BA
:104DD000ED096091EE097091EF098FEE94E00E9469
:104DE000D7304091F0095091F1096091F20970912A
:104DF000F3098CEE94E00E94D7304091F409509171
:104E0000F5096091F6097091F70989EE94E00E9426
:104E1000D730EEE1F2E007C08091C00085FFFCCF03
:104E200031969093C60090819923B1F78091C0008C
:104E300085FFFCCF8AE08093C600FE019491ECE2EE
:104E4000F3E008C08091C00085FFFCCF9093C600BE
:104E5000319694919923B1F7EBECF4E0949108C06A
:104E60008091C00085FFFCCF9093C600319694914D
:104E70009923B1F78091C00085FFFCCF8AE0809331
:104E8000C600FE019491ECE2F3E008C08091C000FE
:104E900085FFFCCF9093C600319694919923B1F78A
:104EA0004091080A5091090A60910A0A70910B0A10
:104EB00082EC94E00E94EA3040910C0A50910D0A75
:104EC00060910E0A70910F0A8FEB94E00E94EA3015
:104ED0004091100A5091110A6091120A7091130AC0
:104EE0008CEB94E00E94EA304091140A5091150A2C
:104EF0006091160A7091170A89EB94E00E94EA30DB
:104F0000EEE1F2E007C08091C00085FFFCCF319652
:104F10009093C60090819923B1F78091C00085FFDE
:104F2000FCCF8AE08093C600FE019491ECE2F3E0AE
:104F300008C08091C00085FFFCCF9093C6003196D9
:104F400094919923B1F7E4E8F4E0949108C080913A
:104F5000C00085FFFCCF9093C600319694919923B1
:104F6000B1F78091C00085FFFCCF8AE08093C60036
:104F7000FE019491ECE2F3E008C08091C00085FF4F
:104F8000FCCF9093C600319694919923B1F740914C
:104F90001C0A50911D0A60911E0A70911F0A8BE72E
:104FA00094E00E94D7304091200A5091210A6091EC
:104FB000220A7091230A88E794E00E94D730EEE13C
:104FC000F2E007C08091C00085FFFCCF319690933E
:104FD000C60090819923B1F78091C00085FFFCCF76
:104FE0008AE08093C600FE019491ECE2F3E008C0F1
:104FF0008091C00085FFFCCF9093C60031969491BC
:105000009923B1F7E5ECF3E0949108C08091C000DA
:1050100085FFFCCF9093C600319694919923B1F708
:105020008091C00085FFFCCF8AE08093C600FE011E
:105030009491ECE2F3E008C08091C00085FFFCCFC2
:105040009093C600319694919923B1F74091180A34
:105050005091190A60911A0A70911B0A8CEB93E027
:105060000E94D7304091300A5091310A6091320A43
:105070007091330A89EB93E00E94D7304091E409A4
:105080005091E5096091E6097091E70986EB93E09C
:105090000E94EA304091240A5091250A6091260A24
:1050A0007091270A83EB93E00E94D7304091280A41
:1050B0005091290A60912A0A70912B0A80EB93E0A3
:1050C0000E94D73040912C0A50912D0A60912E0AEF
:1050D00070912F0A8DEA93E00E94D730EEE1F2E062
:1050E00007C08091C00085FFFCCF31969093C60029
:1050F00090819923B1F78091C00085FFFCCF8AE0B1
:105100008093C600FE019491ECE2F3E008C0809128
:10511000C00085FFFCCF9093C600319694919923EF
:10512000B1F7EBE9F3E0949108C08091C00085FFEE
:10513000FCCF9093C600319694919923B1F780915A
:10514000C00085FFFCCF8AE08093C600FE019491E9
:10515000ECE2F3E008C08091C00085FFFCCF9093A3
:10516000C600319694919923B1F740916807509108
:10517000690760916A0770916B0782E993E00E946A
:10518000D73040916C0750916D0760916E07709118
:105190006F078FE893E00E94D730409170075091DD
:1051A000710760917207709173078CE893E0FFD7E5
:1051B000EEE1F2E007C08091C00085FFFCCF3196A0
:1051C0009093C60090819923B1F78091C00085FF2C
:1051D000FCCF8AE08093C600FE019491ECE2F3E0FC
:1051E00008C08091C00085FFFCCF9093C600319627
:1051F00094919923B1F7EEE7F3E0949108C0809180
:10520000C00085FFFCCF9093C600319694919923FE
:10521000B1F78091C00085FFFCCF8AE08093C60083
:10522000FE019491ECE2F3E008C08091C00085FF9C
:10523000FCCF9093C600319694919923B1F7409199
:10524000CD035091CE036091CF037091D00384E7DA
:1052500093E0ADD76091D1037091D2038091D303D5
:105260009091D4030E943685AB01BC0181E793E0A5
:105270009ED76091D5037091D6038091D70390910A
:10528000D8030E944285AB01BC018EE693E08FD724
:10529000EEE1F2E007C08091C00085FFFCCF3196BF
:1052A0009093C60090819923B1F78091C00085FF4B
:1052B000FCCF8AE08093C600DF91CF9108950F93D1
:1052C0001F93DF93CF93CDB7DEB72A970FB6F8942D
:1052D000DEBF0FBECDBF80911A0290911B02A0913C
:1052E0001C02B0911D028F839887A987BA87FE019F
:1052F000339604E610E0F999FECF12BD01BDF89A8D
:1053000080B580830F5F1F4F0836110511F031966D
:10531000F2CFCE010796BE016D5F7F4F43E050E0B4
:105320000E940212009709F098C1E8EFF9E0F9999C
:10533000FECF12BD01BDF89A80B580830F5F1F4F6D
:105340000837110511F03196F2CFE8EEF9E0F9993E
:10535000FECF12BD01BDF89A80B580830F5F1F4F4D
:105360000838110511F03196F2CFE8E0FAE0F9992A
:10537000FECF12BD01BDF89A80B580830F5F1F4F2D
:105380000839110511F03196F2CF0E944057ECE137
:10539000FAE0F999FECF12BD01BDF89A80B580837D
:1053A0000F5F1F4F0C39110511F03196F2CFE0E27B
:1053B000FAE0F999FECF12BD01BDF89A80B580835D
:1053C0000F5F1F4F003A110511F03196F2CFE8E15F
:1053D000FAE0F999FECF12BD01BDF89A80B580833D
:1053E0000F5F1F4F043A110511F03196F2CFE0E341
:1053F000FAE0F999FECF12BD01BDF89A80B580831D
:105400000F5F1F4F083A110511F03196F2CFE4EE0D
:10541000F9E0F999FECF12BD01BDF89A80B58083FD
:105420000F5F1F4F0C3A110511F03196F2CFE4E2F5
:10543000FAE0F999FECF12BD01BDF89A80B58083DC
:105440000F5F1F4F003B110511F03196F2CFE8E2DC
:10545000FAE0F999FECF12BD01BDF89A80B58083BC
:105460000F5F1F4F043B110511F03196F2CFECE2B4
:10547000FAE0F999FECF12BD01BDF89A80B580839C
:105480000F5F1F4F083B110511F03196F2CFE8E690
:10549000F7E0F999FECF12BD01BDF89A80B580837F
:1054A0000F5F1F4F043C110511F03196F2CFEBEE68
:1054B000F1E1F999FECF12BD01BDF89A80B5808364
:1054C0000F5F1F4F063C110511F03196F2CFEDEE44
:1054D000F1E1F999FECF12BD01BDF89A80B5808344
:1054E0000F5F1F4F083C110511F03196F2CFEFEE20
:1054F000F1E1F999FECF12BD01BDF89A80B5808324
:105500000F5F1F4F0A3C110511F03196F2CFE1EF0A
:10551000F1E1F999FECF12BD01BDF89A80B5808303
:105520000F5F1F4F0C3C110511F03196F2CFE3EFE6
:10553000F1E1F999FECF12BD01BDF89A80B58083E3
:105540000F5F1F4F0E3C110511F03196F2CFE5EFC2
:10555000F1E1F999FECF12BD01BDF89A80B58083C3
:105560000F5F1F4F003D110511F03196F2CFE3E8B8
:10557000F7E0F999FECF12BD01BDF89A80B580839E
:105580000F5F1F4F043D110511F03196F2CFEDEC86
:10559000F3E0F999FECF12BD01BDF89A80B5808382
:1055A0000F5F1F4F083D110511F03196F2CFE1ED6D
:1055B000F3E0F999FECF12BD01BDF89A80B5808362
:1055C0000F5F1F4F0C3D110511F03196F2CFE5ED45
:1055D000F3E0F999FECF12BD01BDF89A80B5808342
:1055E0000F5F1F4F003E110511F03196F2CFFE0103
:1055F0003196F999FECF12BD01BDF89A80B580832E
:10560000013E110521F0319601EE10E0F2CF0E942B
:105610004884ECE2F3E0949108C08091C00085FFDB
:10562000FCCF9093C600319694919923B1F7E4E5AD
:10563000F3E0949108C08091C00085FFFCCF909367
:10564000C600319694919923B1F78091C00085FFEF
:10565000FCCF8AE08093C60001C052D9FEDA2A96B8
:105660000FB6F894DEBF0FBECDBFCF91DF911F9173
:105670000F910895EF92FF920F931F93CF93DF93B3
:10568000EC01E0907407F090750700917607109197
:105690007707688179818A819B81A80197010E949F
:1056A000F0D6882324F4E882F9820A831B83E090F1
:1056B0007807F090790700917A0710917B076C8149
:1056C0007D818E819F81A80197010E94F0D6882359
:1056D00024F4EC82FD820E831F83E0907C07F0901F
:1056E0007D0700917E0710917F07688579858A85FF
:1056F0009B85A80197010E94F0D6882324F4E886B0
:10570000F9860A871B87E090A703F090A803009111
:10571000A9031091AA03688179818A819B81A801DC
:1057200097010E94FED8181624F4E882F9820A83B1
:105730001B83E090AB03F090AC030091AD0310919C
:10574000AE036C817D818E819F81A80197010E94AB
:10575000FED8181624F4EC82FD820E831F83E0909D
:10576000AF03F090B0030091B1031091B2036885CC
:1057700079858A859B85A80197010E94FED8181615
:1057800024F4E886F9860A871B87DF91CF911F9161
:105790000F91FF90EF9008958091920708956770A0
:1057A0007070E82FF0E0E15FF24E84918B3028F4C6
:1057B0008830A0F4863090F106C08E30D0F08F5043
:1057C000833060F521C08091B100887F8093B10063
:1057D0008091B100862B8093B10008958091910053
:1057E000887F8093910080919100862B8093910017
:1057F00008958091A100887F8093A1008091A100ED
:10580000862B8093A100089580912101887F809349
:10581000210180912101862B8093210108950F930E
:105820001F93CF93DF938130910549F46F5F7F4FD2
:1058300009F046C084EC94E00E94822141C0892B8B
:1058400009F03EC06F5F7F4FD9F58DE694E09093ED
:105850008F0680938E0680919506882321F082E939
:1058600096E00E94136DCAE4D6E00DE614E005C090
:105870006F9785E0C431D80751F0198308838F8171
:105880008823B1F3CE0104960E94136DF1CF8DE60B
:1058900094E0998388838F81882321F0CE01049638
:1058A0000E94136D8DE694E09093F4048093F304CA
:1058B0008091FA04882321F087EF94E00E94136D11
:1058C000DF91CF911F910F91089580E090E06FEFED
:1058D0007FEFA5CF81E090E06FEF7FEFA0CF0E9438
:1058E0001A8580919207882309F03AC081E080935D
:1058F00092078091950790919607A0919707B09194
:1059000098078093990790939A07A0939B07B09369
:105910009C07ECE4F5E0949108C08091C00085FFFD
:10592000FCCF9093C600319694919923B1F7EDE5A1
:10593000F5E0949108C08091C00085FFFCCF909362
:10594000C600319694919923B1F78091C00085FFEC
:10595000FCCF8AE08093C60083E595E00C9436C8BE
:105960000895F8940E941A85159A10928007469A15
:1059700010928107439A10928207409AECE4F5E076
:10598000949108C08091C00085FFFCCF9093C60021
:10599000319694919923B1F7ECEDF5E0949108C01C
:1059A0008091C00085FFFCCF9093C6003196949102
:1059B0009923B1F78091C00085FFFCCF8AE08093E6
:1059C000C60083ED95E00E9445C8FFCF0E94F3D248
:1059D00060939D0770939E0780939F079093A00705
:1059E000E091C607F091C707E853F84F80818823FC
:1059F000A9F4EBEFF5E0949108C08091C00085FF19
:105A0000FCCF9093C600319694919923B1F7809181
:105A1000C00085FFFCCF8AE08093C60008950E94F5
:105A2000F3D260939D0770939E0780939F07909396
:105A3000A0070895EF92FF920F931F930E94F3D255
:105A4000E090A107F090A2070091A3071091A4078E
:105A500020919D0730919E0740919F075091A0078C
:105A6000621B730B840B950BE616F70608071907E4
:105A700030F4E114F1040105110509F072DF8091A1
:105A8000B5039091B603A091B703B091B803009706
:105A9000A105B10559F10E94F3D220919D073091E3
:105AA0009E0740919F075091A007621B730B840BC8
:105AB000950B2091B5033091B6034091B7035091F7
:105AC000B803261737074807590780F49091240F29
:105AD0008091250F981751F4159A10928007469AD5
