:100000000C942D160C945E160C945E160C945E16D1
:100010000C945E160C945E160C945E160C945E1690
:100020000C945E160C945E160C945E160C945E1680
:100030000C945E160C945E160C945E160C945E1670
:100040000C945E160C94F1760C945E160C945E166D
:100050000C945E160C945E160C94EE870C942DC9CD
:100060000C945E160C9409520C945E160C945E1659
:100070000C945E160C945E160C945E160C945E1630
:100080000C945E160C945E160C945E160C945E1620
:100090000C945E160C945E160C945E160C942992C9
:1000A0000C945E160C945E160C945E160C945E1600
:1000B0000C945E160C945E160C945E160C945E16F0
:1000C0000C945E160C945E160C945E160C945E16E0
:1000D0000C945E160C945E160C945E160C945E16D0
:1000E0000C945E168F27922796279A279E27A22781
:1000F0000628A627AA27AF270628B427BA27BE278F
:10010000C327C727CB270628CF27D327D9270628D9
:10011000DF27E527E727E927EB27ED27EF27F1275B
:10012000F327F527F727F927FB27FD27FF270128C6
:100130000328D88CD88CDB8CDE8CE48CE78CEA8CA2
:10014000ED8CF28CE18C08CA0DCA12CA1CCA26CAF0
:100150009FCA30CA38CA40CA4ACA54CA5ECA6DCA9F
:1001600077CA9FCA81CA8BCA95CAC0CAC3CAB2CA53
:10017000B6CABCCAFACAC7CACBCAD1CAD5CAD9CAB2
:10018000DFCAE3CAE7CAFACAEDCAF1CAF5CA084A21
:10019000D73B3BCE016E84BCBFFDC12F3D6C74319B
:1001A0009ABD56833DDA3D00C77F11BED9E4BB4CF2
:1001B0003E916BAAAABE000000803F05A84CCDB2BC
:1001C000D44EB93836A9020C50B9918688083CA69D
:1001D000AAAA2ABE000000803F004D3834205820D3
:1001E0005920450043616E6E6F7420656E746572B0
:1001F000207375626469723A20004D3234004D32CA
:1002000033202573006175746F25692E6700657250
:10021000726F722077726974696E6720746F2066DE
:10022000696C650043617264206572726F723A0096
:100230004E6F74205344207072696E74696E67004B
:100240002F005344207072696E74696E6720627962
:10025000746520002E0044656C6574696F6E2066BD
:1002600061696C65642C2046696C653A20004669BA
:100270006C652064656C657465643A002E006F706F
:10028000656E206661696C65642C2046696C653A10
:10029000200057726974696E6720746F2066696CFC
:1002A000653A20002E006F70656E206661696C658E
:1002B000642C2046696C653A20002E006F70656ED4
:1002C000206661696C65642C2046696C653A200083
:1002D00046696C652073656C6563746564002053C2
:1002E000697A653A200046696C65206F70656E65B5
:1002F000643A20002E006F70656E206661696C653F
:10030000642C2046696C653A200053442063617276
:1003100064206F6B006F70656E526F6F7420666142
:10032000696C656400766F6C756D652E696E6974B5
:10033000206661696C656400534420696E697420AD
:100340006661696C006563686F3A004572726F722E
:100350003A0048617264636F646564204465666155
:10036000756C742053657474696E6773204C6F618B
:1003700064656400563031300053746F72656420D8
:1003800073657474696E67732072657472696576DB
:100390006564002044002049002020204D33303186
:1003A0002050005049442073657474696E67733A35
:1003B00000205A0020590020204D323036205800AD
:1003C000486F6D65206F666673657420286D6D29B2
:1003D0003A00204500205A002058002042002054B6
:1003E0000020204D323035205300416476616E6329
:1003F0006564207661726961626C65733A20533D71
:100400004D696E20666565647261746520286D6D46
:100410002F73292C20543D4D696E207472617665CE
:100420006C20666565647261746520286D6D2F733C
:10043000292C20423D6D696E696D756D207365676D
:100440006D656E742074696D6520286D73292C208C
:10045000583D6D6178696D756D205859206A6572D7
:100460006B20286D6D2F73292C20205A3D6D6178EB
:10047000696D756D205A206A65726B20286D6D2F2D
:1004800073292C2020453D6D6178696D756D20457F
:10049000206A65726B20286D6D2F7329002054002F
:1004A00020204D323034205300416363656C657207
:1004B0006174696F6E3A20533D616363656C657268
:1004C0006174696F6E2C20543D726574726163743F
:1004D00020616363656C65726174696F6E002045AD
:1004E00000205A0020590020204D32303120580081
:1004F0004D6178696D756D20416363656C657261EE
:1005000074696F6E20286D6D2F7332293A00204573
:1005100000205A0020590020204D3230332058004E
:100520004D6178696D756D2066656564726174658D
:100530007320286D6D2F73293A00204500205A0042
:1005400020590020204D39322058005374657073B3
:100550002070657220756E69743A00536574746911
:100560006E67732053746F726564006563686F3AD9
:1005700000544553540D0A000D0A00556E6B6E6F02
:10058000776E20636F6D6D616E643A20000D0A0016
:100590003F007A2D756E6C696D6974656420302E2C
:1005A00031005072696E7465722073746F7070657B
:1005B000642064756520746F206572726F72732E8B
:1005C0002046697820746865206572726F722061B8
:1005D0006E6420757365204D39393920746F20722F
:1005E0006573746172742E202854656D7065726134
:1005F000747572652069732072657365742E20535B
:100600006574206974206166746572207265737404
:10061000617274696E6729005072696E7465722028
:1006200068616C7465642E206B696C6C282920638A
:10063000616C6C656421006F6B00526573656E645C
:100640003A2000456E6473746F70207374696C6C2B
:1006500020707265737365642061667465722062D0
:1006600061636B696E67206F66662E20456E6473EA
:10067000746F7020737475636B3F00456E647374A0
:100680006F70206E6F742070726573736564206183
:100690006674657220686F6D696E6720646F776E2F
:1006A0002E20456E6473746F702062726F6B656E7E
:1006B0003F00456E6473746F70206E6F74207072AB
:1006C000657373656420616674657220686F6D6917
:1006D0006E6720646F776E2E20456E6473746F7042
:1006E0002062726F6B656E3F002200556E6B6E6FFD
:1006F000776E20636F6D6D616E643A202200456CE9
:10070000656374726F6E6963735F746573740020E0
:10071000423A300020423A31006F6B20523A0022B8
:1007200000556E6B6E6F776E20636F6D6D616E64DA
:100730003A2022007A5F6D696E3A2000795F6D6918
:100740006E3A2000785F6D696E3A20005A3A00597F
:100750003A0020436F756E7420583A2000453A00E5
:100760005A3A00593A00583A004649524D574152B8
:10077000455F4E414D453A4D61726C696E20556C36
:1007800074696D616B6572323B20537072696E746F
:1007900065722F6772626C206D6173687570206678
:1007A0006F722067656E36204649524D574152455B
:1007B0005F55524C3A687474703A2F2F67697468A9
:1007C00075622E636F6D2F556C74696D616B657208
:1007D0002050524F544F434F4C5F56455253494F50
:1007E0004E3A312E30204D414348494E455F5459D1
:1007F00050453A556C74696D616B6572204558546B
:1008000052554445525F434F554E543A310A0020E9
:10081000423A0020453A00543A0020573A00204519
:100820003A00543A002042403A0020403A00202F3B
:100830000020423A00202F006F6B20543A002569B7
:10084000206D696E2C2025692073656300456E64F8
:100850002066696C65206C69737400426567696E17
:100860002066696C65206C69737400256920686F67
:10087000757273202569206D696E75746573004407
:100880006F6E65207072696E74696E672066696C40
:1008900065005072696E7465722073746F70706554
:1008A000642064756520746F206572726F72732E98
:1008B0002046697820746865206572726F722061C5
:1008C0006E6420757365204D39393920746F20723C
:1008D0006573746172742E202854656D7065726141
:1008E000747572652069732072657365742E205368
:1008F0006574206974206166746572207265737412
:10090000617274696E6729006F6B004E6F204C69CD
:100910006E65204E756D626572207769746820631C
:100920006865636B73756D2C204C617374204C6922
:100930006E653A20004E6F20436865636B73756D7A
:100940002077697468206C696E65206E756D6265CC
:10095000722C204C617374204C696E653A200063E0
:100960006865636B73756D206D69736D6174636821
:100970002C204C617374204C696E653A20004C69E0
:100980006E65204E756D626572206973206E6F749E
:10099000204C617374204C696E65204E756D6265E4
:1009A000722B312C204C617374204C696E653A2097
:1009B000004D31313000446F6E6520736176696E91
:1009C000672066696C652E006F6B004D3239002020
:1009D00020506C616E6E6572427566666572427912
:1009E0007465733A20002046726565204D656D6F11
:1009F00072793A2000446563203135203230313538
:100A000000436F6D70696C65643A20007A2D756ED5
:100A10006C696D6974656420302E3100207C204142
:100A20007574686F723A2000446563203135203256
:100A30003031352031303A32313A353300204C6193
:100A4000737420557064617465643A2000312E30EF
:100A50002E30004D61726C696E200020536F6674F9
:100A60007761726520526573657400205761746305
:100A700068646F67205265736574002042726F77F7
:100A80006E206F757420526573657400204578740C
:100A900065726E616C20526573657400506F776586
:100AA000725570007374617274002200656E717506
:100AB00065696E672022002200656E717565696E3A
:100AC00067202200FFFFFF0000E0400000E0400040
:100AD00000E04000006643000066430000614500FE
:100AE000000000000000000000000000006643005D
:100AF00000664300006145000000000000000000A7
:100B00000000006563686F3A004572726F723A00C8
:100B100020746F6F206C6F6E6720657874727573C8
:100B2000696F6E2070726576656E7465640020630F
:100B30006F6C6420657874727573696F6E20707263
:100B40006576656E746564006563686F3A000000E1
:100B50002110422063308440A550C660E7700881B0
:100B600029914AA16BB18CC1ADD1CEE1EFF1311227
:100B7000100273325222B5529442F772D662399300
:100B800018837BB35AA3BDD39CC3FFF3DEE3622477
:100B9000433420040114E664C774A44485546AA550
:100BA0004BB528850995EEE5CFF5ACC58DD5533607
:100BB000722611163006D776F6669556B4465BB7A0
:100BC0007AA719973887DFF7FEE79DD7BCC7C448D7
:100BD000E5588668A7784008611802282338CCC9F0
:100BE000EDD98EE9AFF9488969990AA92BB9F55A67
:100BF000D44AB77A966A711A500A333A122AFDDB40
:100C0000DCCBBFFB9EEB799B588B3BBB1AABA66C36
:100C1000877CE44CC55C222C033C600C411CAEED8F
:100C20008FFDECCDCDDD2AAD0BBD688D499D977E46
:100C3000B66ED55EF44E133E322E511E700E9FFFDF
:100C4000BEEFDDDFFCCF1BBF3AAF599F788F889195
:100C5000A981CAB1EBA10CD12DC14EF16FE1801079
:100C6000A100C230E3200450254046706760B9837C
:100C70009893FBA3DAB33DC31CD37FE35EF3B102C9
:100C80009012F322D2323542145277625672EAB58C
:100C9000CBA5A89589856EF54FE52CD50DC5E23419
:100CA000C324A01481046674476424540544DBA75C
:100CB000FAB79987B8975FE77EF71DC73CD7D32669
:100CC000F2369106B01657667676154634564CD9EC
:100CD0006DC90EF92FE9C899E9898AB9ABA94458B9
:100CE000654806782768C018E1088238A3287DCBBC
:100CF0005CDB3FEB1EFBF98BD89BBBAB9ABB754A09
:100D0000545A376A167AF10AD01AB32A923A2EFD4B
:100D10000FED6CDD4DCDAABD8BADE89DC98D267C58
:100D2000076C645C454CA23C832CE01CC10C1FEF9B
:100D30003EFF5DCF7CDF9BAFBABFD98FF89F176EA8
:100D4000367E554E745E932EB23ED10EF01E7C3C24
:100D50003E5E2B3D3F2F5B5D3B2C2A225C00205AE0
:100D60003A0020593A0020583A00656E6473746F57
:100D70007073206869743A200024F4D43050C38E14
:100D800020C2A24017828B7011127A910D816CD90A
:100D90000AA861E108C7586607615143061E4B5D0A
:100DA00005C145A7041A411104093D980371393161
:100DB000034036DB0265339102D4305402802E1D8D
:100DC00002632CEE01752AC501B028A0011027810D
:100DD000018F2564012B244B01E0223401AC211F3B
:100DE000018D200D01801FFC00841EED00971DDF8A
:100DF00000B81CD200E61BC600201BBC00641AB25F
:100E000000B219A8000A19A0006A189900D1179118
:100E10000040178B00B516840031167E00B315799B
:100E2000003A157300C7146F0058146A00EE136679
:100E3000008813630025135E00C7125B006C125715
:100E40000015125400C111510070114F0021114BB7
:100E500000D61049008D1047004610440002104291
:100E600000C00F4000800F3E00420F3C00060F3BC9
:100E700000CB0E3800930E37005C0E3500270E3481
:100E800000F30D3200C10D3100900D3000600D2EC9
:100E900000320D2D00050D2C00D90C2B00AE0C29B5
:100EA00000850C29005C0C2700350C27000E0C2651
:100EB00000E80B2400C40B2400A00B23007D0B23AF
:100EC000005A0B2100390B2100180B2000F80A1FD3
:100ED00000D90A1E00BB0A1E009D0A1D00800A1DC3
:100EE00000630A1C00470A1B002C0A1B00110A1A87
:100EF00000F7091A00DD091900C4091900AB091926
:100F000000920917007B091800630917004C0916A5
:100F10000036091600200916000A091500F5081503
:100F200000E0081400CC081400B8081400A4081449
:100F300000900813007D0812006B08130058081277
:100F4000004608120034081100230811001208118D
:100F50000001081100F0071000E0071000D0071092
:100F600000C0071000B0070F00A107100091070E86
:100F70000083070F0074070F0065070E0057070E68
:100F80000049070E003B070D002E070E0020070D3D
:100F90000013070D0006070D00F9060C00ED060D05
:100FA00000E0060C00D4060C00C8060C00BC060CC1
:100FB00000B0060C00A4060B0099060C008D060B71
:100FC0000082060B0077060B006C060B0061060A18
:100FD0000057060B004C060A0042060A0038060AB3
:100FE000002E060A0024060A001A060A0010060946
:100FF0000007060A00FD050900F4050900EB0509D4
:1010000000E2050900D9050900D0050900C7050956
:1010100000BE050900B5050800AD050800A50509D5
:10102000009C050800940508008C0508008405084C
:10103000007C050800740508006C050700650508BC
:10104000005D050700560508004E05070047050727
:10105000004005080038050700310507002A05078C
:1010600000230507001C050600160507000F0507ED
:10107000000805060002050700FB040600F504074A
:1010800000EE040600E8040600E2040700DB0406A4
:1010900000D5040600CF040600C9040600C30406F8
:1010A00000BD040600B7040600B1040500AC040648
:1010B00000A6040600A00405009B04060095040594
:1010C00000900406008A04050085040500800406DB
:1010D000007A04050075040500700405006B040522
:1010E0000066040500610405005C04050057040562
:1010F00000520405004D04050048040500430405A2
:10110000003E0404003A04050035040500300404E0
:10111000002C04050027040400230405001E040419
:10112000001A04040016040500110404000D040450
:1011300000090405000404040000040400FC030486
:1011400000F8030400F4030400F0030400EC0304BB
:1011500000E8030400E4030400E0030400DC0304EB
:1011600000D8030400D4030400D0030400CC03041B
:1011700000C8030300C503030024F404D9201BC4E2
:101180000C5C0E9804C4095F0265077101F405F94F
:1011900000FB04B30048048700C1036900580355ED
:1011A0000003034500BE023A008402310053022AC4
:1011B000002902250004022000E4011C00C80119D6
:1011C00000AF011700980114008401130071011091
:1011D000006101100051010E0043010D0036010BAA
:1011E000002B010B0020010B00150109000C010967
:1011F0000003010800FB000800F3000800EB0007F3
:1012000000E4000600DE000600D8000600D200065A
:1012100000CC000500C7000500C2000500BD0004A9
:1012200000B9000400B5000400B1000400AD0004E2
:1012300000A9000400A5000300A20003009F000411
:10124000009B000300980003009500020093000338
:1012500000900003008D0002008B00030088000254
:10126000008600020084000300810002007F00026B
:10127000007D0002007B000200790002007700017F
:10128000007600020074000200720001007100028A
:10129000006F0002006D0001006C0002006A000196
:1012A000006900020067000100660001006500019E
:1012B00000640002006200010061000100600001A2
:1012C000005F0002005D0001005C0001005B0001A6
:1012D000005A0001005900010058000100570001A8
:1012E00000560001005500010054000100530000A9
:1012F00000530001005200010051000100500001A4
:10130000004F0001004E0000004E0001004D0001A2
:10131000004C0001004B0000004B0001004A00019E
:10132000004900010048000000480001004700019A
:101330000046000000460001004500000045000195
:10134000004400010043000000430001004200008F
:101350000042000100410000004100010040000186
:10136000003F0000003F0001003E0000003E000181
:10137000003D0000003D0001003C0000003C00007A
:10138000003C0001003B0000003B0001003A00006F
:10139000003A000100390000003900010038000067
:1013A000003800000038000100370000003700015D
:1013B0000036000000360000003600010035000055
:1013C000003500000035000100340000003400004A
:1013D000003400010033000000330000003300013E
:1013E0000032000000320000003200010031000035
:1013F000003100000031000100300000003000002A
:1014000000300001002F0000002F0000002F00001E
:10141000002F0001002E0000002E0000002E000111
:10142000002D0000002D0000002D0000002D000107
:10143000002C0000002C0000002C0000002C0001FB
:10144000002B0000002B0000002B0000002B0001EF
:10145000002A0000002A0000002A0000002A0001E3
:1014600000290000002900000029000000290000D8
:1014700000290001002800000028000000280000CA
:1014800000280000002800010027000000270000BD
:1014900000270000002700000027000100260000B0
:1014A00000260000002600000026000000260001A3
:1014B0000025000000250000002500000025000098
:1014C0000025000000250001002400000024000089
:1014D000002400000024000000240001002300007C
:1014E0000023000000230000002300000023000070
:1014F0000023000000230001002200000022000061
:101500000022000000220000002200000022000152
:101510000021000000210000002100000021000047
:101520000021000000210000002100010020000037
:10153000002000000020000000200000002000002B
:10154000002000000020000000200001001F00001B
:10155000001F0000001F0000001F0000001F00000F
:10156000001F0000001F0001001E0000001E000000
:10157000001E0000001E0000006563686F3A003A1C
:101580002045787472756465722073776974636836
:101590006564206F66662E204D494E54454D50209F
:1015A0007472696767657265642021003A20457826
:1015B00074727564657220737769746368656420FA
:1015C0006F66662E204D415854454D502074726907
:1015D00067676572656420210054656D706572618E
:1015E0007475726520686561746564206265642045
:1015F0007377697463686564206F66662E204D4159
:101600005854454D5020747269676765726564204F
:10161000212100202D20496E76616C696420657857
:10162000747275646572206E756D6265722021003A
:10163000504944204175746F74756E652066696EFB
:101640006973686564212050757420746865204B47
:10165000702C204B6920616E64204B6420636F6E98
:101660007374616E747320696E746F20436F6E665D
:10167000696775726174696F6E2E68005049442005
:101680004175746F74756E65206661696C6564215F
:101690002074696D656F75740020403A006F6B208F
:1016A000543A006F6B20423A00504944204175740F
:1016B0006F74756E65206661696C65642120546580
:1016C0006D706572617475726520746F6F206869E2
:1016D000676800204B643A2000204B693A200020C4
:1016E0004B703A200020436C617369632050494479
:1016F00020002054753A2000204B753A2000206DC0
:1017000061783A2000206D696E3A200020643A200A
:101710000020626961733A20004572726F723A006C
:101720000000000018070100A80714003008280076
:10173000B8083C0038095000C0096400480A780025
:10174000C80A8C00480BA000C80BB400480CC800A5
:10175000C80CDC00400DF000C00D0401380E18016B
:10176000B00E2C01280F4001A00F54011810680181
:1017700088107C01001190013013F40148155802C3
:101780004017BC0228192003F01A8403A81CE803A0
:10179000401E4C045052494E54004D41544552494C
:1017A000414C004D41494E54454E414E4345005039
:1017B00072696E74696E6720776974682055534248
:1017C0002E2E2E00756C74696D616B65722E636FC1
:1017D0006D2F737570706F727400476F20746F3A5D
:1017E0000058206F722059207377697463682073E2
:1017F0007475636B0058206F722059207377697479
:1018000063682062726F6B656E005A20737769742B
:10181000636820737475636B005A2073776974630F
:10182000682062726F6B656E005361666574792023
:1018300063697263756974004865617465722065D7
:1018400072726F720054656D702073656E736F7283
:10185000204245440054656D702073656E736F724D
:10186000004552524F52202D2053544F5050454462
:1018700000801506060606FEFEFEFEFC00000000C7
:10188000000000FCFEFEFEFC0000000EFEFEFEFE60
:101890000000E0FCFEFEFCE0E0000000CECECE004A
:1018A0000000C0C0C0C0C0C08000000000000080B8
:1018B000C0C0800000000000008080C0C0C0C0C068
:1018C000C0C080800000000006FEFEFEFE0000009A
:1018D0000080C0C0C00000000000008080C0C0C008
:1018E00080808000000000C0C0C0C00080C0C0C0B8
:1018F000C08000000000007FFFFFFFFF80000000AD
:10190000000080FFFFFFFFFF00000000FFFFFFFF60
:10191000000000FFFFFFFF0000000000FFFFFF00CE
:10192000000081F1FFFF3F0F3FFFFCF0F0FCFF3FA5
:101930000F3FFFFEF880000000C1E1F1F1713101BD
:101940000183FFFFFFFC000000FFFFFFFF000C3ED4
:10195000FFFFF7C301000000FCFEFF8703113131D8
:10196000333F3F3F1E000001FFFFFFFF0703010160
:101970000101000000000000010307070F0F0F0F17
:101980000F0F0F0707070F0F06000000070F0F07C5
:10199000000000070F0F0700000000000F0F0F00EE
:1019A00000060F0F070100000001070F0F070100DD
:1019B000000001070F0F06000003070F0F0E0E06B1
:1019C0000703070F0F07000000070F0F07000000B5
:1019D00000030F0F0F060000000307070F0E0E0E87
:1019E0000E0E0E06000000000F0F0F0F000000008B
:1019F00000000043414E43454C00207365630020C6
:101A00006D696E0020686F75720020686F75727363
:101A100000000000000000005F0000000700070059
:101A2000147F147F14242A7F2A1223130864623639
:101A3000495522500005030000001C2241000041CE
:101A4000221C00082A1C2A0808083E0808005030FA
:101A50000000080808080800606000002010080462
:101A6000023E5149453E00427F4000426151494695
:101A70002141454B311814127F1027454545393C0B
:101A80004A49493001710905033649494936064931
:101A900049291E00363600000056360000000814A2
:101AA0002241141414141441221408000201510993
:101AB00006324979413E7E1111117E7F49494936EE
:101AC0003E414141227F4141221C7F494949417F9A
:101AD000090901013E414151327F0808087F004158
:101AE0007F41002040413F017F081422417F404058
:101AF00040407F0204027F7F0408107F3E41414145
:101B00003E7F090909063E4151215E7F0919294698
:101B1000464949493101017F01013F4040403F1F93
:101B20002040201F7F2018207F63140814630304C3
:101B3000780403615149454300007F414102040894
:101B4000102041417F000004020102044040404057
:101B500040000102040020545454787F4844443823
:101B60003844444420384444487F38545454180876
:101B70007E090102081454543C7F08040478004490
:101B80007D40002040443D00007F10284400417FFC
:101B900040007C041804787C0804047838444444E9
:101BA000387C14141408081414187C7C08040408E5
:101BB0004854545420043F4440203C4040207C1C66
:101BC0002040201C3C4030403C44281028440C500D
:101BD00050503C4464544C44000836410000007F9F
:101BE0000000004136080008082A1C08081C2A08C2
:101BF000084D3230312058333030302059333030B6
:101C000030205A31303020453130303030004D32C4
:101C1000303320583230302E303020593230302E90
:101C20003030205A31302E3030204534352E30308F
:101C3000004D3932205838302E3030205938302E6F
:101C40003030205A313636362E3636363720453249
:101C500038322E3030004D3230362058302E303071
:101C60002059302E3030205A302E303000627569C5
:101C70006C64706C6174652E006F662061646A75B7
:101C80007374696E6720796F7572007468726F750E
:101C90006768207468652070726F636573730049AC
:101CA0002077696C6C20677569646520796F7500B1
:101CB000434F4E54494E5545004D61782066656549
:101CC000647261746573005374657073207065721B
:101CD000206D6D004F7468657220616363656C618F
:101CE000726174696F6E73004E657720686F6D69FD
:101CF0006E67206F666673657400332F3231004360
:101D00004F4E54494E5545006765742061207769F0
:101D10007A6172642E005A2D556E6C696D69746516
:101D2000642C20796F750066697273742073746116
:101D300072747570207769746800426563617573A9
:101D40006520746869732069732074686500322F98
:101D5000323100434F4E54494E5545005A2D556E71
:101D60006C696D69746564206164642D6F6E210017
:101D7000556C74696D616B657220322057697468A7
:101D80000073746172747570206F6620796F75725C
:101D90000057656C636F6D6520746F2074686520F3
:101DA000666972737400312F323100434F4E5449CB
:101DB0004E5545004300432F00436C69636B20740C
:101DC0006F2072657475726E004275696C64706C18
:101DD0006174652074656D702E3A003F3F3F004688
:101DE0006163746F72792072657365740052756EE9
:101DF00074696D65207374617473005665727369DC
:101E00006F6E004D6F74696F6E2073657474696EC8
:101E100067730052657472616374696F6E207365D5
:101E20007474696E6773005365742066616E207305
:101E300070656564004D6F7665206D6174657269CB
:101E4000616C00496E73657274206D6174657269AE
:101E5000616C00486F6D65205A004D6F7665205AA1
:101E60002066617374004D6F7665205A00486F6D6F
:101E700065206865616400486561747570206275ED
:101E8000696C64706C61746500486561747570207C
:101E90006E6F7A7A6C65004C454420736574746982
:101EA0006E6773003C2052455455524E007A2D7592
:101EB0006E6C696D6974656420302E3100250043B5
:101EC00000432F004300432F0025003F3F3F0020E9
:101ED000476C6F77207768656E20646F6E650020B1
:101EE0004F6E207768696C65207072696E74696ED8
:101EF000670020416C77617973204F66660020414E
:101F00006C77617973204F6E004272696768746EF6
:101F1000657373003C2052455455524E00250025F0
:101F2000004272696768746E657373004C454400C3
:101F30004300432F00436C69636B20746F2072650C
:101F40007475726E004E6F7A7A6C652074656D7070
:101F5000657261747572653A00206D6D00436C693D
:101F6000636B20746F2072657475726E00526F74AB
:101F700061746520746F206D6F7665205A005A2059
:101F8000706F736974696F6E3A00206D6D00436CF9
:101F900069636B20746F2072657475726E00526F86
:101FA0007461746520746F206D6F7665205A005AD5
:101FB00020706F736974696F6E3A00473238205829
:101FC00030205930004300432F00436C69636B207D
:101FD000746F2072657475726E00526F74617465EF
:101FE00020746F2065787472756465004E6F7A7A1C
:101FF0006C652074656D70657261747572653A0008
:102000003F3F3F0052657472616374207370656571
:10201000640052657472616374206C656E677468E5
:10202000003C2052455455524E006D6D2F73656330
:10203000006D6D006D6D2F73656300526574726184
:102040006374207370656564006D6D005265747211
:10205000616374206C656E67746800524554524128
:102060004354494F4E003F3F3F0043757272656EC7
:102070007420450043757272656E74205A00437572
:102080007272656E7420582F59004D6178207370FC
:10209000656564205A004D61782073706565642021
:1020A00059004D6178207370656564205800582F81
:1020B00059204A65726B00416363656C6572617497
:1020C000696F6E003C2052455455524E006D4100E0
:1020D0006D41006D41006D6D2F736563006D6D2F57
:1020E000736563006D6D2F736563006D6D2F736590
:1020F00063006D6D2F7365635E32006D4100437543
:102100007272656E742045006D4100437572726590
:102110006E74205A006D410043757272656E7420B2
:10212000582F59006D6D2F736563004D61782073D2
:1021300070656564205A006D6D2F736563004D6195
:10214000782073706565642059006D6D2F73656329
:10215000004D61782073706565642058006D6D2FA7
:1021600073656300582F59204A65726B0030306DDB
:102170006D2F7365635E3200416363656C657261E8
:1021800074696F6E004D4F54494F4E007A2D756E35
:102190006C696D6974656420302E3100446563207C
:1021A000313520323031352031303A32323A303127
:1021B0000052657475726E006D00204D61743A00B6
:1021C0003A005072696E74696E673A003A004D6168
:1021D0006368696E65206F6E20666F723A005265A3
:1021E0007475726E00746F2064656661756C743FFF
:1021F0000052657365742065766572797468696EDE
:102200006700594553004E4F00250046616E20730C
:10221000706565640047312046256920582569208E
:10222000592569004732382058302059300047324C
:1022300038205A3000473238205830205930004179
:102240004456414E434544004255494C442D7C5030
:102250004C41544500414456414E4345440052458B
:102260005455524E0043504500435045004350459D
:102270000055504554004350450041425300504CD6
:1022800041006D6174657269616C20696E7365727D
:1022900074696F6E0048656174696E672070726959
:1022A0006E746865616420666F720047323820582A
:1022B0003020593000250046616E3A20004300432B
:1022C000002500466C6F773A006D6D004D41544516
:1022D0005249414C00636F6D6573206F75742074B3
:1022E0006865206E6F7A7A6C650057616974207436
:1022F000696C6C206D6174657269616C0052454156
:1023000044590043414E43454C00466F7277617219
:1023100064696E67206D6174657269616C006162E9
:102320006F766520746865206172726F772E007910
:102330006F7572206D616368696E652C0066726FDF
:102340006D20746865206261636B73696465206FDA
:102350006600496E73657274206E6577206D6174D6
:10236000657269616C0052454144590043414E43D6
:10237000454C0052656D6F7665206D6174657269BC
:10238000616C0052454144590043414E43454C0065
:10239000526576657273696E67206D6174657269E6
:1023A000616C00666F72206D6174657269616C208A
:1023B00072656D6F76616C0048656174696E672047
:1023C0007072696E746865616400473238205830F5
:1023D00020593000496D706F72742066726F6D20E5
:1023E0005344004578706F727420746F205344001A
:1023F000437573746F6D697A65003C20524554557E
:10240000524E004C6F61647320616C6C206D61747E
:10241000657269616C7300536176657320616C6CE1
:10242000206D6174657269616C73004D6F646966DB
:1024300079207468652073657474696E677300250C
:102440000046616E3A2000430043002500466C6F51
:10245000773A006D6D003F3F3F0053746F72652007
:1024600061732070726573657400466C6F77202508
:102470000046616E004469616D657465720048656F
:1024800061746564206275696C64706C6174650068
:1024900054656D7065726174757265003C205245BB
:1024A0005455524E00250025006D6D004300430039
:1024B0004E657720707265736574003C20524554F8
:1024C00055524E00505245534554530025004D611E
:1024D00074657269616C20666C6F770025004661D7
:1024E0006E207370656564006D6D004D617465727A
:1024F00069616C204469616D6574657200430042D6
:1025000075696C64706C6174652054656D702E0023
:10251000430054656D7065726174757265004D415C
:1025200054455249414C00696E204D415445524931
:10253000414C2E54585400746F20746865205344E5
:102540002063617264005361766564206D61746517
:102550007269616C73004F6B000A0A006469616DF7
:10256000657465723D000A00666C6F773D000A0075
:1025700066616E5F73706565643D000A0062656444
:102580005F74656D70657261747572653D000A00F7
:1025900074656D70657261747572653D000A006ED8
:1025A000616D653D005B6D6174657269616C5D0AAA
:1025B0000052656164696E6720636172642E2E2E1D
:1025C00000506C6561736520696E73657274206379
:1025D000617264004E6F2053442D434152442100E8
:1025E00066726F6D20746865205344206361726465
:1025F000004C6F61646564206D6174657269616C23
:1026000073004F6B006469616D6574657200666C80
:102610006F770066616E5F73706565640062656404
:102620005F74656D70657261747572650074656D57
:102630007065726174757265006E616D65005B6DC9
:102640006174657269616C5D00466F756E64206FC0
:102650006E20636172642E004E6F206578706F7219
:10266000742066696C650052656164696E672063F9
:102670006172642E2E2E00506C6561736520696E48
:10268000736572742063617264004E6F2053442D31
:1026900043415244210053656C6563746564206D49
:1026A0006174657269616C3A004F4B004D4154454D
:1026B0005249414C00473120462569205825692060
:1026C0005925690047323820583020593000434896
:1026D000414E47450053455454494E4753005245D7
:1026E0005455524E004300432F00436C69636B20E6
:1026F000746F2072657475726E004E6F7A7A6C65B5
:102700002074656D70657261747572653A005072FF
:1027100065706172696E6720746F207072696E7483
:102720003A0048656174696E672075702E2E2E0020
:1027300054554E450041424F5254004C45442042AE
:1027400072696768746E6573730052657472616351
:1027500074696F6E004D6174657269616C20666C9E
:102760006F770046616E207370656564004275691D
:102770006C64706C6174652074656D702E005465B6
:102780006D70657261747572650053706565640083
:1027900041626F7274003C2052455455524E0025E0
:1027A000002500250043004300430043002500416D
:1027B000626F727420746865207072696E743F0075
:1027C000594553004E4F003F3F3F005265747261C0
:1027D000637420737065656400526574726163741C
:1027E000206C656E677468003C2052455455524E0B
:1027F000006D6D2F736563006D6D006D6D2F7365DA
:10280000630052657472616374207370656564005F
:102810006D6D0052657472616374206C656E6774CF
:10282000680052455452414354494F4E00250042DE
:1028300072696768746E6573730025004D61746515
:102840007269616C20666C6F7700250046616E20AE
:1028500073706565640025005072696E7420737032
:102860006565640054554E450054696D65206C657E
:1028700066740054696D65206C65667420756E6BB6
:102880006E6F776E004300430048656174696E6740
:10289000206275696C64706C61746500430043006C
:1028A00048656174696E67005072696E74696E671D
:1028B0003A0054554E45005041555345005245533A
:1028C000554D457C5052494E54004348414E474572
:1028D0007C4D4154455249414C0054554E45004DA4
:1028E00038342058205920450047323820583020AD
:1028F000593000473120462569204530004739329C
:1029000020452569004D343031004D363031205896
:1029100035205935205A2569204C25690074686591
:10292000207072696E742E00596F752063616E207D
:1029300072656D6F7665005072696E742066696E9F
:102940006973686564004241434B20544F204D45F4
:102950004E550043004320005072696E746572202A
:10296000636F6F6C696E6720646F776E00424143DE
:102970004B20544F204D454E55006F6620707269B4
:102980006E74696E67206172656100547269656476
:10299000207072696E74696E67206F75740045529D
:1029A000524F523A0052455455524E20544F204DEA
:1029B00041494E00436F64653A0053442D63617290
:1029C00064210072656164696E67004572726F729E
:1029D000207768696C650052455455524E20544F1B
:1029E000204D41494E0066726F6D207468652073FA
:1029F0006C696365722E0073657474696E67207705
:102A00006974682073657474696E67006F766572A7
:102A100072696465206D616368696E6500546869F8
:102A2000732066696C652077696C6C00434F4E5467
:102A3000494E55450043414E43454C003C204241E0
:102A4000434B003C2052455455524E0053442043C2
:102A50004152440047312046313230303020583521
:102A60002059313000473238003B464C41564F52D6
:102A70003A556C746947436F6465003B464C415658
:102A80004F523A556C746947436F6465004E6F202E
:102A900066696C657320666F756E6421004F4B002C
:102AA0004F4B0052656164696E6720636172642EEA
:102AB0002E2E00506C6561736520696E73657274AB
:102AC0002063617264004E6F2053442D4341524491
:102AD00021004E6F20696E666F20617661696C61BE
:102AE000626C65006D006D004D6174657269616CAA
:102AF0003A200054696D653A20003B4D41544552DF
:102B000049414C3A003B54494D453A00466F6C648C
:102B100065720000000A0B02090C0D0E0807030481
:102B200001000000000000000000000000000000A4
:102B30000000000000000000000000000000001283
:102B40001110000000000000000000000000000064
:102B50000000000000000000000102102020080812
:102B600010204010204080020102010804020101EF
:102B700002040810204080804020100804020180D8
:102B8000040201804020100804020108040201012F
:102B90000204081020408001020408102040800533
:102BA000050505070508080808020202020A0A08C6
:102BB00008040404040101010101010101030303EC
:102BC0000303030303040707070C0C0C0C0C0C0C89
:102BD0000C0202020206060606060606060B0B0B90
:102BE0000B0B0B0B0B00002200250028002B002EE6
:102BF000003100340002010000050108010B010052
:102C0000002100240027002A002D0030003300019D
:102C1000010000040107010A014E414E494E49548A
:102C200059494E46CDCCCC3D0AD7233C17B7D138B5
:102C300077CC2B329595E6241FB14F0A0000204136
:102C40000000C84200401C4620BCBE4CCA1B0E5AA5
:102C5000AEC59D74F55111C9065211241FBECFEFA8
:102C6000D1E2DEBFCDBF00E00CBF14E0A0E0B2E0D7
:102C7000E0E8FFEA01E00BBF02C007900D92AC3222
:102C8000B107D9F72AE1ACE2B4E001C01D92A73A3E
:102C9000B207E1F71CE2C8E5DCE200E006C02297DB
:102CA0000109FE010BBF0E94A0D0C435D10780E00E
:102CB0000807A9F70E946ACB0C94AFD70C940000C8
:102CC000FC0114821782138212828AEB93E09183B3
:102CD000808308952AEB33E0FC0131832083278130
:102CE000222319F004960C94156D0895CF92DF926B
:102CF000EF92FF920F931F93CF93DF93EC01C19656
:102D0000DFDFCE018E5A9F4FDBDF7E0121E7E20E2F
:102D1000F11C87016E0139E5C31A3EEFD30AC801E1
:102D2000CFDF015E1F4F0C151D05C9F7FE01E755EA
:102D3000FE4F89E1818314823596178ACE01845330
:102D40009E4FBEDFFE01E551FE4F108211821282BE
:102D50001382389610821182128213821A821B8289
:102D600018AA188219826E0181E1C81A8EEFD80A5A
:102D7000F6011082118212821382F801108286E31A
:102D800091E0F7019C01119221503040E1F7FE01E2
:102D9000E950FE4F81E080831FA61EA60E9477C9DE
:102DA00068577C4E8F4F9F4FF601608371838283FB
:102DB0009383DF91CF911F910F91FF90EF90DF9060
:102DC000CF900895FC0120E03EE2DB014C914032BF
:102DD00041F0283011F430833196DB014C9140836F
:102DE00031962F5F6F5F7F4F2B3079F710820895F8
:102DF0003F924F925F926F927F928F929F92AF928B
:102E0000BF92CF92DF92EF92FF920F931F93CF93D7
:102E1000DF93CDB7DEB7C758D1090FB6F894DEBF40
:102E20000FBECDBF8C016B017A01312C84E0E80E1E
:102E3000F11C2801E2E14E0E511C5801F8E0AF1AD6
:102E4000FEEFBF0A480186E0881A8EEF980A80E4F8
:102E5000682E712C6C0E7D1EE4E06E0E711CA201BA
:102E6000BE016F5F7F4FC7010E947F6B18160CF089
:102E700021C12C85322F3871303109F09CC0F50109
:102E8000808191810197029708F495C0BE016F5F20
:102E90007F4FCE0187589F4F95DFA0961FAEA0971A
:102EA000F6018081811107C069EA72E0CE01815A82
:102EB0009F4F0E9447D4B601CE01815A9F4F0E9476
:102EC00047D4BE0167587F4FCE01815A9F4F0E9461
:102ED00047D469EA72E0CE01815A9F4F0E9447D4DD
:102EE000CE01805C9F4FECDE21E0AE0147585F4F82
:102EF000B701C3010E940C6F811139C0F5018081B7
:102F00009181892BA1F5E5E4F3E08491882341F0D8
:102F10009091C00095FFFCCF8093C6003196F5CF0D
:102F2000EBEAF2E08191882339F09091C00095FF9F
:102F3000FCCF8093C600F6CF8091C00085FFFCCF08
:102F40008AE08093C600FE01E758FF4F81918823F5
:102F500039F09091C00095FFFCCF8093C600F6CF6A
:102F60008091C00085FFFCCF8AE08093C6008BE192
:102F7000FE01EC5BFF4FDE01959601900D928A9564
:102F8000E1F724968EAD9FAD24979CA38BA38AEB8B
:102F900093E09AA389A3AE014F5D5F4FBE01615AD2
:102FA0007F4FC80125DFCE01819694DECE01805C83
:102FB0009F4F90DE54CF8981882309F47BC0853EE2
:102FC00009F44DCF8E3209F44ACF8F3509F447CF3B
:102FD000F8018289882331F08E3209F440CF8F3591
:102FE00009F43DCF23FD3BCF81E0303109F080E093
:102FF000F80185A7811108C08985873409F02FCF92
:103000008A858E3709F42BCF98012B5F3F4FBE0185
:103010006F5F7F4FC901CA57DF4F2883C658D04022
:10302000C957DF4F3883C758D040CCDEF5018081C7
:103030009181CA57DF4F2881C658D040C957DF4F0A
:103040003881C758D0400097F1F4F6018191882368
:1030500039F09091C00095FFFCCF8093C600F6CF69
:10306000F9018191882339F09091C00095FFFCCF40
:103070008093C600F6CF8091C00085FFFCCF8AE028
:103080008093C600ECCE8130910539F4F401808143
:103090009181019691838083E2CE029709F0DFCE81
:1030A000232D30E0F401808191812817390711F038
:1030B0003394D5CEC957DF4F0FB6F894DEBF0FBE9D
:1030C000CDBFDF91CF911F910F91FF90EF90DF90D7
:1030D000CF90BF90AF909F908F907F906F905F90B8
:1030E0004F903F900895EF92FF920F931F93CF93CD
:1030F000DF93CDB7DEB76F970FB6F894DEBF0FBE84
:10310000CDBF8C01FC01E850FE4F118210827C0182
:1031100085E3E80EF11C40E050E0BA01C7010E94CF
:10312000326C8BE1F701DE01159601900D928A95C4
:10313000E1F7F80183A994A99C838B838AEB93E040
:103140009A838983AE014F5F5F4F61ED73E0C801E1
:103150004FDECE010196BEDD6F960FB6F894DEBF4E
:103160000FBECDBFDF91CF911F910F91FF90EF90D8
:1031700008952BE1FB013496DC01149601900D9229
:103180002A95E1F7FB0122813381FC0133832283FD
:103190000895EF92FF920F931F93CF93DF93EC016B
:1031A00018AA88AD882321F0CE01C5960E94156D1E
:1031B0007E0187E5E81A8EEFF80A45E360E0C70173
:1031C0000E94506781111FC0E5E4F3E084918823D9
:1031D00041F09091C00095FFFCCF8093C6003196DE
:1031E000F5CFE8E3F3E08491882341F09091C000AB
:1031F00095FFFCCF8093C6003196F5CF8091C0003B
:1032000085FFFCCF76C08E0102551E4F41E0B7010D
:10321000C8010E940B75811126C040E0B701C801AA
:103220000E940B7581111FC0EBE4F3E084918823A9
:1032300041F09091C00095FFFCCF8093C60031967D
:10324000F5CFE5E2F3E08491882341F09091C0004E
:1032500095FFFCCF8093C6003196F5CF8091C000DA
:1032600085FFFCCF46C0B801CE01C5960E94BF695C
:1032700081111FC0EBE4F3E08491882341F0909129
:10328000C00095FFFCCF8093C6003196F5CFE5E1F5
:10329000F3E08491882341F09091C00095FFFCCF2A
:1032A0008093C6003196F5CF8091C00085FFFCCF9A
:1032B00020C081E088ABE5E4F3E08491882341F00D
:1032C0009091C00095FFFCCF8093C6003196F5CF5A
:1032D000EAE0F3E08491882341F09091C00095FFEB
:1032E000FCCF8093C6003196F5CF8091C00085FF5A
:1032F000FCCF8AE08093C6008E010F5C1F4FB8019F
:10330000CE018E5A9F4F35DFC05BDF4F1983088394
:10331000DF91CF911F910F91FF90EF9008950F9340
:103320001F93CF93DF93EC018C010E5A1F4FBC010A
:103330006F5C7F4FC8011DDFC05BDF4F19830883BF
:10334000DF91CF911F910F910895FC01128213829A
:1033500010AA0895FC0180A9882319F081E08283D6
:10336000138208952F923F924F925F926F927F92B5
:103370008F929F92AF92BF92CF92DF92EF92FF9285
:103380000F931F93CF93DF93CDB7DEB7AD970FB6F3
:10339000F894DEBF0FBECDBF7C016B014DA7FC01D1
:1033A00080A9882309F4A5C14701F0E38F1AFEEF35
:1033B0009F0AC4010E94156DF70112821382CE018B
:1033C00001965C017DDC170190E5290E311CC701D7
:1033D000C196F10191838083F60180818F3209F0DB
:1033E00081C06FE270E0C6010E9452D48C010F5F71
:1033F0001F4F0230110508F47BC06FE270E0C80176
:103400000E9452D42C01009709F473C008171907C1
:1034100008F06FC03C01601A710AA301B801CE0127
:1034200080960E9472D4E0E2F0E0EC0FFD1FE60D02
:10343000F71D1082FE01B0968191882339F090919A
:10344000C00095FFFCCF8093C600F6CF8091C000EE
:1034500085FFFCCFFAE0F093C600F1016081718135
:103460006115710519F06C5F7F4F02C060E070E07C
:1034700021E0AE01405E5F4FCE0105960E940C6FC9
:1034800081112BC0E6EFF2E08491882341F0909106
:10349000C00095FFFCCF8093C6003196F5CFFE01AA
:1034A000B0968191882339F09091C00095FFFCCFB0
:1034B0008093C600F6CFE4EFF2E08491882341F0D8
:1034C0009091C00095FFFCCF8093C6003196F5CF58
:1034D0008091C00085FFFCCF07C1F101B182A082BD
:1034E000820185CFC7018E5A9F4FF101918380835E
:1034F0008601FDA5FF2309F49CC0F1016081718163
:103500006115710519F06C5F7F4F02C060E070E0DB
:1035100021E0A801C4010E940C6F882309F45FC058
:10352000F40181899289A389B489F701E551FE4F9D
:1035300080839183A283B383E6EEF2E08491D70186
:10354000A551BE4F882349F09091C00095FFFCCF54
:103550008093C60031968491F5CFF801819188233C
:1035600039F09091C00095FFFCCF8093C600F6CF54
:10357000EEEDF2E08491882341F09091C00095FF38
:10358000FCCF8093C6003196F5CF4D915D916D9142
:103590007C912AE030E086EA9CE00E948253809190
:1035A000C00085FFFCCF8AE08093C600F701ED5094
:1035B000FE4F1082118212821382E0EDF2E08491BC
:1035C000882341F09091C00095FFFCCF8093C60006
:1035D0003196F5CF8091C00085FFFCCF85C0ECEB24
:1035E000F2E08491882341F09091C00095FFFCCFD8
:1035F0008093C6003196F5CFF8018191882339F088
:103600009091C00095FFFCCF8093C600F6CFEAEB07
:10361000F2E08491882341F09091C00095FFFCCFA7
:103620008093C6003196F5CF8091C00085FFFCCF16
:103630005BC0F101608171816115710519F06C5FEA
:103640007F4F02C060E070E026E5A801C4010E943F
:103650000C6F81112AC0E6EAF2E08491882341F0E0
:103660009091C00095FFFCCF8093C6003196F5CFB6
:10367000F8018191882339F09091C00095FFFCCF2B
:103680008093C600F6CFE4EAF2E08491882341F00B
:103690009091C00095FFFCCF8093C6003196F5CF86
:1036A0008091C00085FFFCCF1FC081E0F7018083BF
:1036B000E2E9F2E08491882341F09091C00095FF07
:1036C000FCCF8093C6003196F5CFF6018191882317
:1036D00039F09091C00095FFFCCF8093C600F6CFE3
:1036E0008091C00085FFFCCF8AE08093C600C501B1
:1036F000F1DAAD960FB6F894DEBF0FBECDBFDF9105
:10370000CF911F910F91FF90EF90DF90CF90BF90DE
:10371000AF909F908F907F906F905F904F903F9071
:103720002F90089521E0FC01218340E01BCE3F92C1
:103730004F925F926F927F928F929F92AF92BF92C1
:10374000CF92DF92EF92FF920F931F93CF93DF936D
:10375000CDB7DEB7AC970FB6F894DEBF0FBECDBFC6
:103760007C015B01FC0180A9882309F401C1C70128
:1037700080539E4F0E94156DF70112821382CE0175
:1037800001966C019DDA270190E5490E511CC70195
:10379000C196F20191838083F50180818F3209F017
:1037A00084C06FE270E0C5010E9452D48C010F5FAB
:1037B0001F4F9AE0392E0115110509F47CC06FE204
:1037C00070E0C8010E9452D44C01009709F474C003
:1037D0000817190708F070C03C01601A710AA301AC
:1037E000B801CE0180960E9472D4E0E2F0E0EC0FC6
:1037F000FD1FE60DF71D1082FE01B0968191882312
:1038000039F09091C00095FFFCCF8093C600F6CFB1
:103810008091C00085FFFCCF3092C600F20160812C
:1038200071816115710519F06C5F7F4F02C060E016
:1038300070E021E0AE01405E5F4FCE0105960E9430
:103840000C6F81112BC0EEE7F2E08491882341F0E8
:103850009091C00095FFFCCF8093C6003196F5CFC4
:10386000FE01B0968191882339F09091C00095FFB8
:10387000FCCF8093C600F6CFECE7F2E0849188237A
:1038800041F09091C00095FFFCCF8093C600319627
:10389000F5CF8091C00085FFFCCF65C0F201D182D9
:1038A000C08284010F5F1F4F86CFC7018E5A9F4F82
:1038B000F201918380838501F201808191810097DB
:1038C00011F0049602C080E090E0B8010E94E26F1F
:1038D000882301F1EEE6F2E08491882341F0909193
:1038E000C00095FFFCCF8093C6003196F5CFF8015C
:1038F0008191882339F09091C00095FFFCCF80938F
:10390000C600F6CFF701ED50FE4F108211821282F1
:1039100013822CC0E6E5F2E08491882341F0909177
:10392000C00095FFFCCF8093C6003196F5CFF8011B
:103930008191882339F09091C00095FFFCCF80934E
:10394000C600F6CFE4E5F2E08491882341F090913F
:10395000C00095FFFCCF8093C6003196F5CF8091D3
:10396000C00085FFFCCF8AE08093C600C601B2D9B3
:10397000AC960FB6F894DEBF0FBECDBFDF91CF91EE
:103980001F910F91FF90EF90DF90CF90BF90AF907D
:103990009F908F907F906F905F904F903F90089591
:1039A000CF93DF93EC0188A9882309F439C0E2E4BE
:1039B000F2E08491882341F09091C00095FFFCCF04
:1039C0008093C6003196F5CFFE01ED50FE4F408149
:1039D0005181628173812AE030E086EA9CE00E9496
:1039E0008253E0E4F2E08491882341F09091C0009A
:1039F00095FFFCCF8093C6003196F5CFFE01E551CF
:103A0000FE4F40815181628173812AE030E086EA75
:103A10009CE00E9482538091C00085FFFCCF11C0C2
:103A2000E0E3F2E08491882341F09091C00095FF9B
:103A3000FCCF8093C6003196F5CF8091C00085FF02
:103A4000FCCF8AE08093C600C655DE4F888188236C
:103A5000E1F0E4E2F2E08491882341F09091C0002B
:103A600095FFFCCF8093C6003196F5CF688170E05A
:103A70004AE050E086EA9CE00E9456538091C000E4
:103A800085FFFCCF8AE08093C600DF91CF91089537
:103A9000AF92BF92CF92DF92EF92FF920F931F935C
:103AA000CF93DF935C01EB01FB0101900020E9F76C
:103AB0008F0101501109061B170B6C01F0E3CF1A9F
:103AC000FEEFDF0AF60110826EE470E0CE010E9484
:103AD00052D47C01009729F4F8013197EC0FFD1FB7
:103AE0000DC060E270E00E9452D4EC0121966AE2BF
:103AF00070E0C7010E9452D4FC0131978DE08183B0
:103B00008AE082831382BE01C50184539E4F0E94C6
:103B1000A871F6018081882309F1EBE4F3E0849138
:103B2000882341F09091C00095FFFCCF8093C600A0
:103B30003196F5CFEEE0F2E08491882341F0909148
:103B4000C00095FFFCCF8093C6003196F5CF8091E1
:103B5000C00085FFFCCF8AE08093C600DF91CF9143
:103B60001F910F91FF90EF90DF90CF90BF90AF909B
:103B70000895CF93DF93EC0184539E4F0E94A87168
:103B8000C053DE4F8881DF91CF9108952F923F92ED
:103B90004F925F926F927F928F929F92AF92BF925D
:103BA000CF92DF92EF92FF920F931F93CF93DF9309
:103BB000CDB7DEB7CC55D1090FB6F894DEBF0FBE36
:103BC000CDBF8C0189509E4F5C01662339F0F50111
:103BD0001082F80180A981111DC015C0FC018081EF
:103BE000882309F4B1C0F801E151FE4FC080D180B3
:103BF000E280F3800E9477C9C616D706E806F90668
:103C000008F4A2C0E4CFC801C4DAF80180A988236F
:103C100009F49AC0F80187A58F9386A58F9385E054
:103C200092E09F938F937E01FFE3EF0EF11CFF92D2
:103C3000EF920E94A9D40F900F900F900F900F90C9
:103C40000F90B12CF70101900020E9F73197EE19A0
:103C5000FF09BE1684F46701CB0CD11CB7FCDA94C3
:103C6000F6018081992787FD90950E94ABD3F601DC
:103C70008083B394E7CF4801F5E38F0E911C40E0B9
:103C800050E0BA01C4010E94326C512CCE01019661
:103C90006C012EEF622E21E0722E5E0191E2A90EE0
:103CA000B11C40E050E0B601C4010E947F6B1816C1
:103CB000DCF5412CF60101900020E9F73197EC1971
:103CC000FD094E1674F41601240C311C47FC3A947D
:103CD000F101808190E00E94ABD3F1018083439495
:103CE000E9CF8A858E37E9F245E050E0B701C60199
:103CF0000E9464D4892BA9F6FF92EF927F926F9273
:103D0000BF92AF920E94A9D4C5010E94AB2B8AEF4B
:103D100091E00E941E2C0F900F900F900F900F902B
:103D20000F9055245394BDCF511004C08FEF9FEFD7
:103D3000F80104C0F80186A597A5019697A786A764
:103D4000F801E655FE4F1082C45ADF4F0FB6F894C3
:103D5000DEBF0FBECDBFDF91CF911F910F91FF90BE
:103D6000EF90DF90CF90BF90AF909F908F907F901B
:103D70006F905F904F903F902F9008950F931F93F7
:103D8000CF93DF93EC018C0100531E4FC8010E94BA
:103D9000CB6CC8010E94156D18821982DF91CF91FA
:103DA0001F910F910895EF92FF920F931F93CF935E
:103DB000DF93CDB7DEB76F970FB6F894DEBF0FBEB7
:103DC000CDBF8C017C0180E5E80EF11CC8018E5A44
:103DD0009F4FF70191838083E855FE4F22E030E04A
:103DE00031832083329670E07183608340E050E03D
:103DF000BA0104960E94326CF701808191812BE117
:103E0000FC013496DE01159601900D922A95E1F79A
:103E1000FC01828193819C838B838AEB93E09A835C
:103E20008983AE014F5F5F4F61ED73E0C8010E946F
:103E3000F816CE0101960E946A166F960FB6F89496
:103E4000DEBF0FBECDBFDF91CF911F910F91FF90CD
:103E5000EF900895CF92DF92EF92FF920F931F930E
:103E6000CF93DF93CDB7DEB76F970FB6F894DEBF71
:103E70000FBECDBF8C016C0120E5C20ED11C8E5A45
:103E80009F4FF60191838083E855FE4F21E030E09B
:103E9000318320837801F6E0EF1AFEEFFF0AF70185
:103EA0001182108240E050E0BA0104960E94326C08
:103EB000F601808191812BE1FC013496DE0115969B
:103EC00001900D922A95E1F7FC01828193819C83F8
:103ED0008B838AEB93E09A838983AE014F5F5F4FB8
:103EE00061ED73E0C8010E94F816CE0101960E94B0
:103EF0006A16F701808191816F960FB6F894DEBF44
:103F00000FBECDBFDF91CF911F910F91FF90EF902A
:103F1000DF90CF9008954F925F926F927F928F9231
:103F20009F92AF92BF92CF92DF92EF92FF920F9348
:103F30001F93CF93DF93CDB7DEB76F970FB6F8948B
:103F4000DEBF0FBECDBF8C017B01CE0101960E946A
:103F50006016F801E75AFF4F80816801811104C0A3
:103F600081E3C80ED11C03C092E5C90ED11C21E02B
:103F7000A701B6016C5F7F4FCE0105960E940C6FC2
:103F800081112DC0E5E4F3E08491882341F0909104
:103F9000C00095FFFCCF8093C6003196F5CFE4EECC
:103FA000F1E08491882341F09091C00095FFFCCF0F
:103FB0008093C6003196F5CFF7018191882339F0BF
:103FC0009091C00095FFFCCF8093C600F6CF809102
:103FD000C00085FFFCCF8AE08093C60038C0F8019E
:103FE000E955FE4F80818A3058F58F5F8083A82E77
:103FF000B12C38019FE1899F600C711C1124E12CC8
:10400000F12C412C512C430182E5880E911C91E743
:10401000690E711CA414B50471F0B4016E0D7F1DFE
:10402000C3018E0D9F1DA5D88FEF481A580A9FE136
:10403000E91AF108EFCFB601C8018F589F4F99D800
:10404000BE016F5F7F4FC8018E5A9F4F92D8CE013D
:1040500001960E946A166F960FB6F894DEBF0FBEE7
:10406000CDBFDF91CF911F910F91FF90EF90DF9027
:10407000CF90BF90AF909F908F907F906F905F9008
:104080004F900895EF92FF920F931F93CF93DF937A
:10409000EC018C0109551E4FF8018081882349F1FC
:1040A00081508083BE016F587F4FCE018E5A9F4F43
:1040B00060D8F12C3FE1E32EF8018081F816C8F4B6
:1040C0002F2D30E0C9010196E89EB001E99E700DE8
:1040D00011246F587F4F6C0F7D1FE29EC001E39E3D
:1040E000900D11248F589F4F8C0F9D1F42D8F39431
:1040F000E3CFDF91CF911F910F91FF90EF90089543
:10410000CF93DF93EC010E946E7D0E94DE7DCE0195
:1041100080539E4F0E94156D1A821B828AED91E09A
:10412000DF91CF910C941E2CEF92FF920F931F936F
:10413000CF93DF931F92CDB7DEB78C017B01460F83
:10414000F70161917F01F8018081918149830E948B
:10415000F0D6F80180819181019691838083498115
:104160004E11EECF0F90DF91CF911F910F91FF90E5
:10417000EF900895EF92FF920F931F93CF93DF93E9
:104180001F92CDB7DEB78C017B01460FF80180810D
:10419000918149830E94D5D6F70181937F01F8016F
:1041A0008081918101969183808349814E11EECF68
:1041B0000F90DF91CF911F910F91FF90EF90089595
:1041C0000F931F93CF93DF93CDB7DEB766970FB6EC
:1041D000F894DEBF0FBECDBF80E390E3A0E3B0E074
:1041E0008D839E83AF83B88704E610E01E8B0D8B12
:1041F00044E0BE016B5F7F4FCE01459695DF40E105
:1042000065E672E1CE0145968FDF40E165E772E138
:10421000CE01459689DF40E161E572E1CE01459628
:1042200083DF44E069E472E1CE0145967DDF44E03E
:1042300065E472E1CE01459677DF44E06DE472E11A
:10424000CE01459671DF44E065E372E1CE0145960B
:104250006BDF44E065E872E1CE01459665DF44E03E
:1042600061E472E1CE0145965FDF44E06DE372E107
:10427000CE01459659DF44E069E372E1CE014596EF
:1042800053DF4CE066E87AE0CE0145964DDF84EBE3
:1042900090E09C8B8B8B86E490E09A8B898B188ABC
:1042A0001F8680EF90E09E878D871C870B871A867C
:1042B000198642E0BE016D5E7F4FCE01459634DF28
:1042C00042E0BE016F5E7F4FCE0145962DDF42E09A
:1042D000BE01615F7F4FCE01459626DF42E0BE0101
:1042E000635F7F4FCE0145961FDF42E0BE01655FF1
:1042F0007F4FCE01459618DF42E0BE01675F7F4FDA
:10430000CE01459611DF44E063E672E0CE014596AA
:104310000BDF44E06FE572E0CE01459605DF44E037
:104320006BE572E0CE014596FFDE46E069E472E09F
:10433000CE014596F9DE41E06FE672E0CE0145968A
:10434000F3DE41E06DE275E1CE014596EDDE44E03D
:104350006BE172E0CE014596E7DE44E067E172E092
:10436000CE014596E1DE86E591E3A1E3B0E08983E5
:104370009A83AB83BC831E8B0D8B44E0BE016F5FC1
:104380007F4FCE014596D0DEEBE6F5E084918823A1
:1043900041F09091C00095FFFCCF8093C60031960C
:1043A000F5CFEBE5F5E08491882341F09091C000D2
:1043B00095FFFCCF8093C6003196F5CF8091C00069
:1043C00085FFFCCF8AE08093C60066960FB6F8940E
:1043D000DEBF0FBECDBFDF91CF911F910F9108952A
:1043E000CF93DF93CBE6D5E0FE018491882341F0A3
:1043F0009091C00095FFFCCF8093C6003196F5CF19
:10440000EBE4F5E08491882341F09091C00095FFA2
:10441000FCCF8093C6003196F5CF8091C00085FF18
:10442000FCCF8AE08093C600FE018491EBE6F5E0C4
:10443000882349F09091C00095FFFCCF8093C6007F
:1044400031968491F5CF409165125091661260913A
:1044500067127091681283E495E00E944F2B40919F
:10446000691250916A1260916B1270916C1280E423
:1044700095E00E944F2B40916D1250916E12609109
:104480006F12709170128DE395E00E944F2B409156
:1044900071125091721260917312709174128AE3CA
:1044A00095E00E944F2B8091C00085FFFCCF8AE0F1
:1044B0008093C600FE018491EBE6F5E0882349F085
:1044C0009091C00095FFFCCF8093C60031968491F7
:1044D000F5CFE0E2F5E08491882341F09091C000AF
:1044E00095FFFCCF8093C6003196F5CF8091C00038
:1044F00085FFFCCF8AE08093C600FE018491EBE645
:10450000F5E0882349F09091C00095FFFCCF80939F
:10451000C60031968491F5CF409175125091761274
:10452000609177127091781287E195E00E944F2B8D
:104530004091791250917A1260917B1270917C12A5
:1045400084E195E00E944F2B40917D1250917E12A4
:1045500060917F127091801281E195E00E944F2B53
:104560004091811250918212609183127091841255
:104570008EE095E00E944F2B8091C00085FFFCCF1C
:104580008AE08093C600FE018491EBE6F5E0882383
:1045900049F09091C00095FFFCCF8093C600319602
:1045A0008491F5CFE0EFF4E08491882341F090917D
:1045B000C00095FFFCCF8093C6003196F5CF809167
:1045C000C00085FFFCCF8AE08093C600FE01849185
:1045D000EBE6F5E0882349F09091C00095FFFCCF11
:1045E0008093C60031968491F5CF4091511250913D
:1045F0005212609153127091541287EE94E00E940F
:10460000612B409155125091561260915712709142
:10461000581284EE94E00E94612B409159125091FF
:104620005A1260915B1270915C1281EE94E00E94CC
:10463000612B40915D1250915E1260915F127091FA
:1046400060128EED94E00E94612B8091C00085FF86
:10465000FCCF8AE08093C600FE018491EBE6F5E092
:10466000882349F09091C00095FFFCCF8093C6004D
:1046700031968491F5CFE9EAF4E08491882341F002
:104680009091C00095FFFCCF8093C6003196F5CF86
:104690008091C00085FFFCCF8AE08093C600FE01B8
:1046A0008491EBE6F5E0882349F09091C00095FFF6
:1046B000FCCF8093C60031968491F5CF409149128A
:1046C00050914A1260914B1270914C1280EA94E022
:1046D000E6D7409145125091461260914712709171
:1046E00048128DE994E0DBD78091C00085FFFCCFB4
:1046F0008AE08093C600FE018491EBE6F5E0882312
:1047000049F09091C00095FFFCCF8093C600319690
:104710008491F5CFEAEEF3E08491882341F0909103
:10472000C00095FFFCCF8093C6003196F5CF8091F5
:10473000C00085FFFCCF8AE08093C600FE01849113
:10474000EBE6F5E0882349F09091C00095FFFCCF9F
:104750008093C60031968491F5CF40914D125091CF
:104760004E1260914F127091501281EE93E097D7E4
:104770004091351250913612609137127091381273
:104780008EED93E08CD74091851250918612609106
:104790008712709188128BED93E093D7409141126C
:1047A00050914212609143127091441288ED93E04F
:1047B00076D740913D1250913E1260913F12709118
:1047C000401285ED93E06BD74091391250913A1227
:1047D00060913B1270913C1282ED93E060D7809122
:1047E000C00085FFFCCF8AE08093C600FE01849163
:1047F000EBE6F5E0882349F09091C00095FFFCCFEF
:104800008093C60031968491F5CFE0ECF3E084917B
:10481000882341F09091C00095FFFCCF8093C600A3
:104820003196F5CF8091C00085FFFCCF8AE0809360
:10483000C600FE018491EBE6F5E0882349F09091F3
:10484000C00095FFFCCF8093C60031968491F5CFD0
:104850004091860A5091870A6091880A7091890A6E
:1048600087EB93E01CD740918A0A50918B0A6091A4
:104870008C0A70918D0A84EB93E011D740918E0AD7
:1048800050918F0A6091900A7091910A81EB93E0A8
:1048900006D78091C00085FFFCCF8AE08093C600D8
:1048A000FE018491EBE6F5E0882349F09091C00089
:1048B00095FFFCCF8093C60031968491F5CFE3EA53
:1048C000F3E08491882341F09091C00095FFFCCFE4
:1048D0008093C6003196F5CF8091C00085FFFCCF54
:1048E0008AE08093C600FE01C491EBE6F5E0CC239C
:1048F00049F08091C00085FFFCCFC093C60031967F
:10490000C491F5CF409163025091640260916502B9
:104910007091660289E993E0C2D660915F0270915E
:10492000600280916102909162020E947089AB01E5
:10493000BC0186E993E0B3D660915B0270915C02A2
:1049400080915D0290915E020E947C89AB01BC0166
:1049500083E993E0A4D68091C00085FFFCCF8AE074
:104960008093C600DF91CF910895AF92BF92CF920E
:10497000DF92EF92FF920F931F93CF93DF93CDB708
:10498000DEB7E0970FB6F894DEBF0FBECDBF80E173
:10499000E0E7F2E0DE01919601900D928A95E1F751
:1049A00080E1E0E8F2E0DE01519601900D928A95F7
:1049B000E1F780E1E0E9F2E0DE01119601900D926D
:1049C0008A95E1F76E0181E2C80ED11C85E6E82EDA
:1049D00082E1F82E8E010F5E1F4F65E772E1AE0196
:1049E0004F5F5F4F91E5A92E92E1B92E20E030E0B4
:1049F000F60181919191A191B1916F01F70181939C
:104A00009193A193B1937F01F80181919191A1912B
:104A1000B1918F01FB0181939193A193B193BF0158
:104A2000FA0181919191A191B191AF01F501819329
:104A30009193A193B1935F012F5F3F4F24303105D4
:104A4000B9F60E94FB6580E090E0AAE7B4E48093A9
:104A5000491290934A12A0934B12B0934C1280E0EB
:104A600090E8ABE3B5E48093451290934612A0938F
:104A70004712B093481210924D1210924E1210929B
:104A80004F121092501280E29EE4A0E0B0E08093BA
:104A9000851290938612A0938712B0938812109279
:104AA000351210923612109237121092381280E09E
:104AB00090E0A0EAB1E48093411290934212A09357
:104AC0004312B09344128DEC9CECACECBEE38093AB
:104AD0003D1290933E12A0933F12B093401280E09B
:104AE00090E0A0EAB0E48093391290933A12A09338
:104AF0003B12B0933C1210928E0A10928F0A1092C1
:104B0000900A1092910A10928A0A10928B0A1092BF
:104B10008C0A10928D0A1092860A1092870A1092BF
:104B2000880A1092890A80E090E0A0E2B1E48093C4
:104B3000630290936402A0936502B093660260E002
:104B400070E080E290E40E946A8960935F02709353
:104B50006002809361029093620260E070E088ECF2
:104B600092E40E94768960935B0270935C0280936A
:104B70005D0290935E020E946B8080E090E0A0E86E
:104B8000BFE38093570290935802A0935902B093C9
:104B90005A0280EB94E090934A02809349029093EA
:104BA0004C0280934B0282EE94E090934E028093ED
:104BB0004D0284E680936F0210922D1580E090E004
:104BC000A0E9B0E480931B0290931C02A0931D0205
:104BD000B0931E0280E090E8ABEBB4E48093170240
:104BE00090931802A0931902B0931A02EBE6F5E035
:104BF0008491882341F09091C00095FFFCCF809371
:104C0000C6003196F5CFE2E5F3E08491882341F0C8
:104C10009091C00095FFFCCF8093C6003196F5CFF0
:104C20008091C00085FFFCCF8AE08093C600E096AB
:104C30000FB6F894DEBF0FBECDBFDF91CF911F91AD
:104C40000F91FF90EF90DF90CF90BF90AF900895BD
:104C5000CF93DF93CDB7DEB766970FB6F894DEBF7C
:104C60000FBECDBF84E690E09E8B8D8B86E591E3F1
:104C7000A1E3B0E089839A83AB83BC8344E0BE01A7
:104C80006B5F7F4FCE01459675DA43E050E0BE0181
:104C90006B5F7F4FCE0101960E9464D4892B09F08F
:104CA000C8C040E165E672E1CE01459663DA40E1B5
:104CB00065E772E1CE0145965DDA40E161E572E1BA
:104CC000CE01459657DA0E94FB6544E069E472E143
:104CD000CE0145964FDA44E065E472E1CE01459697
:104CE00049DA44E06DE472E1CE01459643DA44E0EE
:104CF00065E372E1CE0145963DDA44E065E872E194
:104D0000CE01459637DA44E061E472E1CE01459682
:104D100031DA44E06DE372E1CE0145962BDA44E0EE
:104D200069E372E1CE01459625DA4CE066E87AE067
:104D3000CE0145961FDA42E0BE016D5E7F4FCE0187
:104D4000459618DA42E0BE016F5E7F4FCE01459670
:104D500011DA42E0BE01615F7F4FCE0145960ADA6B
:104D600042E0BE01635F7F4FCE01459603DA42E029
:104D7000BE01655F7F4FCE014596FCD942E0BE0182
:104D8000675F7F4FCE014596F5D944E063E672E058
:104D9000CE014596EFD944E06FE572E0CE0145962D
:104DA000E9D944E06BE572E0CE014596E3D946E0EF
:104DB00069E472E0CE014596DDD941E06FE672E02C
:104DC000CE014596D7D941E06DE275E1CE01459619
:104DD000D1D944E06BE172E0CE014596CBD944E0F5
:104DE00067E172E0CE014596C5D90E946B80EBE683
:104DF000F5E08491882341F09091C00095FFFCCFAD
:104E00008093C6003196F5CFE9E7F3E084918823DB
:104E100041F09091C00095FFFCCF8093C600319681
:104E2000F5CF8091C00085FFFCCF8AE08093C6005B
:104E300001C09BDD43E050E064E773E0CE010196E2
:104E40000E94FAD3892B51F488EB90E09E8B8D8BD6
:104E50004CE066E87AE0CE0145968CD9C1DA6696D8
:104E60000FB6F894DEBF0FBECDBFDF91CF9108958E
:104E70009091C00095FFFCCF8093C6000895CF931A
:104E8000DF93EC01CE01FE012491222329F021962B
:104E9000FC018491EDDFF6CFDF91CF910895982F3B
:104EA0009770906490937C0097E990937A00887053
:104EB00080937B0080917A00806480937A00809157
:104EC0007A0086FDFCCF80917800D2DF8091790056
:104ED000CFCF0F931F93CF93DF93EC018881813461
:104EE00009F09AC0CE0101960E9460D38C0160E265
:104EF00070E0CE010E9452D4009731F0FC01218174
:104F0000332727FD309502C02FEF3FEF0732110501
:104F100008F07CC0F801EE58FF4F0C9484D082E971
:104F200095E076C037FD75C021B973C037FD71C0FB
:104F300024B96FC037FD6DC027B96BC037FD69C09C
:104F40002AB967C037FD65C02DB963C037FD61C0A0
:104F500023BB5FC037FD5DC0209301015AC037FD00
:104F600058C02093040155C037FD53C028632093D7
:104F70000A014FC037FF22B980B103C037FF25B9FE
:104F800083B176DF46C037FF28B986B1FACF37FF45
:104F90002BB989B1F6CF37FF2EB98CB1F2CF37FFDD
:104FA00024BB82B3EECF37FF209302018091000132
:104FB000E8CF37FF2093050180910301E2CF37FF4F
:104FC00020930B0180910901DCCF80E01DC081E0BE
:104FD0001BC082E019C083E017C084E015C085E0E3
:104FE00013C086E011C087E00FC088E00DC089E0E3
:104FF0000BC08AE009C08BE007C08CE005C08DE0E3
:1050000003C08EE001C08FE04ADF03C080E995E075
:1050100036DF8DE895E00CC0882379F08BE795E0CA
:105020002EDF8991882311F023DFFBCF88E795E0FD
:10503000DF91CF911F910F9122CFDF91CF911F91DF
:105040000F910895CF93DF93CDB7DEB7A0970FB63A
:10505000F894DEBF0FBECDBFF8941092800010927E
:10506000B000109290001092A0001CBC1092BC00E6
:1050700081E795E004DF10E00E947AC88091C000CB
:1050800087FFFACF2091C600812F90E0E1E0F0E0A9
:10509000EC0FFD1FE80FF91F2A3011F02D3029F415
:1050A0001082CE01019615DFE6CF20831F5FE4CF8B
:1050B00045E15AEB64E276E280E097E00E94FED69A
:1050C0004091410450914204609143047091440422
:1050D00084E097E00E94FED640913D0450913E044A
:1050E00060913F047091400488E097E00E94FED6F2
:1050F0004091390450913A0460913B0470913C0412
:105100008CE097E00E94FED6409135045091360421
:10511000609137047091380480E197E00E94FED6D8
:105120004091310450913204609133047091340401
:1051300084E197E00E94FED640912D0450912E0408
:1051400060912F047091300488E197E00C94FED6B2
:105150000F931F930E9477C9609355047093560470
:1051600080935704909358048B019C01005811417F
:10517000294C3F4F00934D0410934E0420934F044D
:1051800030935004DC01CB01805A9541AF4FBF4FA3
:105190008093510490935204A0935304B093540409
:1051A00010922C0480919E0A90919F0AA091A00ACF
:1051B000B091A10A8093490490934A04A0934B04B0
:1051C000B0934C0480E097E00E94DDD665317A4BC5
:1051D0008442964209F049C084E097E00E94DDD6FF
:1051E0006093410470934204809343049093440479
:1051F00088E097E00E94DDD660933D0470933E0402
:1052000080933F04909340048CE097E00E94DDD6A9
:105210006093390470933A0480933B0490933C0468
:1052200080E197E00E94DDD66093350470933604E8
:10523000809337049093380484E197E00E94DDD690
:105240006093310470933204809333049093340458
:1052500088E197E00E94DDD660932D0470932E04C0
:1052600080932F049093300430C010924104109228
:105270004204109243041092440410923D04109290
:105280003E0410923F041092400410923904109290
:105290003A0410923B0410923C0410923504109290
:1052A0003604109237041092380410923104109290
:1052B0003204109233041092340410922D04109290
:1052C0002E0410922F04109230041F910F91089514
:1052D0002F923F924F925F926F927F928F929F9206
:1052E000AF92BF92CF92DF92EF92FF920F931F93F4
:1052F000CF93DF93CDB7DEB72C970FB6F894DEBF10
:105300000FBECDBF0E9477C94B015C018091510453
:1053100090915204A0915304B091540488159905BA
:10532000AA05BB0508F010C1805A9541AF4FBF4F89
:105330008093510490935204A0935304B093540467
:105340008091410490914204A0914304B09144049F
:105350000196A11DB11D8093410490934204A09336
:105360004304B09344048091350490913604A09195
:105370003704B09138040196A11DB11D8093350406
:1053800090933604A0933704B093380480912C0492
:10539000882309F4D9C080913D0490913E04A091E6
:1053A0003F04B09140040196A11DB11D80933D04BE
:1053B00090933E04A0933F04B09340048091310445
:1053C00090913204A0913304B09134040196A11D50
:1053D000B11D8093310490933204A0933304B093B1
:1053E000340480919E0A90919F0AA091A00AB091E6
:1053F000A10A89839A83AB83BC83209149043091AD
:105400004A0440914B0450914C04BC01CD010E94D0
:105410009FCB6B017C0120E030E0A9010E947CCE93
:1054200018166CF089819A81AB81BC818093490404
:1054300090934A04A0934B04B0934C0485C020E0A1
:1054400030E041EE54E4C701B6010E9479CC87FFF9
:10545000E9CFE091790A94E0E99FF0011124EF5936
:10546000FD4E2081318142815381C701B6010E94E6
:105470004ECF20914504309146044091470450910D
:1054800048040E94A0CB4090390450903A046090A8
:105490003B0470903C04C0902D04D0902E04E0900A
:1054A0002F04F09030048B011C014C185D086E082D
:1054B0007F08D301C2018C0D9D1DAE1DBF1D8987C4
:1054C0009A87AB87BC87D701C6010196A11DB11D84
:1054D0008D839E83AF83B88720E030E040E251E4C3
:1054E000B801C1010E947CCE18167CF420E030E0A7
:1054F00040E251E4B801C1010E949FCB8B011C0125
:10550000CD80DE80EF80F884D4CF89859A85AB8505
:10551000BC858093390490933A04A0933B04B093E4
:105520003C04C0922D04D0922E04E0922F04F092FD
:105530003004C801D1018093450490934604A093A0
:105540004704B09348046ECF80914D0490914E046F
:10555000A0914F04B091500488159905AA05BB0588
:1055600040F590E8890E9EEE991E96E3A91EB11CA7
:1055700080924D0490924E04A0924F04B092500439
:105580002C960FB6F894DEBF0FBECDBFDF91CF9142
:105590001F910F91FF90EF90DF90CF90BF90AF9051
:1055A0009F908F907F906F905F904F903F902F9043
:1055B0007FCD2C960FB6F894DEBF0FBECDBFDF9126
:1055C000CF911F910F91FF90EF90DF90CF90BF9000
:1055D000AF909F908F907F906F905F904F903F9093
:1055E0002F90089581E080932C0480919E0A9091E1
:1055F0009F0AA091A00AB091A10A809349049093B8
:105600004A04A0934B04B0934C04109245041092AA
:1056100046041092470410924804089510922C04F6
:1056200047CDFC01659175918591949108950F93F3
:105630001F93CF93DF93EC01CC0FDD1FCC0FDD1F49
:10564000CE018152954FEDDF8E010E56154FFE01B2
:10565000EA57F54F20813181428153810E94A0CBCE
:10566000F8016083718382839383CE018950954FC3
:10567000D8DFFE01E658F54F608371838283938300
:10568000CE018551954FCDDFC05EDD4F68837983B4
:105690008A839B83DF91CF911F910F910895FC0125
:1056A0002491222341F03091C00035FFFCCF20939C
:1056B000C6000196F4CF22E030E086EA9CE00C942C
:1056C0002C54FC012491222341F03091C00035FF7D
:1056D000FCCF2093C6000196F4CF2AE030E086EAA2
:1056E0009CE00C948253CF93DF931F921F92CDB70F
:1056F000DEB78091A11A9091A21A9E012F5F3F4FB1
:10570000009719F4275A3A4102C0281B390B3A83F3
:10571000298389819A810F900F90DF91CF9108950D
:105720008091750490917604181619069CF4809166
:10573000790490917A04019668E070E00E9433D079
:10574000909378048093770481E090E090937604BE
:105750008093750408952091750430917604283063
:1057600031050CF06AC0409177045091780460E6EE
:10577000649F9001659F300D1124BC01C9018D57B4
:105780009B4F0E945DD4E3E0FBE08491882341F0CD
:105790009091C00095FFFCCF8093C6003196F5CF65
:1057A000E9EBFAE08491882341F09091C00095FFE5
:1057B000FCCF8093C6003196F5CF8091770490910D
:1057C000780420E6289FF001299FF00D1124ED5761
:1057D000FB4F8191882339F09091C00095FFFCCF59
:1057E0008093C600F6CFE7EBFAE08491882341F07E
:1057F0009091C00095FFFCCF8093C6003196F5CF05
:105800008091C00085FFFCCF8AE08093C600809124
:10581000770490917804019668E070E00E9433D09C
:105820009093780480937704809175049091760426
:1058300001969093760480937504089520917504E1
:1058400030917604283031050CF06AC0409177041D
:105850005091780460E6649F9001659F300D11249B
:10586000BC01C9018D579B4F0E94D2D3E3E0FBE0FE
:105870008491882341F09091C00095FFFCCF8093E4
:10588000C6003196F5CFECEAFAE08491882341F026
:105890009091C00095FFFCCF8093C6003196F5CF64
:1058A000809177049091780420E6289FF001299F49
:1058B000F00D1124ED57FB4F8191882339F0909121
:1058C000C00095FFFCCF8093C600F6CFEAEAFAE06D
:1058D0008491882341F09091C00095FFFCCF809384
:1058E000C6003196F5CF8091C00085FFFCCF8AE0DD
:1058F0008093C6008091770490917804019668E0C7
:1059000070E00E9433D09093780480937704809164
:1059100075049091760401969093760480937504B3
:10592000089581E0209175043091760412161306D3
:105930000CF080E008958091750408950A9A1298F9
:105940000895FCDF40E052EC61E070E086EA9CE004
:105950000E944252E4EAFAE08491882341F0909157
:10596000C00095FFFCCF8093C6003196F5CF8091A3
:10597000C00085FFFCCF8AE08093C60083E09BE0F7
:10598000FC012491222341F03091C00035FFFCCF6F
:105990002093C6003196F5CF24B720FF14C0ECE960
:1059A000FAE03491332341F04091C00045FFFCCF31
:1059B0003093C6003196F5CF3091C00035FFFCCF53
:1059C0003AE03093C60021FF14C0ECE8FAE03491CD
:1059D000332341F04091C00045FFFCCF3093C60017
:1059E0003196F5CF3091C00035FFFCCF3AE03093CF
:1059F000C60022FF14C0EBE7FAE03491332341F0F4
:105A00004091C00045FFFCCF3093C6003196F5CFE2
:105A10003091C00035FFFCCF3AE03093C60023FF41
:105A200014C0EBE6FAE03491332341F04091C0001A
:105A300045FFFCCF3093C6003196F5CF3091C000C2
:105A400035FFFCCF3AE03093C60025FF14C0EBE5EC
:105A5000FAE02491222341F03091C00035FFFCCFC1
:105A60002093C6003196F5CF2091C00025FFFCCFD2
:105A70002AE02093C60014BEE3E5FAE02491222335
:105A800041F03091C00035FFFCCF2093C600319625
:105A9000F5CFEDE4FAE02491222341F03091C000EB
:105AA00035FFFCCF2093C6003196F5CF2091C00082
:105AB00025FFFCCF2AE02093C600FC012491E3E0FF
:105AC000FBE0222349F03091C00035FFFCCF20934A
:105AD000C60031962491F5CFEDE3FAE0249122231C
